{
  "contractName": "StandardToken",
  "abi": [
    {
      "constant": false,
      "inputs": [
        {
          "name": "_spender",
          "type": "address"
        },
        {
          "name": "_value",
          "type": "uint256"
        }
      ],
      "name": "approve",
      "outputs": [
        {
          "name": "success",
          "type": "bool"
        }
      ],
      "payable": false,
      "stateMutability": "nonpayable",
      "type": "function"
    },
    {
      "constant": true,
      "inputs": [],
      "name": "totalSupply",
      "outputs": [
        {
          "name": "",
          "type": "uint256"
        }
      ],
      "payable": false,
      "stateMutability": "view",
      "type": "function"
    },
    {
      "constant": false,
      "inputs": [
        {
          "name": "_from",
          "type": "address"
        },
        {
          "name": "_to",
          "type": "address"
        },
        {
          "name": "_value",
          "type": "uint256"
        }
      ],
      "name": "transferFrom",
      "outputs": [
        {
          "name": "success",
          "type": "bool"
        }
      ],
      "payable": false,
      "stateMutability": "nonpayable",
      "type": "function"
    },
    {
      "constant": true,
      "inputs": [
        {
          "name": "_owner",
          "type": "address"
        }
      ],
      "name": "balanceOf",
      "outputs": [
        {
          "name": "balance",
          "type": "uint256"
        }
      ],
      "payable": false,
      "stateMutability": "view",
      "type": "function"
    },
    {
      "constant": false,
      "inputs": [
        {
          "name": "_to",
          "type": "address"
        },
        {
          "name": "_value",
          "type": "uint256"
        }
      ],
      "name": "transfer",
      "outputs": [
        {
          "name": "success",
          "type": "bool"
        }
      ],
      "payable": false,
      "stateMutability": "nonpayable",
      "type": "function"
    },
    {
      "constant": true,
      "inputs": [
        {
          "name": "_owner",
          "type": "address"
        },
        {
          "name": "_spender",
          "type": "address"
        }
      ],
      "name": "allowance",
      "outputs": [
        {
          "name": "remaining",
          "type": "uint256"
        }
      ],
      "payable": false,
      "stateMutability": "view",
      "type": "function"
    },
    {
      "anonymous": false,
      "inputs": [
        {
          "indexed": true,
          "name": "_from",
          "type": "address"
        },
        {
          "indexed": true,
          "name": "_to",
          "type": "address"
        },
        {
          "indexed": false,
          "name": "_value",
          "type": "uint256"
        }
      ],
      "name": "Transfer",
      "type": "event"
    },
    {
      "anonymous": false,
      "inputs": [
        {
          "indexed": true,
          "name": "_owner",
          "type": "address"
        },
        {
          "indexed": true,
          "name": "_spender",
          "type": "address"
        },
        {
          "indexed": false,
          "name": "_value",
          "type": "uint256"
        }
      ],
      "name": "Approval",
      "type": "event"
    }
  ],
  "bytecode": "0x6060604052341561000f57600080fd5b6108658061001e6000396000f300606060405260043610610078576000357c0100000000000000000000000000000000000000000000000000000000900463ffffffff168063095ea7b31461007d57806318160ddd146100d757806323b872dd1461010057806370a0823114610179578063a9059cbb146101c6578063dd62ed3e14610220575b600080fd5b341561008857600080fd5b6100bd600480803573ffffffffffffffffffffffffffffffffffffffff1690602001909190803590602001909190505061028c565b604051808215151515815260200191505060405180910390f35b34156100e257600080fd5b6100ea61037e565b6040518082815260200191505060405180910390f35b341561010b57600080fd5b61015f600480803573ffffffffffffffffffffffffffffffffffffffff1690602001909190803573ffffffffffffffffffffffffffffffffffffffff16906020019091908035906020019091905050610384565b604051808215151515815260200191505060405180910390f35b341561018457600080fd5b6101b0600480803573ffffffffffffffffffffffffffffffffffffffff16906020019091905050610600565b6040518082815260200191505060405180910390f35b34156101d157600080fd5b610206600480803573ffffffffffffffffffffffffffffffffffffffff16906020019091908035906020019091905050610649565b604051808215151515815260200191505060405180910390f35b341561022b57600080fd5b610276600480803573ffffffffffffffffffffffffffffffffffffffff1690602001909190803573ffffffffffffffffffffffffffffffffffffffff169060200190919050506107b2565b6040518082815260200191505060405180910390f35b600081600260003373ffffffffffffffffffffffffffffffffffffffff1673ffffffffffffffffffffffffffffffffffffffff16815260200190815260200160002060008573ffffffffffffffffffffffffffffffffffffffff1673ffffffffffffffffffffffffffffffffffffffff168152602001908152602001600020819055508273ffffffffffffffffffffffffffffffffffffffff163373ffffffffffffffffffffffffffffffffffffffff167f8c5be1e5ebec7d5bd14f71427d1e84f3dd0314c0f7b2291e5b200ac8c7c3b925846040518082815260200191505060405180910390a36001905092915050565b60005481565b600081600160008673ffffffffffffffffffffffffffffffffffffffff1673ffffffffffffffffffffffffffffffffffffffff1681526020019081526020016000205410158015610451575081600260008673ffffffffffffffffffffffffffffffffffffffff1673ffffffffffffffffffffffffffffffffffffffff16815260200190815260200160002060003373ffffffffffffffffffffffffffffffffffffffff1673ffffffffffffffffffffffffffffffffffffffff1681526020019081526020016000205410155b801561045d5750600082115b156105f45781600160008573ffffffffffffffffffffffffffffffffffffffff1673ffffffffffffffffffffffffffffffffffffffff1681526020019081526020016000206000828254019250508190555081600160008673ffffffffffffffffffffffffffffffffffffffff1673ffffffffffffffffffffffffffffffffffffffff1681526020019081526020016000206000828254039250508190555081600260008673ffffffffffffffffffffffffffffffffffffffff1673ffffffffffffffffffffffffffffffffffffffff16815260200190815260200160002060003373ffffffffffffffffffffffffffffffffffffffff1673ffffffffffffffffffffffffffffffffffffffff168152602001908152602001600020600082825403925050819055508273ffffffffffffffffffffffffffffffffffffffff168473ffffffffffffffffffffffffffffffffffffffff167fddf252ad1be2c89b69c2b068fc378daa952ba7f163c4a11628f55a4df523b3ef846040518082815260200191505060405180910390a3600190506105f9565b600090505b9392505050565b6000600160008373ffffffffffffffffffffffffffffffffffffffff1673ffffffffffffffffffffffffffffffffffffffff168152602001908152602001600020549050919050565b600081600160003373ffffffffffffffffffffffffffffffffffffffff1673ffffffffffffffffffffffffffffffffffffffff168152602001908152602001600020541015801561069a5750600082115b156107a75781600160003373ffffffffffffffffffffffffffffffffffffffff1673ffffffffffffffffffffffffffffffffffffffff1681526020019081526020016000206000828254039250508190555081600160008573ffffffffffffffffffffffffffffffffffffffff1673ffffffffffffffffffffffffffffffffffffffff168152602001908152602001600020600082825401925050819055508273ffffffffffffffffffffffffffffffffffffffff163373ffffffffffffffffffffffffffffffffffffffff167fddf252ad1be2c89b69c2b068fc378daa952ba7f163c4a11628f55a4df523b3ef846040518082815260200191505060405180910390a3600190506107ac565b600090505b92915050565b6000600260008473ffffffffffffffffffffffffffffffffffffffff1673ffffffffffffffffffffffffffffffffffffffff16815260200190815260200160002060008373ffffffffffffffffffffffffffffffffffffffff1673ffffffffffffffffffffffffffffffffffffffff168152602001908152602001600020549050929150505600a165627a7a723058206b8125221fcf2e4fa7227bdc25c2ffd8b8e2e9aac4787d46748207ea18ce8dc70029",
  "source": "pragma solidity ^0.4.2;\n\n/*\n\n//- 2 PXL released per hour per property if set to \"Public Use\"\n//    - 1 allocated for owner\n//    - 1 allocated for contributor\n//    - if there is no owner, contributor gets both\n//    - if no contributor or owner (AKA, first pixel set ever for each property), get get both cuts\n//- 0 PXL released to \"Private Use\"\n  //  - Pay 2 PXL to us devs per hour for using Private Use\n//- Setting colour free at start\n//- Trade offers are a 1-per-user thing.\n//- Trade orders can be made. User ABC's \"I have 1k PXL, I want 0.1 ETH\" vs \"I ha ve 0.2 ETH, I want 2.5k PXL\"\n- Properties in \"Public Use\" have the last-color changers hover text get shown, while \"Private\" has the owners hover text shown\n- PropertyOffers can be made. \"I offer 1000 PXL for propertyID 20\". \n- Owners can \"AcceptOffer(offers[otherOwner][pixelID])\"\n- Update GetPropertyData\n*/\n\ncontract Token {\n    uint256 public totalSupply;\n    function balanceOf(address _owner) public constant returns (uint256 balance);\n    function transfer(address _to, uint256 _value) public returns (bool success);\n    function transferFrom(address _from, address _to, uint256 _value) public returns (bool success);\n    function approve(address _spender, uint256 _value) public returns (bool success);\n    function allowance(address _owner, address _spender) public constant returns (uint256 remaining);\n    event Transfer(address indexed _from, address indexed _to, uint256 _value);\n    event Approval(address indexed _owner, address indexed _spender, uint256 _value);\n}\n\n\n/*  ERC 20 token */\ncontract StandardToken is Token {\n\n    function transfer(address _to, uint256 _value) public returns (bool success) {\n      if (balances[msg.sender] >= _value && _value > 0) {\n        balances[msg.sender] -= _value;\n        balances[_to] += _value;\n        Transfer(msg.sender, _to, _value);\n        return true;\n      } else {\n        return false;\n      }\n    }\n\n    function transferFrom(address _from, address _to, uint256 _value) public returns (bool success) {\n      if (balances[_from] >= _value && allowed[_from][msg.sender] >= _value && _value > 0) {\n        balances[_to] += _value;\n        balances[_from] -= _value;\n        allowed[_from][msg.sender] -= _value;\n        Transfer(_from, _to, _value);\n        return true;\n      } else {\n        return false;\n      }\n    }\n\n    function balanceOf(address _owner) public constant returns (uint256 balance) {\n        return balances[_owner];\n    }\n\n    function approve(address _spender, uint256 _value) public returns (bool success) {\n        allowed[msg.sender][_spender] = _value;\n        Approval(msg.sender, _spender, _value);\n        return true;\n    }\n\n    function allowance(address _owner, address _spender) public constant returns (uint256 remaining) {\n      return allowed[_owner][_spender];\n    }\n\n    mapping (address => uint256) balances;\n    mapping (address => mapping (address => uint256)) allowed;\n}\n\ncontract VirtualRealEstate is StandardToken {\n    address owner;\n    uint256 ownerEth = 0;\n    \n    uint256 pixelPot;\n    \n    //Mapping of propertyID to property\n    mapping (uint24 => Property) map;\n    //propertyOwner to link\n    mapping (address => bytes32[2]) ownerLink;\n    //propertyRenter to link\n    mapping (address => bytes32[2]) ownerHoverText;\n    //trade offers\n    mapping (address => TradeOffer) pxlTradeStatus;\n    \n    uint128 DEFAULT_PRICE_INCREMENTATION_INCREMENTATION = 100000000000000; //0.0001\n    uint128 DEFAULT_PRICE_INCREMENTATION = 500000000000000; //0.0005\n    uint128 DEFAULT_PRICE = 10000000000000000; //0.01 ETH\n    \n    uint128 USER_BUY_CUT_PERCENT = 98; //%\n    \n    uint256 BUYABLE_AS_OF_DATE;\n    \n    uint256 PROPERTY_GENERATES_PER_HOUR = 2;\n    uint256 FREE_COLOR_SETTING_UNTIL;\n    \n    event PropertyColorUpdate(uint24 indexed property, uint256[10] colors, address propertyOwnerPayee, address lastUpdaterPayee);\n    event PropertyColorUpdatePixel(uint24 indexed property, uint8 row, uint24 rgb);\n    event PropertyBought(uint24 indexed property,  address newOwner);\n    event SetUserHoverText(address indexed user, bytes32[2] newHoverText);\n    event SetUserSetLink(address indexed user, bytes32[2] newLink);\n    event PropertySetForSale(uint24 indexed property);\n    event DelistProperty(uint24 indexed propertyID);\n    event ListTradeOffer(address indexed offerOwner, uint256 eth, uint256 pxl, bool isBuyingPxl);\n    event AcceptTradeOffer(address indexed accepter, address indexed offerOwner);\n    event CancelTradeOffer(address indexed offerOwner);\n    event SetPropertyPublic(uint24 indexed property);\n    event SetPropertyPrivate(uint24 indexed property, uint32 numHoursPrivate);\n    \n    struct TradeOffer {\n        uint256 eth;\n        uint256 pxl;\n        bool buyingPxl;\n    }\n    \n    struct Property {\n        address owner;\n        uint256[10] colors; //10x10 rgb pixel colors per property\n        uint128 salePrice;\n        address lastUpdater;\n        bool isInPrivateMode;\n        uint256 lastUpdate;\n        uint256 becomePublic;\n    }\n    \n    modifier ownerOnly() {\n        require(owner == msg.sender);\n        _;\n    }\n    \n    modifier validPropertyID(uint24 propertyID) {\n        if (propertyID < 10000) {\n            _;\n        }\n    }\n    \n    function VirtualRealEstate() public {\n        owner = msg.sender;\n        BUYABLE_AS_OF_DATE = now + 7 days;\n        totalSupply = 0;\n        FREE_COLOR_SETTING_UNTIL = now + 3 days;\n    }\n    function setHoverText(bytes32[2] text) public {\n        ownerHoverText[msg.sender] = text;\n        SetUserHoverText(msg.sender, text);\n    }\n    function setLink(bytes32[2] link) public {\n        ownerLink[msg.sender] = link;\n        SetUserSetLink(msg.sender, link);\n    }\n    \n    function getForSalePrice(uint24 propertyID) public validPropertyID(propertyID) view returns(uint128) {\n        Property storage property = map[propertyID];\n        require(property.salePrice != 0);\n        return property.salePrice;\n    }\n    function getHoverText(uint24 propertyID) public validPropertyID(propertyID) view returns(bytes32[2]) {\n        Property storage property = map[propertyID];\n        \n        //Must have a owner or renter, and that owner/renter must have a short or long hover text\n        require(property.owner != 0);\n        \n        return ownerHoverText[property.owner];\n    }\n    \n    function getLink(uint24 propertyID) public validPropertyID(propertyID) view returns(bytes32[2]) {\n        Property storage property = map[propertyID];\n        //Must have a owner or renter, and that owner/renter must have a short or long hover text\n        require(property.owner != 0);\n        \n        return ownerLink[property.owner];\n    }\n    \n    function getPropertyColors(uint24 propertyID) public validPropertyID(propertyID) view returns(uint256[10]) {\n        return map[propertyID].colors;\n    }\n    \n    function getPropertyData(uint24 propertyID) public validPropertyID(propertyID) view returns(address, uint128, address, bool) {\n        Property storage property = map[propertyID];\n        return (property.owner, property.salePrice, property.lastUpdater, property.isInPrivateMode);\n    }\n    \n    //Change a 10x10 == 70 | 30 | 0 cost\n    function setColors(uint24 propertyID, uint256[10] newColors) public validPropertyID(propertyID) returns(bool) {\n        Property storage property = map[propertyID];\n        \n        //Cost 2 if no owner, 1 if owned\n        uint256 cost = property.owner != 0 ? 1 : 2;\n        \n        //If it's in private mode, we must be the owner, but it's free\n        if (property.isInPrivateMode) {\n            //If it's still privately owned\n            if (property.becomePublic > now) {\n                require(msg.sender == property.owner);\n                cost = 0;\n            }\n            //No long erin private mode, ran out\n            else {\n                property.isInPrivateMode = false;\n                property.becomePublic = 0;\n            }\n        } \n        //If we're in the first few days, setting the color is free\n        else if (now <= FREE_COLOR_SETTING_UNTIL) {\n            cost = 0;\n        }\n        \n        require(balances[msg.sender] >= cost);\n        \n        //If we're in Public Mode, payouts occur\n        \n        if (!property.isInPrivateMode && property.lastUpdate != 0) {\n            uint256 hoursSinceLastColorChange = (now - property.lastUpdate) / (1 seconds); //ERRORs on property.lastUpdate = 0\n            uint256 payout = hoursSinceLastColorChange * PROPERTY_GENERATES_PER_HOUR;\n    \n            if (payout > 0) {\n                address propertyOwnerPayee = property.owner;\n                address lastUpdaterPayee = property.lastUpdater;\n                if (propertyOwnerPayee == 0) {\n                    if (lastUpdaterPayee != 0) {\n                        propertyOwnerPayee = lastUpdaterPayee;\n                    }\n                }\n                //Payout half to ownerPayee and half to updaterPayee\n                if (propertyOwnerPayee != 0) {\n                    balances[propertyOwnerPayee] += payout / 2;\n                }\n                if (lastUpdaterPayee != 0) {\n                    balances[lastUpdaterPayee] += payout / 2;\n                }\n                totalSupply += payout;\n            }\n        }\n        \n        //Burn the coins from the sender\n        balances[msg.sender] -= cost; //Burn the coin to set the color\n        \n        property.colors = newColors;\n        property.lastUpdater = msg.sender;\n        property.lastUpdate = now;\n        \n        PropertyColorUpdate(propertyID, newColors, propertyOwnerPayee, lastUpdaterPayee);\n        \n        return true;\n    }\n    function setPropertyMode(uint24 propertyID, bool isInPrivateMode, uint32 numHoursPrivate) public validPropertyID(propertyID) {\n        Property storage property = map[propertyID];\n        require(msg.sender == property.owner);\n        if (isInPrivateMode) {\n            require(numHoursPrivate > 0);\n            require(balances[msg.sender] >= numHoursPrivate);\n            balances[msg.sender] -= numHoursPrivate;\n            property.becomePublic = now + (1 hours) * numHoursPrivate;\n        } else {\n            property.becomePublic = 0;\n        }\n        property.isInPrivateMode = isInPrivateMode;\n        \n        if (isInPrivateMode) {\n            SetPropertyPrivate(propertyID, numHoursPrivate);\n        } else {\n            SetPropertyPublic(propertyID);\n        }\n    }\n    function setBuyETHOffer(uint256 ethToBuy, uint256 offeredPxl) public {\n        //Require we have the pxl to offer\n        require(balances[msg.sender] >= offeredPxl);\n        require(ethToBuy > 0 && offeredPxl > 0);\n        \n        //Cancel old TradeOffer if present\n        cancelTradeOffer();\n        \n        //Set Offer\n        pxlTradeStatus[msg.sender].eth = ethToBuy;\n        pxlTradeStatus[msg.sender].pxl = offeredPxl;\n        pxlTradeStatus[msg.sender].buyingPxl = false;\n        \n        //Lose offered pxl\n        balances[msg.sender] -= offeredPxl;\n        \n        ListTradeOffer(msg.sender, ethToBuy, offeredPxl, false);\n    }\n    function setBuyPXLOffer(uint256 pxlToBuy, uint256 offeredEth) public payable {\n        //Require we have the eth to offer\n        require(msg.value >= offeredEth);\n        require(pxlToBuy > 0 && offeredEth > 0);\n        \n        //Cancel old TradeOffer if present\n        cancelTradeOffer();\n        \n        //Set Offer\n        TradeOffer storage tradeOffer = pxlTradeStatus[msg.sender];\n        tradeOffer.pxl = pxlToBuy;\n        tradeOffer.eth = offeredEth;\n        tradeOffer.buyingPxl = true;\n        \n        ListTradeOffer(msg.sender, offeredEth, pxlToBuy, true);\n    }\n    function cancelTradeOffer() public {\n        TradeOffer storage tradeOffer = pxlTradeStatus[msg.sender];\n        //If we have a trade offer\n        if (tradeOffer.eth > 0 && tradeOffer.pxl > 0) {\n            //We already deposited ETH. Return it back\n            if (tradeOffer.buyingPxl) {\n                msg.sender.transfer(tradeOffer.eth);\n            }\n            //We already deposited PXL. Return it back\n            else {\n                balances[msg.sender] += tradeOffer.pxl;\n            }\n            CancelTradeOffer(msg.sender);\n        }\n    }\n    function acceptOfferBuyingETH(address ownerOfTradeOffer) public payable {\n        TradeOffer storage tradeOffer = pxlTradeStatus[ownerOfTradeOffer];\n        //Make sure the accepter has enough to justify accepting\n        require(tradeOffer.eth <= msg.value);\n        require(ownerOfTradeOffer != 0);\n        \n        //Give them our money. We are deposited it by this being \"payable\"\n        ownerOfTradeOffer.transfer(msg.value);\n        \n        //Take their money. They already deposited their coins\n        balances[msg.sender] += tradeOffer.pxl;\n        \n        //Clear trade offer\n        tradeOffer.eth = 0;\n        tradeOffer.pxl = 0;\n        \n        AcceptTradeOffer(msg.sender, ownerOfTradeOffer);\n    }\n    function acceptOfferBuyingPXL(address ownerOfTradeOffer) public {\n        TradeOffer storage tradeOffer = pxlTradeStatus[ownerOfTradeOffer];\n        //Make sure the accepter has enough to justify accepting\n        require(tradeOffer.pxl <= balances[msg.sender]);\n        require(ownerOfTradeOffer != 0);\n        \n        //Give them our money\n        balances[ownerOfTradeOffer] += tradeOffer.pxl;\n        balances[msg.sender] -= tradeOffer.pxl;\n        \n        //Take their money. They already deposited ETH\n        msg.sender.transfer(tradeOffer.eth);\n        \n        //Clear trade offer\n        tradeOffer.eth = 0;\n        tradeOffer.pxl = 0;\n        \n        AcceptTradeOffer(msg.sender, ownerOfTradeOffer);\n    }\n    \n    //Change pixel or 10x1 costs 7 | 3 | 0\n    function setRowColors(uint24 propertyID, uint8 row, uint24 newColorData) public validPropertyID(propertyID) returns(bool) {\n        Property storage property = map[propertyID];\n        \n        require(row >= 0 && row <= 9);\n        \n        uint256 cost = property.owner != 0 ? 1 : 2;\n        \n        if (property.isInPrivateMode) {\n                require(msg.sender == property.owner);\n                cost = 0;\n        } \n        \n        require(balances[msg.sender] >= cost);\n        \n        balances[msg.sender] -= cost; //Burn the coin to set the color\n        \n        property.colors[row] = newColorData;\n        property.lastUpdater = msg.sender;\n        PropertyColorUpdatePixel(propertyID, row, newColorData);\n        \n        return true;\n    }\n    \n    function transferProperty(uint24 propertyID, address newOwner) public validPropertyID(propertyID) returns(bool) {\n        Property storage property = map[propertyID];\n        \n        require(property.owner == msg.sender);\n        require(newOwner != 0);\n        \n        property.owner = newOwner;\n        \n        return true;\n    }\n    \n    //Use Case: Buyer wants to buy a property\n    function buyProperty(uint24 propertyID) public validPropertyID(propertyID) payable returns(bool) {\n        require(now >= BUYABLE_AS_OF_DATE);\n        \n        Property storage property = map[propertyID];\n        \n        //If this is the first ever purchase, the property hasn't been made yet, property.owner is just default\n        if (property.owner == 0) {\n            property.owner = owner;\n            property.salePrice = DEFAULT_PRICE;\n            DEFAULT_PRICE += DEFAULT_PRICE_INCREMENTATION;\n            DEFAULT_PRICE_INCREMENTATION += DEFAULT_PRICE_INCREMENTATION_INCREMENTATION;\n        }\n      \n        require(property.salePrice != 0);//property must be for sale\n        require(msg.value >= property.salePrice);//Amount paid must be at least the price\n      \n        //User gets the majority of the listed price's sale\n        uint128 amountTransfered = 0;\n        \n        //If there is someone to get paid, they get the purchase. Otherwise, the contract gets it as initial purchase payment\n        if (property.owner != 0) {\n            amountTransfered = property.salePrice * USER_BUY_CUT_PERCENT / 100;\n            property.owner.transfer(amountTransfered);\n        }\n        \n        property.salePrice = 0;\n        property.owner = msg.sender;\n        property.isInPrivateMode = false;\n        \n        ownerEth += msg.value - amountTransfered;\n        \n        PropertyBought(propertyID, property.owner);\n        \n        return true;\n    }\n    \n    //Use Case: Owner of a property lists for sale at a given price\n    function listForSale(uint24 propertyID, uint128 price ) public validPropertyID(propertyID) returns(bool) {\n        Property storage property = map[propertyID];\n      \n        require(price != 0);\n      \n        require(msg.sender == property.owner); //Must be the owner\n        //You can listForSale an already listed item to update the listing\n        property.salePrice = price;\n        \n        PropertySetForSale(propertyID);\n        \n        return true;\n    }\n    \n    //Use Case: Owner of a property delists from both renting offer and sale offer\n    function delist(uint24 propertyID) public validPropertyID(propertyID) returns(bool) {\n        Property storage property = map[propertyID];\n        \n        require(msg.sender == property.owner); //Must be the owner\n        \n        property.salePrice = 0;\n        \n        DelistProperty(propertyID);\n        \n        return true;\n    }\n    \n    //////////////////////////////////////////////////////\n    ////Owner Sections: Meta-Functions For Owner only/////\n    //////////////////////////////////////////////////////\n    function withdraw(uint256 amount) public ownerOnly() {\n        if (amount <= ownerEth) {\n            owner.transfer(amount);\n        }\n    }\n    \n    function withdrawAll() public ownerOnly() {\n        owner.transfer(ownerEth);\n    }\n    \n    function changeOwners(address newOwner) public ownerOnly() {\n        owner = newOwner;\n    }\n    \n    function changeDefaultPrice(uint128 defaultPrice) public ownerOnly() {\n        DEFAULT_PRICE = defaultPrice;\n    }\n}",
  "sourcePath": "/Users/carsonroscoe/Documents/Github/PixelRealEstate/contracts/VirtualRealEstate.sol",
  "compiler": {
    "name": "solc",
    "version": "0.4.18+commit.9cf6e910.Emscripten.clang"
  },
  "schemaVersion": "1.0.1",
  "updatedAt": "2018-01-16T03:30:52.587Z"
}