{
  "contractName": "StandardToken",
  "abi": [
    {
      "constant": false,
      "inputs": [
        {
          "name": "_spender",
          "type": "address"
        },
        {
          "name": "_value",
          "type": "uint256"
        }
      ],
      "name": "approve",
      "outputs": [
        {
          "name": "success",
          "type": "bool"
        }
      ],
      "payable": false,
      "stateMutability": "nonpayable",
      "type": "function"
    },
    {
      "constant": true,
      "inputs": [],
      "name": "totalSupply",
      "outputs": [
        {
          "name": "",
          "type": "uint256"
        }
      ],
      "payable": false,
      "stateMutability": "view",
      "type": "function"
    },
    {
      "constant": false,
      "inputs": [
        {
          "name": "_from",
          "type": "address"
        },
        {
          "name": "_to",
          "type": "address"
        },
        {
          "name": "_value",
          "type": "uint256"
        }
      ],
      "name": "transferFrom",
      "outputs": [
        {
          "name": "success",
          "type": "bool"
        }
      ],
      "payable": false,
      "stateMutability": "nonpayable",
      "type": "function"
    },
    {
      "constant": true,
      "inputs": [
        {
          "name": "_owner",
          "type": "address"
        }
      ],
      "name": "balanceOf",
      "outputs": [
        {
          "name": "balance",
          "type": "uint256"
        }
      ],
      "payable": false,
      "stateMutability": "view",
      "type": "function"
    },
    {
      "constant": false,
      "inputs": [
        {
          "name": "_to",
          "type": "address"
        },
        {
          "name": "_value",
          "type": "uint256"
        }
      ],
      "name": "transfer",
      "outputs": [
        {
          "name": "success",
          "type": "bool"
        }
      ],
      "payable": false,
      "stateMutability": "nonpayable",
      "type": "function"
    },
    {
      "constant": true,
      "inputs": [
        {
          "name": "_owner",
          "type": "address"
        },
        {
          "name": "_spender",
          "type": "address"
        }
      ],
      "name": "allowance",
      "outputs": [
        {
          "name": "remaining",
          "type": "uint256"
        }
      ],
      "payable": false,
      "stateMutability": "view",
      "type": "function"
    },
    {
      "anonymous": false,
      "inputs": [
        {
          "indexed": true,
          "name": "_from",
          "type": "address"
        },
        {
          "indexed": true,
          "name": "_to",
          "type": "address"
        },
        {
          "indexed": false,
          "name": "_value",
          "type": "uint256"
        }
      ],
      "name": "Transfer",
      "type": "event"
    },
    {
      "anonymous": false,
      "inputs": [
        {
          "indexed": true,
          "name": "_owner",
          "type": "address"
        },
        {
          "indexed": true,
          "name": "_spender",
          "type": "address"
        },
        {
          "indexed": false,
          "name": "_value",
          "type": "uint256"
        }
      ],
      "name": "Approval",
      "type": "event"
    }
  ],
  "bytecode": "0x6060604052341561000f57600080fd5b6108658061001e6000396000f300606060405260043610610078576000357c0100000000000000000000000000000000000000000000000000000000900463ffffffff168063095ea7b31461007d57806318160ddd146100d757806323b872dd1461010057806370a0823114610179578063a9059cbb146101c6578063dd62ed3e14610220575b600080fd5b341561008857600080fd5b6100bd600480803573ffffffffffffffffffffffffffffffffffffffff1690602001909190803590602001909190505061028c565b604051808215151515815260200191505060405180910390f35b34156100e257600080fd5b6100ea61037e565b6040518082815260200191505060405180910390f35b341561010b57600080fd5b61015f600480803573ffffffffffffffffffffffffffffffffffffffff1690602001909190803573ffffffffffffffffffffffffffffffffffffffff16906020019091908035906020019091905050610384565b604051808215151515815260200191505060405180910390f35b341561018457600080fd5b6101b0600480803573ffffffffffffffffffffffffffffffffffffffff16906020019091905050610600565b6040518082815260200191505060405180910390f35b34156101d157600080fd5b610206600480803573ffffffffffffffffffffffffffffffffffffffff16906020019091908035906020019091905050610649565b604051808215151515815260200191505060405180910390f35b341561022b57600080fd5b610276600480803573ffffffffffffffffffffffffffffffffffffffff1690602001909190803573ffffffffffffffffffffffffffffffffffffffff169060200190919050506107b2565b6040518082815260200191505060405180910390f35b600081600260003373ffffffffffffffffffffffffffffffffffffffff1673ffffffffffffffffffffffffffffffffffffffff16815260200190815260200160002060008573ffffffffffffffffffffffffffffffffffffffff1673ffffffffffffffffffffffffffffffffffffffff168152602001908152602001600020819055508273ffffffffffffffffffffffffffffffffffffffff163373ffffffffffffffffffffffffffffffffffffffff167f8c5be1e5ebec7d5bd14f71427d1e84f3dd0314c0f7b2291e5b200ac8c7c3b925846040518082815260200191505060405180910390a36001905092915050565b60005481565b600081600160008673ffffffffffffffffffffffffffffffffffffffff1673ffffffffffffffffffffffffffffffffffffffff1681526020019081526020016000205410158015610451575081600260008673ffffffffffffffffffffffffffffffffffffffff1673ffffffffffffffffffffffffffffffffffffffff16815260200190815260200160002060003373ffffffffffffffffffffffffffffffffffffffff1673ffffffffffffffffffffffffffffffffffffffff1681526020019081526020016000205410155b801561045d5750600082115b156105f45781600160008573ffffffffffffffffffffffffffffffffffffffff1673ffffffffffffffffffffffffffffffffffffffff1681526020019081526020016000206000828254019250508190555081600160008673ffffffffffffffffffffffffffffffffffffffff1673ffffffffffffffffffffffffffffffffffffffff1681526020019081526020016000206000828254039250508190555081600260008673ffffffffffffffffffffffffffffffffffffffff1673ffffffffffffffffffffffffffffffffffffffff16815260200190815260200160002060003373ffffffffffffffffffffffffffffffffffffffff1673ffffffffffffffffffffffffffffffffffffffff168152602001908152602001600020600082825403925050819055508273ffffffffffffffffffffffffffffffffffffffff168473ffffffffffffffffffffffffffffffffffffffff167fddf252ad1be2c89b69c2b068fc378daa952ba7f163c4a11628f55a4df523b3ef846040518082815260200191505060405180910390a3600190506105f9565b600090505b9392505050565b6000600160008373ffffffffffffffffffffffffffffffffffffffff1673ffffffffffffffffffffffffffffffffffffffff168152602001908152602001600020549050919050565b600081600160003373ffffffffffffffffffffffffffffffffffffffff1673ffffffffffffffffffffffffffffffffffffffff168152602001908152602001600020541015801561069a5750600082115b156107a75781600160003373ffffffffffffffffffffffffffffffffffffffff1673ffffffffffffffffffffffffffffffffffffffff1681526020019081526020016000206000828254039250508190555081600160008573ffffffffffffffffffffffffffffffffffffffff1673ffffffffffffffffffffffffffffffffffffffff168152602001908152602001600020600082825401925050819055508273ffffffffffffffffffffffffffffffffffffffff163373ffffffffffffffffffffffffffffffffffffffff167fddf252ad1be2c89b69c2b068fc378daa952ba7f163c4a11628f55a4df523b3ef846040518082815260200191505060405180910390a3600190506107ac565b600090505b92915050565b6000600260008473ffffffffffffffffffffffffffffffffffffffff1673ffffffffffffffffffffffffffffffffffffffff16815260200190815260200160002060008373ffffffffffffffffffffffffffffffffffffffff1673ffffffffffffffffffffffffffffffffffffffff168152602001908152602001600020549050929150505600a165627a7a7230582053240353d504d9ef674debd6a3054217088af876c74bb7bd597e737554c07de80029",
  "source": "pragma solidity ^0.4.2;\n\n\n/*\n- ethPrice, PPCPrice. \n\n!!!!!!!!!!!!!!!!!!!!!!!!!!!!!CHANGE TO PPC WHEN I GET PACK\n*/\n\ncontract Token {\n    uint256 public totalSupply;\n    function balanceOf(address _owner) public constant returns (uint256 balance);\n    function transfer(address _to, uint256 _value) public returns (bool success);\n    function transferFrom(address _from, address _to, uint256 _value) public returns (bool success);\n    function approve(address _spender, uint256 _value) public returns (bool success);\n    function allowance(address _owner, address _spender) public constant returns (uint256 remaining);\n    event Transfer(address indexed _from, address indexed _to, uint256 _value);\n    event Approval(address indexed _owner, address indexed _spender, uint256 _value);\n}\n/*  ERC 20 token */\ncontract StandardToken is Token {\n\n    function transfer(address _to, uint256 _value) public returns (bool success) {\n      if (balances[msg.sender] >= _value && _value > 0) {\n        balances[msg.sender] -= _value;\n        balances[_to] += _value;\n        Transfer(msg.sender, _to, _value);\n        return true;\n      } else {\n        return false;\n      }\n    }\n\n    function transferFrom(address _from, address _to, uint256 _value) public returns (bool success) {\n      if (balances[_from] >= _value && allowed[_from][msg.sender] >= _value && _value > 0) {\n        balances[_to] += _value;\n        balances[_from] -= _value;\n        allowed[_from][msg.sender] -= _value;\n        Transfer(_from, _to, _value);\n        return true;\n      } else {\n        return false;\n      }\n    }\n\n    function balanceOf(address _owner) public constant returns (uint256 balance) {\n        return balances[_owner];\n    }\n\n    function approve(address _spender, uint256 _value) public returns (bool success) {\n        allowed[msg.sender][_spender] = _value;\n        Approval(msg.sender, _spender, _value);\n        return true;\n    }\n\n    function allowance(address _owner, address _spender) public constant returns (uint256 remaining) {\n      return allowed[_owner][_spender];\n    }\n\n    mapping (address => uint256) balances;\n    mapping (address => mapping (address => uint256)) allowed;\n}\n\ncontract VirtualRealEstate is StandardToken {\n    address owner;\n    uint256 ownerEth = 0;\n    \n    uint256 pixelPot;\n    \n    //Mapping of propertyID to property\n    mapping (uint24 => Property) map;\n    //propertyOwner to link\n    mapping (address => bytes32[2]) ownerLink;\n    //propertyRenter to link\n    mapping (address => bytes32[2]) ownerHoverText;\n    //trade offers\n    mapping (address => TradeOffer) ppcTradeStatus;\n    \n    uint256 priceETH;\n    uint256 PRICE_ETH_MIN_INCREASE = 1000;//10000000000000000000000; //0.0001 ETH\n    uint256 PRICE_ETH_MIN_PERCENT = 20; //0.0001 ETH\n    uint256 pricePPC;\n    uint256 PRICE_PPC_MIN_INCREASE = 10;\n    uint256 PRICE_PPC_MIN_PERCENT = 20;\n    \n    uint256 USER_BUY_CUT_PERCENT = 98; //%\n    \n    uint256 PROPERTY_GENERATES_PER_HOUR = 2;\n    uint256 FREE_COLOR_SETTING_UNTIL;\n    \n    event PropertyColorUpdate(uint24 indexed property, uint256[10] colors, uint256 lastUpdate, address lastUpdaterPayee);\n    event PropertyColorUpdatePixel(uint24 indexed property, uint8 row, uint24 rgb);\n    event PropertyBought(uint24 indexed property,  address newOwner);\n    event SetUserHoverText(address indexed user, bytes32[2] newHoverText);\n    event SetUserSetLink(address indexed user, bytes32[2] newLink);\n    event PropertySetForSale(uint24 indexed property);\n    event DelistProperty(uint24 indexed property);\n    event ListTradeOffer(address indexed offerOwner, uint256 eth, uint256 ppc, bool isBuyingPPC);\n    event AcceptTradeOffer(address indexed accepter, address indexed offerOwner);\n    event CancelTradeOffer(address indexed offerOwner);\n    event SetPropertyPublic(uint24 indexed property);\n    event SetPropertyPrivate(uint24 indexed property, uint32 numHoursPrivate);\n    \n    struct TradeOffer {\n        uint256 eth;\n        uint256 ppc;\n        bool buyingPPC;\n    }\n    \n    struct Property {\n        address owner;\n        uint256[10] colors; //10x10 rgb pixel colors per property\n        uint256 salePrice;\n        address lastUpdater;\n        bool isInPrivateMode;\n        uint256 lastUpdate;\n        uint256 becomePublic;\n    }\n    \n    modifier ownerOnly() {\n        require(owner == msg.sender);\n        _;\n    }\n    \n    modifier validPropertyID(uint24 propertyID) {\n        if (propertyID < 10000) {\n            _;\n        }\n    }\n    \n    function VirtualRealEstate() public {\n        owner = msg.sender;\n        totalSupply = 0;\n        FREE_COLOR_SETTING_UNTIL = now + 1 days;\n        pricePPC = 10;\n        priceETH = 10000;//1000000000000000000; //0.001 ETH\n    }\n    function setHoverText(bytes32[2] text) public {\n        ownerHoverText[msg.sender] = text;\n        SetUserHoverText(msg.sender, text);\n    }\n    function setLink(bytes32[2] link) public {\n        ownerLink[msg.sender] = link;\n        SetUserSetLink(msg.sender, link);\n    }\n    function getForSalePrices(uint24 propertyID) public validPropertyID(propertyID) view returns(uint256, uint256) {\n        Property storage property = map[propertyID];\n        if (property.owner == 0) {\n            return (priceETH, pricePPC);\n        } else {\n            return (0, property.salePrice);\n        }\n    }\n    \n    function getHoverText(uint24 propertyID) public validPropertyID(propertyID) view returns(bytes32[2]) {\n        Property storage property = map[propertyID];\n        \n        //Must have a owner or renter, and that owner/renter must have a short or long hover text\n        if (property.isInPrivateMode) {\n            require(property.owner != 0);\n            return ownerHoverText[property.owner];\n        } else {\n            require(property.lastUpdater != 0);\n            return ownerHoverText[property.lastUpdater];\n        }\n    }\n    \n    function getLink(uint24 propertyID) public validPropertyID(propertyID) view returns(bytes32[2]) {\n        Property storage property = map[propertyID];\n        \n        //Must have a owner or renter, and that owner/renter must have a short or long hover text\n        if (property.isInPrivateMode) {\n            require(property.owner != 0);\n            return ownerLink[property.owner];\n        } else {\n            require(property.lastUpdater != 0);\n            return ownerLink[property.lastUpdater];\n        }\n    }\n    \n    function getPropertyColors(uint24 propertyID) public validPropertyID(propertyID) view returns(uint256[10]) {\n        return map[propertyID].colors;\n    }\n    \n    function getPropertyData(uint24 propertyID) public validPropertyID(propertyID) view returns(address, uint256, uint256, bool) {\n        Property storage property = map[propertyID];\n        return (property.owner, property.salePrice, property.lastUpdate, property.isInPrivateMode);\n    }\n    //Change a 10x10 == 70 | 30 | 0 cost\n    function setColors(uint24 propertyID, uint256[10] newColors) public validPropertyID(propertyID) returns(bool) {\n        Property storage property = map[propertyID];\n        \n        //Cost 2 if no owner, 1 if owned\n        uint256 cost = property.owner != 0 ? 1 : 2;\n        \n        //If it's in private mode, we must be the owner, but it's free\n        if (property.isInPrivateMode) {\n            //If it's still privately owned\n            if (property.becomePublic > now) {\n                require(msg.sender == property.owner);\n                cost = 0;\n            }\n            //No long erin private mode, ran out\n            else {\n                property.isInPrivateMode = false;\n                property.becomePublic = 0;\n            }\n        } \n        //If we're in the first few days, setting the color is free\n        else if (now <= FREE_COLOR_SETTING_UNTIL) {\n            cost = 0;\n        }\n        \n        require(balances[msg.sender] >= cost);\n        \n        //If we're in Public Mode, payouts occur\n        \n        if (!property.isInPrivateMode && property.lastUpdate != 0) {\n            uint256 hoursSinceLastColorChange = (now - property.lastUpdate) / (5 seconds); //ERRORs on property.lastUpdate = 0\n            uint256 payout = hoursSinceLastColorChange * PROPERTY_GENERATES_PER_HOUR;\n    \n            if (payout > 0) {\n                address propertyOwnerPayee = property.owner;\n                address lastUpdaterPayee = property.lastUpdater;\n                if (propertyOwnerPayee == 0) {\n                    if (lastUpdaterPayee != 0) {\n                        propertyOwnerPayee = lastUpdaterPayee;\n                    }\n                }\n                //Payout half to ownerPayee and half to updaterPayee\n                if (propertyOwnerPayee != 0) {\n                    balances[propertyOwnerPayee] += payout / 2;\n                }\n                if (lastUpdaterPayee != 0) {\n                    balances[lastUpdaterPayee] += payout / 2;\n                }\n                totalSupply += payout;\n            }\n        }\n        \n        //Burn the coins from the sender\n        balances[msg.sender] -= cost; //Burn the coin to set the color\n        \n        property.colors = newColors;\n        property.lastUpdater = msg.sender;\n        property.lastUpdate = now;\n        uint256 timeUpdate = now;\n        \n        PropertyColorUpdate(propertyID, newColors, timeUpdate, lastUpdaterPayee);\n        \n        return true;\n    }\n    function setPropertyMode(uint24 propertyID, bool isInPrivateMode, uint32 numHoursPrivate) public validPropertyID(propertyID) {\n        Property storage property = map[propertyID];\n        require(msg.sender == property.owner);\n        if (isInPrivateMode) {\n            require(numHoursPrivate > 0);\n            require(balances[msg.sender] >= numHoursPrivate);\n            balances[msg.sender] -= numHoursPrivate;\n            property.becomePublic = now + (1 seconds) * numHoursPrivate; //TODO: seconds to hours\n        } else {\n            property.becomePublic = 0;\n        }\n        property.isInPrivateMode = isInPrivateMode;\n        \n        if (isInPrivateMode) {\n            SetPropertyPrivate(propertyID, numHoursPrivate);\n        } else {\n            SetPropertyPublic(propertyID);\n        }\n    }\n    function setBuyETHOffer(uint256 ethToBuy, uint256 offeredPPC) public {\n        //Require we have the ppc to offer\n        require(balances[msg.sender] >= offeredPPC);\n        require(ethToBuy > 0 && offeredPPC > 0);\n        \n        //Cancel old TradeOffer if present\n        cancelTradeOffer();\n        \n        //Set Offer\n        ppcTradeStatus[msg.sender].eth = ethToBuy;\n        ppcTradeStatus[msg.sender].ppc = offeredPPC;\n        ppcTradeStatus[msg.sender].buyingPPC = false;\n        \n        //Lose offered ppc\n        balances[msg.sender] -= offeredPPC;\n        \n        ListTradeOffer(msg.sender, ethToBuy, offeredPPC, false);\n    }\n    \n    function getTradeOffer(address offerOwner) public view returns(uint256, uint256, bool) {\n        TradeOffer storage tradeOffer = ppcTradeStatus[offerOwner];\n        return (tradeOffer.eth, tradeOffer.ppc, tradeOffer.buyingPPC);\n    }\n    function setBuyPPCOffer(uint256 ppcToBuy, uint256 offeredEth) public payable {\n        //Require we have the eth to offer\n        require(msg.value >= offeredEth);\n        require(ppcToBuy > 0 && offeredEth > 0);\n        \n        //Cancel old TradeOffer if present\n        cancelTradeOffer();\n        \n        //Set Offer\n        TradeOffer storage tradeOffer = ppcTradeStatus[msg.sender];\n        tradeOffer.ppc = ppcToBuy;\n        tradeOffer.eth = offeredEth;\n        tradeOffer.buyingPPC = true;\n        \n        ListTradeOffer(msg.sender, offeredEth, ppcToBuy, true);\n    }\n    function cancelTradeOffer() public {\n        TradeOffer storage tradeOffer = ppcTradeStatus[msg.sender];\n        //If we have a trade offer\n        if (tradeOffer.eth > 0 || tradeOffer.ppc > 0) {\n            //We already deposited ETH. Return it back\n            if (tradeOffer.buyingPPC) {\n                msg.sender.transfer(tradeOffer.eth);\n            }\n            //We already deposited PPC. Return it back\n            else {\n                balances[msg.sender] += tradeOffer.ppc;\n            }\n            CancelTradeOffer(msg.sender);\n            tradeOffer.eth = 0;\n            tradeOffer.ppc = 0;\n        }\n    }\n    function acceptOfferBuyingETH(address ownerOfTradeOffer) public payable {\n        TradeOffer storage tradeOffer = ppcTradeStatus[ownerOfTradeOffer];\n        //Make sure the accepter has enough to justify accepting\n        require(tradeOffer.eth <= msg.value);\n        require(ownerOfTradeOffer != 0);\n        \n        //Give them our money. We are deposited it by this being \"payable\"\n        ownerOfTradeOffer.transfer(msg.value);\n        \n        //Take their money. They already deposited their coins\n        balances[msg.sender] += tradeOffer.ppc;\n        \n        //Clear trade offer\n        tradeOffer.eth = 0;\n        tradeOffer.ppc = 0;\n        \n        AcceptTradeOffer(msg.sender, ownerOfTradeOffer);\n    }\n    function acceptOfferBuyingPPC(address ownerOfTradeOffer) public {\n        TradeOffer storage tradeOffer = ppcTradeStatus[ownerOfTradeOffer];\n        //Make sure the accepter has enough to justify accepting\n        require(tradeOffer.ppc <= balances[msg.sender]);\n        require(ownerOfTradeOffer != 0);\n        \n        //Give them our money\n        balances[ownerOfTradeOffer] += tradeOffer.ppc;\n        balances[msg.sender] -= tradeOffer.ppc;\n        \n        //Take their money. They already deposited ETH\n        msg.sender.transfer(tradeOffer.eth);\n        \n        //Clear trade offer\n        tradeOffer.eth = 0;\n        tradeOffer.ppc = 0;\n        \n        AcceptTradeOffer(msg.sender, ownerOfTradeOffer);\n    }\n    \n    //Change pixel or 10x1 costs 7 | 3 | 0\n    function setRowColors(uint24 propertyID, uint8 row, uint24 newColorData) public validPropertyID(propertyID) returns(bool) {\n        Property storage property = map[propertyID];\n        \n        require(row >= 0 && row <= 9);\n        \n        uint256 cost = property.owner != 0 ? 1 : 2;\n        \n        if (property.isInPrivateMode) {\n                require(msg.sender == property.owner);\n                cost = 0;\n        } \n        \n        require(balances[msg.sender] >= cost);\n        \n        balances[msg.sender] -= cost; //Burn the coin to set the color\n        \n        property.colors[row] = newColorData;\n        property.lastUpdater = msg.sender;\n        PropertyColorUpdatePixel(propertyID, row, newColorData);\n        \n        return true;\n    }\n    \n    function transferProperty(uint24 propertyID, address newOwner) public validPropertyID(propertyID) returns(bool) {\n        Property storage property = map[propertyID];\n        \n        require(property.owner == msg.sender);\n        require(newOwner != 0);\n        \n        property.owner = newOwner;\n        \n        return true;\n    }\n    function buyPropertyInPPC(uint24 propertyID, uint256 ppcValue) public validPropertyID(propertyID) returns(bool) {\n        Property storage property = map[propertyID];\n        \n        //If they have no owner, do the PPC price and update it\n        if (property.owner == 0) {\n            property.salePrice = pricePPC;\n            property.owner = owner;\n            uint256 minPercent = pricePPC * PRICE_PPC_MIN_PERCENT / 100;\n            pricePPC += (minPercent < PRICE_PPC_MIN_INCREASE) ? minPercent : PRICE_PPC_MIN_INCREASE;\n        }\n        \n        require(property.salePrice <= ppcValue);\n        require(balances[msg.sender] >= property.salePrice);\n        \n        uint256 amountTransfered = 0;\n        amountTransfered = property.salePrice * USER_BUY_CUT_PERCENT / 100;\n        \n        balances[property.owner] += amountTransfered;\n        balances[owner] += ppcValue - amountTransfered;\n        \n        property.salePrice = 0;\n        property.owner = msg.sender;\n        property.isInPrivateMode = false;\n        \n        PropertyBought(propertyID, property.owner);\n        \n        return true;\n    }\n    //Use Case: Buyer wants to buy a property.\n    function buyPropertyInETH(uint24 propertyID) public validPropertyID(propertyID) payable returns(bool) {\n        Property storage property = map[propertyID];\n        \n        require(property.owner == 0);\n        require(msg.value >= priceETH);\n        \n        ownerEth += msg.value;\n    \n        uint256 minPercent = priceETH * PRICE_ETH_MIN_PERCENT / 100;\n        priceETH += (minPercent < PRICE_ETH_MIN_INCREASE) ? minPercent : PRICE_ETH_MIN_INCREASE;\n        \n        property.owner = msg.sender;\n        \n        PropertyBought(propertyID, property.owner);\n        \n        return true;\n    }\n    \n    //Use Case: Owner of a property lists for sale at a given price\n    function listForSale(uint24 propertyID, uint128 price ) public validPropertyID(propertyID) returns(bool) {\n        Property storage property = map[propertyID];\n      \n        require(price != 0);\n      \n        require(msg.sender == property.owner); //Must be the owner\n        //You can listForSale an already listed item to update the listing\n        property.salePrice = price;\n        \n        PropertySetForSale(propertyID);\n        \n        return true;\n    }\n    \n    //Use Case: Owner of a property delists from both renting offer and sale offer\n    function delist(uint24 propertyID) public validPropertyID(propertyID) returns(bool) {\n        Property storage property = map[propertyID];\n        \n        require(msg.sender == property.owner); //Must be the owner\n        \n        property.salePrice = 0;\n        \n        DelistProperty(propertyID);\n        \n        return true;\n    }\n    \n    //////////////////////////////////////////////////////\n    ////Owner Sections: Meta-Functions For Owner only/////\n    //////////////////////////////////////////////////////\n    function withdraw(uint256 amount) public ownerOnly() {\n        if (amount <= ownerEth) {\n            owner.transfer(amount);\n        }\n    }\n    \n    function withdrawAll() public ownerOnly() {\n        owner.transfer(ownerEth);\n    }\n    \n    function changeOwners(address newOwner) public ownerOnly() {\n        owner = newOwner;\n    }\n    \n    ////////////////////////////////////////////////\n    ///TODO: TESTING ONLY: REMOVE BEFORE RELEASE:///\n    ////////////////////////////////////////////////\n    function addCoin(address user, uint256 amount) public ownerOnly() {\n        balances[user] += amount;\n    }\n    //setPropertyMode ->seconds to hours\n    //setColors -> 5 seconds to 1 hour\n    //FREE_COLOR_SETTING_UNTIL in constructor needs to be changed to have the +1 days\n}",
  "sourcePath": "/Volumes/Lexar/DATA/PixelRealEstate/PixelRealEstate/contracts/VirtualRealEstate.sol",
  "compiler": {
    "name": "solc",
    "version": "0.4.18+commit.9cf6e910.Emscripten.clang"
  },
  "schemaVersion": "1.0.1",
  "updatedAt": "2018-01-24T18:27:53.148Z"
}