{
  "contractName": "VirtualRealEstate",
  "abi": [
    {
      "constant": true,
      "inputs": [
        {
          "name": "propertyID",
          "type": "uint24"
        }
      ],
      "name": "getPropertyData",
      "outputs": [
        {
          "name": "",
          "type": "address"
        },
        {
          "name": "",
          "type": "uint256"
        },
        {
          "name": "",
          "type": "uint256"
        },
        {
          "name": "",
          "type": "uint256"
        },
        {
          "name": "",
          "type": "bool"
        }
      ],
      "payable": false,
      "stateMutability": "view",
      "type": "function"
    },
    {
      "constant": false,
      "inputs": [
        {
          "name": "_spender",
          "type": "address"
        },
        {
          "name": "_value",
          "type": "uint256"
        }
      ],
      "name": "approve",
      "outputs": [
        {
          "name": "success",
          "type": "bool"
        }
      ],
      "payable": false,
      "stateMutability": "nonpayable",
      "type": "function"
    },
    {
      "constant": false,
      "inputs": [
        {
          "name": "propertyID",
          "type": "uint24"
        },
        {
          "name": "row",
          "type": "uint8"
        },
        {
          "name": "newColorData",
          "type": "uint24"
        }
      ],
      "name": "setRowColors",
      "outputs": [
        {
          "name": "",
          "type": "bool"
        }
      ],
      "payable": false,
      "stateMutability": "nonpayable",
      "type": "function"
    },
    {
      "constant": false,
      "inputs": [
        {
          "name": "propertyID",
          "type": "uint24"
        },
        {
          "name": "price",
          "type": "uint128"
        }
      ],
      "name": "listForSale",
      "outputs": [
        {
          "name": "",
          "type": "bool"
        }
      ],
      "payable": false,
      "stateMutability": "nonpayable",
      "type": "function"
    },
    {
      "constant": true,
      "inputs": [
        {
          "name": "propertyID",
          "type": "uint24"
        }
      ],
      "name": "getPropertyColors",
      "outputs": [
        {
          "name": "",
          "type": "uint256[10]"
        }
      ],
      "payable": false,
      "stateMutability": "view",
      "type": "function"
    },
    {
      "constant": true,
      "inputs": [
        {
          "name": "user",
          "type": "address"
        }
      ],
      "name": "getHoverText",
      "outputs": [
        {
          "name": "",
          "type": "bytes32[2]"
        }
      ],
      "payable": false,
      "stateMutability": "view",
      "type": "function"
    },
    {
      "constant": true,
      "inputs": [],
      "name": "totalSupply",
      "outputs": [
        {
          "name": "",
          "type": "uint256"
        }
      ],
      "payable": false,
      "stateMutability": "view",
      "type": "function"
    },
    {
      "constant": false,
      "inputs": [
        {
          "name": "text",
          "type": "bytes32[2]"
        }
      ],
      "name": "setHoverText",
      "outputs": [],
      "payable": false,
      "stateMutability": "nonpayable",
      "type": "function"
    },
    {
      "constant": false,
      "inputs": [
        {
          "name": "_from",
          "type": "address"
        },
        {
          "name": "_to",
          "type": "address"
        },
        {
          "name": "_value",
          "type": "uint256"
        }
      ],
      "name": "transferFrom",
      "outputs": [
        {
          "name": "success",
          "type": "bool"
        }
      ],
      "payable": false,
      "stateMutability": "nonpayable",
      "type": "function"
    },
    {
      "constant": false,
      "inputs": [
        {
          "name": "link",
          "type": "bytes32[2]"
        }
      ],
      "name": "setLink",
      "outputs": [],
      "payable": false,
      "stateMutability": "nonpayable",
      "type": "function"
    },
    {
      "constant": false,
      "inputs": [
        {
          "name": "ppcToBuy",
          "type": "uint256"
        },
        {
          "name": "ethPer",
          "type": "uint256"
        }
      ],
      "name": "setBuyPPCOffer",
      "outputs": [],
      "payable": true,
      "stateMutability": "payable",
      "type": "function"
    },
    {
      "constant": false,
      "inputs": [
        {
          "name": "amount",
          "type": "uint256"
        }
      ],
      "name": "withdraw",
      "outputs": [],
      "payable": false,
      "stateMutability": "nonpayable",
      "type": "function"
    },
    {
      "constant": false,
      "inputs": [
        {
          "name": "ownerOfTradeOffer",
          "type": "address"
        }
      ],
      "name": "acceptOfferBuyingETH",
      "outputs": [],
      "payable": true,
      "stateMutability": "payable",
      "type": "function"
    },
    {
      "constant": false,
      "inputs": [
        {
          "name": "propertyID",
          "type": "uint24"
        },
        {
          "name": "ppcValue",
          "type": "uint256"
        }
      ],
      "name": "buyPropertyInPPC",
      "outputs": [
        {
          "name": "",
          "type": "bool"
        }
      ],
      "payable": false,
      "stateMutability": "nonpayable",
      "type": "function"
    },
    {
      "constant": false,
      "inputs": [
        {
          "name": "propertyID",
          "type": "uint24"
        }
      ],
      "name": "delist",
      "outputs": [
        {
          "name": "",
          "type": "bool"
        }
      ],
      "payable": false,
      "stateMutability": "nonpayable",
      "type": "function"
    },
    {
      "constant": false,
      "inputs": [
        {
          "name": "propertyID",
          "type": "uint24"
        },
        {
          "name": "ppcValue",
          "type": "uint256"
        }
      ],
      "name": "buyProperty",
      "outputs": [
        {
          "name": "",
          "type": "bool"
        }
      ],
      "payable": true,
      "stateMutability": "payable",
      "type": "function"
    },
    {
      "constant": true,
      "inputs": [
        {
          "name": "_owner",
          "type": "address"
        }
      ],
      "name": "balanceOf",
      "outputs": [
        {
          "name": "balance",
          "type": "uint256"
        }
      ],
      "payable": false,
      "stateMutability": "view",
      "type": "function"
    },
    {
      "constant": false,
      "inputs": [
        {
          "name": "propertyID",
          "type": "uint24"
        },
        {
          "name": "newOwner",
          "type": "address"
        }
      ],
      "name": "transferProperty",
      "outputs": [
        {
          "name": "",
          "type": "bool"
        }
      ],
      "payable": false,
      "stateMutability": "nonpayable",
      "type": "function"
    },
    {
      "constant": false,
      "inputs": [],
      "name": "cancelTradeOffer",
      "outputs": [],
      "payable": false,
      "stateMutability": "nonpayable",
      "type": "function"
    },
    {
      "constant": false,
      "inputs": [],
      "name": "withdrawAll",
      "outputs": [],
      "payable": false,
      "stateMutability": "nonpayable",
      "type": "function"
    },
    {
      "constant": true,
      "inputs": [
        {
          "name": "user",
          "type": "address"
        }
      ],
      "name": "getLink",
      "outputs": [
        {
          "name": "",
          "type": "bytes32[2]"
        }
      ],
      "payable": false,
      "stateMutability": "view",
      "type": "function"
    },
    {
      "constant": false,
      "inputs": [
        {
          "name": "propertyID",
          "type": "uint24"
        },
        {
          "name": "isInPrivateMode",
          "type": "bool"
        },
        {
          "name": "numHoursPrivate",
          "type": "uint32"
        }
      ],
      "name": "setPropertyMode",
      "outputs": [],
      "payable": false,
      "stateMutability": "nonpayable",
      "type": "function"
    },
    {
      "constant": false,
      "inputs": [
        {
          "name": "_to",
          "type": "address"
        },
        {
          "name": "_value",
          "type": "uint256"
        }
      ],
      "name": "transfer",
      "outputs": [
        {
          "name": "success",
          "type": "bool"
        }
      ],
      "payable": false,
      "stateMutability": "nonpayable",
      "type": "function"
    },
    {
      "constant": false,
      "inputs": [
        {
          "name": "user",
          "type": "address"
        },
        {
          "name": "amount",
          "type": "uint256"
        }
      ],
      "name": "addCoin",
      "outputs": [],
      "payable": false,
      "stateMutability": "nonpayable",
      "type": "function"
    },
    {
      "constant": true,
      "inputs": [
        {
          "name": "propertyID",
          "type": "uint24"
        }
      ],
      "name": "getForSalePrices",
      "outputs": [
        {
          "name": "",
          "type": "uint256"
        },
        {
          "name": "",
          "type": "uint256"
        }
      ],
      "payable": false,
      "stateMutability": "view",
      "type": "function"
    },
    {
      "constant": true,
      "inputs": [
        {
          "name": "offerOwner",
          "type": "address"
        }
      ],
      "name": "getTradeOffer",
      "outputs": [
        {
          "name": "",
          "type": "uint256"
        },
        {
          "name": "",
          "type": "uint256"
        },
        {
          "name": "",
          "type": "bool"
        }
      ],
      "payable": false,
      "stateMutability": "view",
      "type": "function"
    },
    {
      "constant": false,
      "inputs": [
        {
          "name": "ownerOfTradeOffer",
          "type": "address"
        },
        {
          "name": "ppcValue",
          "type": "uint256"
        }
      ],
      "name": "acceptOfferBuyingPPC",
      "outputs": [],
      "payable": false,
      "stateMutability": "nonpayable",
      "type": "function"
    },
    {
      "constant": false,
      "inputs": [
        {
          "name": "newOwner",
          "type": "address"
        }
      ],
      "name": "changeOwners",
      "outputs": [],
      "payable": false,
      "stateMutability": "nonpayable",
      "type": "function"
    },
    {
      "constant": false,
      "inputs": [
        {
          "name": "propertyID",
          "type": "uint24"
        },
        {
          "name": "newColors",
          "type": "uint256[10]"
        }
      ],
      "name": "setColors",
      "outputs": [
        {
          "name": "",
          "type": "bool"
        }
      ],
      "payable": false,
      "stateMutability": "nonpayable",
      "type": "function"
    },
    {
      "constant": true,
      "inputs": [
        {
          "name": "_owner",
          "type": "address"
        },
        {
          "name": "_spender",
          "type": "address"
        }
      ],
      "name": "allowance",
      "outputs": [
        {
          "name": "remaining",
          "type": "uint256"
        }
      ],
      "payable": false,
      "stateMutability": "view",
      "type": "function"
    },
    {
      "constant": false,
      "inputs": [
        {
          "name": "ethPer",
          "type": "uint256"
        },
        {
          "name": "offeredPPC",
          "type": "uint256"
        }
      ],
      "name": "setBuyETHOffer",
      "outputs": [],
      "payable": false,
      "stateMutability": "nonpayable",
      "type": "function"
    },
    {
      "constant": false,
      "inputs": [
        {
          "name": "propertyID",
          "type": "uint24"
        }
      ],
      "name": "buyPropertyInETH",
      "outputs": [
        {
          "name": "",
          "type": "bool"
        }
      ],
      "payable": true,
      "stateMutability": "payable",
      "type": "function"
    },
    {
      "inputs": [],
      "payable": false,
      "stateMutability": "nonpayable",
      "type": "constructor"
    },
    {
      "anonymous": false,
      "inputs": [
        {
          "indexed": true,
          "name": "property",
          "type": "uint24"
        },
        {
          "indexed": false,
          "name": "colors",
          "type": "uint256[10]"
        },
        {
          "indexed": false,
          "name": "lastUpdate",
          "type": "uint256"
        },
        {
          "indexed": false,
          "name": "lastUpdaterPayee",
          "type": "address"
        }
      ],
      "name": "PropertyColorUpdate",
      "type": "event"
    },
    {
      "anonymous": false,
      "inputs": [
        {
          "indexed": true,
          "name": "property",
          "type": "uint24"
        },
        {
          "indexed": false,
          "name": "row",
          "type": "uint8"
        },
        {
          "indexed": false,
          "name": "rgb",
          "type": "uint24"
        }
      ],
      "name": "PropertyColorUpdatePixel",
      "type": "event"
    },
    {
      "anonymous": false,
      "inputs": [
        {
          "indexed": true,
          "name": "property",
          "type": "uint24"
        },
        {
          "indexed": false,
          "name": "newOwner",
          "type": "address"
        },
        {
          "indexed": false,
          "name": "ethAmount",
          "type": "uint256"
        },
        {
          "indexed": false,
          "name": "ppcAmount",
          "type": "uint256"
        },
        {
          "indexed": false,
          "name": "timestamp",
          "type": "uint256"
        }
      ],
      "name": "PropertyBought",
      "type": "event"
    },
    {
      "anonymous": false,
      "inputs": [
        {
          "indexed": true,
          "name": "user",
          "type": "address"
        },
        {
          "indexed": false,
          "name": "newHoverText",
          "type": "bytes32[2]"
        }
      ],
      "name": "SetUserHoverText",
      "type": "event"
    },
    {
      "anonymous": false,
      "inputs": [
        {
          "indexed": true,
          "name": "user",
          "type": "address"
        },
        {
          "indexed": false,
          "name": "newLink",
          "type": "bytes32[2]"
        }
      ],
      "name": "SetUserSetLink",
      "type": "event"
    },
    {
      "anonymous": false,
      "inputs": [
        {
          "indexed": true,
          "name": "property",
          "type": "uint24"
        },
        {
          "indexed": false,
          "name": "forSalePrice",
          "type": "uint256"
        }
      ],
      "name": "PropertySetForSale",
      "type": "event"
    },
    {
      "anonymous": false,
      "inputs": [
        {
          "indexed": true,
          "name": "property",
          "type": "uint24"
        }
      ],
      "name": "DelistProperty",
      "type": "event"
    },
    {
      "anonymous": false,
      "inputs": [
        {
          "indexed": true,
          "name": "offerOwner",
          "type": "address"
        },
        {
          "indexed": false,
          "name": "eth",
          "type": "uint256"
        },
        {
          "indexed": false,
          "name": "ppc",
          "type": "uint256"
        },
        {
          "indexed": false,
          "name": "isBuyingPPC",
          "type": "bool"
        }
      ],
      "name": "ListTradeOffer",
      "type": "event"
    },
    {
      "anonymous": false,
      "inputs": [
        {
          "indexed": true,
          "name": "accepter",
          "type": "address"
        },
        {
          "indexed": true,
          "name": "offerOwner",
          "type": "address"
        },
        {
          "indexed": false,
          "name": "ppcBought",
          "type": "uint256"
        },
        {
          "indexed": false,
          "name": "timestamp",
          "type": "uint256"
        }
      ],
      "name": "UpdateTradeOffer",
      "type": "event"
    },
    {
      "anonymous": false,
      "inputs": [
        {
          "indexed": true,
          "name": "property",
          "type": "uint24"
        }
      ],
      "name": "SetPropertyPublic",
      "type": "event"
    },
    {
      "anonymous": false,
      "inputs": [
        {
          "indexed": true,
          "name": "property",
          "type": "uint24"
        },
        {
          "indexed": false,
          "name": "numHoursPrivate",
          "type": "uint32"
        }
      ],
      "name": "SetPropertyPrivate",
      "type": "event"
    },
    {
      "anonymous": false,
      "inputs": [
        {
          "indexed": true,
          "name": "_from",
          "type": "address"
        },
        {
          "indexed": true,
          "name": "_to",
          "type": "address"
        },
        {
          "indexed": false,
          "name": "_value",
          "type": "uint256"
        }
      ],
      "name": "Transfer",
      "type": "event"
    },
    {
      "anonymous": false,
      "inputs": [
        {
          "indexed": true,
          "name": "_owner",
          "type": "address"
        },
        {
          "indexed": true,
          "name": "_spender",
          "type": "address"
        },
        {
          "indexed": false,
          "name": "_value",
          "type": "uint256"
        }
      ],
      "name": "Approval",
      "type": "event"
    }
  ],
  "bytecode": "0x606060405260006004556103e8600b556014600c55600a600e556014600f5560626010556002601155341561003357600080fd5b33600360006101000a81548173ffffffffffffffffffffffffffffffffffffffff021916908373ffffffffffffffffffffffffffffffffffffffff16021790555060008081905550620151804201601281905550600a600d81905550612710600a819055506139df806100a76000396000f300606060405260043610610196576000357c0100000000000000000000000000000000000000000000000000000000900463ffffffff168063075773fd1461019b578063095ea7b3146102235780630a88e7701461027d57806316035c7c146102d7578063164e0aba146103325780631775459d1461039657806318160ddd1461040b5780631d04458d1461043457806323b872dd1461047a578063284b8a64146104f35780632b9b6adf146105395780632e1a7d4d1461055a5780633830f7091461057d578063410b6d7a146105ab5780635a033830146105f45780636145a4f01461063457806370a082311461067257806382e57396146106bf5780638373ae711461071e578063853828b6146107335780639d6abe4f14610748578063a690478b146107bd578063a9059cbb146107ff578063b401487914610859578063c3c9c2411461089b578063c718f68f146108de578063cabd1b3e1461093d578063d7963f941461097f578063dc4cb7f5146109b8578063dd62ed3e14610a25578063e655d13814610a91578063ef952a9914610abd575b600080fd5b34156101a657600080fd5b6101c1600480803562ffffff16906020019091905050610af2565b604051808673ffffffffffffffffffffffffffffffffffffffff1673ffffffffffffffffffffffffffffffffffffffff168152602001858152602001848152602001838152602001821515151581526020019550505050505060405180910390f35b341561022e57600080fd5b610263600480803573ffffffffffffffffffffffffffffffffffffffff16906020019091908035906020019091905050610c1b565b604051808215151515815260200191505060405180910390f35b341561028857600080fd5b6102bd600480803562ffffff1690602001909190803560ff1690602001909190803562ffffff16906020019091905050610d0d565b604051808215151515815260200191505060405180910390f35b34156102e257600080fd5b610318600480803562ffffff169060200190919080356fffffffffffffffffffffffffffffffff16906020019091905050610f91565b604051808215151515815260200191505060405180910390f35b341561033d57600080fd5b610358600480803562ffffff169060200190919050506110ac565b6040518082600a60200280838360005b83811015610383578082015181840152602081019050610368565b5050505090500191505060405180910390f35b34156103a157600080fd5b6103cd600480803573ffffffffffffffffffffffffffffffffffffffff16906020019091905050611129565b6040518082600260200280838360005b838110156103f85780820151818401526020810190506103dd565b5050505090500191505060405180910390f35b341561041657600080fd5b61041e6111b7565b6040518082815260200191505060405180910390f35b341561043f57600080fd5b610478600480806040019060028060200260405190810160405280929190826002602002808284378201915050505050919050506111bd565b005b341561048557600080fd5b6104d9600480803573ffffffffffffffffffffffffffffffffffffffff1690602001909190803573ffffffffffffffffffffffffffffffffffffffff16906020019091908035906020019091905050611285565b604051808215151515815260200191505060405180910390f35b34156104fe57600080fd5b61053760048080604001906002806020026040519081016040528092919082600260200280828437820191505050505091905050611501565b005b61055860048080359060200190919080359060200190919050506115c9565b005b341561056557600080fd5b61057b60048080359060200190919050506116d5565b005b6105a9600480803573ffffffffffffffffffffffffffffffffffffffff169060200190919050506117a2565b005b34156105b657600080fd5b6105da600480803562ffffff169060200190919080359060200190919050506119df565b604051808215151515815260200191505060405180910390f35b34156105ff57600080fd5b61061a600480803562ffffff16906020019091905050611d84565b604051808215151515815260200191505060405180910390f35b610658600480803562ffffff16906020019091908035906020019091905050611e5c565b604051808215151515815260200191505060405180910390f35b341561067d57600080fd5b6106a9600480803573ffffffffffffffffffffffffffffffffffffffff16906020019091905050612206565b6040518082815260200191505060405180910390f35b34156106ca57600080fd5b610704600480803562ffffff1690602001909190803573ffffffffffffffffffffffffffffffffffffffff1690602001909190505061224f565b604051808215151515815260200191505060405180910390f35b341561072957600080fd5b6107316123d7565b005b341561073e57600080fd5b61074661255f565b005b341561075357600080fd5b61077f600480803573ffffffffffffffffffffffffffffffffffffffff16906020019091905050612621565b6040518082600260200280838360005b838110156107aa57808201518184015260208101905061078f565b5050505090500191505060405180910390f35b34156107c857600080fd5b6107fd600480803562ffffff16906020019091908035151590602001909190803563ffffffff169060200190919050506126af565b005b341561080a57600080fd5b61083f600480803573ffffffffffffffffffffffffffffffffffffffff169060200190919080359060200190919050506128cf565b604051808215151515815260200191505060405180910390f35b341561086457600080fd5b610899600480803573ffffffffffffffffffffffffffffffffffffffff16906020019091908035906020019091905050612a38565b005b34156108a657600080fd5b6108c1600480803562ffffff16906020019091905050612ae5565b604051808381526020018281526020019250505060405180910390f35b34156108e957600080fd5b610915600480803573ffffffffffffffffffffffffffffffffffffffff16906020019091905050612b82565b6040518084815260200183815260200182151515158152602001935050505060405180910390f35b341561094857600080fd5b61097d600480803573ffffffffffffffffffffffffffffffffffffffff16906020019091908035906020019091905050612bf3565b005b341561098a57600080fd5b6109b6600480803573ffffffffffffffffffffffffffffffffffffffff16906020019091905050612ea4565b005b34156109c357600080fd5b610a0b600480803562ffffff1690602001909190806101400190600a806020026040519081016040528092919082600a60200280828437820191505050505091905050612f44565b604051808215151515815260200191505060405180910390f35b3415610a3057600080fd5b610a7b600480803573ffffffffffffffffffffffffffffffffffffffff1690602001909190803573ffffffffffffffffffffffffffffffffffffffff16906020019091905050613430565b6040518082815260200191505060405180910390f35b3415610a9c57600080fd5b610abb60048080359060200190919080359060200190919050506134b7565b005b610ad8600480803562ffffff169060200190919050506136c5565b604051808215151515815260200191505060405180910390f35b600080600080600080866127108162ffffff161015610c1057600660008962ffffff1662ffffff168152602001908152602001600020915060008260000160009054906101000a900473ffffffffffffffffffffffffffffffffffffffff1673ffffffffffffffffffffffffffffffffffffffff161415610bbe578160000160009054906101000a900473ffffffffffffffffffffffffffffffffffffffff16600a54600d5484600d015485600c0160149054906101000a900460ff1696509650965096509650610c0f565b8160000160009054906101000a900473ffffffffffffffffffffffffffffffffffffffff16600083600b015484600d015485600c0160149054906101000a900460ff16839350965096509650965096505b5b505091939590929450565b600081600260003373ffffffffffffffffffffffffffffffffffffffff1673ffffffffffffffffffffffffffffffffffffffff16815260200190815260200160002060008573ffffffffffffffffffffffffffffffffffffffff1673ffffffffffffffffffffffffffffffffffffffff168152602001908152602001600020819055508273ffffffffffffffffffffffffffffffffffffffff163373ffffffffffffffffffffffffffffffffffffffff167f8c5be1e5ebec7d5bd14f71427d1e84f3dd0314c0f7b2291e5b200ac8c7c3b925846040518082815260200191505060405180910390a36001905092915050565b6000806000856127108162ffffff161015610f8757600660008862ffffff1662ffffff168152602001908152602001600020925060008660ff1610158015610d59575060098660ff1611155b1515610d6457600080fd5b60008360000160009054906101000a900473ffffffffffffffffffffffffffffffffffffffff1673ffffffffffffffffffffffffffffffffffffffff161415610dae576002610db1565b60015b60ff16915082600c0160149054906101000a900460ff1615610e30578260000160009054906101000a900473ffffffffffffffffffffffffffffffffffffffff1673ffffffffffffffffffffffffffffffffffffffff163373ffffffffffffffffffffffffffffffffffffffff16141515610e2b57600080fd5b600091505b81600160003373ffffffffffffffffffffffffffffffffffffffff1673ffffffffffffffffffffffffffffffffffffffff1681526020019081526020016000205410151515610e7e57600080fd5b81600160003373ffffffffffffffffffffffffffffffffffffffff1673ffffffffffffffffffffffffffffffffffffffff168152602001908152602001600020600082825403925050819055508462ffffff16836001018760ff16600a81101515610ee557fe5b01819055503383600c0160006101000a81548173ffffffffffffffffffffffffffffffffffffffff021916908373ffffffffffffffffffffffffffffffffffffffff1602179055508662ffffff167f1552c53109a4b1a1c4938ae91d342a910cb3f903cd2262bcaea67365553a8e478787604051808360ff1660ff1681526020018262ffffff1662ffffff1681526020019250505060405180910390a2600193505b5050509392505050565b600080836127108162ffffff1610156110a457600660008662ffffff1662ffffff16815260200190815260200160002091506000846fffffffffffffffffffffffffffffffff1614151515610fe557600080fd5b8160000160009054906101000a900473ffffffffffffffffffffffffffffffffffffffff1673ffffffffffffffffffffffffffffffffffffffff163373ffffffffffffffffffffffffffffffffffffffff1614151561104357600080fd5b836fffffffffffffffffffffffffffffffff1682600b01819055508462ffffff167f06ebe22c29c68b4166927bf53da5a19075c3eb97bba0f0113c22c97576b6ba2683600b01546040518082815260200191505060405180910390a2600192505b505092915050565b6110b4613890565b816127108162ffffff16101561112357600660008462ffffff1662ffffff168152602001908152602001600020600101600a806020026040519081016040528092919082600a801561111b576020028201915b815481526020019060010190808311611107575b505050505091505b50919050565b6111316138b9565b600860008373ffffffffffffffffffffffffffffffffffffffff1673ffffffffffffffffffffffffffffffffffffffff1681526020019081526020016000206002806020026040519081016040528092919082600280156111ab576020028201915b81546000191681526020019060010190808311611193575b50505050509050919050565b60005481565b80600860003373ffffffffffffffffffffffffffffffffffffffff1673ffffffffffffffffffffffffffffffffffffffff16815260200190815260200160002090600261120b9291906138e3565b503373ffffffffffffffffffffffffffffffffffffffff167ff6fae1282aa1dee75d2bf0c4aa362eb3949ebf974dfddcd6351e3dd61e389f29826040518082600260200280838360005b83811015611270578082015181840152602081019050611255565b5050505090500191505060405180910390a250565b600081600160008673ffffffffffffffffffffffffffffffffffffffff1673ffffffffffffffffffffffffffffffffffffffff1681526020019081526020016000205410158015611352575081600260008673ffffffffffffffffffffffffffffffffffffffff1673ffffffffffffffffffffffffffffffffffffffff16815260200190815260200160002060003373ffffffffffffffffffffffffffffffffffffffff1673ffffffffffffffffffffffffffffffffffffffff1681526020019081526020016000205410155b801561135e5750600082115b156114f55781600160008573ffffffffffffffffffffffffffffffffffffffff1673ffffffffffffffffffffffffffffffffffffffff1681526020019081526020016000206000828254019250508190555081600160008673ffffffffffffffffffffffffffffffffffffffff1673ffffffffffffffffffffffffffffffffffffffff1681526020019081526020016000206000828254039250508190555081600260008673ffffffffffffffffffffffffffffffffffffffff1673ffffffffffffffffffffffffffffffffffffffff16815260200190815260200160002060003373ffffffffffffffffffffffffffffffffffffffff1673ffffffffffffffffffffffffffffffffffffffff168152602001908152602001600020600082825403925050819055508273ffffffffffffffffffffffffffffffffffffffff168473ffffffffffffffffffffffffffffffffffffffff167fddf252ad1be2c89b69c2b068fc378daa952ba7f163c4a11628f55a4df523b3ef846040518082815260200191505060405180910390a3600190506114fa565b600090505b9392505050565b80600760003373ffffffffffffffffffffffffffffffffffffffff1673ffffffffffffffffffffffffffffffffffffffff16815260200190815260200160002090600261154f9291906138e3565b503373ffffffffffffffffffffffffffffffffffffffff167f010724f92c296bc87af12d2281baa10d1317850008bd8ee16a0c27313e9cd7b2826040518082600260200280838360005b838110156115b4578082015181840152602081019050611599565b5050505090500191505060405180910390a250565b60008134101515156115da57600080fd5b6000831180156115ea5750600082115b15156115f557600080fd5b6115fd6123d7565b600960003373ffffffffffffffffffffffffffffffffffffffff1673ffffffffffffffffffffffffffffffffffffffff168152602001908152602001600020905082816001018190555081816000018190555060018160020160006101000a81548160ff0219169083151502179055503373ffffffffffffffffffffffffffffffffffffffff167f1e9933321189dbcae2cc65270b17c79e62f3a034019f7b818aa1cafb6c6ab588838560016040518084815260200183815260200182151515158152602001935050505060405180910390a2505050565b3373ffffffffffffffffffffffffffffffffffffffff16600360009054906101000a900473ffffffffffffffffffffffffffffffffffffffff1673ffffffffffffffffffffffffffffffffffffffff1614151561173157600080fd5b6004548111151561179f57600360009054906101000a900473ffffffffffffffffffffffffffffffffffffffff1673ffffffffffffffffffffffffffffffffffffffff166108fc829081150290604051600060405180830381858888f19350505050151561179e57600080fd5b5b50565b600080600080600960008673ffffffffffffffffffffffffffffffffffffffff1673ffffffffffffffffffffffffffffffffffffffff168152602001908152602001600020935060008573ffffffffffffffffffffffffffffffffffffffff161415151561180f57600080fd5b60003411151561181e57600080fd5b600084600001541415151561183257600080fd5b600084600101541415151561184657600080fd5b8360020160009054906101000a900460ff1615151561186457600080fd5b8360010154846000015402925082341161187e5734611880565b825b91508473ffffffffffffffffffffffffffffffffffffffff166108fc839081150290604051600060405180830381858888f1935050505015156118c257600080fd5b8360000154828115156118d157fe5b04600160003373ffffffffffffffffffffffffffffffffffffffff1673ffffffffffffffffffffffffffffffffffffffff1681526020019081526020016000206000828254019250508190555083600001548281151561192d57fe5b049050828214156119585760008460000181905550836001015490506000846001018190555061196b565b8084600101600082825403925050819055505b8473ffffffffffffffffffffffffffffffffffffffff163373ffffffffffffffffffffffffffffffffffffffff167fe786ced61b45d0eef45d975bcfcb0f8c3e9cc459f3871b38b2aab2174590ada78342604051808381526020018281526020019250505060405180910390a35050505050565b600080600080856127108162ffffff161015611d7a57600660008862ffffff1662ffffff168152602001908152602001600020935060008460000160009054906101000a900473ffffffffffffffffffffffffffffffffffffffff1673ffffffffffffffffffffffffffffffffffffffff161415611aff57600d5484600b0181905550600360009054906101000a900473ffffffffffffffffffffffffffffffffffffffff168460000160006101000a81548173ffffffffffffffffffffffffffffffffffffffff021916908373ffffffffffffffffffffffffffffffffffffffff1602179055506064600f54600d5402811515611ad957fe5b049250600e548310611aed57600e54611aef565b825b600d600082825401925050819055505b8584600b015411151515611b1257600080fd5b83600b0154600160003373ffffffffffffffffffffffffffffffffffffffff1673ffffffffffffffffffffffffffffffffffffffff1681526020019081526020016000205410151515611b6457600080fd5b60009150606460105485600b015402811515611b7c57fe5b04915081600160008660000160009054906101000a900473ffffffffffffffffffffffffffffffffffffffff1673ffffffffffffffffffffffffffffffffffffffff1673ffffffffffffffffffffffffffffffffffffffff1681526020019081526020016000206000828254019250508190555081860360016000600360009054906101000a900473ffffffffffffffffffffffffffffffffffffffff1673ffffffffffffffffffffffffffffffffffffffff1673ffffffffffffffffffffffffffffffffffffffff168152602001908152602001600020600082825401925050819055508662ffffff167f0abb7627f5a43ce55d691cf577de9c09e8fee6f2dd1f45678a55ce86fadfd6f28560000160009054906101000a900473ffffffffffffffffffffffffffffffffffffffff16600087600b015442604051808573ffffffffffffffffffffffffffffffffffffffff1673ffffffffffffffffffffffffffffffffffffffff16815260200184815260200183815260200182815260200194505050505060405180910390a2600084600b0181905550338460000160006101000a81548173ffffffffffffffffffffffffffffffffffffffff021916908373ffffffffffffffffffffffffffffffffffffffff160217905550600084600c0160146101000a81548160ff021916908315150217905550600194505b5050505092915050565b600080826127108162ffffff161015611e5557600660008562ffffff1662ffffff16815260200190815260200160002091508160000160009054906101000a900473ffffffffffffffffffffffffffffffffffffffff1673ffffffffffffffffffffffffffffffffffffffff163373ffffffffffffffffffffffffffffffffffffffff16141515611e1457600080fd5b600082600b01819055508362ffffff167fca2e47a4a4a73b5954da66cff11902dbc0e8a6d4ee892921cc381af6aabc415260405160405180910390a2600192505b5050919050565b6000806000806000866127108162ffffff1610156121fb57600660008962ffffff1662ffffff168152602001908152602001600020945060008560000160009054906101000a900473ffffffffffffffffffffffffffffffffffffffff1673ffffffffffffffffffffffffffffffffffffffff16141515611edc57600080fd5b600d548711151515611eed57600080fd5b86600160003373ffffffffffffffffffffffffffffffffffffffff1673ffffffffffffffffffffffffffffffffffffffff1681526020019081526020016000205410151515611f3b57600080fd5b60008714151515611f4b57600080fd5b86600d5403935083600d54600a54811515611f6257fe5b04029250823410151515611f7557600080fd5b8660016000600360009054906101000a900473ffffffffffffffffffffffffffffffffffffffff1673ffffffffffffffffffffffffffffffffffffffff1673ffffffffffffffffffffffffffffffffffffffff1681526020019081526020016000206000828254019250508190555086600160003373ffffffffffffffffffffffffffffffffffffffff1673ffffffffffffffffffffffffffffffffffffffff168152602001908152602001600020600082825403925050819055506064600f54600d540281151561204357fe5b049150600d5487600e54841061205b57600e5461205d565b835b0281151561206757fe5b04600d60008282540192505081905550346004600082825401925050819055506064600c54600a540281151561209957fe5b0491508684600b5484106120af57600b546120b1565b835b028115156120bb57fe5b04600a60008282540192505081905550338560000160006101000a81548173ffffffffffffffffffffffffffffffffffffffff021916908373ffffffffffffffffffffffffffffffffffffffff1602179055508762ffffff167f0abb7627f5a43ce55d691cf577de9c09e8fee6f2dd1f45678a55ce86fadfd6f28660000160009054906101000a900473ffffffffffffffffffffffffffffffffffffffff16348a42604051808573ffffffffffffffffffffffffffffffffffffffff1673ffffffffffffffffffffffffffffffffffffffff16815260200184815260200183815260200182815260200194505050505060405180910390a2338560000160006101000a81548173ffffffffffffffffffffffffffffffffffffffff021916908373ffffffffffffffffffffffffffffffffffffffff160217905550600195505b505050505092915050565b6000600160008373ffffffffffffffffffffffffffffffffffffffff1673ffffffffffffffffffffffffffffffffffffffff168152602001908152602001600020549050919050565b600080836127108162ffffff1610156123cf57600660008662ffffff1662ffffff16815260200190815260200160002091503373ffffffffffffffffffffffffffffffffffffffff168260000160009054906101000a900473ffffffffffffffffffffffffffffffffffffffff1673ffffffffffffffffffffffffffffffffffffffff161415156122df57600080fd5b60008473ffffffffffffffffffffffffffffffffffffffff161415151561230557600080fd5b838260000160006101000a81548173ffffffffffffffffffffffffffffffffffffffff021916908373ffffffffffffffffffffffffffffffffffffffff1602179055508462ffffff167f0abb7627f5a43ce55d691cf577de9c09e8fee6f2dd1f45678a55ce86fadfd6f28560008042604051808573ffffffffffffffffffffffffffffffffffffffff1673ffffffffffffffffffffffffffffffffffffffff16815260200184815260200183815260200182815260200194505050505060405180910390a2600192505b505092915050565b6000600960003373ffffffffffffffffffffffffffffffffffffffff1673ffffffffffffffffffffffffffffffffffffffff1681526020019081526020016000209050600081600001541180612431575060008160010154115b1561255c578060020160009054906101000a900460ff161561249c573373ffffffffffffffffffffffffffffffffffffffff166108fc82600101548360000154029081150290604051600060405180830381858888f19350505050151561249757600080fd5b6124ee565b8060010154600160003373ffffffffffffffffffffffffffffffffffffffff1673ffffffffffffffffffffffffffffffffffffffff168152602001908152602001600020600082825401925050819055505b3373ffffffffffffffffffffffffffffffffffffffff1660007fe786ced61b45d0eef45d975bcfcb0f8c3e9cc459f3871b38b2aab2174590ada7600042604051808381526020018281526020019250505060405180910390a360008160000181905550600081600101819055505b50565b3373ffffffffffffffffffffffffffffffffffffffff16600360009054906101000a900473ffffffffffffffffffffffffffffffffffffffff1673ffffffffffffffffffffffffffffffffffffffff161415156125bb57600080fd5b600360009054906101000a900473ffffffffffffffffffffffffffffffffffffffff1673ffffffffffffffffffffffffffffffffffffffff166108fc6004549081150290604051600060405180830381858888f19350505050151561261f57600080fd5b565b6126296138b9565b600760008373ffffffffffffffffffffffffffffffffffffffff1673ffffffffffffffffffffffffffffffffffffffff1681526020019081526020016000206002806020026040519081016040528092919082600280156126a3576020028201915b8154600019168152602001906001019080831161268b575b50505050509050919050565b6000836127108162ffffff1610156128c857600660008662ffffff1662ffffff16815260200190815260200160002091508160000160009054906101000a900473ffffffffffffffffffffffffffffffffffffffff1673ffffffffffffffffffffffffffffffffffffffff163373ffffffffffffffffffffffffffffffffffffffff1614151561273e57600080fd5b83156128195760008363ffffffff1611151561275957600080fd5b8263ffffffff16600160003373ffffffffffffffffffffffffffffffffffffffff1673ffffffffffffffffffffffffffffffffffffffff16815260200190815260200160002054101515156127ad57600080fd5b8263ffffffff16600160003373ffffffffffffffffffffffffffffffffffffffff1673ffffffffffffffffffffffffffffffffffffffff168152602001908152602001600020600082825403925050819055508260010263ffffffff16420182600e0181905550612824565b600082600e01819055505b8382600c0160146101000a81548160ff0219169083151502179055508315612894578462ffffff167f52e8f4b5a1626f05acec334b28b3a6e1229af95f0fdf6929ead61c976399121384604051808263ffffffff1663ffffffff16815260200191505060405180910390a26128c7565b8462ffffff167f7b2ca9b1b8f3e9de64d205763935a164d5090f5e6346199c24b0612e0930a12a60405160405180910390a25b5b5050505050565b600081600160003373ffffffffffffffffffffffffffffffffffffffff1673ffffffffffffffffffffffffffffffffffffffff16815260200190815260200160002054101580156129205750600082115b15612a2d5781600160003373ffffffffffffffffffffffffffffffffffffffff1673ffffffffffffffffffffffffffffffffffffffff1681526020019081526020016000206000828254039250508190555081600160008573ffffffffffffffffffffffffffffffffffffffff1673ffffffffffffffffffffffffffffffffffffffff168152602001908152602001600020600082825401925050819055508273ffffffffffffffffffffffffffffffffffffffff163373ffffffffffffffffffffffffffffffffffffffff167fddf252ad1be2c89b69c2b068fc378daa952ba7f163c4a11628f55a4df523b3ef846040518082815260200191505060405180910390a360019050612a32565b600090505b92915050565b3373ffffffffffffffffffffffffffffffffffffffff16600360009054906101000a900473ffffffffffffffffffffffffffffffffffffffff1673ffffffffffffffffffffffffffffffffffffffff16141515612a9457600080fd5b80600160008473ffffffffffffffffffffffffffffffffffffffff1673ffffffffffffffffffffffffffffffffffffffff168152602001908152602001600020600082825401925050819055505050565b6000806000836127108162ffffff161015612b7b57600660008662ffffff1662ffffff168152602001908152602001600020915060008260000160009054906101000a900473ffffffffffffffffffffffffffffffffffffffff1673ffffffffffffffffffffffffffffffffffffffff161415612b6b57600a54600d5493509350612b7a565b600082600b0154819150935093505b5b5050915091565b600080600080600960008673ffffffffffffffffffffffffffffffffffffffff1673ffffffffffffffffffffffffffffffffffffffff1681526020019081526020016000209050806000015481600101548260020160009054906101000a900460ff16935093509350509193909250565b600080600960008573ffffffffffffffffffffffffffffffffffffffff1673ffffffffffffffffffffffffffffffffffffffff168152602001908152602001600020915060008473ffffffffffffffffffffffffffffffffffffffff1614151515612c5d57600080fd5b6000826000015414151515612c7157600080fd5b6000826001015414151515612c8557600080fd5b60008314151515612c9557600080fd5b8160020160009054906101000a900460ff161515612cb257600080fd5b81600101548311612cc35782612cc9565b81600101545b905080600160003373ffffffffffffffffffffffffffffffffffffffff1673ffffffffffffffffffffffffffffffffffffffff1681526020019081526020016000205410151515612d1957600080fd5b80600160008673ffffffffffffffffffffffffffffffffffffffff1673ffffffffffffffffffffffffffffffffffffffff1681526020019081526020016000206000828254019250508190555080600160003373ffffffffffffffffffffffffffffffffffffffff1673ffffffffffffffffffffffffffffffffffffffff168152602001908152602001600020600082825403925050819055503373ffffffffffffffffffffffffffffffffffffffff166108fc848460000154029081150290604051600060405180830381858888f193505050501515612df957600080fd5b8160010154811415612e1e576000826000018190555060008260010181905550612e31565b8082600101600082825403925050819055505b8373ffffffffffffffffffffffffffffffffffffffff163373ffffffffffffffffffffffffffffffffffffffff167fe786ced61b45d0eef45d975bcfcb0f8c3e9cc459f3871b38b2aab2174590ada78342604051808381526020018281526020019250505060405180910390a350505050565b3373ffffffffffffffffffffffffffffffffffffffff16600360009054906101000a900473ffffffffffffffffffffffffffffffffffffffff1673ffffffffffffffffffffffffffffffffffffffff16141515612f0057600080fd5b80600360006101000a81548173ffffffffffffffffffffffffffffffffffffffff021916908373ffffffffffffffffffffffffffffffffffffffff16021790555050565b600080600080600080600080896127108162ffffff16101561342257600660008c62ffffff1662ffffff168152602001908152602001600020975060008860000160009054906101000a900473ffffffffffffffffffffffffffffffffffffffff1673ffffffffffffffffffffffffffffffffffffffff161415612fc9576002612fcc565b60015b60ff16965087600c0160149054906101000a900460ff1615613088574288600e0154111561305b578760000160009054906101000a900473ffffffffffffffffffffffffffffffffffffffff1673ffffffffffffffffffffffffffffffffffffffff163373ffffffffffffffffffffffffffffffffffffffff1614151561305257600080fd5b60009650613083565b600088600c0160146101000a81548160ff021916908315150217905550600088600e01819055505b613099565b6012544211151561309857600096505b5b86600160003373ffffffffffffffffffffffffffffffffffffffff1673ffffffffffffffffffffffffffffffffffffffff16815260200190815260200160002054101515156130e757600080fd5b87600c0160149054906101000a900460ff1615801561310b5750600088600d015414155b156132cc57600588600d0154420381151561312257fe5b0495506011548602945060008511156132cb578760000160009054906101000a900473ffffffffffffffffffffffffffffffffffffffff16935087600c0160009054906101000a900473ffffffffffffffffffffffffffffffffffffffff16925060008473ffffffffffffffffffffffffffffffffffffffff1614156131c75760008373ffffffffffffffffffffffffffffffffffffffff161415156131c6578293505b5b60008473ffffffffffffffffffffffffffffffffffffffff16141515613241576002858115156131f357fe5b04600160008673ffffffffffffffffffffffffffffffffffffffff1673ffffffffffffffffffffffffffffffffffffffff168152602001908152602001600020600082825401925050819055505b60008373ffffffffffffffffffffffffffffffffffffffff161415156132bb5760028581151561326d57fe5b04600160008573ffffffffffffffffffffffffffffffffffffffff1673ffffffffffffffffffffffffffffffffffffffff168152602001908152602001600020600082825401925050819055505b8460008082825401925050819055505b5b86600160003373ffffffffffffffffffffffffffffffffffffffff1673ffffffffffffffffffffffffffffffffffffffff16815260200190815260200160002060008282540392505081905550898860010190600a61332c929190613929565b503388600c0160006101000a81548173ffffffffffffffffffffffffffffffffffffffff021916908373ffffffffffffffffffffffffffffffffffffffff1602179055504288600d01819055504291508a62ffffff167fce9b20e38ccb718fd7b9a5fb1eacd0060f320d3e74a7e2ce393a26eb9a0f26368b84866040518084600a60200280838360005b838110156133d15780820151818401526020810190506133b6565b505050509050018381526020018273ffffffffffffffffffffffffffffffffffffffff1673ffffffffffffffffffffffffffffffffffffffff168152602001935050505060405180910390a2600198505b505050505050505092915050565b6000600260008473ffffffffffffffffffffffffffffffffffffffff1673ffffffffffffffffffffffffffffffffffffffff16815260200190815260200160002060008373ffffffffffffffffffffffffffffffffffffffff1673ffffffffffffffffffffffffffffffffffffffff16815260200190815260200160002054905092915050565b80600160003373ffffffffffffffffffffffffffffffffffffffff1673ffffffffffffffffffffffffffffffffffffffff168152602001908152602001600020541015151561350557600080fd5b6000821180156135155750600081115b151561352057600080fd5b6135286123d7565b81600960003373ffffffffffffffffffffffffffffffffffffffff1673ffffffffffffffffffffffffffffffffffffffff1681526020019081526020016000206000018190555080600960003373ffffffffffffffffffffffffffffffffffffffff1673ffffffffffffffffffffffffffffffffffffffff168152602001908152602001600020600101819055506000600960003373ffffffffffffffffffffffffffffffffffffffff1673ffffffffffffffffffffffffffffffffffffffff16815260200190815260200160002060020160006101000a81548160ff02191690831515021790555080600160003373ffffffffffffffffffffffffffffffffffffffff1673ffffffffffffffffffffffffffffffffffffffff168152602001908152602001600020600082825403925050819055503373ffffffffffffffffffffffffffffffffffffffff167f1e9933321189dbcae2cc65270b17c79e62f3a034019f7b818aa1cafb6c6ab588838360006040518084815260200183815260200182151515158152602001935050505060405180910390a25050565b6000806000836127108162ffffff16101561388857600660008662ffffff1662ffffff168152602001908152602001600020925060008360000160009054906101000a900473ffffffffffffffffffffffffffffffffffffffff1673ffffffffffffffffffffffffffffffffffffffff1614151561374257600080fd5b600a54341015151561375357600080fd5b346004600082825401925050819055506064600c54600a540281151561377557fe5b049150600b54821061378957600b5461378b565b815b600a60008282540192505081905550338360000160006101000a81548173ffffffffffffffffffffffffffffffffffffffff021916908373ffffffffffffffffffffffffffffffffffffffff1602179055508462ffffff167f0abb7627f5a43ce55d691cf577de9c09e8fee6f2dd1f45678a55ce86fadfd6f28460000160009054906101000a900473ffffffffffffffffffffffffffffffffffffffff1634600042604051808573ffffffffffffffffffffffffffffffffffffffff1673ffffffffffffffffffffffffffffffffffffffff16815260200184815260200183815260200182815260200194505050505060405180910390a2600193505b505050919050565b61014060405190810160405280600a905b60008152602001906001900390816138a15790505090565b60408051908101604052806002905b60008019168152602001906001900390816138c85790505090565b8260028101928215613918579160200282015b828111156139175782518290600019169055916020019190600101906138f6565b5b5090506139259190613969565b5090565b82600a8101928215613958579160200282015b8281111561395757825182559160200191906001019061393c565b5b509050613965919061398e565b5090565b61398b91905b8082111561398757600081600090555060010161396f565b5090565b90565b6139b091905b808211156139ac576000816000905550600101613994565b5090565b905600a165627a7a72305820f59e7c0929e726346b93d4c7904ea7167e5f0708f4ffb4aad7a9b693474c5bb20029",
  "source": "pragma solidity ^0.4.2;\n\ncontract Token {\n    uint256 public totalSupply;\n    function balanceOf(address _owner) public constant returns (uint256 balance);\n    function transfer(address _to, uint256 _value) public returns (bool success);\n    function transferFrom(address _from, address _to, uint256 _value) public returns (bool success);\n    function approve(address _spender, uint256 _value) public returns (bool success);\n    function allowance(address _owner, address _spender) public constant returns (uint256 remaining);\n    event Transfer(address indexed _from, address indexed _to, uint256 _value);\n    event Approval(address indexed _owner, address indexed _spender, uint256 _value);\n}\n/*  ERC 20 token */\ncontract StandardToken is Token {\n\n    function transfer(address _to, uint256 _value) public returns (bool success) {\n      if (balances[msg.sender] >= _value && _value > 0) {\n        balances[msg.sender] -= _value;\n        balances[_to] += _value;\n        Transfer(msg.sender, _to, _value);\n        return true;\n      } else {\n        return false;\n      }\n    }\n\n    function transferFrom(address _from, address _to, uint256 _value) public returns (bool success) {\n      if (balances[_from] >= _value && allowed[_from][msg.sender] >= _value && _value > 0) {\n        balances[_to] += _value;\n        balances[_from] -= _value;\n        allowed[_from][msg.sender] -= _value;\n        Transfer(_from, _to, _value);\n        return true;\n      } else {\n        return false;\n      }\n    }\n\n    function balanceOf(address _owner) public constant returns (uint256 balance) {\n        return balances[_owner];\n    }\n\n    function approve(address _spender, uint256 _value) public returns (bool success) {\n        allowed[msg.sender][_spender] = _value;\n        Approval(msg.sender, _spender, _value);\n        return true;\n    }\n\n    function allowance(address _owner, address _spender) public constant returns (uint256 remaining) {\n      return allowed[_owner][_spender];\n    }\n\n    mapping (address => uint256) balances;\n    mapping (address => mapping (address => uint256)) allowed;\n}\n\ncontract VirtualRealEstate is StandardToken {\n    address owner;\n    uint256 ownerEth = 0;\n    \n    uint256 pixelPot;\n    \n    //Mapping of propertyID to property\n    mapping (uint24 => Property) map;\n    //propertyOwner to link\n    mapping (address => bytes32[2]) ownerLink;\n    //propertyRenter to link\n    mapping (address => bytes32[2]) ownerHoverText;\n    //trade offers\n    mapping (address => TradeOffer) ppcTradeStatus;\n    \n    uint256 priceETH;\n    uint256 PRICE_ETH_MIN_INCREASE = 1000;//10000000000000000000000; //0.0001 ETH\n    uint256 PRICE_ETH_MIN_PERCENT = 20; //0.0001 ETH\n    uint256 pricePPC;\n    uint256 PRICE_PPC_MIN_INCREASE = 10;\n    uint256 PRICE_PPC_MIN_PERCENT = 20;\n    \n    uint256 USER_BUY_CUT_PERCENT = 98; //%\n    \n    uint256 PROPERTY_GENERATES_PER_HOUR = 2;\n    uint256 FREE_COLOR_SETTING_UNTIL;\n    \n    event PropertyColorUpdate(uint24 indexed property, uint256[10] colors, uint256 lastUpdate, address lastUpdaterPayee);\n    event PropertyColorUpdatePixel(uint24 indexed property, uint8 row, uint24 rgb);\n    event PropertyBought(uint24 indexed property,  address newOwner, uint256 ethAmount, uint256 ppcAmount, uint256 timestamp); //Added ethAmount, ppcAmount and timestamp\n    event SetUserHoverText(address indexed user, bytes32[2] newHoverText);\n    event SetUserSetLink(address indexed user, bytes32[2] newLink);\n    event PropertySetForSale(uint24 indexed property, uint256 forSalePrice);\n    event DelistProperty(uint24 indexed property);\n\n    event ListTradeOffer(address indexed offerOwner, uint256 eth, uint256 ppc, bool isBuyingPPC);\n    //TODO: PPCBought\n    event UpdateTradeOffer(address indexed accepter, address indexed offerOwner, uint256 ppcBought, uint256 timestamp); //Added timestamp\n    event SetPropertyPublic(uint24 indexed property);\n    event SetPropertyPrivate(uint24 indexed property, uint32 numHoursPrivate);\n    \n    struct TradeOffer {\n        uint256 ethPer;\n        uint256 ppcAmount;\n        bool buyingPPC;\n    }\n    \n    struct Property {\n        address owner;\n        uint256[10] colors; //10x10 rgb pixel colors per property\n        uint256 salePrice;\n        address lastUpdater;\n        bool isInPrivateMode;\n        uint256 lastUpdate;\n        uint256 becomePublic;\n    }\n    \n    modifier ownerOnly() {\n        require(owner == msg.sender);\n        _;\n    }\n    \n    modifier validPropertyID(uint24 propertyID) {\n        if (propertyID < 10000) {\n            _;\n        }\n    }\n    \n    function VirtualRealEstate() public {\n        owner = msg.sender;\n        totalSupply = 0;\n        FREE_COLOR_SETTING_UNTIL = now + 1 days;\n        pricePPC = 10;\n        priceETH = 10000;//1000000000000000000; //0.001 ETH\n    }\n    function setHoverText(bytes32[2] text) public {\n        ownerHoverText[msg.sender] = text;\n        SetUserHoverText(msg.sender, text);\n    }\n    function setLink(bytes32[2] link) public {\n        ownerLink[msg.sender] = link;\n        SetUserSetLink(msg.sender, link);\n    }\n    function getForSalePrices(uint24 propertyID) public validPropertyID(propertyID) view returns(uint256, uint256) {\n        Property storage property = map[propertyID];\n        if (property.owner == 0) {\n            return (priceETH, pricePPC);\n        } else {\n            return (0, property.salePrice);\n        }\n    }\n    function getHoverText(address user) public view returns(bytes32[2]) {\n        return ownerHoverText[user];\n    }\n    function getLink(address user) public view returns(bytes32[2]) {\n        return ownerLink[user];\n    }\n    \n    function getPropertyColors(uint24 propertyID) public validPropertyID(propertyID) view returns(uint256[10]) {\n        return map[propertyID].colors;\n    }\n    \n    function getPropertyData(uint24 propertyID) public validPropertyID(propertyID) view returns(address, uint256, uint256, uint256, bool) {\n        Property storage property = map[propertyID];\n        if (property.owner == 0) {\n            return (property.owner, priceETH, pricePPC, property.lastUpdate, property.isInPrivateMode);\n        } else {\n            return (property.owner, 0, property.salePrice, property.lastUpdate, property.isInPrivateMode);\n        }\n    }\n    //Change a 10x10 == 70 | 30 | 0 cost\n    function setColors(uint24 propertyID, uint256[10] newColors) public validPropertyID(propertyID) returns(bool) {\n        Property storage property = map[propertyID];\n        \n        //Cost 2 if no owner, 1 if owned\n        uint256 cost = property.owner != 0 ? 1 : 2;\n        \n        //If it's in private mode, we must be the owner, but it's free\n        if (property.isInPrivateMode) {\n            //If it's still privately owned\n            if (property.becomePublic > now) {\n                require(msg.sender == property.owner);\n                cost = 0;\n            }\n            //No long erin private mode, ran out\n            else {\n                property.isInPrivateMode = false;\n                property.becomePublic = 0;\n            }\n        } \n        //If we're in the first few days, setting the color is free\n        else if (now <= FREE_COLOR_SETTING_UNTIL) {\n            cost = 0;\n        }\n        \n        require(balances[msg.sender] >= cost);\n        \n        //If we're in Public Mode, payouts occur\n        \n        if (!property.isInPrivateMode && property.lastUpdate != 0) {\n            uint256 hoursSinceLastColorChange = (now - property.lastUpdate) / (5 seconds); //ERRORs on property.lastUpdate = 0\n            uint256 payout = hoursSinceLastColorChange * PROPERTY_GENERATES_PER_HOUR;\n    \n            if (payout > 0) {\n                address propertyOwnerPayee = property.owner;\n                address lastUpdaterPayee = property.lastUpdater;\n                if (propertyOwnerPayee == 0) {\n                    if (lastUpdaterPayee != 0) {\n                        propertyOwnerPayee = lastUpdaterPayee;\n                    }\n                }\n                //Payout half to ownerPayee and half to updaterPayee\n                if (propertyOwnerPayee != 0) {\n                    balances[propertyOwnerPayee] += payout / 2;\n                }\n                if (lastUpdaterPayee != 0) {\n                    balances[lastUpdaterPayee] += payout / 2;\n                }\n                totalSupply += payout;\n            }\n        }\n        \n        //Burn the coins from the sender\n        balances[msg.sender] -= cost; //Burn the coin to set the color\n        \n        property.colors = newColors;\n        property.lastUpdater = msg.sender;\n        property.lastUpdate = now;\n        uint256 timeUpdate = now;\n        \n        PropertyColorUpdate(propertyID, newColors, timeUpdate, lastUpdaterPayee);\n        \n        return true;\n    }\n    function setPropertyMode(uint24 propertyID, bool isInPrivateMode, uint32 numHoursPrivate) public validPropertyID(propertyID) {\n        Property storage property = map[propertyID];\n        require(msg.sender == property.owner);\n        if (isInPrivateMode) {\n            require(numHoursPrivate > 0);\n            require(balances[msg.sender] >= numHoursPrivate);\n            balances[msg.sender] -= numHoursPrivate;\n            property.becomePublic = now + (1 seconds) * numHoursPrivate; //TODO: seconds to hours\n        } else {\n            property.becomePublic = 0;\n        }\n        property.isInPrivateMode = isInPrivateMode;\n        \n        if (isInPrivateMode) {\n            SetPropertyPrivate(propertyID, numHoursPrivate);\n        } else {\n            SetPropertyPublic(propertyID);\n        }\n    }\n    function setBuyETHOffer(uint256 ethPer, uint256 offeredPPC) public {\n        //Require we have the ppc to offer\n        require(balances[msg.sender] >= offeredPPC);\n        require(ethPer > 0 && offeredPPC > 0);\n        \n        //Cancel old TradeOffer if present\n        cancelTradeOffer();\n        \n        //Set Offer\n        ppcTradeStatus[msg.sender].ethPer = ethPer;\n        ppcTradeStatus[msg.sender].ppcAmount = offeredPPC;\n        ppcTradeStatus[msg.sender].buyingPPC = false;\n        \n        //Lose offered ppc\n        balances[msg.sender] -= offeredPPC;\n        \n        ListTradeOffer(msg.sender, ethPer, offeredPPC, false);\n    }\n    \n    function getTradeOffer(address offerOwner) public view returns(uint256, uint256, bool) {\n        TradeOffer storage tradeOffer = ppcTradeStatus[offerOwner];\n        return (tradeOffer.ethPer, tradeOffer.ppcAmount, tradeOffer.buyingPPC);\n    }\n    function setBuyPPCOffer(uint256 ppcToBuy, uint256 ethPer) public payable {\n        //Require we have the eth to offer\n        require(msg.value >= ethPer);\n        require(ppcToBuy > 0 && ethPer > 0);\n        \n        //Cancel old TradeOffer if present\n        cancelTradeOffer();\n        \n        //Set Offer\n        TradeOffer storage tradeOffer = ppcTradeStatus[msg.sender];\n        tradeOffer.ppcAmount = ppcToBuy;\n        tradeOffer.ethPer = ethPer;\n        tradeOffer.buyingPPC = true;\n        \n        ListTradeOffer(msg.sender, ethPer, ppcToBuy, true);\n    }\n    function cancelTradeOffer() public {\n        TradeOffer storage tradeOffer = ppcTradeStatus[msg.sender];\n        //If we have a trade offer\n        if (tradeOffer.ethPer > 0 || tradeOffer.ppcAmount > 0) {\n            //We already deposited ETH. Return it back\n            if (tradeOffer.buyingPPC) {\n                msg.sender.transfer(tradeOffer.ethPer * tradeOffer.ppcAmount);\n            }\n            //We already deposited PPC. Return it back\n            else {\n                balances[msg.sender] += tradeOffer.ppcAmount;\n            }\n        \n            UpdateTradeOffer(0, msg.sender, 0, now);\n            tradeOffer.ethPer = 0;\n            tradeOffer.ppcAmount = 0;\n        }\n    }\n    function acceptOfferBuyingETH(address ownerOfTradeOffer) public payable {\n        TradeOffer storage tradeOffer = ppcTradeStatus[ownerOfTradeOffer];\n        //Make sure the accepter has enough to justify accepting\n        //require(tradeOffer.eth <= msg.value); ## Instead of having enough, we can partial-buy\n        require(ownerOfTradeOffer != 0);\n        require(msg.value > 0);\n        require(tradeOffer.ethPer != 0);\n        require(tradeOffer.ppcAmount != 0);\n        require(!tradeOffer.buyingPPC);\n        \n        uint256 maxEthprice = tradeOffer.ethPer * tradeOffer.ppcAmount;\n        \n        //require(msg.value == maxEthprice); ## Instead of having the exact amount to fulfill all, partial fill\n        \n        \n        //Take their money. They already deposited their coins\n        uint256 payedValue = msg.value > maxEthprice ? maxEthprice : msg.value;\n        \n        //Give them our money. We are deposited it by this being \"payable\"\n        ownerOfTradeOffer.transfer(payedValue);\n        \n        //10 * (100 / 200) = 10 * 0.5 = 5\n        //10 * 100 / 200 = 1000 / 200 = 5\n        \n        balances[msg.sender] += payedValue / tradeOffer.ethPer;\n        uint256 tradedPPC = payedValue / tradeOffer.ethPer;\n        \n        //Clear or split trade offers\n        if (payedValue == maxEthprice) {\n            tradeOffer.ethPer = 0;\n            tradedPPC = tradeOffer.ppcAmount;\n            tradeOffer.ppcAmount = 0;\n        } else {\n            tradeOffer.ppcAmount -= tradedPPC;\n        }\n        \n        UpdateTradeOffer(msg.sender, ownerOfTradeOffer, tradedPPC, now);\n    }\n    \n    function acceptOfferBuyingPPC(address ownerOfTradeOffer, uint256 ppcValue) public {\n        TradeOffer storage tradeOffer = ppcTradeStatus[ownerOfTradeOffer];\n        //Make sure the accepter has enough to justify accepting\n        //require(tradeOffer.ppc <= balances[msg.sender]);  ## Instead of having enough, we can partial-buy\n        require(ownerOfTradeOffer != 0);\n        require(tradeOffer.ethPer != 0);\n        require(tradeOffer.ppcAmount != 0);\n        require(ppcValue != 0);\n        require(tradeOffer.buyingPPC);\n        \n        //Take their money. They already deposited their coins\n        uint256 payedValue = ppcValue > tradeOffer.ppcAmount ? tradeOffer.ppcAmount : ppcValue;\n        \n        require(balances[msg.sender] >= payedValue);\n        \n        //Give them our money\n        balances[ownerOfTradeOffer] += payedValue;\n        balances[msg.sender] -= payedValue;\n        \n        //Take their money. They already deposited ETH\n        msg.sender.transfer(tradeOffer.ethPer * ppcValue);\n        \n        //Clear or split trade offers\n        if (payedValue == tradeOffer.ppcAmount) {\n            tradeOffer.ethPer = 0;\n            tradeOffer.ppcAmount = 0;\n        } else {\n            tradeOffer.ppcAmount -= payedValue;\n        }\n        \n        UpdateTradeOffer(msg.sender, ownerOfTradeOffer, payedValue, now);\n    }\n    \n    //Change pixel or 10x1 costs 7 | 3 | 0\n    function setRowColors(uint24 propertyID, uint8 row, uint24 newColorData) public validPropertyID(propertyID) returns(bool) {\n        Property storage property = map[propertyID];\n        \n        require(row >= 0 && row <= 9);\n        \n        uint256 cost = property.owner != 0 ? 1 : 2;\n        \n        if (property.isInPrivateMode) {\n                require(msg.sender == property.owner);\n                cost = 0;\n        } \n        \n        require(balances[msg.sender] >= cost);\n        \n        balances[msg.sender] -= cost; //Burn the coin to set the color\n        \n        property.colors[row] = newColorData;\n        property.lastUpdater = msg.sender;\n\n        PropertyColorUpdatePixel(propertyID, row, newColorData);\n        \n        return true;\n    }\n    \n    function transferProperty(uint24 propertyID, address newOwner) public validPropertyID(propertyID) returns(bool) {\n        Property storage property = map[propertyID];\n        \n        require(property.owner == msg.sender);\n        require(newOwner != 0);\n        \n        property.owner = newOwner;\n\n        PropertyBought(propertyID, newOwner, 0, 0, now);\n        \n        return true;\n    }\n    function buyProperty(uint24 propertyID, uint256 ppcValue) public validPropertyID(propertyID) payable returns(bool) {\n        Property storage property = map[propertyID];\n        \n        //Must be the first purchase, otherwise do it with ppc\n        require(property.owner == 0);\n        //Required to avoid underflowing (pricePPC - ppcValue)\n        require(ppcValue <= pricePPC);\n        require(balances[msg.sender] >= ppcValue);\n        require(ppcValue != 0);\n        \n        uint256 ppcLeft = pricePPC - ppcValue;\n        uint256 ethLeft = priceETH / pricePPC * ppcLeft;\n        \n        require(msg.value >= ethLeft);\n    \n        balances[owner] += ppcValue;\n        balances[msg.sender] -= ppcValue;\n\n        uint256 minPercent = pricePPC * PRICE_PPC_MIN_PERCENT / 100;\n        pricePPC += ((minPercent < PRICE_PPC_MIN_INCREASE) ? minPercent : PRICE_PPC_MIN_INCREASE) * ppcValue / pricePPC;\n\n        ownerEth += msg.value;\n        minPercent = priceETH * PRICE_ETH_MIN_PERCENT / 100;\n        priceETH += ((minPercent < PRICE_ETH_MIN_INCREASE) ? minPercent : PRICE_ETH_MIN_INCREASE) * ppcLeft / ppcValue;\n        \n        property.owner = msg.sender;\n        \n        PropertyBought(propertyID, property.owner, msg.value, ppcValue, now);\n\n        property.owner = msg.sender;\n        \n        return true;\n    }\n    function buyPropertyInPPC(uint24 propertyID, uint256 ppcValue) public validPropertyID(propertyID) returns(bool) {\n        Property storage property = map[propertyID];\n        \n        //If they have no owner, do the PPC price and update it\n        if (property.owner == 0) {\n            property.salePrice = pricePPC;\n            property.owner = owner;\n            uint256 minPercent = pricePPC * PRICE_PPC_MIN_PERCENT / 100;\n            pricePPC += (minPercent < PRICE_PPC_MIN_INCREASE) ? minPercent : PRICE_PPC_MIN_INCREASE;\n        }\n        \n        require(property.salePrice <= ppcValue);\n        require(balances[msg.sender] >= property.salePrice);\n        \n        uint256 amountTransfered = 0;\n        amountTransfered = property.salePrice * USER_BUY_CUT_PERCENT / 100;\n        \n        balances[property.owner] += amountTransfered;\n        balances[owner] += ppcValue - amountTransfered;\n        \n        PropertyBought(propertyID, property.owner, 0, property.salePrice, now);\n\n        property.salePrice = 0;\n        property.owner = msg.sender;\n        property.isInPrivateMode = false;\n        \n        return true;\n    }\n    //Use Case: Buyer wants to buy a property.\n    function buyPropertyInETH(uint24 propertyID) public validPropertyID(propertyID) payable returns(bool) {\n        Property storage property = map[propertyID];\n        \n        require(property.owner == 0);\n        require(msg.value >= priceETH);\n        \n        ownerEth += msg.value;\n    \n        uint256 minPercent = priceETH * PRICE_ETH_MIN_PERCENT / 100;\n        priceETH += (minPercent < PRICE_ETH_MIN_INCREASE) ? minPercent : PRICE_ETH_MIN_INCREASE;\n        \n        property.owner = msg.sender;\n        \n        PropertyBought(propertyID, property.owner, msg.value, 0, now);\n        \n        return true;\n    }\n    \n    //Use Case: Owner of a property lists for sale at a given price\n    function listForSale(uint24 propertyID, uint128 price ) public validPropertyID(propertyID) returns(bool) {\n        Property storage property = map[propertyID];\n      \n        require(price != 0);\n      \n        require(msg.sender == property.owner); //Must be the owner\n        //You can listForSale an already listed item to update the listing\n        property.salePrice = price;\n        \n        PropertySetForSale(propertyID, property.salePrice);\n        \n        return true;\n    }\n    \n    //Use Case: Owner of a property delists from both renting offer and sale offer\n    function delist(uint24 propertyID) public validPropertyID(propertyID) returns(bool) {\n        Property storage property = map[propertyID];\n        \n        require(msg.sender == property.owner); //Must be the owner\n        \n        property.salePrice = 0;\n        \n        DelistProperty(propertyID);\n        \n        return true;\n    }\n    \n    //////////////////////////////////////////////////////\n    ////Owner Sections: Meta-Functions For Owner only/////\n    //////////////////////////////////////////////////////\n    function withdraw(uint256 amount) public ownerOnly() {\n        if (amount <= ownerEth) {\n            owner.transfer(amount);\n        }\n    }\n    \n    function withdrawAll() public ownerOnly() {\n        owner.transfer(ownerEth);\n    }\n    \n    function changeOwners(address newOwner) public ownerOnly() {\n        owner = newOwner;\n    }\n    \n    ////////////////////////////////////////////////\n    ///TODO: TESTING ONLY: REMOVE BEFORE RELEASE:///\n    ////////////////////////////////////////////////\n    function addCoin(address user, uint256 amount) public ownerOnly() {\n        balances[user] += amount;\n    }\n    //setPropertyMode ->seconds to hours\n    //setColors -> 5 seconds to 1 hour\n    //FREE_COLOR_SETTING_UNTIL in constructor needs to be changed to have the +1 days\n}",
  "sourcePath": "/Volumes/Lexar/DATA/PixelRealEstate/PixelRealEstate/contracts/VirtualRealEstate.sol",
  "compiler": {
    "name": "solc",
    "version": "0.4.18+commit.9cf6e910.Emscripten.clang"
  },
  "schemaVersion": "1.0.1",
  "updatedAt": "2018-02-03T00:56:57.689Z"
}