{
  "contractName": "VirtualRealEstate",
  "abi": [
    {
      "constant": true,
      "inputs": [
        {
          "name": "propertyID",
          "type": "uint24"
        }
      ],
      "name": "getPropertyData",
      "outputs": [
        {
          "name": "",
          "type": "address"
        },
        {
          "name": "",
          "type": "uint128"
        },
        {
          "name": "",
          "type": "address"
        },
        {
          "name": "",
          "type": "uint256"
        },
        {
          "name": "",
          "type": "uint256"
        },
        {
          "name": "",
          "type": "uint128"
        }
      ],
      "payable": false,
      "stateMutability": "view",
      "type": "function"
    },
    {
      "constant": false,
      "inputs": [
        {
          "name": "propertyID",
          "type": "uint24"
        },
        {
          "name": "price",
          "type": "uint128"
        }
      ],
      "name": "listForSale",
      "outputs": [
        {
          "name": "",
          "type": "bool"
        }
      ],
      "payable": false,
      "stateMutability": "nonpayable",
      "type": "function"
    },
    {
      "constant": true,
      "inputs": [
        {
          "name": "propertyID",
          "type": "uint24"
        }
      ],
      "name": "getPropertyColors",
      "outputs": [
        {
          "name": "",
          "type": "uint256[10]"
        }
      ],
      "payable": false,
      "stateMutability": "view",
      "type": "function"
    },
    {
      "constant": false,
      "inputs": [
        {
          "name": "text",
          "type": "bytes32[2]"
        }
      ],
      "name": "setHoverText",
      "outputs": [],
      "payable": false,
      "stateMutability": "nonpayable",
      "type": "function"
    },
    {
      "constant": false,
      "inputs": [
        {
          "name": "link",
          "type": "bytes32[2]"
        }
      ],
      "name": "setLink",
      "outputs": [],
      "payable": false,
      "stateMutability": "nonpayable",
      "type": "function"
    },
    {
      "constant": false,
      "inputs": [
        {
          "name": "propertyID",
          "type": "uint24"
        }
      ],
      "name": "rentProperty",
      "outputs": [
        {
          "name": "",
          "type": "bool"
        }
      ],
      "payable": true,
      "stateMutability": "payable",
      "type": "function"
    },
    {
      "constant": false,
      "inputs": [
        {
          "name": "amount",
          "type": "uint256"
        }
      ],
      "name": "withdraw",
      "outputs": [],
      "payable": false,
      "stateMutability": "nonpayable",
      "type": "function"
    },
    {
      "constant": false,
      "inputs": [
        {
          "name": "defaultPrice",
          "type": "uint128"
        }
      ],
      "name": "changeDefaultPrice",
      "outputs": [],
      "payable": false,
      "stateMutability": "nonpayable",
      "type": "function"
    },
    {
      "constant": false,
      "inputs": [
        {
          "name": "propertyID",
          "type": "uint24"
        }
      ],
      "name": "stopRenting",
      "outputs": [
        {
          "name": "",
          "type": "bool"
        }
      ],
      "payable": false,
      "stateMutability": "nonpayable",
      "type": "function"
    },
    {
      "constant": true,
      "inputs": [
        {
          "name": "propertyID",
          "type": "uint24"
        }
      ],
      "name": "getLink",
      "outputs": [
        {
          "name": "",
          "type": "bytes32[2]"
        }
      ],
      "payable": false,
      "stateMutability": "view",
      "type": "function"
    },
    {
      "constant": true,
      "inputs": [
        {
          "name": "propertyID",
          "type": "uint24"
        }
      ],
      "name": "getHoverText",
      "outputs": [
        {
          "name": "",
          "type": "bytes32[2]"
        }
      ],
      "payable": false,
      "stateMutability": "view",
      "type": "function"
    },
    {
      "constant": true,
      "inputs": [
        {
          "name": "propertyID",
          "type": "uint24"
        }
      ],
      "name": "getForSalePrice",
      "outputs": [
        {
          "name": "",
          "type": "uint128"
        }
      ],
      "payable": false,
      "stateMutability": "view",
      "type": "function"
    },
    {
      "constant": false,
      "inputs": [
        {
          "name": "propertyID",
          "type": "uint24"
        },
        {
          "name": "newOwner",
          "type": "address"
        }
      ],
      "name": "transferProperty",
      "outputs": [
        {
          "name": "",
          "type": "bool"
        }
      ],
      "payable": false,
      "stateMutability": "nonpayable",
      "type": "function"
    },
    {
      "constant": false,
      "inputs": [
        {
          "name": "propertyID",
          "type": "uint24"
        }
      ],
      "name": "buyProperty",
      "outputs": [
        {
          "name": "",
          "type": "bool"
        }
      ],
      "payable": true,
      "stateMutability": "payable",
      "type": "function"
    },
    {
      "constant": false,
      "inputs": [],
      "name": "withdrawAll",
      "outputs": [],
      "payable": false,
      "stateMutability": "nonpayable",
      "type": "function"
    },
    {
      "constant": true,
      "inputs": [
        {
          "name": "propertyID",
          "type": "uint24"
        }
      ],
      "name": "getForRentPrice",
      "outputs": [
        {
          "name": "",
          "type": "uint128"
        }
      ],
      "payable": false,
      "stateMutability": "view",
      "type": "function"
    },
    {
      "constant": true,
      "inputs": [
        {
          "name": "x",
          "type": "uint24"
        },
        {
          "name": "row",
          "type": "uint24"
        }
      ],
      "name": "getPropertyColorsOfRow",
      "outputs": [
        {
          "name": "",
          "type": "uint256[10]"
        }
      ],
      "payable": false,
      "stateMutability": "view",
      "type": "function"
    },
    {
      "constant": false,
      "inputs": [
        {
          "name": "propertyID",
          "type": "uint24"
        },
        {
          "name": "rentPrice",
          "type": "uint128"
        },
        {
          "name": "rentDuration",
          "type": "uint128"
        }
      ],
      "name": "listForRent",
      "outputs": [
        {
          "name": "",
          "type": "bool"
        }
      ],
      "payable": false,
      "stateMutability": "nonpayable",
      "type": "function"
    },
    {
      "constant": false,
      "inputs": [
        {
          "name": "propertyID",
          "type": "uint24"
        },
        {
          "name": "delistFromSale",
          "type": "bool"
        },
        {
          "name": "delistFromRent",
          "type": "bool"
        }
      ],
      "name": "delist",
      "outputs": [
        {
          "name": "",
          "type": "bool"
        }
      ],
      "payable": false,
      "stateMutability": "nonpayable",
      "type": "function"
    },
    {
      "constant": false,
      "inputs": [
        {
          "name": "newOwner",
          "type": "address"
        }
      ],
      "name": "changeOwners",
      "outputs": [],
      "payable": false,
      "stateMutability": "nonpayable",
      "type": "function"
    },
    {
      "constant": false,
      "inputs": [
        {
          "name": "propertyID",
          "type": "uint24"
        },
        {
          "name": "newColors",
          "type": "uint256[10]"
        }
      ],
      "name": "setColors",
      "outputs": [
        {
          "name": "",
          "type": "bool"
        }
      ],
      "payable": false,
      "stateMutability": "nonpayable",
      "type": "function"
    },
    {
      "inputs": [],
      "payable": false,
      "stateMutability": "nonpayable",
      "type": "constructor"
    },
    {
      "anonymous": false,
      "inputs": [
        {
          "indexed": true,
          "name": "property",
          "type": "uint24"
        },
        {
          "indexed": false,
          "name": "colors",
          "type": "uint256[10]"
        }
      ],
      "name": "PropertyColorUpdate",
      "type": "event"
    }
  ],
  "bytecode": "0x60606040526000600155655af3107a4000600560006101000a8154816fffffffffffffffffffffffffffffffff02191690836fffffffffffffffffffffffffffffffff1602179055506601c6bf52634000600560106101000a8154816fffffffffffffffffffffffffffffffff02191690836fffffffffffffffffffffffffffffffff160217905550662386f26fc10000600660006101000a8154816fffffffffffffffffffffffffffffffff02191690836fffffffffffffffffffffffffffffffff1602179055506435e55f1909600660106101000a8154816fffffffffffffffffffffffffffffffff02191690836fffffffffffffffffffffffffffffffff1602179055506062600760006101000a8154816fffffffffffffffffffffffffffffffff02191690836fffffffffffffffffffffffffffffffff1602179055506062600760106101000a8154816fffffffffffffffffffffffffffffffff02191690836fffffffffffffffffffffffffffffffff160217905550341561018557600080fd5b336000806101000a81548173ffffffffffffffffffffffffffffffffffffffff021916908373ffffffffffffffffffffffffffffffffffffffff16021790555062093a804201600881905550612b03806101e06000396000f30060606040526004361061011d576000357c0100000000000000000000000000000000000000000000000000000000900463ffffffff168063075773fd1461012257806316035c7c14610221578063164e0aba1461027c5780631d04458d146102e0578063284b8a64146103265780632d37a6ea1461036c5780632e1a7d4d146103a157806346d7e5d4146103c4578063497e37a5146103f95780635211aa1a146104395780637a5f97ca1461049d57806381c7110b1461050157806382e573961461056157806383dc8732146105c0578063853828b6146105f5578063a107f3261461060a578063bd5ee8461461066a578063c2675a39146106dc578063cc01a8d114610752578063d7963f94146107a8578063dc4cb7f5146107e1575b600080fd5b341561012d57600080fd5b610148600480803562ffffff1690602001909190505061084e565b604051808773ffffffffffffffffffffffffffffffffffffffff1673ffffffffffffffffffffffffffffffffffffffff168152602001866fffffffffffffffffffffffffffffffff166fffffffffffffffffffffffffffffffff1681526020018573ffffffffffffffffffffffffffffffffffffffff1673ffffffffffffffffffffffffffffffffffffffff168152602001848152602001838152602001826fffffffffffffffffffffffffffffffff166fffffffffffffffffffffffffffffffff168152602001965050505050505060405180910390f35b341561022c57600080fd5b610262600480803562ffffff169060200190919080356fffffffffffffffffffffffffffffffff16906020019091905050610936565b604051808215151515815260200191505060405180910390f35b341561028757600080fd5b6102a2600480803562ffffff16906020019091905050610b50565b6040518082600a60200280838360005b838110156102cd5780820151818401526020810190506102b2565b5050505090500191505060405180910390f35b34156102eb57600080fd5b61032460048080604001906002806020026040519081016040528092919082600260200280828437820191505050505091905050610bcd565b005b341561033157600080fd5b61036a60048080604001906002806020026040519081016040528092919082600260200280828437820191505050505091905050610c1f565b005b610387600480803562ffffff16906020019091905050610c71565b604051808215151515815260200191505060405180910390f35b34156103ac57600080fd5b6103c2600480803590602001909190505061100c565b005b34156103cf57600080fd5b6103f760048080356fffffffffffffffffffffffffffffffff169060200190919050506110d7565b005b341561040457600080fd5b61041f600480803562ffffff1690602001909190505061116e565b604051808215151515815260200191505060405180910390f35b341561044457600080fd5b61045f600480803562ffffff1690602001909190505061124e565b6040518082600260200280838360005b8381101561048a57808201518184015260208101905061046f565b5050505090500191505060405180910390f35b34156104a857600080fd5b6104c3600480803562ffffff16906020019091905050611439565b6040518082600260200280838360005b838110156104ee5780820151818401526020810190506104d3565b5050505090500191505060405180910390f35b341561050c57600080fd5b610527600480803562ffffff16906020019091905050611624565b60405180826fffffffffffffffffffffffffffffffff166fffffffffffffffffffffffffffffffff16815260200191505060405180910390f35b341561056c57600080fd5b6105a6600480803562ffffff1690602001909190803573ffffffffffffffffffffffffffffffffffffffff169060200190919050506116c3565b604051808215151515815260200191505060405180910390f35b6105db600480803562ffffff169060200190919050506118e9565b604051808215151515815260200191505060405180910390f35b341561060057600080fd5b610608611f11565b005b341561061557600080fd5b610630600480803562ffffff16906020019091905050611fd1565b60405180826fffffffffffffffffffffffffffffffff166fffffffffffffffffffffffffffffffff16815260200191505060405180910390f35b341561067557600080fd5b61069e600480803562ffffff1690602001909190803562ffffff16906020019091905050612070565b6040518082600a60200280838360005b838110156106c95780820151818401526020810190506106ae565b5050505090500191505060405180910390f35b34156106e757600080fd5b610738600480803562ffffff169060200190919080356fffffffffffffffffffffffffffffffff169060200190919080356fffffffffffffffffffffffffffffffff16906020019091905050612163565b604051808215151515815260200191505060405180910390f35b341561075d57600080fd5b61078e600480803562ffffff16906020019091908035151590602001909190803515159060200190919050506123bc565b604051808215151515815260200191505060405180910390f35b34156107b357600080fd5b6107df600480803573ffffffffffffffffffffffffffffffffffffffff16906020019091905050612644565b005b34156107ec57600080fd5b610834600480803562ffffff1690602001909190806101400190600a806020026040519081016040528092919082600a602002808284378201915050505050919050506126e2565b604051808215151515815260200191505060405180910390f35b6000806000806000806000876127108162ffffff16101561092b57600260008a62ffffff1662ffffff16815260200190815260200160002091508160000160009054906101000a900473ffffffffffffffffffffffffffffffffffffffff1682600b0160009054906101000a90046fffffffffffffffffffffffffffffffff1683600c0160009054906101000a900473ffffffffffffffffffffffffffffffffffffffff1684600d015485600e015486600f0160009054906101000a90046fffffffffffffffffffffffffffffffff169750975097509750975097505b505091939550919395565b600080836127108162ffffff161015610b4857600260008662ffffff1662ffffff16815260200190815260200160002091506000846fffffffffffffffffffffffffffffffff161415151561098a57600080fd5b600082600f0160009054906101000a90046fffffffffffffffffffffffffffffffff166fffffffffffffffffffffffffffffffff1614158015610a085750600082600c0160009054906101000a900473ffffffffffffffffffffffffffffffffffffffff1673ffffffffffffffffffffffffffffffffffffffff1614155b8015610a1757504282600e0154105b15610a6157600082600c0160006101000a81548173ffffffffffffffffffffffffffffffffffffffff021916908373ffffffffffffffffffffffffffffffffffffffff1602179055505b8160000160009054906101000a900473ffffffffffffffffffffffffffffffffffffffff1673ffffffffffffffffffffffffffffffffffffffff163373ffffffffffffffffffffffffffffffffffffffff16141515610abf57600080fd5b600082600c0160009054906101000a900473ffffffffffffffffffffffffffffffffffffffff1673ffffffffffffffffffffffffffffffffffffffff16141515610b0857600080fd5b8382600b0160006101000a8154816fffffffffffffffffffffffffffffffff02191690836fffffffffffffffffffffffffffffffff160217905550600192505b505092915050565b610b586129b4565b816127108162ffffff161015610bc757600260008462ffffff1662ffffff168152602001908152602001600020600101600a806020026040519081016040528092919082600a8015610bbf576020028201915b815481526020019060010190808311610bab575b505050505091505b50919050565b80600460003373ffffffffffffffffffffffffffffffffffffffff1673ffffffffffffffffffffffffffffffffffffffff168152602001908152602001600020906002610c1b9291906129dd565b5050565b80600360003373ffffffffffffffffffffffffffffffffffffffff1673ffffffffffffffffffffffffffffffffffffffff168152602001908152602001600020906002610c6d9291906129dd565b5050565b6000806000806000856127108162ffffff16101561100257600260008862ffffff1662ffffff168152602001908152602001600020945060008560000160009054906101000a900473ffffffffffffffffffffffffffffffffffffffff1673ffffffffffffffffffffffffffffffffffffffff1614610d0e57600660109054906101000a90046fffffffffffffffffffffffffffffffff16610d30565b84600f0160009054906101000a90046fffffffffffffffffffffffffffffffff165b6fffffffffffffffffffffffffffffffff16935084600f0160009054906101000a90046fffffffffffffffffffffffffffffffff166fffffffffffffffffffffffffffffffff1634811515610d8157fe5b04925060008414158015610dd05750600085600c0160009054906101000a900473ffffffffffffffffffffffffffffffffffffffff1673ffffffffffffffffffffffffffffffffffffffff1614155b8015610ddf57504285600e0154105b15610e2957600085600c0160006101000a81548173ffffffffffffffffffffffffffffffffffffffff021916908373ffffffffffffffffffffffffffffffffffffffff1602179055505b60008414151515610e3957600080fd5b60018310151515610e4957600080fd5b600085600c0160009054906101000a900473ffffffffffffffffffffffffffffffffffffffff1673ffffffffffffffffffffffffffffffffffffffff16141515610e9257600080fd5b6064600760109054906101000a90046fffffffffffffffffffffffffffffffff166fffffffffffffffffffffffffffffffff163402811515610ed057fe5b04915060008560000160009054906101000a900473ffffffffffffffffffffffffffffffffffffffff1673ffffffffffffffffffffffffffffffffffffffff16141515610f7c578460000160009054906101000a900473ffffffffffffffffffffffffffffffffffffffff1673ffffffffffffffffffffffffffffffffffffffff166108fc839081150290604051600060405180830381858888f193505050501515610f7b57600080fd5b5b3385600c0160006101000a81548173ffffffffffffffffffffffffffffffffffffffff021916908373ffffffffffffffffffffffffffffffffffffffff16021790555082420185600d01541015610fdf5784600d015485600e0181905550610feb565b82420185600e01819055505b813403600160008282540192505081905550600195505b5050505050919050565b3373ffffffffffffffffffffffffffffffffffffffff166000809054906101000a900473ffffffffffffffffffffffffffffffffffffffff1673ffffffffffffffffffffffffffffffffffffffff1614151561106757600080fd5b600154811115156110d4576000809054906101000a900473ffffffffffffffffffffffffffffffffffffffff1673ffffffffffffffffffffffffffffffffffffffff166108fc829081150290604051600060405180830381858888f1935050505015156110d357600080fd5b5b50565b3373ffffffffffffffffffffffffffffffffffffffff166000809054906101000a900473ffffffffffffffffffffffffffffffffffffffff1673ffffffffffffffffffffffffffffffffffffffff1614151561113257600080fd5b80600660006101000a8154816fffffffffffffffffffffffffffffffff02191690836fffffffffffffffffffffffffffffffff16021790555050565b600080826127108162ffffff16101561124757600260008562ffffff1662ffffff168152602001908152602001600020915081600c0160009054906101000a900473ffffffffffffffffffffffffffffffffffffffff1673ffffffffffffffffffffffffffffffffffffffff163373ffffffffffffffffffffffffffffffffffffffff161415156111fe57600080fd5b600082600c0160006101000a81548173ffffffffffffffffffffffffffffffffffffffff021916908373ffffffffffffffffffffffffffffffffffffffff160217905550600192505b5050919050565b611256612a23565b600080836127108162ffffff16101561143157600260008662ffffff1662ffffff1681526020019081526020016000209250600083600c0160009054906101000a900473ffffffffffffffffffffffffffffffffffffffff1673ffffffffffffffffffffffffffffffffffffffff1614158061130d575060008360000160009054906101000a900473ffffffffffffffffffffffffffffffffffffffff1673ffffffffffffffffffffffffffffffffffffffff1614155b151561131857600080fd5b600083600c0160009054906101000a900473ffffffffffffffffffffffffffffffffffffffff1673ffffffffffffffffffffffffffffffffffffffff161415611387578260000160009054906101000a900473ffffffffffffffffffffffffffffffffffffffff1691506113af565b82600c0160009054906101000a900473ffffffffffffffffffffffffffffffffffffffff1691505b600360008373ffffffffffffffffffffffffffffffffffffffff1673ffffffffffffffffffffffffffffffffffffffff168152602001908152602001600020600280602002604051908101604052809291908260028015611429576020028201915b81546000191681526020019060010190808311611411575b505050505093505b505050919050565b611441612a23565b600080836127108162ffffff16101561161c57600260008662ffffff1662ffffff1681526020019081526020016000209250600083600c0160009054906101000a900473ffffffffffffffffffffffffffffffffffffffff1673ffffffffffffffffffffffffffffffffffffffff161415806114f8575060008360000160009054906101000a900473ffffffffffffffffffffffffffffffffffffffff1673ffffffffffffffffffffffffffffffffffffffff1614155b151561150357600080fd5b600083600c0160009054906101000a900473ffffffffffffffffffffffffffffffffffffffff1673ffffffffffffffffffffffffffffffffffffffff161415611572578260000160009054906101000a900473ffffffffffffffffffffffffffffffffffffffff16915061159a565b82600c0160009054906101000a900473ffffffffffffffffffffffffffffffffffffffff1691505b600460008373ffffffffffffffffffffffffffffffffffffffff1673ffffffffffffffffffffffffffffffffffffffff168152602001908152602001600020600280602002604051908101604052809291908260028015611614576020028201915b815460001916815260200190600101908083116115fc575b505050505093505b505050919050565b600080826127108162ffffff1610156116bc57600260008562ffffff1662ffffff1681526020019081526020016000209150600082600b0160009054906101000a90046fffffffffffffffffffffffffffffffff166fffffffffffffffffffffffffffffffff161415151561169857600080fd5b81600b0160009054906101000a90046fffffffffffffffffffffffffffffffff1692505b5050919050565b600080836127108162ffffff1610156118e157600260008662ffffff1662ffffff1681526020019081526020016000209150600082600f0160009054906101000a90046fffffffffffffffffffffffffffffffff166fffffffffffffffffffffffffffffffff16141580156117735750600082600c0160009054906101000a900473ffffffffffffffffffffffffffffffffffffffff1673ffffffffffffffffffffffffffffffffffffffff1614155b801561178257504282600e0154105b156117cc57600082600c0160006101000a81548173ffffffffffffffffffffffffffffffffffffffff021916908373ffffffffffffffffffffffffffffffffffffffff1602179055505b3373ffffffffffffffffffffffffffffffffffffffff168260000160009054906101000a900473ffffffffffffffffffffffffffffffffffffffff1673ffffffffffffffffffffffffffffffffffffffff1614151561182a57600080fd5b600082600c0160009054906101000a900473ffffffffffffffffffffffffffffffffffffffff1673ffffffffffffffffffffffffffffffffffffffff1614151561187357600080fd5b60008473ffffffffffffffffffffffffffffffffffffffff161415151561189957600080fd5b838260000160006101000a81548173ffffffffffffffffffffffffffffffffffffffff021916908373ffffffffffffffffffffffffffffffffffffffff160217905550600192505b505092915050565b6000806000836127108162ffffff161015611f09576008544210151561190e57600080fd5b600260008662ffffff1662ffffff168152602001908152602001600020925060008360000160009054906101000a900473ffffffffffffffffffffffffffffffffffffffff1673ffffffffffffffffffffffffffffffffffffffff161415611b1e576000809054906101000a900473ffffffffffffffffffffffffffffffffffffffff168360000160006101000a81548173ffffffffffffffffffffffffffffffffffffffff021916908373ffffffffffffffffffffffffffffffffffffffff160217905550600660009054906101000a90046fffffffffffffffffffffffffffffffff1683600b0160006101000a8154816fffffffffffffffffffffffffffffffff02191690836fffffffffffffffffffffffffffffffff160217905550600560109054906101000a90046fffffffffffffffffffffffffffffffff16600660008282829054906101000a90046fffffffffffffffffffffffffffffffff160192506101000a8154816fffffffffffffffffffffffffffffffff02191690836fffffffffffffffffffffffffffffffff160217905550600560009054906101000a90046fffffffffffffffffffffffffffffffff16600560108282829054906101000a90046fffffffffffffffffffffffffffffffff160192506101000a8154816fffffffffffffffffffffffffffffffff02191690836fffffffffffffffffffffffffffffffff1602179055505b600083600f0160009054906101000a90046fffffffffffffffffffffffffffffffff166fffffffffffffffffffffffffffffffff1614158015611b9c5750600083600c0160009054906101000a900473ffffffffffffffffffffffffffffffffffffffff1673ffffffffffffffffffffffffffffffffffffffff1614155b8015611bab57504283600e0154105b15611bf557600083600c0160006101000a81548173ffffffffffffffffffffffffffffffffffffffff021916908373ffffffffffffffffffffffffffffffffffffffff1602179055505b600083600b0160009054906101000a90046fffffffffffffffffffffffffffffffff166fffffffffffffffffffffffffffffffff1614151515611c3757600080fd5b600083600c0160009054906101000a900473ffffffffffffffffffffffffffffffffffffffff1673ffffffffffffffffffffffffffffffffffffffff16141515611c8057600080fd5b82600b0160009054906101000a90046fffffffffffffffffffffffffffffffff166fffffffffffffffffffffffffffffffff163410151515611cc157600080fd5b6000915060008360000160009054906101000a900473ffffffffffffffffffffffffffffffffffffffff1673ffffffffffffffffffffffffffffffffffffffff16141515611de1576064600760009054906101000a90046fffffffffffffffffffffffffffffffff1684600b0160009054906101000a90046fffffffffffffffffffffffffffffffff16026fffffffffffffffffffffffffffffffff16811515611d6757fe5b0491508260000160009054906101000a900473ffffffffffffffffffffffffffffffffffffffff1673ffffffffffffffffffffffffffffffffffffffff166108fc836fffffffffffffffffffffffffffffffff169081150290604051600060405180830381858888f193505050501515611de057600080fd5b5b600083600f0160006101000a8154816fffffffffffffffffffffffffffffffff02191690836fffffffffffffffffffffffffffffffff160217905550600083600c0160006101000a81548173ffffffffffffffffffffffffffffffffffffffff021916908373ffffffffffffffffffffffffffffffffffffffff160217905550600083600b0160006101000a8154816fffffffffffffffffffffffffffffffff02191690836fffffffffffffffffffffffffffffffff160217905550338360000160006101000a81548173ffffffffffffffffffffffffffffffffffffffff021916908373ffffffffffffffffffffffffffffffffffffffff160217905550816fffffffffffffffffffffffffffffffff163403600160008282540192505081905550600193505b505050919050565b3373ffffffffffffffffffffffffffffffffffffffff166000809054906101000a900473ffffffffffffffffffffffffffffffffffffffff1673ffffffffffffffffffffffffffffffffffffffff16141515611f6c57600080fd5b6000809054906101000a900473ffffffffffffffffffffffffffffffffffffffff1673ffffffffffffffffffffffffffffffffffffffff166108fc6001549081150290604051600060405180830381858888f193505050501515611fcf57600080fd5b565b600080826127108162ffffff16101561206957600260008562ffffff1662ffffff1681526020019081526020016000209150600082600f0160009054906101000a90046fffffffffffffffffffffffffffffffff166fffffffffffffffffffffffffffffffff161415151561204557600080fd5b81600f0160009054906101000a90046fffffffffffffffffffffffffffffffff1692505b5050919050565b6120786129b4565b600080600080826127108162ffffff1610156121585787600a8802019350600a8762ffffff168115156120a757fe5b069250600091505b600a8262ffffff161015612118576002600083860162ffffff1662ffffff1681526020019081526020016000206001018362ffffff16600a811015156120f157fe5b0154858362ffffff16600a8110151561210657fe5b018190555081806001019250506120af565b84600a806020026040519081016040528092919082600a8015612150576020028201915b81548152602001906001019080831161213c575b505050505095505b505050505092915050565b600080846127108162ffffff1610156123b357600260008762ffffff1662ffffff1681526020019081526020016000209150600082600f0160009054906101000a90046fffffffffffffffffffffffffffffffff166fffffffffffffffffffffffffffffffff16141580156122135750600082600c0160009054906101000a900473ffffffffffffffffffffffffffffffffffffffff1673ffffffffffffffffffffffffffffffffffffffff1614155b801561222257504282600e0154105b1561226c57600082600c0160006101000a81548173ffffffffffffffffffffffffffffffffffffffff021916908373ffffffffffffffffffffffffffffffffffffffff1602179055505b6000856fffffffffffffffffffffffffffffffff161415151561228e57600080fd5b8160000160009054906101000a900473ffffffffffffffffffffffffffffffffffffffff1673ffffffffffffffffffffffffffffffffffffffff163373ffffffffffffffffffffffffffffffffffffffff161415156122ec57600080fd5b600082600c0160009054906101000a900473ffffffffffffffffffffffffffffffffffffffff1673ffffffffffffffffffffffffffffffffffffffff1614151561233557600080fd5b6000846fffffffffffffffffffffffffffffffff1611151561235657600080fd5b8482600f0160006101000a8154816fffffffffffffffffffffffffffffffff02191690836fffffffffffffffffffffffffffffffff160217905550836fffffffffffffffffffffffffffffffff16420182600d0181905550600192505b50509392505050565b600080846127108162ffffff16101561263b57600260008762ffffff1662ffffff1681526020019081526020016000209150600082600f0160009054906101000a90046fffffffffffffffffffffffffffffffff166fffffffffffffffffffffffffffffffff161415801561246c5750600082600c0160009054906101000a900473ffffffffffffffffffffffffffffffffffffffff1673ffffffffffffffffffffffffffffffffffffffff1614155b801561247b57504282600e0154105b156124c557600082600c0160006101000a81548173ffffffffffffffffffffffffffffffffffffffff021916908373ffffffffffffffffffffffffffffffffffffffff1602179055505b8160000160009054906101000a900473ffffffffffffffffffffffffffffffffffffffff1673ffffffffffffffffffffffffffffffffffffffff163373ffffffffffffffffffffffffffffffffffffffff1614151561252357600080fd5b600082600c0160009054906101000a900473ffffffffffffffffffffffffffffffffffffffff1673ffffffffffffffffffffffffffffffffffffffff1614151561256c57600080fd5b83156125f357600082600f0160006101000a8154816fffffffffffffffffffffffffffffffff02191690836fffffffffffffffffffffffffffffffff160217905550600082600c0160006101000a81548173ffffffffffffffffffffffffffffffffffffffff021916908373ffffffffffffffffffffffffffffffffffffffff1602179055505b841561263657600082600b0160006101000a8154816fffffffffffffffffffffffffffffffff02191690836fffffffffffffffffffffffffffffffff1602179055505b600192505b50509392505050565b3373ffffffffffffffffffffffffffffffffffffffff166000809054906101000a900473ffffffffffffffffffffffffffffffffffffffff1673ffffffffffffffffffffffffffffffffffffffff1614151561269f57600080fd5b806000806101000a81548173ffffffffffffffffffffffffffffffffffffffff021916908373ffffffffffffffffffffffffffffffffffffffff16021790555050565b600080836127108162ffffff1610156129ac57600260008662ffffff1662ffffff1681526020019081526020016000209150600082600f0160009054906101000a90046fffffffffffffffffffffffffffffffff166fffffffffffffffffffffffffffffffff16141580156127925750600082600c0160009054906101000a900473ffffffffffffffffffffffffffffffffffffffff1673ffffffffffffffffffffffffffffffffffffffff1614155b80156127a157504282600e0154105b156127eb57600082600c0160006101000a81548173ffffffffffffffffffffffffffffffffffffffff021916908373ffffffffffffffffffffffffffffffffffffffff1602179055505b60008260000160009054906101000a900473ffffffffffffffffffffffffffffffffffffffff1673ffffffffffffffffffffffffffffffffffffffff1614151561292e578160000160009054906101000a900473ffffffffffffffffffffffffffffffffffffffff1673ffffffffffffffffffffffffffffffffffffffff163373ffffffffffffffffffffffffffffffffffffffff161480156128c85750600082600c0160009054906101000a900473ffffffffffffffffffffffffffffffffffffffff1673ffffffffffffffffffffffffffffffffffffffff16145b80612922575081600c0160009054906101000a900473ffffffffffffffffffffffffffffffffffffffff1673ffffffffffffffffffffffffffffffffffffffff163373ffffffffffffffffffffffffffffffffffffffff16145b151561292d57600080fd5b5b838260010190600a612941929190612a4d565b508462ffffff167f81d0c495828860188f80dfcdfc935bb87a3902206418ab9b5d3080c4bfe3cda0856040518082600a60200280838360005b8381101561299557808201518184015260208101905061297a565b5050505090500191505060405180910390a2600192505b505092915050565b61014060405190810160405280600a905b60008152602001906001900390816129c55790505090565b8260028101928215612a12579160200282015b82811115612a115782518290600019169055916020019190600101906129f0565b5b509050612a1f9190612a8d565b5090565b60408051908101604052806002905b6000801916815260200190600190039081612a325790505090565b82600a8101928215612a7c579160200282015b82811115612a7b578251825591602001919060010190612a60565b5b509050612a899190612ab2565b5090565b612aaf91905b80821115612aab576000816000905550600101612a93565b5090565b90565b612ad491905b80821115612ad0576000816000905550600101612ab8565b5090565b905600a165627a7a723058208dc5f420a050e0f843a0eaae4c73948d8b5ccdfb59504dab1850c5879d712ec60029",
  "source": "pragma solidity ^0.4.2;\n\n//////TODO: Transfer ownership\ncontract VirtualRealEstate {\n    address owner;\n    uint256 ownerEth = 0;\n    \n    //Mapping of propertyID to property\n    mapping (uint24 => Property) map;\n    //propertyOwner to link\n    mapping (address => bytes32[2]) ownerLink;\n    //propertyRenter to link\n    mapping (address => bytes32[2]) ownerHoverText;\n    \n    uint128 DEFAULT_PRICE_INCREMENTATION_INCREMENTATION = 100000000000000; //0.0001\n    uint128 DEFAULT_PRICE_INCREMENTATION = 500000000000000; //0.0005\n    uint128 DEFAULT_PRICE = 10000000000000000; //0.01 ETH\n    uint128 DEFAULT_RENT_PRICE = 231481481481; //0.001 ETH per day on block-by-block rate\n    \n    uint128 USER_BUY_CUT_PERCENT = 98; //%\n    uint128 USER_RENT_CUT_PERCENT = 98; //%;\n    \n    \n    uint256 BUYABLE_AS_OF_DATE;\n    \n    event PropertyColorUpdate(uint24 indexed property, uint256[10] colors);\n    \n    struct Property {\n        address owner;\n        uint256[10] colors; //10x10 rgb pixel colors per property\n        uint128 salePrice;\n        address renter;\n        uint256 rentAvailableUntil;\n        uint256 rentedUntil;\n        uint128 rentPrice;\n    }\n    \n    modifier ownerOnly() {\n        require(owner == msg.sender);\n        _;\n    }\n    \n    modifier validPropertyID(uint24 propertyID) {\n        if (propertyID < 10000) {\n            _;\n        }\n    }\n    \n    function VirtualRealEstate() public {\n        owner = msg.sender;\n        BUYABLE_AS_OF_DATE = now + 7 days;\n    }\n    function setHoverText(bytes32[2] text) public {\n        ownerHoverText[msg.sender] = text;\n    }\n    function setLink(bytes32[2] link) public {\n        ownerLink[msg.sender] = link;\n    }\n    \n    function getForSalePrice(uint24 propertyID) public validPropertyID(propertyID) view returns(uint128) {\n        Property storage property = map[propertyID];\n        require(property.salePrice != 0);\n        return property.salePrice;\n    }\n    \n    function getForRentPrice(uint24 propertyID) public validPropertyID(propertyID) view returns(uint128) {\n        Property storage property = map[propertyID];\n        require(property.rentPrice != 0);\n        return property.rentPrice;\n    }\n    function getHoverText(uint24 propertyID) public validPropertyID(propertyID) view returns(bytes32[2]) {\n        Property storage property = map[propertyID];\n        \n        //Must have a owner or renter, and that owner/renter must have a short or long hover text\n        require(property.renter != 0 || property.owner != 0);\n        address propertyResident;\n        if (property.renter == 0) {\n            propertyResident = property.owner;\n        } else {\n            propertyResident = property.renter;\n        }\n        return ownerHoverText[propertyResident];\n    }\n    \n    function getLink(uint24 propertyID) public validPropertyID(propertyID) view returns(bytes32[2]) {\n        Property storage property = map[propertyID];\n\n        //Must have a owner or renter, and that owner/renter must have a short or long hover text\n        require(property.renter != 0 || property.owner != 0);\n        address propertyResident;\n        if (property.renter == 0) {\n            propertyResident = property.owner;\n        } else {\n            propertyResident = property.renter;\n        }\n        return ownerLink[propertyResident];\n    }\n    \n    function getPropertyColorsOfRow(uint24 x, uint24 row) public validPropertyID(propertyID) view returns(uint256[10]) {\n        uint256[10] result;\n        uint24 propertyID = row * 10 + x;\n        uint24 pixelRow = row % 10;\n        for(uint24 i = 0; i < 10; i++) {\n            result[i] = map[propertyID + i].colors[pixelRow];\n        }\n        return result;\n    }\n    \n    function getPropertyColors(uint24 propertyID) public validPropertyID(propertyID) view returns(uint256[10]) {\n        return map[propertyID].colors;\n    }\n    \n    function getPropertyData(uint24 propertyID) public validPropertyID(propertyID) view returns(address, uint128, address, uint256, uint256, uint128) {\n        Property storage property = map[propertyID];\n        return (property.owner, property.salePrice, property.renter, property.rentAvailableUntil, property.rentedUntil, property.rentPrice);\n    }\n    \n    function setColors(uint24 propertyID, uint256[10] newColors) public validPropertyID(propertyID) returns(bool) {\n        Property storage property = map[propertyID];\n        \n        if (property.rentPrice != 0 && property.renter != 0 && property.rentedUntil < now) {\n            property.renter = 0;\n        }\n        \n        if (property.owner != 0) {\n            require((msg.sender == property.owner && property.renter == 0) || (msg.sender == property.renter));\n        }\n        \n        property.colors = newColors;\n        \n        PropertyColorUpdate(propertyID, newColors);\n        \n        return true;\n    }\n    \n    function transferProperty(uint24 propertyID, address newOwner) public validPropertyID(propertyID) returns(bool) {\n        Property storage property = map[propertyID];\n        \n        if (property.rentPrice != 0 && property.renter != 0 && property.rentedUntil < now) {\n            property.renter = 0;\n        }\n        \n        require(property.owner == msg.sender);\n        require(property.renter == 0);\n        require(newOwner != 0);\n        \n        property.owner = newOwner;\n        \n        return true;\n    }\n    \n    //Use Case: Buyer wants to buy a property\n    function buyProperty(uint24 propertyID) public validPropertyID(propertyID) payable returns(bool) {\n        require(now < BUYABLE_AS_OF_DATE);\n        \n        Property storage property = map[propertyID];\n        \n        //If this is the first ever purchase, the property hasn't been made yet, property.owner is just default\n        if (property.owner == 0) {\n            property.owner = owner;\n            property.salePrice = DEFAULT_PRICE;\n            DEFAULT_PRICE += DEFAULT_PRICE_INCREMENTATION;\n            DEFAULT_PRICE_INCREMENTATION += DEFAULT_PRICE_INCREMENTATION_INCREMENTATION;\n        }\n        \n      \n        if (property.rentPrice != 0 && property.renter != 0 && property.rentedUntil < now) {\n            property.renter = 0;\n        }\n      \n        require(property.salePrice != 0);//property must be for sale\n        require(property.renter == 0);//property cannot be being rented\n        require(msg.value >= property.salePrice);//Amount paid must be at least the price\n      \n        //User gets the majority of the listed price's sale\n        uint128 amountTransfered = 0;\n        \n        //If there is someone to get paid, they get the purchase. Otherwise, the contract gets it as initial purchase payment\n        if (property.owner != 0) {\n            amountTransfered = property.salePrice * USER_BUY_CUT_PERCENT / 100;\n            property.owner.transfer(amountTransfered);\n        }\n        \n        property.rentPrice = 0;\n        property.renter = 0;\n        property.salePrice = 0;\n        property.owner = msg.sender;\n        \n        ownerEth += msg.value - amountTransfered;\n        \n        return true;\n    }\n    \n    //Use Case: Renter wants to rent a property\n    function rentProperty(uint24 propertyID) public validPropertyID(propertyID) payable returns(bool) {\n        Property storage property = map[propertyID];\n        \n        uint256 rentPrice = property.owner == 0 ? property.rentPrice : DEFAULT_RENT_PRICE;\n        \n        //How many units they paid to rent. Truncates to zero if not enough money for one day\n        uint256 timeToRent = msg.value / property.rentPrice;\n        \n        if (rentPrice != 0 && property.renter != 0 && property.rentedUntil < now) {\n            property.renter = 0;\n        }\n      \n        //require(property.owner != 0); //Must have been owned\n        require(rentPrice != 0);//property must be for sale\n        require(timeToRent >= 1);//The renting must be for at least one unit\n        require(property.renter == 0);//property cannot be being rented already\n      \n        //User gets the majority of the listed price's sale\n        uint256 amountTransfered = msg.value * USER_RENT_CUT_PERCENT / 100;\n        \n        //If there is someone to transfer the funds to, transfer it, otherwise, they rented from the owners initially\n        //\n        if (property.owner != 0) {\n            property.owner.transfer(amountTransfered);\n        }\n        \n        property.renter = msg.sender;\n      \n        if (property.rentAvailableUntil < now + timeToRent) {\n            property.rentedUntil = property.rentAvailableUntil;\n        } else {\n            property.rentedUntil = now + timeToRent;\n        }\n        \n        ownerEth += msg.value - amountTransfered;\n        \n        return true;\n    }\n    \n    //Use Case: Renter wants to stop renting the property\n    function stopRenting(uint24 propertyID) public validPropertyID(propertyID) returns(bool) {\n        Property storage property = map[propertyID];\n        \n        require(msg.sender == property.renter);\n        \n        property.renter = 0;\n        \n        return true;\n    }\n    \n    //Use Case: Owner of a property lists for sale at a given price\n    function listForSale(uint24 propertyID, uint128 price ) public validPropertyID(propertyID) returns(bool) {\n        Property storage property = map[propertyID];\n      \n        require(price != 0);\n      \n        if (property.rentPrice != 0 && property.renter != 0 && property.rentedUntil < now) {\n            property.renter = 0;\n        }\n      \n        require(msg.sender == property.owner); //Must be the owner\n        require(property.renter == 0); //Must not currently be already rented out\n        //You can listForSale an already listed item to update the listing\n        property.salePrice = price;\n        \n        return true;\n    }\n    //Use Case: Owner of a property lists for rent at a given price\n    function listForRent(uint24 propertyID, uint128 rentPrice, uint128 rentDuration) public validPropertyID(propertyID) returns(bool)  {\n        Property storage property = map[propertyID];\n      \n        if (property.rentPrice != 0 && property.renter != 0 && property.rentedUntil < now) {\n            property.renter = 0;\n        }\n      \n        require(rentPrice != 0);\n        require(msg.sender == property.owner); //Must be the owner\n        require(property.renter == 0); //Must not currently be already rented out\n        require(rentDuration > 0); //Must be renting for a proper duration\n        //You can listForRent an already listed item to update the listing\n      \n        property.rentPrice = rentPrice;\n        property.rentAvailableUntil = now + rentDuration;\n        \n        return true;\n    }\n    //Use Case: Owner of a property delists from both renting offer and sale offer\n    function delist(uint24 propertyID, bool delistFromSale, bool delistFromRent) public validPropertyID(propertyID) returns(bool) {\n        Property storage property = map[propertyID];\n      \n        if (property.rentPrice != 0 && property.renter != 0 && property.rentedUntil < now) {\n            property.renter = 0;\n        }\n        \n        require(msg.sender == property.owner); //Must be the owner\n        require(property.renter == 0); //Must have no current renter\n        \n        if (delistFromRent) {\n            property.rentPrice = 0;\n            property.renter = 0;\n        }\n        if (delistFromSale) {\n            property.salePrice = 0;\n        }\n        return true;\n    }\n    \n    //////////////////////////////////////////////////////\n    ////Owner Sections: Meta-Functions For Owner only/////\n    //////////////////////////////////////////////////////\n    function withdraw(uint256 amount) public ownerOnly() {\n        if (amount <= ownerEth) {\n            owner.transfer(amount);\n        }\n    }\n    \n    function withdrawAll() public ownerOnly() {\n        owner.transfer(ownerEth);\n    }\n    \n    function changeOwners(address newOwner) public ownerOnly() {\n        owner = newOwner;\n    }\n    \n    function changeDefaultPrice(uint128 defaultPrice) public ownerOnly() {\n        DEFAULT_PRICE = defaultPrice;\n    }\n}",
  "sourcePath": "/Users/carsonroscoe/Documents/Github/PixelRealEstate/contracts/VirtualRealEstate.sol",
  "compiler": {
    "name": "solc",
    "version": "0.4.18+commit.9cf6e910.Emscripten.clang"
  },
  "schemaVersion": "1.0.1",
  "updatedAt": "2018-01-11T17:50:34.283Z"
}