{
  "contractName": "VirtualRealEstate",
  "abi": [
    {
      "constant": false,
      "inputs": [
        {
          "name": "pixelID",
          "type": "uint24"
        },
        {
          "name": "price",
          "type": "uint128"
        }
      ],
      "name": "listForSale",
      "outputs": [
        {
          "name": "",
          "type": "bool"
        }
      ],
      "payable": false,
      "stateMutability": "nonpayable",
      "type": "function"
    },
    {
      "constant": false,
      "inputs": [
        {
          "name": "text",
          "type": "bytes32[2]"
        }
      ],
      "name": "setHoverText",
      "outputs": [],
      "payable": false,
      "stateMutability": "nonpayable",
      "type": "function"
    },
    {
      "constant": false,
      "inputs": [
        {
          "name": "amount",
          "type": "uint256"
        }
      ],
      "name": "withdraw",
      "outputs": [],
      "payable": false,
      "stateMutability": "nonpayable",
      "type": "function"
    },
    {
      "constant": false,
      "inputs": [
        {
          "name": "pixelID",
          "type": "uint24"
        }
      ],
      "name": "rent",
      "outputs": [
        {
          "name": "",
          "type": "bool"
        }
      ],
      "payable": true,
      "stateMutability": "payable",
      "type": "function"
    },
    {
      "constant": true,
      "inputs": [
        {
          "name": "pixelID",
          "type": "uint24"
        }
      ],
      "name": "getPixelData",
      "outputs": [
        {
          "name": "",
          "type": "address"
        },
        {
          "name": "",
          "type": "uint24"
        },
        {
          "name": "",
          "type": "uint128"
        },
        {
          "name": "",
          "type": "address"
        },
        {
          "name": "",
          "type": "uint256"
        },
        {
          "name": "",
          "type": "uint256"
        },
        {
          "name": "",
          "type": "uint128"
        }
      ],
      "payable": false,
      "stateMutability": "view",
      "type": "function"
    },
    {
      "constant": false,
      "inputs": [
        {
          "name": "pixelID",
          "type": "uint24"
        },
        {
          "name": "delistFromSale",
          "type": "bool"
        },
        {
          "name": "delistFromRent",
          "type": "bool"
        }
      ],
      "name": "delistEntirely",
      "outputs": [
        {
          "name": "",
          "type": "bool"
        }
      ],
      "payable": false,
      "stateMutability": "nonpayable",
      "type": "function"
    },
    {
      "constant": true,
      "inputs": [
        {
          "name": "pixelID",
          "type": "uint24"
        }
      ],
      "name": "getLink",
      "outputs": [
        {
          "name": "",
          "type": "bytes32[2]"
        }
      ],
      "payable": false,
      "stateMutability": "view",
      "type": "function"
    },
    {
      "constant": true,
      "inputs": [
        {
          "name": "pixelID",
          "type": "uint24"
        }
      ],
      "name": "getColor",
      "outputs": [
        {
          "name": "",
          "type": "uint24"
        }
      ],
      "payable": false,
      "stateMutability": "view",
      "type": "function"
    },
    {
      "constant": false,
      "inputs": [
        {
          "name": "link",
          "type": "bytes32[2]"
        }
      ],
      "name": "setLinkShort",
      "outputs": [],
      "payable": false,
      "stateMutability": "nonpayable",
      "type": "function"
    },
    {
      "constant": true,
      "inputs": [
        {
          "name": "pixelID",
          "type": "uint24"
        }
      ],
      "name": "getHoverText",
      "outputs": [
        {
          "name": "",
          "type": "bytes32[2]"
        }
      ],
      "payable": false,
      "stateMutability": "view",
      "type": "function"
    },
    {
      "constant": true,
      "inputs": [
        {
          "name": "pixelID",
          "type": "uint24"
        }
      ],
      "name": "getForSalePrice",
      "outputs": [
        {
          "name": "",
          "type": "uint128"
        }
      ],
      "payable": false,
      "stateMutability": "view",
      "type": "function"
    },
    {
      "constant": false,
      "inputs": [],
      "name": "withdrawAll",
      "outputs": [],
      "payable": false,
      "stateMutability": "nonpayable",
      "type": "function"
    },
    {
      "constant": false,
      "inputs": [
        {
          "name": "pixelID",
          "type": "uint24"
        }
      ],
      "name": "buy",
      "outputs": [
        {
          "name": "",
          "type": "bool"
        }
      ],
      "payable": true,
      "stateMutability": "payable",
      "type": "function"
    },
    {
      "constant": true,
      "inputs": [
        {
          "name": "pixelID",
          "type": "uint24"
        }
      ],
      "name": "getForRentPrice",
      "outputs": [
        {
          "name": "",
          "type": "uint128"
        }
      ],
      "payable": false,
      "stateMutability": "view",
      "type": "function"
    },
    {
      "constant": false,
      "inputs": [
        {
          "name": "pixelID",
          "type": "uint24"
        },
        {
          "name": "newColor",
          "type": "uint24"
        }
      ],
      "name": "setColor",
      "outputs": [
        {
          "name": "",
          "type": "bool"
        }
      ],
      "payable": false,
      "stateMutability": "nonpayable",
      "type": "function"
    },
    {
      "constant": false,
      "inputs": [
        {
          "name": "pixelID",
          "type": "uint24"
        },
        {
          "name": "rentPrice",
          "type": "uint128"
        },
        {
          "name": "rentDuration",
          "type": "uint128"
        }
      ],
      "name": "listForRent",
      "outputs": [
        {
          "name": "",
          "type": "bool"
        }
      ],
      "payable": false,
      "stateMutability": "nonpayable",
      "type": "function"
    },
    {
      "constant": true,
      "inputs": [
        {
          "name": "row",
          "type": "uint16"
        },
        {
          "name": "startColumn",
          "type": "uint16"
        }
      ],
      "name": "getNext100PixelsInRowColors",
      "outputs": [
        {
          "name": "",
          "type": "uint256[10]"
        }
      ],
      "payable": false,
      "stateMutability": "view",
      "type": "function"
    },
    {
      "constant": false,
      "inputs": [
        {
          "name": "newOwner",
          "type": "address"
        }
      ],
      "name": "changeOwners",
      "outputs": [],
      "payable": false,
      "stateMutability": "nonpayable",
      "type": "function"
    },
    {
      "constant": false,
      "inputs": [
        {
          "name": "pixelID",
          "type": "uint24"
        }
      ],
      "name": "cancelRent",
      "outputs": [
        {
          "name": "",
          "type": "bool"
        }
      ],
      "payable": false,
      "stateMutability": "nonpayable",
      "type": "function"
    },
    {
      "inputs": [],
      "payable": false,
      "stateMutability": "nonpayable",
      "type": "constructor"
    },
    {
      "anonymous": false,
      "inputs": [
        {
          "indexed": true,
          "name": "pixel",
          "type": "uint24"
        },
        {
          "indexed": false,
          "name": "color",
          "type": "uint24"
        }
      ],
      "name": "PixelColorUpdate",
      "type": "event"
    }
  ],
  "bytecode": "0x60606040526000600155662386f26fc10000600560006101000a8154816fffffffffffffffffffffffffffffffff02191690836fffffffffffffffffffffffffffffffff1602179055506062600560106101000a8154816fffffffffffffffffffffffffffffffff02191690836fffffffffffffffffffffffffffffffff1602179055506062600660006101000a8154816fffffffffffffffffffffffffffffffff02191690836fffffffffffffffffffffffffffffffff16021790555034156100c857600080fd5b336000806101000a81548173ffffffffffffffffffffffffffffffffffffffff021916908373ffffffffffffffffffffffffffffffffffffffff160217905550612a9d806101176000396000f300606060405260043610610107576000357c0100000000000000000000000000000000000000000000000000000000900463ffffffff16806316035c7c1461010c5780631d04458d146101675780632e1a7d4d146101ad578063300d564f146101d0578063309530551461020557806347dc45fe146103155780635211aa1a1461036b5780635cefb742146103cf5780636e089ce0146104155780637a5f97ca1461045b57806381c7110b146104bf578063853828b61461051f5780639fe204b614610534578063a107f32614610569578063aa29850d146105c9578063c2675a3914610617578063c7119a9d1461068d578063d7963f94146106fd578063f871268c14610736575b600080fd5b341561011757600080fd5b61014d600480803562ffffff169060200190919080356fffffffffffffffffffffffffffffffff16906020019091905050610776565b604051808215151515815260200191505060405180910390f35b341561017257600080fd5b6101ab600480806040019060028060200260405190810160405280929190826002602002808284378201915050505050919050506109a7565b005b34156101b857600080fd5b6101ce60048080359060200190919050506109f9565b005b6101eb600480803562ffffff16906020019091905050610ac4565b604051808215151515815260200191505060405180910390f35b341561021057600080fd5b61022b600480803562ffffff16906020019091905050610ed2565b604051808873ffffffffffffffffffffffffffffffffffffffff1673ffffffffffffffffffffffffffffffffffffffff1681526020018762ffffff1662ffffff168152602001866fffffffffffffffffffffffffffffffff166fffffffffffffffffffffffffffffffff1681526020018573ffffffffffffffffffffffffffffffffffffffff1673ffffffffffffffffffffffffffffffffffffffff168152602001848152602001838152602001826fffffffffffffffffffffffffffffffff166fffffffffffffffffffffffffffffffff16815260200197505050505050505060405180910390f35b341561032057600080fd5b610351600480803562ffffff1690602001909190803515159060200190919080351515906020019091905050610fd4565b604051808215151515815260200191505060405180910390f35b341561037657600080fd5b610391600480803562ffffff169060200190919050506112cd565b6040518082600260200280838360005b838110156103bc5780820151818401526020810190506103a1565b5050505090500191505060405180910390f35b34156103da57600080fd5b6103f5600480803562ffffff16906020019091905050611599565b604051808262ffffff1662ffffff16815260200191505060405180910390f35b341561042057600080fd5b610459600480806040019060028060200260405190810160405280929190826002602002808284378201915050505050919050506115e5565b005b341561046657600080fd5b610481600480803562ffffff16906020019091905050611637565b6040518082600260200280838360005b838110156104ac578082015181840152602081019050610491565b5050505090500191505060405180910390f35b34156104ca57600080fd5b6104e5600480803562ffffff16906020019091905050611903565b60405180826fffffffffffffffffffffffffffffffff166fffffffffffffffffffffffffffffffff16815260200191505060405180910390f35b341561052a57600080fd5b610532611990565b005b61054f600480803562ffffff16906020019091905050611a50565b604051808215151515815260200191505060405180910390f35b341561057457600080fd5b61058f600480803562ffffff16906020019091905050612178565b60405180826fffffffffffffffffffffffffffffffff166fffffffffffffffffffffffffffffffff16815260200191505060405180910390f35b34156105d457600080fd5b6105fd600480803562ffffff1690602001909190803562ffffff16906020019091905050612205565b604051808215151515815260200191505060405180910390f35b341561062257600080fd5b610673600480803562ffffff169060200190919080356fffffffffffffffffffffffffffffffff169060200190919080356fffffffffffffffffffffffffffffffff1690602001909190505061249e565b604051808215151515815260200191505060405180910390f35b341561069857600080fd5b6106bf600480803561ffff1690602001909190803561ffff1690602001909190505061272a565b6040518082600a60200280838360005b838110156106ea5780820151818401526020810190506106cf565b5050505090500191505060405180910390f35b341561070857600080fd5b610734600480803573ffffffffffffffffffffffffffffffffffffffff16906020019091905050612834565b005b341561074157600080fd5b61075c600480803562ffffff169060200190919050506128d2565b604051808215151515815260200191505060405180910390f35b60008083620f42408162ffffff16101561099f57600260008662ffffff1662ffffff168152602001908152602001600020915060008260050160009054906101000a90046fffffffffffffffffffffffffffffffff166fffffffffffffffffffffffffffffffff1614158015610827575060008260020160009054906101000a900473ffffffffffffffffffffffffffffffffffffffff1673ffffffffffffffffffffffffffffffffffffffff1614155b80156108365750428260040154105b1561089c576000600260008762ffffff1662ffffff16815260200190815260200160002060020160006101000a81548173ffffffffffffffffffffffffffffffffffffffff021916908373ffffffffffffffffffffffffffffffffffffffff1602179055505b8160000160009054906101000a900473ffffffffffffffffffffffffffffffffffffffff1673ffffffffffffffffffffffffffffffffffffffff163373ffffffffffffffffffffffffffffffffffffffff161415156108fa57600080fd5b60008260020160009054906101000a900473ffffffffffffffffffffffffffffffffffffffff1673ffffffffffffffffffffffffffffffffffffffff1614151561094357600080fd5b83600260008762ffffff1662ffffff16815260200190815260200160002060010160006101000a8154816fffffffffffffffffffffffffffffffff02191690836fffffffffffffffffffffffffffffffff160217905550600192505b505092915050565b80600460003373ffffffffffffffffffffffffffffffffffffffff1673ffffffffffffffffffffffffffffffffffffffff1681526020019081526020016000209060026109f59291906129b3565b5050565b3373ffffffffffffffffffffffffffffffffffffffff166000809054906101000a900473ffffffffffffffffffffffffffffffffffffffff1673ffffffffffffffffffffffffffffffffffffffff16141515610a5457600080fd5b60015481111515610ac1576000809054906101000a900473ffffffffffffffffffffffffffffffffffffffff1673ffffffffffffffffffffffffffffffffffffffff166108fc829081150290604051600060405180830381858888f193505050501515610ac057600080fd5b5b50565b60008060008084620f42408162ffffff161015610ec957600260008762ffffff1662ffffff16815260200190815260200160002093508360050160009054906101000a90046fffffffffffffffffffffffffffffffff166fffffffffffffffffffffffffffffffff1634811515610b3757fe5b04925060008460050160009054906101000a90046fffffffffffffffffffffffffffffffff166fffffffffffffffffffffffffffffffff1614158015610bb8575060008460020160009054906101000a900473ffffffffffffffffffffffffffffffffffffffff1673ffffffffffffffffffffffffffffffffffffffff1614155b8015610bc75750428460040154105b15610c2d576000600260008862ffffff1662ffffff16815260200190815260200160002060020160006101000a81548173ffffffffffffffffffffffffffffffffffffffff021916908373ffffffffffffffffffffffffffffffffffffffff1602179055505b60008460000160009054906101000a900473ffffffffffffffffffffffffffffffffffffffff1673ffffffffffffffffffffffffffffffffffffffff1614151515610c7757600080fd5b60008460050160009054906101000a90046fffffffffffffffffffffffffffffffff166fffffffffffffffffffffffffffffffff1614151515610cb957600080fd5b60018310151515610cc957600080fd5b60008460020160009054906101000a900473ffffffffffffffffffffffffffffffffffffffff1673ffffffffffffffffffffffffffffffffffffffff16141515610d1257600080fd5b6064600660009054906101000a90046fffffffffffffffffffffffffffffffff166fffffffffffffffffffffffffffffffff163402811515610d5057fe5b0491508360000160009054906101000a900473ffffffffffffffffffffffffffffffffffffffff1673ffffffffffffffffffffffffffffffffffffffff166108fc839081150290604051600060405180830381858888f193505050501515610db757600080fd5b33600260008862ffffff1662ffffff16815260200190815260200160002060020160006101000a81548173ffffffffffffffffffffffffffffffffffffffff021916908373ffffffffffffffffffffffffffffffffffffffff160217905550824201600260008862ffffff1662ffffff168152602001908152602001600020600301541015610e8a57600260008762ffffff1662ffffff16815260200190815260200160002060030154600260008862ffffff1662ffffff16815260200190815260200160002060040181905550610eb2565b824201600260008862ffffff1662ffffff168152602001908152602001600020600401819055505b813403600160008282540192505081905550600194505b50505050919050565b60008060008060008060008088620f42408162ffffff161015610fc757600260008b62ffffff1662ffffff16815260200190815260200160002091508160000160009054906101000a900473ffffffffffffffffffffffffffffffffffffffff168260000160149054906101000a900462ffffff168360010160009054906101000a90046fffffffffffffffffffffffffffffffff168460020160009054906101000a900473ffffffffffffffffffffffffffffffffffffffff16856003015486600401548760050160009054906101000a90046fffffffffffffffffffffffffffffffff1698509850985098509850985098505b5050919395979092949650565b60008084620f42408162ffffff1610156112c457600260008762ffffff1662ffffff168152602001908152602001600020915060008260050160009054906101000a90046fffffffffffffffffffffffffffffffff166fffffffffffffffffffffffffffffffff1614158015611085575060008260020160009054906101000a900473ffffffffffffffffffffffffffffffffffffffff1673ffffffffffffffffffffffffffffffffffffffff1614155b80156110945750428260040154105b156110fa576000600260008862ffffff1662ffffff16815260200190815260200160002060020160006101000a81548173ffffffffffffffffffffffffffffffffffffffff021916908373ffffffffffffffffffffffffffffffffffffffff1602179055505b8160000160009054906101000a900473ffffffffffffffffffffffffffffffffffffffff1673ffffffffffffffffffffffffffffffffffffffff163373ffffffffffffffffffffffffffffffffffffffff1614151561115857600080fd5b60008260020160009054906101000a900473ffffffffffffffffffffffffffffffffffffffff1673ffffffffffffffffffffffffffffffffffffffff161415156111a157600080fd5b8315611260576000600260008862ffffff1662ffffff16815260200190815260200160002060050160006101000a8154816fffffffffffffffffffffffffffffffff02191690836fffffffffffffffffffffffffffffffff1602179055506000600260008862ffffff1662ffffff16815260200190815260200160002060020160006101000a81548173ffffffffffffffffffffffffffffffffffffffff021916908373ffffffffffffffffffffffffffffffffffffffff1602179055505b84156112bf576000600260008862ffffff1662ffffff16815260200190815260200160002060010160006101000a8154816fffffffffffffffffffffffffffffffff02191690836fffffffffffffffffffffffffffffffff1602179055505b600192505b50509392505050565b6112d56129f9565b600080600260008562ffffff1662ffffff168152602001908152602001600020915060008260050160009054906101000a90046fffffffffffffffffffffffffffffffff166fffffffffffffffffffffffffffffffff1614158015611375575060008260020160009054906101000a900473ffffffffffffffffffffffffffffffffffffffff1673ffffffffffffffffffffffffffffffffffffffff1614155b80156113845750428260040154105b156113ea576000600260008662ffffff1662ffffff16815260200190815260200160002060020160006101000a81548173ffffffffffffffffffffffffffffffffffffffff021916908373ffffffffffffffffffffffffffffffffffffffff1602179055505b60008260020160009054906101000a900473ffffffffffffffffffffffffffffffffffffffff1673ffffffffffffffffffffffffffffffffffffffff1614158061146f575060008260000160009054906101000a900473ffffffffffffffffffffffffffffffffffffffff1673ffffffffffffffffffffffffffffffffffffffff1614155b151561147a57600080fd5b60008260020160009054906101000a900473ffffffffffffffffffffffffffffffffffffffff1673ffffffffffffffffffffffffffffffffffffffff1614156114e9578160000160009054906101000a900473ffffffffffffffffffffffffffffffffffffffff169050611511565b8160020160009054906101000a900473ffffffffffffffffffffffffffffffffffffffff1690505b600360008273ffffffffffffffffffffffffffffffffffffffff1673ffffffffffffffffffffffffffffffffffffffff16815260200190815260200160002060028060200260405190810160405280929190826002801561158b576020028201915b81546000191681526020019060010190808311611573575b505050505092505050919050565b600081620f42408162ffffff1610156115df57600260008462ffffff1662ffffff16815260200190815260200160002060000160149054906101000a900462ffffff1691505b50919050565b80600360003373ffffffffffffffffffffffffffffffffffffffff1673ffffffffffffffffffffffffffffffffffffffff1681526020019081526020016000209060026116339291906129b3565b5050565b61163f6129f9565b600080600260008562ffffff1662ffffff168152602001908152602001600020915060008260050160009054906101000a90046fffffffffffffffffffffffffffffffff166fffffffffffffffffffffffffffffffff16141580156116df575060008260020160009054906101000a900473ffffffffffffffffffffffffffffffffffffffff1673ffffffffffffffffffffffffffffffffffffffff1614155b80156116ee5750428260040154105b15611754576000600260008662ffffff1662ffffff16815260200190815260200160002060020160006101000a81548173ffffffffffffffffffffffffffffffffffffffff021916908373ffffffffffffffffffffffffffffffffffffffff1602179055505b60008260020160009054906101000a900473ffffffffffffffffffffffffffffffffffffffff1673ffffffffffffffffffffffffffffffffffffffff161415806117d9575060008260000160009054906101000a900473ffffffffffffffffffffffffffffffffffffffff1673ffffffffffffffffffffffffffffffffffffffff1614155b15156117e457600080fd5b60008260020160009054906101000a900473ffffffffffffffffffffffffffffffffffffffff1673ffffffffffffffffffffffffffffffffffffffff161415611853578160000160009054906101000a900473ffffffffffffffffffffffffffffffffffffffff16905061187b565b8160020160009054906101000a900473ffffffffffffffffffffffffffffffffffffffff1690505b600460008273ffffffffffffffffffffffffffffffffffffffff1673ffffffffffffffffffffffffffffffffffffffff1681526020019081526020016000206002806020026040519081016040528092919082600280156118f5576020028201915b815460001916815260200190600101908083116118dd575b505050505092505050919050565b600080600260008462ffffff1662ffffff168152602001908152602001600020905060008160010160009054906101000a90046fffffffffffffffffffffffffffffffff166fffffffffffffffffffffffffffffffff161415151561196757600080fd5b8060010160009054906101000a90046fffffffffffffffffffffffffffffffff16915050919050565b3373ffffffffffffffffffffffffffffffffffffffff166000809054906101000a900473ffffffffffffffffffffffffffffffffffffffff1673ffffffffffffffffffffffffffffffffffffffff161415156119eb57600080fd5b6000809054906101000a900473ffffffffffffffffffffffffffffffffffffffff1673ffffffffffffffffffffffffffffffffffffffff166108fc6001549081150290604051600060405180830381858888f193505050501515611a4e57600080fd5b565b600080600083620f42408162ffffff16101561217057600260008662ffffff1662ffffff168152602001908152602001600020925060008360000160009054906101000a900473ffffffffffffffffffffffffffffffffffffffff1673ffffffffffffffffffffffffffffffffffffffff161415611cf95760e0604051908101604052803373ffffffffffffffffffffffffffffffffffffffff168152602001600062ffffff168152602001600560009054906101000a90046fffffffffffffffffffffffffffffffff166fffffffffffffffffffffffffffffffff168152602001600073ffffffffffffffffffffffffffffffffffffffff168152602001600081526020016000815260200160006fffffffffffffffffffffffffffffffff16815250600260008762ffffff1662ffffff16815260200190815260200160002060008201518160000160006101000a81548173ffffffffffffffffffffffffffffffffffffffff021916908373ffffffffffffffffffffffffffffffffffffffff16021790555060208201518160000160146101000a81548162ffffff021916908362ffffff16021790555060408201518160010160006101000a8154816fffffffffffffffffffffffffffffffff02191690836fffffffffffffffffffffffffffffffff16021790555060608201518160020160006101000a81548173ffffffffffffffffffffffffffffffffffffffff021916908373ffffffffffffffffffffffffffffffffffffffff1602179055506080820151816003015560a0820151816004015560c08201518160050160006101000a8154816fffffffffffffffffffffffffffffffff02191690836fffffffffffffffffffffffffffffffff160217905550905050600260008662ffffff1662ffffff16815260200190815260200160002092505b60008360050160009054906101000a90046fffffffffffffffffffffffffffffffff166fffffffffffffffffffffffffffffffff1614158015611d77575060008360020160009054906101000a900473ffffffffffffffffffffffffffffffffffffffff1673ffffffffffffffffffffffffffffffffffffffff1614155b8015611d865750428360040154105b15611dec576000600260008762ffffff1662ffffff16815260200190815260200160002060020160006101000a81548173ffffffffffffffffffffffffffffffffffffffff021916908373ffffffffffffffffffffffffffffffffffffffff1602179055505b60008360010160009054906101000a90046fffffffffffffffffffffffffffffffff166fffffffffffffffffffffffffffffffff1614151515611e2e57600080fd5b60008360020160009054906101000a900473ffffffffffffffffffffffffffffffffffffffff1673ffffffffffffffffffffffffffffffffffffffff16141515611e7757600080fd5b8260010160009054906101000a90046fffffffffffffffffffffffffffffffff166fffffffffffffffffffffffffffffffff163410151515611eb857600080fd5b6000915060008360000160009054906101000a900473ffffffffffffffffffffffffffffffffffffffff1673ffffffffffffffffffffffffffffffffffffffff16141515611fd8576064600560109054906101000a90046fffffffffffffffffffffffffffffffff168460010160009054906101000a90046fffffffffffffffffffffffffffffffff16026fffffffffffffffffffffffffffffffff16811515611f5e57fe5b0491508260000160009054906101000a900473ffffffffffffffffffffffffffffffffffffffff1673ffffffffffffffffffffffffffffffffffffffff166108fc836fffffffffffffffffffffffffffffffff169081150290604051600060405180830381858888f193505050501515611fd757600080fd5b5b6000600260008762ffffff1662ffffff16815260200190815260200160002060050160006101000a8154816fffffffffffffffffffffffffffffffff02191690836fffffffffffffffffffffffffffffffff1602179055506000600260008762ffffff1662ffffff16815260200190815260200160002060020160006101000a81548173ffffffffffffffffffffffffffffffffffffffff021916908373ffffffffffffffffffffffffffffffffffffffff1602179055506000600260008762ffffff1662ffffff16815260200190815260200160002060010160006101000a8154816fffffffffffffffffffffffffffffffff02191690836fffffffffffffffffffffffffffffffff16021790555033600260008762ffffff1662ffffff16815260200190815260200160002060000160006101000a81548173ffffffffffffffffffffffffffffffffffffffff021916908373ffffffffffffffffffffffffffffffffffffffff160217905550816fffffffffffffffffffffffffffffffff163403600160008282540192505081905550600193505b505050919050565b600080600260008462ffffff1662ffffff168152602001908152602001600020905060008160050160009054906101000a90046fffffffffffffffffffffffffffffffff166fffffffffffffffffffffffffffffffff16141515156121dc57600080fd5b8060050160009054906101000a90046fffffffffffffffffffffffffffffffff16915050919050565b60008083620f42408162ffffff16101561249657600260008662ffffff1662ffffff168152602001908152602001600020915060008260050160009054906101000a90046fffffffffffffffffffffffffffffffff166fffffffffffffffffffffffffffffffff16141580156122b6575060008260020160009054906101000a900473ffffffffffffffffffffffffffffffffffffffff1673ffffffffffffffffffffffffffffffffffffffff1614155b80156122c55750428260040154105b1561232b576000600260008762ffffff1662ffffff16815260200190815260200160002060020160006101000a81548173ffffffffffffffffffffffffffffffffffffffff021916908373ffffffffffffffffffffffffffffffffffffffff1602179055505b8160000160009054906101000a900473ffffffffffffffffffffffffffffffffffffffff1673ffffffffffffffffffffffffffffffffffffffff163373ffffffffffffffffffffffffffffffffffffffff161480156123c4575060008260020160009054906101000a900473ffffffffffffffffffffffffffffffffffffffff1673ffffffffffffffffffffffffffffffffffffffff16145b8061241e57508160020160009054906101000a900473ffffffffffffffffffffffffffffffffffffffff1673ffffffffffffffffffffffffffffffffffffffff163373ffffffffffffffffffffffffffffffffffffffff16145b151561242957600080fd5b838260000160146101000a81548162ffffff021916908362ffffff1602179055508462ffffff167f497c70daa5526985a7d77a03defc1cd701e7b951a13fba8572361ff62a06e82f85604051808262ffffff1662ffffff16815260200191505060405180910390a2600192505b505092915050565b60008084620f42408162ffffff16101561272157600260008762ffffff1662ffffff168152602001908152602001600020915060008260050160009054906101000a90046fffffffffffffffffffffffffffffffff166fffffffffffffffffffffffffffffffff161415801561254f575060008260020160009054906101000a900473ffffffffffffffffffffffffffffffffffffffff1673ffffffffffffffffffffffffffffffffffffffff1614155b801561255e5750428260040154105b156125c4576000600260008862ffffff1662ffffff16815260200190815260200160002060020160006101000a81548173ffffffffffffffffffffffffffffffffffffffff021916908373ffffffffffffffffffffffffffffffffffffffff1602179055505b8160000160009054906101000a900473ffffffffffffffffffffffffffffffffffffffff1673ffffffffffffffffffffffffffffffffffffffff163373ffffffffffffffffffffffffffffffffffffffff1614151561262257600080fd5b60008260020160009054906101000a900473ffffffffffffffffffffffffffffffffffffffff1673ffffffffffffffffffffffffffffffffffffffff1614151561266b57600080fd5b6000846fffffffffffffffffffffffffffffffff1611151561268c57600080fd5b84600260008862ffffff1662ffffff16815260200190815260200160002060050160006101000a8154816fffffffffffffffffffffffffffffffff02191690836fffffffffffffffffffffffffffffffff160217905550836fffffffffffffffffffffffffffffffff164201600260008862ffffff1662ffffff16815260200190815260200160002060030181905550600192505b50509392505050565b612732612a23565b6000806000806000866103e889020161ffff169350600092505b600a8362ffffff1610156127ea5760009150600090505b600a8162ffffff1610156127c457601a8202915060026000600a85028387010162ffffff1662ffffff16815260200190815260200160002060000160149054906101000a900462ffffff1662ffffff16821791508080600101915050612763565b81858462ffffff16600a811015156127d857fe5b0181905550828060010193505061274c565b84600a806020026040519081016040528092919082600a8015612822576020028201915b81548152602001906001019080831161280e575b50505050509550505050505092915050565b3373ffffffffffffffffffffffffffffffffffffffff166000809054906101000a900473ffffffffffffffffffffffffffffffffffffffff1673ffffffffffffffffffffffffffffffffffffffff1614151561288f57600080fd5b806000806101000a81548173ffffffffffffffffffffffffffffffffffffffff021916908373ffffffffffffffffffffffffffffffffffffffff16021790555050565b60008082620f42408162ffffff1610156129ac57600260008562ffffff1662ffffff16815260200190815260200160002091508160020160009054906101000a900473ffffffffffffffffffffffffffffffffffffffff1673ffffffffffffffffffffffffffffffffffffffff163373ffffffffffffffffffffffffffffffffffffffff1614151561296357600080fd5b60008260020160006101000a81548173ffffffffffffffffffffffffffffffffffffffff021916908373ffffffffffffffffffffffffffffffffffffffff160217905550600192505b5050919050565b82600281019282156129e8579160200282015b828111156129e75782518290600019169055916020019190600101906129c6565b5b5090506129f59190612a4c565b5090565b60408051908101604052806002905b6000801916815260200190600190039081612a085790505090565b61014060405190810160405280600a905b6000815260200190600190039081612a345790505090565b612a6e91905b80821115612a6a576000816000905550600101612a52565b5090565b905600a165627a7a72305820306ebad9dfc5029d350f944b2ac33bac7fe54c8b66e73d20365c3041722ed8a10029",
  "source": "pragma solidity ^0.4.2;\ncontract VirtualRealEstate {\n    address owner;\n    uint256 ownerEth = 0;\n    \n    //Mapping of pixelID to pixel\n    mapping (uint24 => Pixel) map;\n    //PixelOwner to link\n    mapping (address => bytes32[2]) ownerLink;\n    //PixelRenter to link\n    mapping (address => bytes32[2]) ownerHoverText;\n    \n    uint128 DEFAULT_PRICE = 10000000000000000;\n    \n    uint128 USER_BUY_CUT_PERCENT = 98; //%\n    uint128 USER_RENT_CUT_PERCENT = 98; //%;\n    \n    event PixelColorUpdate(uint24 indexed pixel, uint24 color);\n    \n    struct Pixel {\n        address owner;\n        uint24 color;\n        uint128 salePrice;\n        address renter;\n        uint256 rentAvailableUntil;\n        uint256 rentedUntil;\n        uint128 rentPrice;\n    }\n    \n    modifier ownerOnly() {\n        require(owner == msg.sender);\n        _;\n    }\n    \n    modifier validPixelID(uint24 pixelID) {\n        if (pixelID < 1000000) {\n            _;\n        }\n    }\n    \n    function VirtualRealEstate() public {\n        owner = msg.sender;\n    }\n    function setHoverText(bytes32[2] text) public {\n        ownerHoverText[msg.sender] = text;\n    }\n    function setLinkShort(bytes32[2] link) public {\n        ownerLink[msg.sender] = link;\n    }\n    \n    //256bits = 32 bytes or 32 uint8's\n    function getNext100PixelsInRowColors(uint16 row, uint16 startColumn) public view returns(uint256[10]) {\n        uint256[10] results;\n        uint24 startPoint = uint24(row * 1000 + startColumn);\n        \n        for(uint24 j = 0; j < 10; j++) {\n            uint256 result = 0;\n            for(uint24 i = 0; i < 10; i++) {\n                result = (result * (2 ^ 24));\n                result = (result | uint256(map[startPoint + i + j * 10].color));\n            }\n            results[j] = result;\n        }\n        \n        return results;\n    }\n    \n    function getForSalePrice(uint24 pixelID) public view returns(uint128) {\n        Pixel pixel = map[pixelID];\n        require(pixel.salePrice != 0);\n        return pixel.salePrice;\n    }\n    \n    function getForRentPrice(uint24 pixelID) public view returns(uint128) {\n        Pixel pixel = map[pixelID];\n        require(pixel.rentPrice != 0);\n        return pixel.rentPrice;\n    }\n    function getHoverText(uint24 pixelID) public view returns(bytes32[2]) {\n        Pixel pixel = map[pixelID];\n        \n        if (pixel.rentPrice != 0 && pixel.renter != 0 && pixel.rentedUntil < now) {\n            map[pixelID].renter = 0;\n        }\n        //Must have a owner or renter, and that owner/renter must have a short or long hover text\n        require(pixel.renter != 0 || pixel.owner != 0);\n        address pixelResident;\n        if (pixel.renter == 0) {\n            pixelResident = pixel.owner;\n        } else {\n            pixelResident = pixel.renter;\n        }\n        return ownerHoverText[pixelResident];\n    }\n    function getLink(uint24 pixelID) public view returns(bytes32[2]) {\n        Pixel pixel = map[pixelID];\n        \n        if (pixel.rentPrice != 0 && pixel.renter != 0 && pixel.rentedUntil < now) {\n            map[pixelID].renter = 0;\n        }\n        //Must have a owner or renter, and that owner/renter must have a short or long hover text\n        require(pixel.renter != 0 || pixel.owner != 0);\n        address pixelResident;\n        if (pixel.renter == 0) {\n            pixelResident = pixel.owner;\n        } else {\n            pixelResident = pixel.renter;\n        }\n        return ownerLink[pixelResident];\n    }\n    \n    function getColor(uint24 pixelID) public validPixelID(pixelID) view returns(uint24) {\n        return map[pixelID].color;\n    }\n    \n    function getPixelData(uint24 pixelID) public validPixelID(pixelID) view returns(address, uint24, uint128, address, uint256, uint256, uint128) {\n        Pixel pixel = map[pixelID];\n        return (pixel.owner, pixel.color, pixel.salePrice, pixel.renter, pixel.rentAvailableUntil, pixel.rentedUntil, pixel.rentPrice);\n    }\n    \n    function setColor(uint24 pixelID, uint24 newColor) public validPixelID(pixelID) returns(bool) {\n        Pixel pixel = map[pixelID];\n        \n        if (pixel.rentPrice != 0 && pixel.renter != 0 && pixel.rentedUntil < now) {\n            map[pixelID].renter = 0;\n        }\n        \n        require((msg.sender == pixel.owner && pixel.renter == 0) || (msg.sender == pixel.renter));\n        \n        pixel.color = newColor;\n        \n        PixelColorUpdate(pixelID, newColor);\n        \n        return true;\n    }\n    \n    //Use Case: Buyer wants to buy a pixel\n    function buy(uint24 pixelID) public validPixelID(pixelID) payable returns(bool) {\n        Pixel pixel = map[pixelID];\n        \n        //If this is the first ever purchase, the pixel hasn't been made yet, pixel.owner is just default\n        if (pixel.owner == 0) {\n            map[pixelID] = Pixel(msg.sender, 0, DEFAULT_PRICE, 0, 0, 0, 0);\n            pixel = map[pixelID];\n        }\n      \n        if (pixel.rentPrice != 0 && pixel.renter != 0 && pixel.rentedUntil < now) {\n            map[pixelID].renter = 0;\n        }\n      \n        require(pixel.salePrice != 0);//Pixel must be for sale\n        require(pixel.renter == 0);//Pixel cannot be being rented\n        require(msg.value >= pixel.salePrice);//Amount paid must be at least the price\n      \n        //User gets the majority of the listed price's sale\n        uint128 amountTransfered = 0;\n        \n        if (pixel.owner != 0) {\n            amountTransfered = pixel.salePrice * USER_BUY_CUT_PERCENT / 100;\n            pixel.owner.transfer(amountTransfered);\n        }\n        \n        map[pixelID].rentPrice = 0;\n        map[pixelID].renter = 0;\n        map[pixelID].salePrice = 0;\n        map[pixelID].owner = msg.sender;\n        \n        ownerEth += msg.value - amountTransfered;\n        \n        return true;\n    }\n    \n    //Use Case: Renter wants to rent a pixel\n    function rent(uint24 pixelID) public validPixelID(pixelID) payable returns(bool) {\n        Pixel pixel = map[pixelID];\n        \n        //How many units they paid to rent\n        uint256 timeToRent = msg.value / pixel.rentPrice;\n        \n        if (pixel.rentPrice != 0 && pixel.renter != 0 && pixel.rentedUntil < now) {\n            map[pixelID].renter = 0;\n        }\n      \n        require(pixel.owner != 0); //Must have been owned\n        require(pixel.rentPrice != 0);//Pixel must be for sale\n        require(timeToRent >= 1);//The renting must be for at least one unit\n        require(pixel.renter == 0);//Pixel cannot be being rented already\n      \n        //User gets the majority of the listed price's sale\n        uint256 amountTransfered = msg.value * USER_RENT_CUT_PERCENT / 100;\n        \n        pixel.owner.transfer(amountTransfered);\n        \n        map[pixelID].renter = msg.sender;\n      \n        if (map[pixelID].rentAvailableUntil < now + timeToRent) {\n            map[pixelID].rentedUntil = map[pixelID].rentAvailableUntil;\n        } else {\n            map[pixelID].rentedUntil = now + timeToRent;\n        }\n        \n        ownerEth += msg.value - amountTransfered;\n        \n        return true;\n    }\n    \n    //Use Case: Renter wants to stop renting the pixel\n    function cancelRent(uint24 pixelID) public validPixelID(pixelID) returns(bool) {\n        Pixel pixel = map[pixelID];\n        \n        require(msg.sender == pixel.renter);\n        \n        pixel.renter = 0;\n        \n        return true;\n    }\n    \n    //Use Case: Owner of a pixel lists for sale at a given price\n    function listForSale(uint24 pixelID, uint128 price ) public validPixelID(pixelID) returns(bool) {\n        Pixel pixel = map[pixelID];\n      \n        if (pixel.rentPrice != 0 && pixel.renter != 0 && pixel.rentedUntil < now) {\n            map[pixelID].renter = 0;\n        }\n      \n        require(msg.sender == pixel.owner); //Must be the owner\n        require(pixel.renter == 0); //Must not currently be already rented out\n        //You can listForSale an already listed item to update the listing\n        map[pixelID].salePrice = price;\n        \n        return true;\n    }\n    //Use Case: Owner of a pixel lists for rent at a given price\n    function listForRent(uint24 pixelID, uint128 rentPrice, uint128 rentDuration) public validPixelID(pixelID) returns(bool)  {\n        Pixel pixel = map[pixelID];\n      \n        if (pixel.rentPrice != 0 && pixel.renter != 0 && pixel.rentedUntil < now) {\n            map[pixelID].renter = 0;\n        }\n      \n        require(msg.sender == pixel.owner); //Must be the owner\n        require(pixel.renter == 0); //Must not currently be already rented out\n        require(rentDuration > 0); //Must be renting for a proper duration\n        //You can listForRent an already listed item to update the listing\n      \n        map[pixelID].rentPrice = rentPrice;\n        map[pixelID].rentAvailableUntil = now + rentDuration;\n        \n        return true;\n    }\n    //Use Case: Owner of a pixel delists from both renting offer and sale offer\n    function delistEntirely(uint24 pixelID, bool delistFromSale, bool delistFromRent) public validPixelID(pixelID) returns(bool) {\n        Pixel pixel = map[pixelID];\n      \n        if (pixel.rentPrice != 0 && pixel.renter != 0 && pixel.rentedUntil < now) {\n            map[pixelID].renter = 0;\n        }\n        \n        require(msg.sender == pixel.owner); //Must be the owner\n        require(pixel.renter == 0); //Must have no current renter\n        \n        if (delistFromRent) {\n            map[pixelID].rentPrice = 0;\n            map[pixelID].renter = 0;\n        }\n        if (delistFromSale) {\n            map[pixelID].salePrice = 0;\n        }\n        return true;\n    }\n    \n    //////////////////////////////////////////////////////\n    ////Owner Sections: Meta-Functions For Owner only/////\n    //////////////////////////////////////////////////////\n    function withdraw(uint256 amount) public ownerOnly() {\n        if (amount <= ownerEth) {\n            owner.transfer(amount);\n        }\n    }\n    \n    function withdrawAll() public ownerOnly() {\n        owner.transfer(ownerEth);\n    }\n    \n    function changeOwners(address newOwner) public ownerOnly() {\n        owner = newOwner;\n    }\n}",
  "sourcePath": "/Volumes/Lexar/DATA/PixelRealEstate/PixelRealEstate/contracts/VirtualRealEstate.sol",
  "compiler": {
    "name": "solc",
    "version": "0.4.18+commit.9cf6e910.Emscripten.clang"
  },
  "schemaVersion": "1.0.1",
  "updatedAt": "2018-01-07T11:00:12.542Z"
}