{
  "contractName": "VirtualRealEstate",
  "abi": [
    {
      "constant": true,
      "inputs": [
        {
          "name": "propertyID",
          "type": "uint24"
        }
      ],
      "name": "getPropertyData",
      "outputs": [
        {
          "name": "",
          "type": "address"
        },
        {
          "name": "",
          "type": "uint128"
        },
        {
          "name": "",
          "type": "address"
        },
        {
          "name": "",
          "type": "bool"
        }
      ],
      "payable": false,
      "stateMutability": "view",
      "type": "function"
    },
    {
      "constant": false,
      "inputs": [
        {
          "name": "_spender",
          "type": "address"
        },
        {
          "name": "_value",
          "type": "uint256"
        }
      ],
      "name": "approve",
      "outputs": [
        {
          "name": "success",
          "type": "bool"
        }
      ],
      "payable": false,
      "stateMutability": "nonpayable",
      "type": "function"
    },
    {
      "constant": false,
      "inputs": [
        {
          "name": "propertyID",
          "type": "uint24"
        },
        {
          "name": "row",
          "type": "uint8"
        },
        {
          "name": "newColorData",
          "type": "uint24"
        }
      ],
      "name": "setRowColors",
      "outputs": [
        {
          "name": "",
          "type": "bool"
        }
      ],
      "payable": false,
      "stateMutability": "nonpayable",
      "type": "function"
    },
    {
      "constant": false,
      "inputs": [
        {
          "name": "propertyID",
          "type": "uint24"
        },
        {
          "name": "price",
          "type": "uint128"
        }
      ],
      "name": "listForSale",
      "outputs": [
        {
          "name": "",
          "type": "bool"
        }
      ],
      "payable": false,
      "stateMutability": "nonpayable",
      "type": "function"
    },
    {
      "constant": true,
      "inputs": [
        {
          "name": "propertyID",
          "type": "uint24"
        }
      ],
      "name": "getPropertyColors",
      "outputs": [
        {
          "name": "",
          "type": "uint256[10]"
        }
      ],
      "payable": false,
      "stateMutability": "view",
      "type": "function"
    },
    {
      "constant": true,
      "inputs": [],
      "name": "totalSupply",
      "outputs": [
        {
          "name": "",
          "type": "uint256"
        }
      ],
      "payable": false,
      "stateMutability": "view",
      "type": "function"
    },
    {
      "constant": false,
      "inputs": [
        {
          "name": "text",
          "type": "bytes32[2]"
        }
      ],
      "name": "setHoverText",
      "outputs": [],
      "payable": false,
      "stateMutability": "nonpayable",
      "type": "function"
    },
    {
      "constant": false,
      "inputs": [
        {
          "name": "_from",
          "type": "address"
        },
        {
          "name": "_to",
          "type": "address"
        },
        {
          "name": "_value",
          "type": "uint256"
        }
      ],
      "name": "transferFrom",
      "outputs": [
        {
          "name": "success",
          "type": "bool"
        }
      ],
      "payable": false,
      "stateMutability": "nonpayable",
      "type": "function"
    },
    {
      "constant": false,
      "inputs": [
        {
          "name": "link",
          "type": "bytes32[2]"
        }
      ],
      "name": "setLink",
      "outputs": [],
      "payable": false,
      "stateMutability": "nonpayable",
      "type": "function"
    },
    {
      "constant": false,
      "inputs": [
        {
          "name": "amount",
          "type": "uint256"
        }
      ],
      "name": "withdraw",
      "outputs": [],
      "payable": false,
      "stateMutability": "nonpayable",
      "type": "function"
    },
    {
      "constant": false,
      "inputs": [
        {
          "name": "ownerOfTradeOffer",
          "type": "address"
        }
      ],
      "name": "acceptOfferBuyingETH",
      "outputs": [],
      "payable": true,
      "stateMutability": "payable",
      "type": "function"
    },
    {
      "constant": false,
      "inputs": [
        {
          "name": "defaultPrice",
          "type": "uint128"
        }
      ],
      "name": "changeDefaultPrice",
      "outputs": [],
      "payable": false,
      "stateMutability": "nonpayable",
      "type": "function"
    },
    {
      "constant": false,
      "inputs": [
        {
          "name": "pxlToBuy",
          "type": "uint256"
        },
        {
          "name": "offeredEth",
          "type": "uint256"
        }
      ],
      "name": "setBuyPXLOffer",
      "outputs": [],
      "payable": true,
      "stateMutability": "payable",
      "type": "function"
    },
    {
      "constant": true,
      "inputs": [
        {
          "name": "propertyID",
          "type": "uint24"
        }
      ],
      "name": "getLink",
      "outputs": [
        {
          "name": "",
          "type": "bytes32[2]"
        }
      ],
      "payable": false,
      "stateMutability": "view",
      "type": "function"
    },
    {
      "constant": false,
      "inputs": [
        {
          "name": "propertyID",
          "type": "uint24"
        }
      ],
      "name": "delist",
      "outputs": [
        {
          "name": "",
          "type": "bool"
        }
      ],
      "payable": false,
      "stateMutability": "nonpayable",
      "type": "function"
    },
    {
      "constant": true,
      "inputs": [
        {
          "name": "_owner",
          "type": "address"
        }
      ],
      "name": "balanceOf",
      "outputs": [
        {
          "name": "balance",
          "type": "uint256"
        }
      ],
      "payable": false,
      "stateMutability": "view",
      "type": "function"
    },
    {
      "constant": true,
      "inputs": [
        {
          "name": "propertyID",
          "type": "uint24"
        }
      ],
      "name": "getHoverText",
      "outputs": [
        {
          "name": "",
          "type": "bytes32[2]"
        }
      ],
      "payable": false,
      "stateMutability": "view",
      "type": "function"
    },
    {
      "constant": false,
      "inputs": [
        {
          "name": "ownerOfTradeOffer",
          "type": "address"
        }
      ],
      "name": "acceptOfferBuyingPXL",
      "outputs": [],
      "payable": false,
      "stateMutability": "nonpayable",
      "type": "function"
    },
    {
      "constant": true,
      "inputs": [
        {
          "name": "propertyID",
          "type": "uint24"
        }
      ],
      "name": "getForSalePrice",
      "outputs": [
        {
          "name": "",
          "type": "uint128"
        }
      ],
      "payable": false,
      "stateMutability": "view",
      "type": "function"
    },
    {
      "constant": false,
      "inputs": [
        {
          "name": "propertyID",
          "type": "uint24"
        },
        {
          "name": "newOwner",
          "type": "address"
        }
      ],
      "name": "transferProperty",
      "outputs": [
        {
          "name": "",
          "type": "bool"
        }
      ],
      "payable": false,
      "stateMutability": "nonpayable",
      "type": "function"
    },
    {
      "constant": false,
      "inputs": [],
      "name": "cancelTradeOffer",
      "outputs": [],
      "payable": false,
      "stateMutability": "nonpayable",
      "type": "function"
    },
    {
      "constant": false,
      "inputs": [
        {
          "name": "propertyID",
          "type": "uint24"
        }
      ],
      "name": "buyProperty",
      "outputs": [
        {
          "name": "",
          "type": "bool"
        }
      ],
      "payable": true,
      "stateMutability": "payable",
      "type": "function"
    },
    {
      "constant": false,
      "inputs": [],
      "name": "withdrawAll",
      "outputs": [],
      "payable": false,
      "stateMutability": "nonpayable",
      "type": "function"
    },
    {
      "constant": false,
      "inputs": [
        {
          "name": "propertyID",
          "type": "uint24"
        },
        {
          "name": "isInPrivateMode",
          "type": "bool"
        },
        {
          "name": "numHoursPrivate",
          "type": "uint32"
        }
      ],
      "name": "setPropertyMode",
      "outputs": [],
      "payable": false,
      "stateMutability": "nonpayable",
      "type": "function"
    },
    {
      "constant": false,
      "inputs": [
        {
          "name": "_to",
          "type": "address"
        },
        {
          "name": "_value",
          "type": "uint256"
        }
      ],
      "name": "transfer",
      "outputs": [
        {
          "name": "success",
          "type": "bool"
        }
      ],
      "payable": false,
      "stateMutability": "nonpayable",
      "type": "function"
    },
    {
      "constant": false,
      "inputs": [
        {
          "name": "newOwner",
          "type": "address"
        }
      ],
      "name": "changeOwners",
      "outputs": [],
      "payable": false,
      "stateMutability": "nonpayable",
      "type": "function"
    },
    {
      "constant": false,
      "inputs": [
        {
          "name": "propertyID",
          "type": "uint24"
        },
        {
          "name": "newColors",
          "type": "uint256[10]"
        }
      ],
      "name": "setColors",
      "outputs": [
        {
          "name": "",
          "type": "bool"
        }
      ],
      "payable": false,
      "stateMutability": "nonpayable",
      "type": "function"
    },
    {
      "constant": true,
      "inputs": [
        {
          "name": "_owner",
          "type": "address"
        },
        {
          "name": "_spender",
          "type": "address"
        }
      ],
      "name": "allowance",
      "outputs": [
        {
          "name": "remaining",
          "type": "uint256"
        }
      ],
      "payable": false,
      "stateMutability": "view",
      "type": "function"
    },
    {
      "constant": false,
      "inputs": [
        {
          "name": "ethToBuy",
          "type": "uint256"
        },
        {
          "name": "offeredPxl",
          "type": "uint256"
        }
      ],
      "name": "setBuyETHOffer",
      "outputs": [],
      "payable": false,
      "stateMutability": "nonpayable",
      "type": "function"
    },
    {
      "inputs": [],
      "payable": false,
      "stateMutability": "nonpayable",
      "type": "constructor"
    },
    {
      "anonymous": false,
      "inputs": [
        {
          "indexed": true,
          "name": "property",
          "type": "uint24"
        },
        {
          "indexed": false,
          "name": "colors",
          "type": "uint256[10]"
        },
        {
          "indexed": false,
          "name": "propertyOwnerPayee",
          "type": "address"
        },
        {
          "indexed": false,
          "name": "lastUpdaterPayee",
          "type": "address"
        }
      ],
      "name": "PropertyColorUpdate",
      "type": "event"
    },
    {
      "anonymous": false,
      "inputs": [
        {
          "indexed": true,
          "name": "property",
          "type": "uint24"
        },
        {
          "indexed": false,
          "name": "row",
          "type": "uint8"
        },
        {
          "indexed": false,
          "name": "rgb",
          "type": "uint24"
        }
      ],
      "name": "PropertyColorUpdatePixel",
      "type": "event"
    },
    {
      "anonymous": false,
      "inputs": [
        {
          "indexed": true,
          "name": "property",
          "type": "uint24"
        },
        {
          "indexed": false,
          "name": "newOwner",
          "type": "address"
        }
      ],
      "name": "PropertyBought",
      "type": "event"
    },
    {
      "anonymous": false,
      "inputs": [
        {
          "indexed": true,
          "name": "user",
          "type": "address"
        },
        {
          "indexed": false,
          "name": "newHoverText",
          "type": "bytes32[2]"
        }
      ],
      "name": "SetUserHoverText",
      "type": "event"
    },
    {
      "anonymous": false,
      "inputs": [
        {
          "indexed": true,
          "name": "user",
          "type": "address"
        },
        {
          "indexed": false,
          "name": "newLink",
          "type": "bytes32[2]"
        }
      ],
      "name": "SetUserSetLink",
      "type": "event"
    },
    {
      "anonymous": false,
      "inputs": [
        {
          "indexed": true,
          "name": "property",
          "type": "uint24"
        }
      ],
      "name": "PropertySetForSale",
      "type": "event"
    },
    {
      "anonymous": false,
      "inputs": [
        {
          "indexed": true,
          "name": "propertyID",
          "type": "uint24"
        }
      ],
      "name": "DelistProperty",
      "type": "event"
    },
    {
      "anonymous": false,
      "inputs": [
        {
          "indexed": true,
          "name": "offerOwner",
          "type": "address"
        },
        {
          "indexed": false,
          "name": "eth",
          "type": "uint256"
        },
        {
          "indexed": false,
          "name": "pxl",
          "type": "uint256"
        },
        {
          "indexed": false,
          "name": "isBuyingPxl",
          "type": "bool"
        }
      ],
      "name": "ListTradeOffer",
      "type": "event"
    },
    {
      "anonymous": false,
      "inputs": [
        {
          "indexed": true,
          "name": "accepter",
          "type": "address"
        },
        {
          "indexed": true,
          "name": "offerOwner",
          "type": "address"
        }
      ],
      "name": "AcceptTradeOffer",
      "type": "event"
    },
    {
      "anonymous": false,
      "inputs": [
        {
          "indexed": true,
          "name": "offerOwner",
          "type": "address"
        }
      ],
      "name": "CancelTradeOffer",
      "type": "event"
    },
    {
      "anonymous": false,
      "inputs": [
        {
          "indexed": true,
          "name": "property",
          "type": "uint24"
        }
      ],
      "name": "SetPropertyPublic",
      "type": "event"
    },
    {
      "anonymous": false,
      "inputs": [
        {
          "indexed": true,
          "name": "property",
          "type": "uint24"
        },
        {
          "indexed": false,
          "name": "numHoursPrivate",
          "type": "uint32"
        }
      ],
      "name": "SetPropertyPrivate",
      "type": "event"
    },
    {
      "anonymous": false,
      "inputs": [
        {
          "indexed": true,
          "name": "_from",
          "type": "address"
        },
        {
          "indexed": true,
          "name": "_to",
          "type": "address"
        },
        {
          "indexed": false,
          "name": "_value",
          "type": "uint256"
        }
      ],
      "name": "Transfer",
      "type": "event"
    },
    {
      "anonymous": false,
      "inputs": [
        {
          "indexed": true,
          "name": "_owner",
          "type": "address"
        },
        {
          "indexed": true,
          "name": "_spender",
          "type": "address"
        },
        {
          "indexed": false,
          "name": "_value",
          "type": "uint256"
        }
      ],
      "name": "Approval",
      "type": "event"
    }
  ],
  "bytecode": "0x60606040526000600455655af3107a4000600a60006101000a8154816fffffffffffffffffffffffffffffffff02191690836fffffffffffffffffffffffffffffffff1602179055506601c6bf52634000600a60106101000a8154816fffffffffffffffffffffffffffffffff02191690836fffffffffffffffffffffffffffffffff160217905550662386f26fc10000600b60006101000a8154816fffffffffffffffffffffffffffffffff02191690836fffffffffffffffffffffffffffffffff1602179055506062600b60106101000a8154816fffffffffffffffffffffffffffffffff02191690836fffffffffffffffffffffffffffffffff1602179055506002600c55341561011257600080fd5b33600360006101000a81548173ffffffffffffffffffffffffffffffffffffffff021916908373ffffffffffffffffffffffffffffffffffffffff160217905550600080819055506203f4804201600d819055506133ca806101756000396000f300606060405260043610610175576000357c0100000000000000000000000000000000000000000000000000000000900463ffffffff168063075773fd1461017a578063095ea7b31461024b5780630a88e770146102a557806316035c7c146102ff578063164e0aba1461035a57806318160ddd146103be5780631d04458d146103e757806323b872dd1461042d578063284b8a64146104a65780632e1a7d4d146104ec5780633830f7091461050f57806346d7e5d41461053d5780634d824cc3146105725780635211aa1a146105935780635a033830146105f757806370a08231146106375780637a5f97ca1461068457806381481b2d146106e857806381c7110b1461072157806382e57396146107815780638373ae71146107e057806383dc8732146107f5578063853828b61461082a578063a690478b1461083f578063a9059cbb14610881578063d7963f94146108db578063dc4cb7f514610914578063dd62ed3e14610981578063e655d138146109ed575b600080fd5b341561018557600080fd5b6101a0600480803562ffffff16906020019091905050610a19565b604051808573ffffffffffffffffffffffffffffffffffffffff1673ffffffffffffffffffffffffffffffffffffffff168152602001846fffffffffffffffffffffffffffffffff166fffffffffffffffffffffffffffffffff1681526020018373ffffffffffffffffffffffffffffffffffffffff1673ffffffffffffffffffffffffffffffffffffffff1681526020018215151515815260200194505050505060405180910390f35b341561025657600080fd5b61028b600480803573ffffffffffffffffffffffffffffffffffffffff16906020019091908035906020019091905050610adf565b604051808215151515815260200191505060405180910390f35b34156102b057600080fd5b6102e5600480803562ffffff1690602001909190803560ff1690602001909190803562ffffff16906020019091905050610bd1565b604051808215151515815260200191505060405180910390f35b341561030a57600080fd5b610340600480803562ffffff169060200190919080356fffffffffffffffffffffffffffffffff16906020019091905050610e55565b604051808215151515815260200191505060405180910390f35b341561036557600080fd5b610380600480803562ffffff16906020019091905050610f81565b6040518082600a60200280838360005b838110156103ab578082015181840152602081019050610390565b5050505090500191505060405180910390f35b34156103c957600080fd5b6103d1610ffe565b6040518082815260200191505060405180910390f35b34156103f257600080fd5b61042b60048080604001906002806020026040519081016040528092919082600260200280828437820191505050505091905050611004565b005b341561043857600080fd5b61048c600480803573ffffffffffffffffffffffffffffffffffffffff1690602001909190803573ffffffffffffffffffffffffffffffffffffffff169060200190919080359060200190919050506110cc565b604051808215151515815260200191505060405180910390f35b34156104b157600080fd5b6104ea60048080604001906002806020026040519081016040528092919082600260200280828437820191505050505091905050611348565b005b34156104f757600080fd5b61050d6004808035906020019091905050611410565b005b61053b600480803573ffffffffffffffffffffffffffffffffffffffff169060200190919050506114dd565b005b341561054857600080fd5b61057060048080356fffffffffffffffffffffffffffffffff1690602001909190505061165c565b005b61059160048080359060200190919080359060200190919050506116f4565b005b341561059e57600080fd5b6105b9600480803562ffffff16906020019091905050611800565b6040518082600260200280838360005b838110156105e45780820151818401526020810190506105c9565b5050505090500191505060405180910390f35b341561060257600080fd5b61061d600480803562ffffff16906020019091905050611930565b604051808215151515815260200191505060405180910390f35b341561064257600080fd5b61066e600480803573ffffffffffffffffffffffffffffffffffffffff16906020019091905050611a3a565b6040518082815260200191505060405180910390f35b341561068f57600080fd5b6106aa600480803562ffffff16906020019091905050611a83565b6040518082600260200280838360005b838110156106d55780820151818401526020810190506106ba565b5050505090500191505060405180910390f35b34156106f357600080fd5b61071f600480803573ffffffffffffffffffffffffffffffffffffffff16906020019091905050611bb3565b005b341561072c57600080fd5b610747600480803562ffffff16906020019091905050611dc6565b60405180826fffffffffffffffffffffffffffffffff166fffffffffffffffffffffffffffffffff16815260200191505060405180910390f35b341561078c57600080fd5b6107c6600480803562ffffff1690602001909190803573ffffffffffffffffffffffffffffffffffffffff16906020019091905050611e65565b604051808215151515815260200191505060405180910390f35b34156107eb57600080fd5b6107f3611f6b565b005b610810600480803562ffffff169060200190919050506120c4565b604051808215151515815260200191505060405180910390f35b341561083557600080fd5b61083d6125e7565b005b341561084a57600080fd5b61087f600480803562ffffff16906020019091908035151590602001909190803563ffffffff169060200190919050506126a9565b005b341561088c57600080fd5b6108c1600480803573ffffffffffffffffffffffffffffffffffffffff169060200190919080359060200190919050506128ca565b604051808215151515815260200191505060405180910390f35b34156108e657600080fd5b610912600480803573ffffffffffffffffffffffffffffffffffffffff16906020019091905050612a33565b005b341561091f57600080fd5b610967600480803562ffffff1690602001909190806101400190600a806020026040519081016040528092919082600a60200280828437820191505050505091905050612ad3565b604051808215151515815260200191505060405180910390f35b341561098c57600080fd5b6109d7600480803573ffffffffffffffffffffffffffffffffffffffff1690602001909190803573ffffffffffffffffffffffffffffffffffffffff16906020019091905050612fe6565b6040518082815260200191505060405180910390f35b34156109f857600080fd5b610a17600480803590602001909190803590602001909190505061306d565b005b6000806000806000856127108162ffffff161015610ad657600660008862ffffff1662ffffff16815260200190815260200160002091508160000160009054906101000a900473ffffffffffffffffffffffffffffffffffffffff1682600b0160009054906101000a90046fffffffffffffffffffffffffffffffff1683600c0160009054906101000a900473ffffffffffffffffffffffffffffffffffffffff1684600c0160149054906101000a900460ff1695509550955095505b50509193509193565b600081600260003373ffffffffffffffffffffffffffffffffffffffff1673ffffffffffffffffffffffffffffffffffffffff16815260200190815260200160002060008573ffffffffffffffffffffffffffffffffffffffff1673ffffffffffffffffffffffffffffffffffffffff168152602001908152602001600020819055508273ffffffffffffffffffffffffffffffffffffffff163373ffffffffffffffffffffffffffffffffffffffff167f8c5be1e5ebec7d5bd14f71427d1e84f3dd0314c0f7b2291e5b200ac8c7c3b925846040518082815260200191505060405180910390a36001905092915050565b6000806000856127108162ffffff161015610e4b57600660008862ffffff1662ffffff168152602001908152602001600020925060008660ff1610158015610c1d575060098660ff1611155b1515610c2857600080fd5b60008360000160009054906101000a900473ffffffffffffffffffffffffffffffffffffffff1673ffffffffffffffffffffffffffffffffffffffff161415610c72576002610c75565b60015b60ff16915082600c0160149054906101000a900460ff1615610cf4578260000160009054906101000a900473ffffffffffffffffffffffffffffffffffffffff1673ffffffffffffffffffffffffffffffffffffffff163373ffffffffffffffffffffffffffffffffffffffff16141515610cef57600080fd5b600091505b81600160003373ffffffffffffffffffffffffffffffffffffffff1673ffffffffffffffffffffffffffffffffffffffff1681526020019081526020016000205410151515610d4257600080fd5b81600160003373ffffffffffffffffffffffffffffffffffffffff1673ffffffffffffffffffffffffffffffffffffffff168152602001908152602001600020600082825403925050819055508462ffffff16836001018760ff16600a81101515610da957fe5b01819055503383600c0160006101000a81548173ffffffffffffffffffffffffffffffffffffffff021916908373ffffffffffffffffffffffffffffffffffffffff1602179055508662ffffff167f1552c53109a4b1a1c4938ae91d342a910cb3f903cd2262bcaea67365553a8e478787604051808360ff1660ff1681526020018262ffffff1662ffffff1681526020019250505060405180910390a2600193505b5050509392505050565b600080836127108162ffffff161015610f7957600660008662ffffff1662ffffff16815260200190815260200160002091506000846fffffffffffffffffffffffffffffffff1614151515610ea957600080fd5b8160000160009054906101000a900473ffffffffffffffffffffffffffffffffffffffff1673ffffffffffffffffffffffffffffffffffffffff163373ffffffffffffffffffffffffffffffffffffffff16141515610f0757600080fd5b8382600b0160006101000a8154816fffffffffffffffffffffffffffffffff02191690836fffffffffffffffffffffffffffffffff1602179055508462ffffff167f3b0c87c30bb9ce8a4c730c1fca8aa41b65e6ee57295de12c2915df33b063786760405160405180910390a2600192505b505092915050565b610f8961327b565b816127108162ffffff161015610ff857600660008462ffffff1662ffffff168152602001908152602001600020600101600a806020026040519081016040528092919082600a8015610ff0576020028201915b815481526020019060010190808311610fdc575b505050505091505b50919050565b60005481565b80600860003373ffffffffffffffffffffffffffffffffffffffff1673ffffffffffffffffffffffffffffffffffffffff1681526020019081526020016000209060026110529291906132a4565b503373ffffffffffffffffffffffffffffffffffffffff167ff6fae1282aa1dee75d2bf0c4aa362eb3949ebf974dfddcd6351e3dd61e389f29826040518082600260200280838360005b838110156110b757808201518184015260208101905061109c565b5050505090500191505060405180910390a250565b600081600160008673ffffffffffffffffffffffffffffffffffffffff1673ffffffffffffffffffffffffffffffffffffffff1681526020019081526020016000205410158015611199575081600260008673ffffffffffffffffffffffffffffffffffffffff1673ffffffffffffffffffffffffffffffffffffffff16815260200190815260200160002060003373ffffffffffffffffffffffffffffffffffffffff1673ffffffffffffffffffffffffffffffffffffffff1681526020019081526020016000205410155b80156111a55750600082115b1561133c5781600160008573ffffffffffffffffffffffffffffffffffffffff1673ffffffffffffffffffffffffffffffffffffffff1681526020019081526020016000206000828254019250508190555081600160008673ffffffffffffffffffffffffffffffffffffffff1673ffffffffffffffffffffffffffffffffffffffff1681526020019081526020016000206000828254039250508190555081600260008673ffffffffffffffffffffffffffffffffffffffff1673ffffffffffffffffffffffffffffffffffffffff16815260200190815260200160002060003373ffffffffffffffffffffffffffffffffffffffff1673ffffffffffffffffffffffffffffffffffffffff168152602001908152602001600020600082825403925050819055508273ffffffffffffffffffffffffffffffffffffffff168473ffffffffffffffffffffffffffffffffffffffff167fddf252ad1be2c89b69c2b068fc378daa952ba7f163c4a11628f55a4df523b3ef846040518082815260200191505060405180910390a360019050611341565b600090505b9392505050565b80600760003373ffffffffffffffffffffffffffffffffffffffff1673ffffffffffffffffffffffffffffffffffffffff1681526020019081526020016000209060026113969291906132a4565b503373ffffffffffffffffffffffffffffffffffffffff167f010724f92c296bc87af12d2281baa10d1317850008bd8ee16a0c27313e9cd7b2826040518082600260200280838360005b838110156113fb5780820151818401526020810190506113e0565b5050505090500191505060405180910390a250565b3373ffffffffffffffffffffffffffffffffffffffff16600360009054906101000a900473ffffffffffffffffffffffffffffffffffffffff1673ffffffffffffffffffffffffffffffffffffffff1614151561146c57600080fd5b600454811115156114da57600360009054906101000a900473ffffffffffffffffffffffffffffffffffffffff1673ffffffffffffffffffffffffffffffffffffffff166108fc829081150290604051600060405180830381858888f1935050505015156114d957600080fd5b5b50565b6000600960008373ffffffffffffffffffffffffffffffffffffffff1673ffffffffffffffffffffffffffffffffffffffff16815260200190815260200160002090503481600001541115151561153357600080fd5b60008273ffffffffffffffffffffffffffffffffffffffff161415151561155957600080fd5b8173ffffffffffffffffffffffffffffffffffffffff166108fc349081150290604051600060405180830381858888f19350505050151561159957600080fd5b8060010154600160003373ffffffffffffffffffffffffffffffffffffffff1673ffffffffffffffffffffffffffffffffffffffff1681526020019081526020016000206000828254019250508190555060008160000181905550600081600101819055508173ffffffffffffffffffffffffffffffffffffffff163373ffffffffffffffffffffffffffffffffffffffff167f1c76e02469c367b845929eb200e89d99d2a669524a90c660d06cdcbdc6230a1a60405160405180910390a35050565b3373ffffffffffffffffffffffffffffffffffffffff16600360009054906101000a900473ffffffffffffffffffffffffffffffffffffffff1673ffffffffffffffffffffffffffffffffffffffff161415156116b857600080fd5b80600b60006101000a8154816fffffffffffffffffffffffffffffffff02191690836fffffffffffffffffffffffffffffffff16021790555050565b600081341015151561170557600080fd5b6000831180156117155750600082115b151561172057600080fd5b611728611f6b565b600960003373ffffffffffffffffffffffffffffffffffffffff1673ffffffffffffffffffffffffffffffffffffffff168152602001908152602001600020905082816001018190555081816000018190555060018160020160006101000a81548160ff0219169083151502179055503373ffffffffffffffffffffffffffffffffffffffff167f1e9933321189dbcae2cc65270b17c79e62f3a034019f7b818aa1cafb6c6ab588838560016040518084815260200183815260200182151515158152602001935050505060405180910390a2505050565b6118086132ea565b6000826127108162ffffff16101561192957600660008562ffffff1662ffffff168152602001908152602001600020915060008260000160009054906101000a900473ffffffffffffffffffffffffffffffffffffffff1673ffffffffffffffffffffffffffffffffffffffff161415151561188357600080fd5b600760008360000160009054906101000a900473ffffffffffffffffffffffffffffffffffffffff1673ffffffffffffffffffffffffffffffffffffffff1673ffffffffffffffffffffffffffffffffffffffff168152602001908152602001600020600280602002604051908101604052809291908260028015611921576020028201915b81546000191681526020019060010190808311611909575b505050505092505b5050919050565b600080826127108162ffffff161015611a3357600660008562ffffff1662ffffff16815260200190815260200160002091508160000160009054906101000a900473ffffffffffffffffffffffffffffffffffffffff1673ffffffffffffffffffffffffffffffffffffffff163373ffffffffffffffffffffffffffffffffffffffff161415156119c057600080fd5b600082600b0160006101000a8154816fffffffffffffffffffffffffffffffff02191690836fffffffffffffffffffffffffffffffff1602179055508362ffffff167fca2e47a4a4a73b5954da66cff11902dbc0e8a6d4ee892921cc381af6aabc415260405160405180910390a2600192505b5050919050565b6000600160008373ffffffffffffffffffffffffffffffffffffffff1673ffffffffffffffffffffffffffffffffffffffff168152602001908152602001600020549050919050565b611a8b6132ea565b6000826127108162ffffff161015611bac57600660008562ffffff1662ffffff168152602001908152602001600020915060008260000160009054906101000a900473ffffffffffffffffffffffffffffffffffffffff1673ffffffffffffffffffffffffffffffffffffffff1614151515611b0657600080fd5b600860008360000160009054906101000a900473ffffffffffffffffffffffffffffffffffffffff1673ffffffffffffffffffffffffffffffffffffffff1673ffffffffffffffffffffffffffffffffffffffff168152602001908152602001600020600280602002604051908101604052809291908260028015611ba4576020028201915b81546000191681526020019060010190808311611b8c575b505050505092505b5050919050565b6000600960008373ffffffffffffffffffffffffffffffffffffffff1673ffffffffffffffffffffffffffffffffffffffff1681526020019081526020016000209050600160003373ffffffffffffffffffffffffffffffffffffffff1673ffffffffffffffffffffffffffffffffffffffff16815260200190815260200160002054816001015411151515611c4857600080fd5b60008273ffffffffffffffffffffffffffffffffffffffff1614151515611c6e57600080fd5b8060010154600160008473ffffffffffffffffffffffffffffffffffffffff1673ffffffffffffffffffffffffffffffffffffffff168152602001908152602001600020600082825401925050819055508060010154600160003373ffffffffffffffffffffffffffffffffffffffff1673ffffffffffffffffffffffffffffffffffffffff168152602001908152602001600020600082825403925050819055503373ffffffffffffffffffffffffffffffffffffffff166108fc82600001549081150290604051600060405180830381858888f193505050501515611d5457600080fd5b60008160000181905550600081600101819055508173ffffffffffffffffffffffffffffffffffffffff163373ffffffffffffffffffffffffffffffffffffffff167f1c76e02469c367b845929eb200e89d99d2a669524a90c660d06cdcbdc6230a1a60405160405180910390a35050565b600080826127108162ffffff161015611e5e57600660008562ffffff1662ffffff1681526020019081526020016000209150600082600b0160009054906101000a90046fffffffffffffffffffffffffffffffff166fffffffffffffffffffffffffffffffff1614151515611e3a57600080fd5b81600b0160009054906101000a90046fffffffffffffffffffffffffffffffff1692505b5050919050565b600080836127108162ffffff161015611f6357600660008662ffffff1662ffffff16815260200190815260200160002091503373ffffffffffffffffffffffffffffffffffffffff168260000160009054906101000a900473ffffffffffffffffffffffffffffffffffffffff1673ffffffffffffffffffffffffffffffffffffffff16141515611ef557600080fd5b60008473ffffffffffffffffffffffffffffffffffffffff1614151515611f1b57600080fd5b838260000160006101000a81548173ffffffffffffffffffffffffffffffffffffffff021916908373ffffffffffffffffffffffffffffffffffffffff160217905550600192505b505092915050565b6000600960003373ffffffffffffffffffffffffffffffffffffffff1673ffffffffffffffffffffffffffffffffffffffff168152602001908152602001600020905060008160000154118015611fc6575060008160010154115b156120c1578060020160009054906101000a900460ff161561202b573373ffffffffffffffffffffffffffffffffffffffff166108fc82600001549081150290604051600060405180830381858888f19350505050151561202657600080fd5b61207d565b8060010154600160003373ffffffffffffffffffffffffffffffffffffffff1673ffffffffffffffffffffffffffffffffffffffff168152602001908152602001600020600082825401925050819055505b3373ffffffffffffffffffffffffffffffffffffffff167f3c2fe1509f8beb8f8954bfc71234daf01227d3113608a741251277ed61eb6e5a60405160405180910390a25b50565b6000806000836127108162ffffff1610156125df57600660008662ffffff1662ffffff168152602001908152602001600020925060008360000160009054906101000a900473ffffffffffffffffffffffffffffffffffffffff1673ffffffffffffffffffffffffffffffffffffffff1614156122ea57600360009054906101000a900473ffffffffffffffffffffffffffffffffffffffff168360000160006101000a81548173ffffffffffffffffffffffffffffffffffffffff021916908373ffffffffffffffffffffffffffffffffffffffff160217905550600b60009054906101000a90046fffffffffffffffffffffffffffffffff1683600b0160006101000a8154816fffffffffffffffffffffffffffffffff02191690836fffffffffffffffffffffffffffffffff160217905550600a60109054906101000a90046fffffffffffffffffffffffffffffffff16600b60008282829054906101000a90046fffffffffffffffffffffffffffffffff160192506101000a8154816fffffffffffffffffffffffffffffffff02191690836fffffffffffffffffffffffffffffffff160217905550600a60009054906101000a90046fffffffffffffffffffffffffffffffff16600a60108282829054906101000a90046fffffffffffffffffffffffffffffffff160192506101000a8154816fffffffffffffffffffffffffffffffff02191690836fffffffffffffffffffffffffffffffff1602179055505b600083600b0160009054906101000a90046fffffffffffffffffffffffffffffffff166fffffffffffffffffffffffffffffffff161415151561232c57600080fd5b82600b0160009054906101000a90046fffffffffffffffffffffffffffffffff166fffffffffffffffffffffffffffffffff16341015151561236d57600080fd5b6000915060008360000160009054906101000a900473ffffffffffffffffffffffffffffffffffffffff1673ffffffffffffffffffffffffffffffffffffffff1614151561248d576064600b60109054906101000a90046fffffffffffffffffffffffffffffffff1684600b0160009054906101000a90046fffffffffffffffffffffffffffffffff16026fffffffffffffffffffffffffffffffff1681151561241357fe5b0491508260000160009054906101000a900473ffffffffffffffffffffffffffffffffffffffff1673ffffffffffffffffffffffffffffffffffffffff166108fc836fffffffffffffffffffffffffffffffff169081150290604051600060405180830381858888f19350505050151561248c57600080fd5b5b600083600b0160006101000a8154816fffffffffffffffffffffffffffffffff02191690836fffffffffffffffffffffffffffffffff160217905550338360000160006101000a81548173ffffffffffffffffffffffffffffffffffffffff021916908373ffffffffffffffffffffffffffffffffffffffff160217905550600083600c0160146101000a81548160ff021916908315150217905550816fffffffffffffffffffffffffffffffff1634036004600082825401925050819055508462ffffff167f305c27fe3ad09404aa5312767c4b7820bc3be71e957c64575b3e6fa81bc904428460000160009054906101000a900473ffffffffffffffffffffffffffffffffffffffff16604051808273ffffffffffffffffffffffffffffffffffffffff1673ffffffffffffffffffffffffffffffffffffffff16815260200191505060405180910390a2600193505b505050919050565b3373ffffffffffffffffffffffffffffffffffffffff16600360009054906101000a900473ffffffffffffffffffffffffffffffffffffffff1673ffffffffffffffffffffffffffffffffffffffff1614151561264357600080fd5b600360009054906101000a900473ffffffffffffffffffffffffffffffffffffffff1673ffffffffffffffffffffffffffffffffffffffff166108fc6004549081150290604051600060405180830381858888f1935050505015156126a757600080fd5b565b6000836127108162ffffff1610156128c357600660008662ffffff1662ffffff16815260200190815260200160002091508160000160009054906101000a900473ffffffffffffffffffffffffffffffffffffffff1673ffffffffffffffffffffffffffffffffffffffff163373ffffffffffffffffffffffffffffffffffffffff1614151561273857600080fd5b83156128145760008363ffffffff1611151561275357600080fd5b8263ffffffff16600160003373ffffffffffffffffffffffffffffffffffffffff1673ffffffffffffffffffffffffffffffffffffffff16815260200190815260200160002054101515156127a757600080fd5b8263ffffffff16600160003373ffffffffffffffffffffffffffffffffffffffff1673ffffffffffffffffffffffffffffffffffffffff1681526020019081526020016000206000828254039250508190555082610e100263ffffffff16420182600e018190555061281f565b600082600e01819055505b8382600c0160146101000a81548160ff021916908315150217905550831561288f578462ffffff167f52e8f4b5a1626f05acec334b28b3a6e1229af95f0fdf6929ead61c976399121384604051808263ffffffff1663ffffffff16815260200191505060405180910390a26128c2565b8462ffffff167f7b2ca9b1b8f3e9de64d205763935a164d5090f5e6346199c24b0612e0930a12a60405160405180910390a25b5b5050505050565b600081600160003373ffffffffffffffffffffffffffffffffffffffff1673ffffffffffffffffffffffffffffffffffffffff168152602001908152602001600020541015801561291b5750600082115b15612a285781600160003373ffffffffffffffffffffffffffffffffffffffff1673ffffffffffffffffffffffffffffffffffffffff1681526020019081526020016000206000828254039250508190555081600160008573ffffffffffffffffffffffffffffffffffffffff1673ffffffffffffffffffffffffffffffffffffffff168152602001908152602001600020600082825401925050819055508273ffffffffffffffffffffffffffffffffffffffff163373ffffffffffffffffffffffffffffffffffffffff167fddf252ad1be2c89b69c2b068fc378daa952ba7f163c4a11628f55a4df523b3ef846040518082815260200191505060405180910390a360019050612a2d565b600090505b92915050565b3373ffffffffffffffffffffffffffffffffffffffff16600360009054906101000a900473ffffffffffffffffffffffffffffffffffffffff1673ffffffffffffffffffffffffffffffffffffffff16141515612a8f57600080fd5b80600360006101000a81548173ffffffffffffffffffffffffffffffffffffffff021916908373ffffffffffffffffffffffffffffffffffffffff16021790555050565b6000806000806000806000886127108162ffffff161015612fd957600660008b62ffffff1662ffffff168152602001908152602001600020965060008760000160009054906101000a900473ffffffffffffffffffffffffffffffffffffffff1673ffffffffffffffffffffffffffffffffffffffff161415612b57576002612b5a565b60015b60ff16955086600c0160149054906101000a900460ff1615612c16574287600e01541115612be9578660000160009054906101000a900473ffffffffffffffffffffffffffffffffffffffff1673ffffffffffffffffffffffffffffffffffffffff163373ffffffffffffffffffffffffffffffffffffffff16141515612be057600080fd5b60009550612c11565b600087600c0160146101000a81548160ff021916908315150217905550600087600e01819055505b612c27565b600d5442111515612c2657600095505b5b85600160003373ffffffffffffffffffffffffffffffffffffffff1673ffffffffffffffffffffffffffffffffffffffff1681526020019081526020016000205410151515612c7557600080fd5b86600c0160149054906101000a900460ff16158015612c995750600087600d015414155b15612e5a57600187600d01544203811515612cb057fe5b049450600c54850293506000841115612e59578660000160009054906101000a900473ffffffffffffffffffffffffffffffffffffffff16925086600c0160009054906101000a900473ffffffffffffffffffffffffffffffffffffffff16915060008373ffffffffffffffffffffffffffffffffffffffff161415612d555760008273ffffffffffffffffffffffffffffffffffffffff16141515612d54578192505b5b60008373ffffffffffffffffffffffffffffffffffffffff16141515612dcf57600284811515612d8157fe5b04600160008573ffffffffffffffffffffffffffffffffffffffff1673ffffffffffffffffffffffffffffffffffffffff168152602001908152602001600020600082825401925050819055505b60008273ffffffffffffffffffffffffffffffffffffffff16141515612e4957600284811515612dfb57fe5b04600160008473ffffffffffffffffffffffffffffffffffffffff1673ffffffffffffffffffffffffffffffffffffffff168152602001908152602001600020600082825401925050819055505b8360008082825401925050819055505b5b85600160003373ffffffffffffffffffffffffffffffffffffffff1673ffffffffffffffffffffffffffffffffffffffff16815260200190815260200160002060008282540392505081905550888760010190600a612eba929190613314565b503387600c0160006101000a81548173ffffffffffffffffffffffffffffffffffffffff021916908373ffffffffffffffffffffffffffffffffffffffff1602179055504287600d01819055508962ffffff167fdeb14883eb54ba315e9cd272fb5ffb6f4f57fd9ae43129223337d36a6b3691858a85856040518084600a60200280838360005b83811015612f5c578082015181840152602081019050612f41565b505050509050018373ffffffffffffffffffffffffffffffffffffffff1673ffffffffffffffffffffffffffffffffffffffff1681526020018273ffffffffffffffffffffffffffffffffffffffff1673ffffffffffffffffffffffffffffffffffffffff168152602001935050505060405180910390a2600197505b5050505050505092915050565b6000600260008473ffffffffffffffffffffffffffffffffffffffff1673ffffffffffffffffffffffffffffffffffffffff16815260200190815260200160002060008373ffffffffffffffffffffffffffffffffffffffff1673ffffffffffffffffffffffffffffffffffffffff16815260200190815260200160002054905092915050565b80600160003373ffffffffffffffffffffffffffffffffffffffff1673ffffffffffffffffffffffffffffffffffffffff16815260200190815260200160002054101515156130bb57600080fd5b6000821180156130cb5750600081115b15156130d657600080fd5b6130de611f6b565b81600960003373ffffffffffffffffffffffffffffffffffffffff1673ffffffffffffffffffffffffffffffffffffffff1681526020019081526020016000206000018190555080600960003373ffffffffffffffffffffffffffffffffffffffff1673ffffffffffffffffffffffffffffffffffffffff168152602001908152602001600020600101819055506000600960003373ffffffffffffffffffffffffffffffffffffffff1673ffffffffffffffffffffffffffffffffffffffff16815260200190815260200160002060020160006101000a81548160ff02191690831515021790555080600160003373ffffffffffffffffffffffffffffffffffffffff1673ffffffffffffffffffffffffffffffffffffffff168152602001908152602001600020600082825403925050819055503373ffffffffffffffffffffffffffffffffffffffff167f1e9933321189dbcae2cc65270b17c79e62f3a034019f7b818aa1cafb6c6ab588838360006040518084815260200183815260200182151515158152602001935050505060405180910390a25050565b61014060405190810160405280600a905b600081526020019060019003908161328c5790505090565b82600281019282156132d9579160200282015b828111156132d85782518290600019169055916020019190600101906132b7565b5b5090506132e69190613354565b5090565b60408051908101604052806002905b60008019168152602001906001900390816132f95790505090565b82600a8101928215613343579160200282015b82811115613342578251825591602001919060010190613327565b5b5090506133509190613379565b5090565b61337691905b8082111561337257600081600090555060010161335a565b5090565b90565b61339b91905b8082111561339757600081600090555060010161337f565b5090565b905600a165627a7a72305820a8aef4698d147c614779b8e6fee8bc4524bf797ae51ce3b6ac93202c777267e60029",
  "source": "pragma solidity ^0.4.2;\n\n\n/*\n\n//- 2 PXL released per hour per property if set to \"Public Use\"\n//    - 1 allocated for owner\n//    - 1 allocated for contributor\n//    - if there is no owner, contributor gets both\n//    - if no contributor or owner (AKA, first pixel set ever for each property), get get both cuts\n//- 0 PXL released to \"Private Use\"\n  //  - Pay 2 PXL to us devs per hour for using Private Use\n//- Setting colour free at start\n//- Trade offers are a 1-per-user thing.\n//- Trade orders can be made. User ABC's \"I have 1k PXL, I want 0.1 ETH\" vs \"I ha ve 0.2 ETH, I want 2.5k PXL\"\n- Properties in \"Public Use\" have the last-color changers hover text get shown, while \"Private\" has the owners hover text shown\n- PropertyOffers can be made. \"I offer 1000 PXL for propertyID 20\". \n- Owners can \"AcceptOffer(offers[otherOwner][pixelID])\"\n- Update GetPropertyData\n*/\n\ncontract Token {\n    uint256 public totalSupply;\n    function balanceOf(address _owner) public constant returns (uint256 balance);\n    function transfer(address _to, uint256 _value) public returns (bool success);\n    function transferFrom(address _from, address _to, uint256 _value) public returns (bool success);\n    function approve(address _spender, uint256 _value) public returns (bool success);\n    function allowance(address _owner, address _spender) public constant returns (uint256 remaining);\n    event Transfer(address indexed _from, address indexed _to, uint256 _value);\n    event Approval(address indexed _owner, address indexed _spender, uint256 _value);\n}\n/*  ERC 20 token */\ncontract StandardToken is Token {\n\n    function transfer(address _to, uint256 _value) public returns (bool success) {\n      if (balances[msg.sender] >= _value && _value > 0) {\n        balances[msg.sender] -= _value;\n        balances[_to] += _value;\n        Transfer(msg.sender, _to, _value);\n        return true;\n      } else {\n        return false;\n      }\n    }\n\n    function transferFrom(address _from, address _to, uint256 _value) public returns (bool success) {\n      if (balances[_from] >= _value && allowed[_from][msg.sender] >= _value && _value > 0) {\n        balances[_to] += _value;\n        balances[_from] -= _value;\n        allowed[_from][msg.sender] -= _value;\n        Transfer(_from, _to, _value);\n        return true;\n      } else {\n        return false;\n      }\n    }\n\n    function balanceOf(address _owner) public constant returns (uint256 balance) {\n        return balances[_owner];\n    }\n\n    function approve(address _spender, uint256 _value) public returns (bool success) {\n        allowed[msg.sender][_spender] = _value;\n        Approval(msg.sender, _spender, _value);\n        return true;\n    }\n\n    function allowance(address _owner, address _spender) public constant returns (uint256 remaining) {\n      return allowed[_owner][_spender];\n    }\n\n    mapping (address => uint256) balances;\n    mapping (address => mapping (address => uint256)) allowed;\n}\n\ncontract VirtualRealEstate is StandardToken {\n    address owner;\n    uint256 ownerEth = 0;\n    \n    uint256 pixelPot;\n    \n    //Mapping of propertyID to property\n    mapping (uint24 => Property) map;\n    //propertyOwner to link\n    mapping (address => bytes32[2]) ownerLink;\n    //propertyRenter to link\n    mapping (address => bytes32[2]) ownerHoverText;\n    //trade offers\n    mapping (address => TradeOffer) pxlTradeStatus;\n    \n    uint128 DEFAULT_PRICE_INCREMENTATION_INCREMENTATION = 100000000000000; //0.0001\n    uint128 DEFAULT_PRICE_INCREMENTATION = 500000000000000; //0.0005\n    uint128 DEFAULT_PRICE = 10000000000000000; //0.01 ETH\n    \n    uint128 USER_BUY_CUT_PERCENT = 98; //%\n    \n    uint256 PROPERTY_GENERATES_PER_HOUR = 2;\n    uint256 FREE_COLOR_SETTING_UNTIL;\n    \n    event PropertyColorUpdate(uint24 indexed property, uint256[10] colors, address propertyOwnerPayee, address lastUpdaterPayee);\n    event PropertyColorUpdatePixel(uint24 indexed property, uint8 row, uint24 rgb);\n    event PropertyBought(uint24 indexed property,  address newOwner);\n    event SetUserHoverText(address indexed user, bytes32[2] newHoverText);\n    event SetUserSetLink(address indexed user, bytes32[2] newLink);\n    event PropertySetForSale(uint24 indexed property);\n    event DelistProperty(uint24 indexed propertyID);\n    event ListTradeOffer(address indexed offerOwner, uint256 eth, uint256 pxl, bool isBuyingPxl);\n    event AcceptTradeOffer(address indexed accepter, address indexed offerOwner);\n    event CancelTradeOffer(address indexed offerOwner);\n    event SetPropertyPublic(uint24 indexed property);\n    event SetPropertyPrivate(uint24 indexed property, uint32 numHoursPrivate);\n    \n    struct TradeOffer {\n        uint256 eth;\n        uint256 pxl;\n        bool buyingPxl;\n    }\n    \n    struct Property {\n        address owner;\n        uint256[10] colors; //10x10 rgb pixel colors per property\n        uint128 salePrice;\n        address lastUpdater;\n        bool isInPrivateMode;\n        uint256 lastUpdate;\n        uint256 becomePublic;\n    }\n    \n    modifier ownerOnly() {\n        require(owner == msg.sender);\n        _;\n    }\n    \n    modifier validPropertyID(uint24 propertyID) {\n        if (propertyID < 10000) {\n            _;\n        }\n    }\n    \n    function VirtualRealEstate() public {\n        owner = msg.sender;\n        totalSupply = 0;\n        FREE_COLOR_SETTING_UNTIL = now + 3 days;\n    }\n    function setHoverText(bytes32[2] text) public {\n        ownerHoverText[msg.sender] = text;\n        SetUserHoverText(msg.sender, text);\n    }\n    function setLink(bytes32[2] link) public {\n        ownerLink[msg.sender] = link;\n        SetUserSetLink(msg.sender, link);\n    }\n    \n    function getForSalePrice(uint24 propertyID) public validPropertyID(propertyID) view returns(uint128) {\n        Property storage property = map[propertyID];\n        require(property.salePrice != 0);\n        return property.salePrice;\n    }\n    function getHoverText(uint24 propertyID) public validPropertyID(propertyID) view returns(bytes32[2]) {\n        Property storage property = map[propertyID];\n        \n        //Must have a owner or renter, and that owner/renter must have a short or long hover text\n        require(property.owner != 0);\n        \n        return ownerHoverText[property.owner];\n    }\n    \n    function getLink(uint24 propertyID) public validPropertyID(propertyID) view returns(bytes32[2]) {\n        Property storage property = map[propertyID];\n        //Must have a owner or renter, and that owner/renter must have a short or long hover text\n        require(property.owner != 0);\n        \n        return ownerLink[property.owner];\n    }\n    \n    function getPropertyColors(uint24 propertyID) public validPropertyID(propertyID) view returns(uint256[10]) {\n        return map[propertyID].colors;\n    }\n    \n    function getPropertyData(uint24 propertyID) public validPropertyID(propertyID) view returns(address, uint128, address, bool) {\n        Property storage property = map[propertyID];\n        return (property.owner, property.salePrice, property.lastUpdater, property.isInPrivateMode);\n    }\n    \n    //Change a 10x10 == 70 | 30 | 0 cost\n    function setColors(uint24 propertyID, uint256[10] newColors) public validPropertyID(propertyID) returns(bool) {\n        Property storage property = map[propertyID];\n        \n        //Cost 2 if no owner, 1 if owned\n        uint256 cost = property.owner != 0 ? 1 : 2;\n        \n        //If it's in private mode, we must be the owner, but it's free\n        if (property.isInPrivateMode) {\n            //If it's still privately owned\n            if (property.becomePublic > now) {\n                require(msg.sender == property.owner);\n                cost = 0;\n            }\n            //No long erin private mode, ran out\n            else {\n                property.isInPrivateMode = false;\n                property.becomePublic = 0;\n            }\n        } \n        //If we're in the first few days, setting the color is free\n        else if (now <= FREE_COLOR_SETTING_UNTIL) {\n            cost = 0;\n        }\n        \n        require(balances[msg.sender] >= cost);\n        \n        //If we're in Public Mode, payouts occur\n        \n        if (!property.isInPrivateMode && property.lastUpdate != 0) {\n            uint256 hoursSinceLastColorChange = (now - property.lastUpdate) / (1 seconds); //ERRORs on property.lastUpdate = 0\n            uint256 payout = hoursSinceLastColorChange * PROPERTY_GENERATES_PER_HOUR;\n    \n            if (payout > 0) {\n                address propertyOwnerPayee = property.owner;\n                address lastUpdaterPayee = property.lastUpdater;\n                if (propertyOwnerPayee == 0) {\n                    if (lastUpdaterPayee != 0) {\n                        propertyOwnerPayee = lastUpdaterPayee;\n                    }\n                }\n                //Payout half to ownerPayee and half to updaterPayee\n                if (propertyOwnerPayee != 0) {\n                    balances[propertyOwnerPayee] += payout / 2;\n                }\n                if (lastUpdaterPayee != 0) {\n                    balances[lastUpdaterPayee] += payout / 2;\n                }\n                totalSupply += payout;\n            }\n        }\n        \n        //Burn the coins from the sender\n        balances[msg.sender] -= cost; //Burn the coin to set the color\n        \n        property.colors = newColors;\n        property.lastUpdater = msg.sender;\n        property.lastUpdate = now;\n        \n        PropertyColorUpdate(propertyID, newColors, propertyOwnerPayee, lastUpdaterPayee);\n        \n        return true;\n    }\n    function setPropertyMode(uint24 propertyID, bool isInPrivateMode, uint32 numHoursPrivate) public validPropertyID(propertyID) {\n        Property storage property = map[propertyID];\n        require(msg.sender == property.owner);\n        if (isInPrivateMode) {\n            require(numHoursPrivate > 0);\n            require(balances[msg.sender] >= numHoursPrivate);\n            balances[msg.sender] -= numHoursPrivate;\n            property.becomePublic = now + (1 hours) * numHoursPrivate;\n        } else {\n            property.becomePublic = 0;\n        }\n        property.isInPrivateMode = isInPrivateMode;\n        \n        if (isInPrivateMode) {\n            SetPropertyPrivate(propertyID, numHoursPrivate);\n        } else {\n            SetPropertyPublic(propertyID);\n        }\n    }\n    function setBuyETHOffer(uint256 ethToBuy, uint256 offeredPxl) public {\n        //Require we have the pxl to offer\n        require(balances[msg.sender] >= offeredPxl);\n        require(ethToBuy > 0 && offeredPxl > 0);\n        \n        //Cancel old TradeOffer if present\n        cancelTradeOffer();\n        \n        //Set Offer\n        pxlTradeStatus[msg.sender].eth = ethToBuy;\n        pxlTradeStatus[msg.sender].pxl = offeredPxl;\n        pxlTradeStatus[msg.sender].buyingPxl = false;\n        \n        //Lose offered pxl\n        balances[msg.sender] -= offeredPxl;\n        \n        ListTradeOffer(msg.sender, ethToBuy, offeredPxl, false);\n    }\n    function setBuyPXLOffer(uint256 pxlToBuy, uint256 offeredEth) public payable {\n        //Require we have the eth to offer\n        require(msg.value >= offeredEth);\n        require(pxlToBuy > 0 && offeredEth > 0);\n        \n        //Cancel old TradeOffer if present\n        cancelTradeOffer();\n        \n        //Set Offer\n        TradeOffer storage tradeOffer = pxlTradeStatus[msg.sender];\n        tradeOffer.pxl = pxlToBuy;\n        tradeOffer.eth = offeredEth;\n        tradeOffer.buyingPxl = true;\n        \n        ListTradeOffer(msg.sender, offeredEth, pxlToBuy, true);\n    }\n    function cancelTradeOffer() public {\n        TradeOffer storage tradeOffer = pxlTradeStatus[msg.sender];\n        //If we have a trade offer\n        if (tradeOffer.eth > 0 && tradeOffer.pxl > 0) {\n            //We already deposited ETH. Return it back\n            if (tradeOffer.buyingPxl) {\n                msg.sender.transfer(tradeOffer.eth);\n            }\n            //We already deposited PXL. Return it back\n            else {\n                balances[msg.sender] += tradeOffer.pxl;\n            }\n            CancelTradeOffer(msg.sender);\n        }\n    }\n    function acceptOfferBuyingETH(address ownerOfTradeOffer) public payable {\n        TradeOffer storage tradeOffer = pxlTradeStatus[ownerOfTradeOffer];\n        //Make sure the accepter has enough to justify accepting\n        require(tradeOffer.eth <= msg.value);\n        require(ownerOfTradeOffer != 0);\n        \n        //Give them our money. We are deposited it by this being \"payable\"\n        ownerOfTradeOffer.transfer(msg.value);\n        \n        //Take their money. They already deposited their coins\n        balances[msg.sender] += tradeOffer.pxl;\n        \n        //Clear trade offer\n        tradeOffer.eth = 0;\n        tradeOffer.pxl = 0;\n        \n        AcceptTradeOffer(msg.sender, ownerOfTradeOffer);\n    }\n    function acceptOfferBuyingPXL(address ownerOfTradeOffer) public {\n        TradeOffer storage tradeOffer = pxlTradeStatus[ownerOfTradeOffer];\n        //Make sure the accepter has enough to justify accepting\n        require(tradeOffer.pxl <= balances[msg.sender]);\n        require(ownerOfTradeOffer != 0);\n        \n        //Give them our money\n        balances[ownerOfTradeOffer] += tradeOffer.pxl;\n        balances[msg.sender] -= tradeOffer.pxl;\n        \n        //Take their money. They already deposited ETH\n        msg.sender.transfer(tradeOffer.eth);\n        \n        //Clear trade offer\n        tradeOffer.eth = 0;\n        tradeOffer.pxl = 0;\n        \n        AcceptTradeOffer(msg.sender, ownerOfTradeOffer);\n    }\n    \n    //Change pixel or 10x1 costs 7 | 3 | 0\n    function setRowColors(uint24 propertyID, uint8 row, uint24 newColorData) public validPropertyID(propertyID) returns(bool) {\n        Property storage property = map[propertyID];\n        \n        require(row >= 0 && row <= 9);\n        \n        uint256 cost = property.owner != 0 ? 1 : 2;\n        \n        if (property.isInPrivateMode) {\n                require(msg.sender == property.owner);\n                cost = 0;\n        } \n        \n        require(balances[msg.sender] >= cost);\n        \n        balances[msg.sender] -= cost; //Burn the coin to set the color\n        \n        property.colors[row] = newColorData;\n        property.lastUpdater = msg.sender;\n        PropertyColorUpdatePixel(propertyID, row, newColorData);\n        \n        return true;\n    }\n    \n    function transferProperty(uint24 propertyID, address newOwner) public validPropertyID(propertyID) returns(bool) {\n        Property storage property = map[propertyID];\n        \n        require(property.owner == msg.sender);\n        require(newOwner != 0);\n        \n        property.owner = newOwner;\n        \n        return true;\n    }\n    \n    //Use Case: Buyer wants to buy a property\n    function buyProperty(uint24 propertyID) public validPropertyID(propertyID) payable returns(bool) {\n        Property storage property = map[propertyID];\n        \n        //If this is the first ever purchase, the property hasn't been made yet, property.owner is just default\n        if (property.owner == 0) {\n            property.owner = owner;\n            property.salePrice = DEFAULT_PRICE;\n            DEFAULT_PRICE += DEFAULT_PRICE_INCREMENTATION;\n            DEFAULT_PRICE_INCREMENTATION += DEFAULT_PRICE_INCREMENTATION_INCREMENTATION;\n        }\n      \n        require(property.salePrice != 0);//property must be for sale\n        require(msg.value >= property.salePrice);//Amount paid must be at least the price\n      \n        //User gets the majority of the listed price's sale\n        uint128 amountTransfered = 0;\n        \n        //If there is someone to get paid, they get the purchase. Otherwise, the contract gets it as initial purchase payment\n        if (property.owner != 0) {\n            amountTransfered = property.salePrice * USER_BUY_CUT_PERCENT / 100;\n            property.owner.transfer(amountTransfered);\n        }\n        \n        property.salePrice = 0;\n        property.owner = msg.sender;\n        property.isInPrivateMode = false;\n        \n        ownerEth += msg.value - amountTransfered;\n        \n        PropertyBought(propertyID, property.owner);\n        \n        return true;\n    }\n    \n    //Use Case: Owner of a property lists for sale at a given price\n    function listForSale(uint24 propertyID, uint128 price ) public validPropertyID(propertyID) returns(bool) {\n        Property storage property = map[propertyID];\n      \n        require(price != 0);\n      \n        require(msg.sender == property.owner); //Must be the owner\n        //You can listForSale an already listed item to update the listing\n        property.salePrice = price;\n        \n        PropertySetForSale(propertyID);\n        \n        return true;\n    }\n    \n    //Use Case: Owner of a property delists from both renting offer and sale offer\n    function delist(uint24 propertyID) public validPropertyID(propertyID) returns(bool) {\n        Property storage property = map[propertyID];\n        \n        require(msg.sender == property.owner); //Must be the owner\n        \n        property.salePrice = 0;\n        \n        DelistProperty(propertyID);\n        \n        return true;\n    }\n    \n    //////////////////////////////////////////////////////\n    ////Owner Sections: Meta-Functions For Owner only/////\n    //////////////////////////////////////////////////////\n    function withdraw(uint256 amount) public ownerOnly() {\n        if (amount <= ownerEth) {\n            owner.transfer(amount);\n        }\n    }\n    \n    function withdrawAll() public ownerOnly() {\n        owner.transfer(ownerEth);\n    }\n    \n    function changeOwners(address newOwner) public ownerOnly() {\n        owner = newOwner;\n    }\n    \n    function changeDefaultPrice(uint128 defaultPrice) public ownerOnly() {\n        DEFAULT_PRICE = defaultPrice;\n    }\n}",
  "sourcePath": "/Volumes/Lexar/DATA/PixelRealEstate/PixelRealEstate/contracts/VirtualRealEstate.sol",
  "compiler": {
    "name": "solc",
    "version": "0.4.18+commit.9cf6e910.Emscripten.clang"
  },
  "schemaVersion": "1.0.1",
  "updatedAt": "2018-01-17T11:18:44.892Z"
}