{
  "contractName": "VirtualRealEstate",
  "abi": [
    {
      "inputs": [],
      "payable": false,
      "stateMutability": "nonpayable",
      "type": "constructor"
    },
    {
      "anonymous": false,
      "inputs": [
        {
          "indexed": true,
          "name": "property",
          "type": "uint24"
        },
        {
          "indexed": false,
          "name": "colors",
          "type": "uint256[10]"
        }
      ],
      "name": "PropertyColorUpdate",
      "type": "event"
    },
    {
      "constant": false,
      "inputs": [
        {
          "name": "text",
          "type": "bytes32[2]"
        }
      ],
      "name": "setHoverText",
      "outputs": [],
      "payable": false,
      "stateMutability": "nonpayable",
      "type": "function"
    },
    {
      "constant": false,
      "inputs": [
        {
          "name": "link",
          "type": "bytes32[2]"
        }
      ],
      "name": "setLink",
      "outputs": [],
      "payable": false,
      "stateMutability": "nonpayable",
      "type": "function"
    },
    {
      "constant": true,
      "inputs": [
        {
          "name": "propertyID",
          "type": "uint24"
        }
      ],
      "name": "getForSalePrice",
      "outputs": [
        {
          "name": "",
          "type": "uint128"
        }
      ],
      "payable": false,
      "stateMutability": "view",
      "type": "function"
    },
    {
      "constant": true,
      "inputs": [
        {
          "name": "propertyID",
          "type": "uint24"
        }
      ],
      "name": "getForRentPrice",
      "outputs": [
        {
          "name": "",
          "type": "uint128"
        }
      ],
      "payable": false,
      "stateMutability": "view",
      "type": "function"
    },
    {
      "constant": true,
      "inputs": [
        {
          "name": "propertyID",
          "type": "uint24"
        }
      ],
      "name": "getHoverText",
      "outputs": [
        {
          "name": "",
          "type": "bytes32[2]"
        }
      ],
      "payable": false,
      "stateMutability": "view",
      "type": "function"
    },
    {
      "constant": true,
      "inputs": [
        {
          "name": "propertyID",
          "type": "uint24"
        }
      ],
      "name": "getLink",
      "outputs": [
        {
          "name": "",
          "type": "bytes32[2]"
        }
      ],
      "payable": false,
      "stateMutability": "view",
      "type": "function"
    },
    {
      "constant": true,
      "inputs": [
        {
          "name": "propertyID",
          "type": "uint24"
        }
      ],
      "name": "getPropertyColors",
      "outputs": [
        {
          "name": "",
          "type": "uint256[10]"
        }
      ],
      "payable": false,
      "stateMutability": "view",
      "type": "function"
    },
    {
      "constant": true,
      "inputs": [
        {
          "name": "propertyID",
          "type": "uint24"
        }
      ],
      "name": "getPropertyData",
      "outputs": [
        {
          "name": "",
          "type": "address"
        },
        {
          "name": "",
          "type": "uint128"
        },
        {
          "name": "",
          "type": "address"
        },
        {
          "name": "",
          "type": "uint256"
        },
        {
          "name": "",
          "type": "uint256"
        },
        {
          "name": "",
          "type": "uint128"
        }
      ],
      "payable": false,
      "stateMutability": "view",
      "type": "function"
    },
    {
      "constant": false,
      "inputs": [
        {
          "name": "propertyID",
          "type": "uint24"
        },
        {
          "name": "newColors",
          "type": "uint256[10]"
        }
      ],
      "name": "setColors",
      "outputs": [
        {
          "name": "",
          "type": "bool"
        }
      ],
      "payable": false,
      "stateMutability": "nonpayable",
      "type": "function"
    },
    {
      "constant": false,
      "inputs": [
        {
          "name": "propertyID",
          "type": "uint24"
        }
      ],
      "name": "buyProperty",
      "outputs": [
        {
          "name": "",
          "type": "bool"
        }
      ],
      "payable": true,
      "stateMutability": "payable",
      "type": "function"
    },
    {
      "constant": false,
      "inputs": [
        {
          "name": "propertyID",
          "type": "uint24"
        }
      ],
      "name": "rentProperty",
      "outputs": [
        {
          "name": "",
          "type": "bool"
        }
      ],
      "payable": true,
      "stateMutability": "payable",
      "type": "function"
    },
    {
      "constant": false,
      "inputs": [
        {
          "name": "propertyID",
          "type": "uint24"
        }
      ],
      "name": "stopRenting",
      "outputs": [
        {
          "name": "",
          "type": "bool"
        }
      ],
      "payable": false,
      "stateMutability": "nonpayable",
      "type": "function"
    },
    {
      "constant": false,
      "inputs": [
        {
          "name": "propertyID",
          "type": "uint24"
        },
        {
          "name": "price",
          "type": "uint128"
        }
      ],
      "name": "listForSale",
      "outputs": [
        {
          "name": "",
          "type": "bool"
        }
      ],
      "payable": false,
      "stateMutability": "nonpayable",
      "type": "function"
    },
    {
      "constant": false,
      "inputs": [
        {
          "name": "propertyID",
          "type": "uint24"
        },
        {
          "name": "rentPrice",
          "type": "uint128"
        },
        {
          "name": "rentDuration",
          "type": "uint128"
        }
      ],
      "name": "listForRent",
      "outputs": [
        {
          "name": "",
          "type": "bool"
        }
      ],
      "payable": false,
      "stateMutability": "nonpayable",
      "type": "function"
    },
    {
      "constant": false,
      "inputs": [
        {
          "name": "propertyID",
          "type": "uint24"
        },
        {
          "name": "delistFromSale",
          "type": "bool"
        },
        {
          "name": "delistFromRent",
          "type": "bool"
        }
      ],
      "name": "delist",
      "outputs": [
        {
          "name": "",
          "type": "bool"
        }
      ],
      "payable": false,
      "stateMutability": "nonpayable",
      "type": "function"
    },
    {
      "constant": false,
      "inputs": [
        {
          "name": "amount",
          "type": "uint256"
        }
      ],
      "name": "withdraw",
      "outputs": [],
      "payable": false,
      "stateMutability": "nonpayable",
      "type": "function"
    },
    {
      "constant": false,
      "inputs": [],
      "name": "withdrawAll",
      "outputs": [],
      "payable": false,
      "stateMutability": "nonpayable",
      "type": "function"
    },
    {
      "constant": false,
      "inputs": [
        {
          "name": "newOwner",
          "type": "address"
        }
      ],
      "name": "changeOwners",
      "outputs": [],
      "payable": false,
      "stateMutability": "nonpayable",
      "type": "function"
    }
  ],
  "bytecode": "0x60606040526000600155662386f26fc10000600560006101000a8154816fffffffffffffffffffffffffffffffff02191690836fffffffffffffffffffffffffffffffff1602179055506062600560106101000a8154816fffffffffffffffffffffffffffffffff02191690836fffffffffffffffffffffffffffffffff1602179055506062600660006101000a8154816fffffffffffffffffffffffffffffffff02191690836fffffffffffffffffffffffffffffffff16021790555034156100c857600080fd5b336000806101000a81548173ffffffffffffffffffffffffffffffffffffffff021916908373ffffffffffffffffffffffffffffffffffffffff1602179055506128f8806101176000396000f3006060604052600436106100fc576000357c0100000000000000000000000000000000000000000000000000000000900463ffffffff168063075773fd1461010157806316035c7c14610200578063164e0aba1461025b5780631d04458d146102bf578063284b8a64146103055780632d37a6ea1461034b5780632e1a7d4d14610380578063497e37a5146103a35780635211aa1a146103e35780637a5f97ca1461044757806381c7110b146104ab57806383dc87321461050b578063853828b614610540578063a107f32614610555578063c2675a39146105b5578063cc01a8d11461062b578063d7963f9414610681578063dc4cb7f5146106ba575b600080fd5b341561010c57600080fd5b610127600480803562ffffff16906020019091905050610727565b604051808773ffffffffffffffffffffffffffffffffffffffff1673ffffffffffffffffffffffffffffffffffffffff168152602001866fffffffffffffffffffffffffffffffff166fffffffffffffffffffffffffffffffff1681526020018573ffffffffffffffffffffffffffffffffffffffff1673ffffffffffffffffffffffffffffffffffffffff168152602001848152602001838152602001826fffffffffffffffffffffffffffffffff166fffffffffffffffffffffffffffffffff168152602001965050505050505060405180910390f35b341561020b57600080fd5b610241600480803562ffffff169060200190919080356fffffffffffffffffffffffffffffffff16906020019091905050610810565b604051808215151515815260200191505060405180910390f35b341561026657600080fd5b610281600480803562ffffff16906020019091905050610a63565b6040518082600a60200280838360005b838110156102ac578082015181840152602081019050610291565b5050505090500191505060405180910390f35b34156102ca57600080fd5b61030360048080604001906002806020026040519081016040528092919082600260200280828437820191505050505091905050610ae1565b005b341561031057600080fd5b61034960048080604001906002806020026040519081016040528092919082600260200280828437820191505050505091905050610b33565b005b610366600480803562ffffff16906020019091905050610b85565b604051808215151515815260200191505060405180910390f35b341561038b57600080fd5b6103a16004808035906020019091905050610f93565b005b34156103ae57600080fd5b6103c9600480803562ffffff1690602001909190505061105e565b604051808215151515815260200191505060405180910390f35b34156103ee57600080fd5b610409600480803562ffffff1690602001909190505061113f565b6040518082600260200280838360005b83811015610434578082015181840152602081019050610419565b5050505090500191505060405180910390f35b341561045257600080fd5b61046d600480803562ffffff1690602001909190505061140b565b6040518082600260200280838360005b8381101561049857808201518184015260208101905061047d565b5050505090500191505060405180910390f35b34156104b657600080fd5b6104d1600480803562ffffff169060200190919050506116d7565b60405180826fffffffffffffffffffffffffffffffff166fffffffffffffffffffffffffffffffff16815260200191505060405180910390f35b610526600480803562ffffff16906020019091905050611764565b604051808215151515815260200191505060405180910390f35b341561054b57600080fd5b610553611d6d565b005b341561056057600080fd5b61057b600480803562ffffff16906020019091905050611e2d565b60405180826fffffffffffffffffffffffffffffffff166fffffffffffffffffffffffffffffffff16815260200191505060405180910390f35b34156105c057600080fd5b610611600480803562ffffff169060200190919080356fffffffffffffffffffffffffffffffff169060200190919080356fffffffffffffffffffffffffffffffff16906020019091905050611eba565b604051808215151515815260200191505060405180910390f35b341561063657600080fd5b610667600480803562ffffff1690602001909190803515159060200190919080351515906020019091905050612168565b604051808215151515815260200191505060405180910390f35b341561068c57600080fd5b6106b8600480803573ffffffffffffffffffffffffffffffffffffffff16906020019091905050612461565b005b34156106c557600080fd5b61070d600480803562ffffff1690602001909190806101400190600a806020026040519081016040528092919082600a602002808284378201915050505050919050506124ff565b604051808215151515815260200191505060405180910390f35b600080600080600080600087620f42408162ffffff16101561080557600260008a62ffffff1662ffffff16815260200190815260200160002091508160000160009054906101000a900473ffffffffffffffffffffffffffffffffffffffff1682600b0160009054906101000a90046fffffffffffffffffffffffffffffffff1683600c0160009054906101000a900473ffffffffffffffffffffffffffffffffffffffff1684600d015485600e015486600f0160009054906101000a90046fffffffffffffffffffffffffffffffff169750975097509750975097505b505091939550919395565b60008083620f42408162ffffff161015610a5b57600260008662ffffff1662ffffff16815260200190815260200160002091506000846fffffffffffffffffffffffffffffffff161415151561086557600080fd5b600082600f0160009054906101000a90046fffffffffffffffffffffffffffffffff166fffffffffffffffffffffffffffffffff16141580156108e35750600082600c0160009054906101000a900473ffffffffffffffffffffffffffffffffffffffff1673ffffffffffffffffffffffffffffffffffffffff1614155b80156108f257504282600e0154105b15610958576000600260008762ffffff1662ffffff168152602001908152602001600020600c0160006101000a81548173ffffffffffffffffffffffffffffffffffffffff021916908373ffffffffffffffffffffffffffffffffffffffff1602179055505b8160000160009054906101000a900473ffffffffffffffffffffffffffffffffffffffff1673ffffffffffffffffffffffffffffffffffffffff163373ffffffffffffffffffffffffffffffffffffffff161415156109b657600080fd5b600082600c0160009054906101000a900473ffffffffffffffffffffffffffffffffffffffff1673ffffffffffffffffffffffffffffffffffffffff161415156109ff57600080fd5b83600260008762ffffff1662ffffff168152602001908152602001600020600b0160006101000a8154816fffffffffffffffffffffffffffffffff02191690836fffffffffffffffffffffffffffffffff160217905550600192505b505092915050565b610a6b6127a9565b81620f42408162ffffff161015610adb57600260008462ffffff1662ffffff168152602001908152602001600020600101600a806020026040519081016040528092919082600a8015610ad3576020028201915b815481526020019060010190808311610abf575b505050505091505b50919050565b80600460003373ffffffffffffffffffffffffffffffffffffffff1673ffffffffffffffffffffffffffffffffffffffff168152602001908152602001600020906002610b2f9291906127d2565b5050565b80600360003373ffffffffffffffffffffffffffffffffffffffff1673ffffffffffffffffffffffffffffffffffffffff168152602001908152602001600020906002610b819291906127d2565b5050565b60008060008084620f42408162ffffff161015610f8a57600260008762ffffff1662ffffff168152602001908152602001600020935083600f0160009054906101000a90046fffffffffffffffffffffffffffffffff166fffffffffffffffffffffffffffffffff1634811515610bf857fe5b049250600084600f0160009054906101000a90046fffffffffffffffffffffffffffffffff166fffffffffffffffffffffffffffffffff1614158015610c795750600084600c0160009054906101000a900473ffffffffffffffffffffffffffffffffffffffff1673ffffffffffffffffffffffffffffffffffffffff1614155b8015610c8857504284600e0154105b15610cee576000600260008862ffffff1662ffffff168152602001908152602001600020600c0160006101000a81548173ffffffffffffffffffffffffffffffffffffffff021916908373ffffffffffffffffffffffffffffffffffffffff1602179055505b60008460000160009054906101000a900473ffffffffffffffffffffffffffffffffffffffff1673ffffffffffffffffffffffffffffffffffffffff1614151515610d3857600080fd5b600084600f0160009054906101000a90046fffffffffffffffffffffffffffffffff166fffffffffffffffffffffffffffffffff1614151515610d7a57600080fd5b60018310151515610d8a57600080fd5b600084600c0160009054906101000a900473ffffffffffffffffffffffffffffffffffffffff1673ffffffffffffffffffffffffffffffffffffffff16141515610dd357600080fd5b6064600660009054906101000a90046fffffffffffffffffffffffffffffffff166fffffffffffffffffffffffffffffffff163402811515610e1157fe5b0491508360000160009054906101000a900473ffffffffffffffffffffffffffffffffffffffff1673ffffffffffffffffffffffffffffffffffffffff166108fc839081150290604051600060405180830381858888f193505050501515610e7857600080fd5b33600260008862ffffff1662ffffff168152602001908152602001600020600c0160006101000a81548173ffffffffffffffffffffffffffffffffffffffff021916908373ffffffffffffffffffffffffffffffffffffffff160217905550824201600260008862ffffff1662ffffff168152602001908152602001600020600d01541015610f4b57600260008762ffffff1662ffffff168152602001908152602001600020600d0154600260008862ffffff1662ffffff168152602001908152602001600020600e0181905550610f73565b824201600260008862ffffff1662ffffff168152602001908152602001600020600e01819055505b813403600160008282540192505081905550600194505b50505050919050565b3373ffffffffffffffffffffffffffffffffffffffff166000809054906101000a900473ffffffffffffffffffffffffffffffffffffffff1673ffffffffffffffffffffffffffffffffffffffff16141515610fee57600080fd5b6001548111151561105b576000809054906101000a900473ffffffffffffffffffffffffffffffffffffffff1673ffffffffffffffffffffffffffffffffffffffff166108fc829081150290604051600060405180830381858888f19350505050151561105a57600080fd5b5b50565b60008082620f42408162ffffff16101561113857600260008562ffffff1662ffffff168152602001908152602001600020915081600c0160009054906101000a900473ffffffffffffffffffffffffffffffffffffffff1673ffffffffffffffffffffffffffffffffffffffff163373ffffffffffffffffffffffffffffffffffffffff161415156110ef57600080fd5b600082600c0160006101000a81548173ffffffffffffffffffffffffffffffffffffffff021916908373ffffffffffffffffffffffffffffffffffffffff160217905550600192505b5050919050565b611147612818565b600080600260008562ffffff1662ffffff1681526020019081526020016000209150600082600f0160009054906101000a90046fffffffffffffffffffffffffffffffff166fffffffffffffffffffffffffffffffff16141580156111e75750600082600c0160009054906101000a900473ffffffffffffffffffffffffffffffffffffffff1673ffffffffffffffffffffffffffffffffffffffff1614155b80156111f657504282600e0154105b1561125c576000600260008662ffffff1662ffffff168152602001908152602001600020600c0160006101000a81548173ffffffffffffffffffffffffffffffffffffffff021916908373ffffffffffffffffffffffffffffffffffffffff1602179055505b600082600c0160009054906101000a900473ffffffffffffffffffffffffffffffffffffffff1673ffffffffffffffffffffffffffffffffffffffff161415806112e1575060008260000160009054906101000a900473ffffffffffffffffffffffffffffffffffffffff1673ffffffffffffffffffffffffffffffffffffffff1614155b15156112ec57600080fd5b600082600c0160009054906101000a900473ffffffffffffffffffffffffffffffffffffffff1673ffffffffffffffffffffffffffffffffffffffff16141561135b578160000160009054906101000a900473ffffffffffffffffffffffffffffffffffffffff169050611383565b81600c0160009054906101000a900473ffffffffffffffffffffffffffffffffffffffff1690505b600360008273ffffffffffffffffffffffffffffffffffffffff1673ffffffffffffffffffffffffffffffffffffffff1681526020019081526020016000206002806020026040519081016040528092919082600280156113fd576020028201915b815460001916815260200190600101908083116113e5575b505050505092505050919050565b611413612818565b600080600260008562ffffff1662ffffff1681526020019081526020016000209150600082600f0160009054906101000a90046fffffffffffffffffffffffffffffffff166fffffffffffffffffffffffffffffffff16141580156114b35750600082600c0160009054906101000a900473ffffffffffffffffffffffffffffffffffffffff1673ffffffffffffffffffffffffffffffffffffffff1614155b80156114c257504282600e0154105b15611528576000600260008662ffffff1662ffffff168152602001908152602001600020600c0160006101000a81548173ffffffffffffffffffffffffffffffffffffffff021916908373ffffffffffffffffffffffffffffffffffffffff1602179055505b600082600c0160009054906101000a900473ffffffffffffffffffffffffffffffffffffffff1673ffffffffffffffffffffffffffffffffffffffff161415806115ad575060008260000160009054906101000a900473ffffffffffffffffffffffffffffffffffffffff1673ffffffffffffffffffffffffffffffffffffffff1614155b15156115b857600080fd5b600082600c0160009054906101000a900473ffffffffffffffffffffffffffffffffffffffff1673ffffffffffffffffffffffffffffffffffffffff161415611627578160000160009054906101000a900473ffffffffffffffffffffffffffffffffffffffff16905061164f565b81600c0160009054906101000a900473ffffffffffffffffffffffffffffffffffffffff1690505b600460008273ffffffffffffffffffffffffffffffffffffffff1673ffffffffffffffffffffffffffffffffffffffff1681526020019081526020016000206002806020026040519081016040528092919082600280156116c9576020028201915b815460001916815260200190600101908083116116b1575b505050505092505050919050565b600080600260008462ffffff1662ffffff1681526020019081526020016000209050600081600b0160009054906101000a90046fffffffffffffffffffffffffffffffff166fffffffffffffffffffffffffffffffff161415151561173b57600080fd5b80600b0160009054906101000a90046fffffffffffffffffffffffffffffffff16915050919050565b600080600083620f42408162ffffff161015611d65576000600260008762ffffff1662ffffff16815260200190815260200160002060000160009054906101000a900473ffffffffffffffffffffffffffffffffffffffff1673ffffffffffffffffffffffffffffffffffffffff1614156118cf576000809054906101000a900473ffffffffffffffffffffffffffffffffffffffff16600260008762ffffff1662ffffff16815260200190815260200160002060000160006101000a81548173ffffffffffffffffffffffffffffffffffffffff021916908373ffffffffffffffffffffffffffffffffffffffff160217905550600560009054906101000a90046fffffffffffffffffffffffffffffffff16600260008762ffffff1662ffffff168152602001908152602001600020600b0160006101000a8154816fffffffffffffffffffffffffffffffff02191690836fffffffffffffffffffffffffffffffff1602179055505b600260008662ffffff1662ffffff1681526020019081526020016000209250600083600f0160009054906101000a90046fffffffffffffffffffffffffffffffff166fffffffffffffffffffffffffffffffff161415801561196c5750600083600c0160009054906101000a900473ffffffffffffffffffffffffffffffffffffffff1673ffffffffffffffffffffffffffffffffffffffff1614155b801561197b57504283600e0154105b156119e1576000600260008762ffffff1662ffffff168152602001908152602001600020600c0160006101000a81548173ffffffffffffffffffffffffffffffffffffffff021916908373ffffffffffffffffffffffffffffffffffffffff1602179055505b600083600b0160009054906101000a90046fffffffffffffffffffffffffffffffff166fffffffffffffffffffffffffffffffff1614151515611a2357600080fd5b600083600c0160009054906101000a900473ffffffffffffffffffffffffffffffffffffffff1673ffffffffffffffffffffffffffffffffffffffff16141515611a6c57600080fd5b82600b0160009054906101000a90046fffffffffffffffffffffffffffffffff166fffffffffffffffffffffffffffffffff163410151515611aad57600080fd5b6000915060008360000160009054906101000a900473ffffffffffffffffffffffffffffffffffffffff1673ffffffffffffffffffffffffffffffffffffffff16141515611bcd576064600560109054906101000a90046fffffffffffffffffffffffffffffffff1684600b0160009054906101000a90046fffffffffffffffffffffffffffffffff16026fffffffffffffffffffffffffffffffff16811515611b5357fe5b0491508260000160009054906101000a900473ffffffffffffffffffffffffffffffffffffffff1673ffffffffffffffffffffffffffffffffffffffff166108fc836fffffffffffffffffffffffffffffffff169081150290604051600060405180830381858888f193505050501515611bcc57600080fd5b5b6000600260008762ffffff1662ffffff168152602001908152602001600020600f0160006101000a8154816fffffffffffffffffffffffffffffffff02191690836fffffffffffffffffffffffffffffffff1602179055506000600260008762ffffff1662ffffff168152602001908152602001600020600c0160006101000a81548173ffffffffffffffffffffffffffffffffffffffff021916908373ffffffffffffffffffffffffffffffffffffffff1602179055506000600260008762ffffff1662ffffff168152602001908152602001600020600b0160006101000a8154816fffffffffffffffffffffffffffffffff02191690836fffffffffffffffffffffffffffffffff16021790555033600260008762ffffff1662ffffff16815260200190815260200160002060000160006101000a81548173ffffffffffffffffffffffffffffffffffffffff021916908373ffffffffffffffffffffffffffffffffffffffff160217905550816fffffffffffffffffffffffffffffffff163403600160008282540192505081905550600193505b505050919050565b3373ffffffffffffffffffffffffffffffffffffffff166000809054906101000a900473ffffffffffffffffffffffffffffffffffffffff1673ffffffffffffffffffffffffffffffffffffffff16141515611dc857600080fd5b6000809054906101000a900473ffffffffffffffffffffffffffffffffffffffff1673ffffffffffffffffffffffffffffffffffffffff166108fc6001549081150290604051600060405180830381858888f193505050501515611e2b57600080fd5b565b600080600260008462ffffff1662ffffff1681526020019081526020016000209050600081600f0160009054906101000a90046fffffffffffffffffffffffffffffffff166fffffffffffffffffffffffffffffffff1614151515611e9157600080fd5b80600f0160009054906101000a90046fffffffffffffffffffffffffffffffff16915050919050565b60008084620f42408162ffffff16101561215f57600260008762ffffff1662ffffff1681526020019081526020016000209150600082600f0160009054906101000a90046fffffffffffffffffffffffffffffffff166fffffffffffffffffffffffffffffffff1614158015611f6b5750600082600c0160009054906101000a900473ffffffffffffffffffffffffffffffffffffffff1673ffffffffffffffffffffffffffffffffffffffff1614155b8015611f7a57504282600e0154105b15611fe0576000600260008862ffffff1662ffffff168152602001908152602001600020600c0160006101000a81548173ffffffffffffffffffffffffffffffffffffffff021916908373ffffffffffffffffffffffffffffffffffffffff1602179055505b6000856fffffffffffffffffffffffffffffffff161415151561200257600080fd5b8160000160009054906101000a900473ffffffffffffffffffffffffffffffffffffffff1673ffffffffffffffffffffffffffffffffffffffff163373ffffffffffffffffffffffffffffffffffffffff1614151561206057600080fd5b600082600c0160009054906101000a900473ffffffffffffffffffffffffffffffffffffffff1673ffffffffffffffffffffffffffffffffffffffff161415156120a957600080fd5b6000846fffffffffffffffffffffffffffffffff161115156120ca57600080fd5b84600260008862ffffff1662ffffff168152602001908152602001600020600f0160006101000a8154816fffffffffffffffffffffffffffffffff02191690836fffffffffffffffffffffffffffffffff160217905550836fffffffffffffffffffffffffffffffff164201600260008862ffffff1662ffffff168152602001908152602001600020600d0181905550600192505b50509392505050565b60008084620f42408162ffffff16101561245857600260008762ffffff1662ffffff1681526020019081526020016000209150600082600f0160009054906101000a90046fffffffffffffffffffffffffffffffff166fffffffffffffffffffffffffffffffff16141580156122195750600082600c0160009054906101000a900473ffffffffffffffffffffffffffffffffffffffff1673ffffffffffffffffffffffffffffffffffffffff1614155b801561222857504282600e0154105b1561228e576000600260008862ffffff1662ffffff168152602001908152602001600020600c0160006101000a81548173ffffffffffffffffffffffffffffffffffffffff021916908373ffffffffffffffffffffffffffffffffffffffff1602179055505b8160000160009054906101000a900473ffffffffffffffffffffffffffffffffffffffff1673ffffffffffffffffffffffffffffffffffffffff163373ffffffffffffffffffffffffffffffffffffffff161415156122ec57600080fd5b600082600c0160009054906101000a900473ffffffffffffffffffffffffffffffffffffffff1673ffffffffffffffffffffffffffffffffffffffff1614151561233557600080fd5b83156123f4576000600260008862ffffff1662ffffff168152602001908152602001600020600f0160006101000a8154816fffffffffffffffffffffffffffffffff02191690836fffffffffffffffffffffffffffffffff1602179055506000600260008862ffffff1662ffffff168152602001908152602001600020600c0160006101000a81548173ffffffffffffffffffffffffffffffffffffffff021916908373ffffffffffffffffffffffffffffffffffffffff1602179055505b8415612453576000600260008862ffffff1662ffffff168152602001908152602001600020600b0160006101000a8154816fffffffffffffffffffffffffffffffff02191690836fffffffffffffffffffffffffffffffff1602179055505b600192505b50509392505050565b3373ffffffffffffffffffffffffffffffffffffffff166000809054906101000a900473ffffffffffffffffffffffffffffffffffffffff1673ffffffffffffffffffffffffffffffffffffffff161415156124bc57600080fd5b806000806101000a81548173ffffffffffffffffffffffffffffffffffffffff021916908373ffffffffffffffffffffffffffffffffffffffff16021790555050565b60008083620f42408162ffffff1610156127a157600260008662ffffff1662ffffff1681526020019081526020016000209150600082600f0160009054906101000a90046fffffffffffffffffffffffffffffffff166fffffffffffffffffffffffffffffffff16141580156125b05750600082600c0160009054906101000a900473ffffffffffffffffffffffffffffffffffffffff1673ffffffffffffffffffffffffffffffffffffffff1614155b80156125bf57504282600e0154105b15612625576000600260008762ffffff1662ffffff168152602001908152602001600020600c0160006101000a81548173ffffffffffffffffffffffffffffffffffffffff021916908373ffffffffffffffffffffffffffffffffffffffff1602179055505b8160000160009054906101000a900473ffffffffffffffffffffffffffffffffffffffff1673ffffffffffffffffffffffffffffffffffffffff163373ffffffffffffffffffffffffffffffffffffffff161480156126be5750600082600c0160009054906101000a900473ffffffffffffffffffffffffffffffffffffffff1673ffffffffffffffffffffffffffffffffffffffff16145b80612718575081600c0160009054906101000a900473ffffffffffffffffffffffffffffffffffffffff1673ffffffffffffffffffffffffffffffffffffffff163373ffffffffffffffffffffffffffffffffffffffff16145b151561272357600080fd5b838260010190600a612736929190612842565b508462ffffff167f81d0c495828860188f80dfcdfc935bb87a3902206418ab9b5d3080c4bfe3cda0856040518082600a60200280838360005b8381101561278a57808201518184015260208101905061276f565b5050505090500191505060405180910390a2600192505b505092915050565b61014060405190810160405280600a905b60008152602001906001900390816127ba5790505090565b8260028101928215612807579160200282015b828111156128065782518290600019169055916020019190600101906127e5565b5b5090506128149190612882565b5090565b60408051908101604052806002905b60008019168152602001906001900390816128275790505090565b82600a8101928215612871579160200282015b82811115612870578251825591602001919060010190612855565b5b50905061287e91906128a7565b5090565b6128a491905b808211156128a0576000816000905550600101612888565b5090565b90565b6128c991905b808211156128c55760008160009055506001016128ad565b5090565b905600a165627a7a723058207dfbbf2ddeec617d98278ebeff0f78abc2ac61bf61c23fda766a0c346231082a0029",
  "source": "pragma solidity ^0.4.2;\ncontract VirtualRealEstate {\n    address owner;\n    uint256 ownerEth = 0;\n    \n    //Mapping of propertyID to property\n    mapping (uint24 => Property) map;\n    //propertyOwner to link\n    mapping (address => bytes32[2]) ownerLink;\n    //propertyRenter to link\n    mapping (address => bytes32[2]) ownerHoverText;\n    \n    uint128 DEFAULT_PRICE = 10000000000000000;\n    \n    uint128 USER_BUY_CUT_PERCENT = 98; //%\n    uint128 USER_RENT_CUT_PERCENT = 98; //%;\n    \n    event PropertyColorUpdate(uint24 indexed property, uint256[10] colors);\n    \n    struct Property {\n        address owner;\n        uint256[10] colors; //10x10 rgb pixel colors per property\n        uint128 salePrice;\n        address renter;\n        uint256 rentAvailableUntil;\n        uint256 rentedUntil;\n        uint128 rentPrice;\n    }\n    \n    modifier ownerOnly() {\n        require(owner == msg.sender);\n        _;\n    }\n    \n    modifier validpropertyID(uint24 propertyID) {\n        if (propertyID < 1000000) {\n            _;\n        }\n    }\n    \n    function VirtualRealEstate() public {\n        owner = msg.sender;\n    }\n    function setHoverText(bytes32[2] text) public {\n        ownerHoverText[msg.sender] = text;\n    }\n    function setLink(bytes32[2] link) public {\n        ownerLink[msg.sender] = link;\n    }\n    \n    function getForSalePrice(uint24 propertyID) public view returns(uint128) {\n        Property property = map[propertyID];\n        require(property.salePrice != 0);\n        return property.salePrice;\n    }\n    \n    function getForRentPrice(uint24 propertyID) public view returns(uint128) {\n        Property property = map[propertyID];\n        require(property.rentPrice != 0);\n        return property.rentPrice;\n    }\n    function getHoverText(uint24 propertyID) public view returns(bytes32[2]) {\n        Property property = map[propertyID];\n        \n        if (property.rentPrice != 0 && property.renter != 0 && property.rentedUntil < now) {\n            map[propertyID].renter = 0;\n        }\n        //Must have a owner or renter, and that owner/renter must have a short or long hover text\n        require(property.renter != 0 || property.owner != 0);\n        address propertyResident;\n        if (property.renter == 0) {\n            propertyResident = property.owner;\n        } else {\n            propertyResident = property.renter;\n        }\n        return ownerHoverText[propertyResident];\n    }\n    \n    function getLink(uint24 propertyID) public view returns(bytes32[2]) {\n        Property property = map[propertyID];\n        \n        if (property.rentPrice != 0 && property.renter != 0 && property.rentedUntil < now) {\n            map[propertyID].renter = 0;\n        }\n        //Must have a owner or renter, and that owner/renter must have a short or long hover text\n        require(property.renter != 0 || property.owner != 0);\n        address propertyResident;\n        if (property.renter == 0) {\n            propertyResident = property.owner;\n        } else {\n            propertyResident = property.renter;\n        }\n        return ownerLink[propertyResident];\n    }\n    \n    function getPropertyColors(uint24 propertyID) public validpropertyID(propertyID) view returns(uint256[10]) {\n        return map[propertyID].colors;\n    }\n    \n    function getPropertyData(uint24 propertyID) public validpropertyID(propertyID) view returns(address, uint128, address, uint256, uint256, uint128) {\n        Property property = map[propertyID];\n        return (property.owner, property.salePrice, property.renter, property.rentAvailableUntil, property.rentedUntil, property.rentPrice);\n    }\n    \n    function setColors(uint24 propertyID, uint256[10] newColors) public validpropertyID(propertyID) returns(bool) {\n        Property property = map[propertyID];\n        \n        if (property.rentPrice != 0 && property.renter != 0 && property.rentedUntil < now) {\n            map[propertyID].renter = 0;\n        }\n        \n        require((msg.sender == property.owner && property.renter == 0) || (msg.sender == property.renter));\n        \n        property.colors = newColors;\n        \n        PropertyColorUpdate(propertyID, newColors);\n        \n        return true;\n    }\n    \n    //Use Case: Buyer wants to buy a property\n    function buyProperty(uint24 propertyID) public validpropertyID(propertyID) payable returns(bool) {\n        //If this is the first ever purchase, the property hasn't been made yet, property.owner is just default\n        if (map[propertyID].owner == 0) {\n            map[propertyID].owner = owner;\n            map[propertyID].salePrice = DEFAULT_PRICE;\n        }\n        \n        Property property = map[propertyID];\n      \n        if (property.rentPrice != 0 && property.renter != 0 && property.rentedUntil < now) {\n            map[propertyID].renter = 0;\n        }\n      \n        require(property.salePrice != 0);//property must be for sale\n        require(property.renter == 0);//property cannot be being rented\n        require(msg.value >= property.salePrice);//Amount paid must be at least the price\n      \n        //User gets the majority of the listed price's sale\n        uint128 amountTransfered = 0;\n        \n        if (property.owner != 0) {\n            amountTransfered = property.salePrice * USER_BUY_CUT_PERCENT / 100;\n            property.owner.transfer(amountTransfered);\n        }\n        \n        map[propertyID].rentPrice = 0;\n        map[propertyID].renter = 0;\n        map[propertyID].salePrice = 0;\n        map[propertyID].owner = msg.sender;\n        \n        ownerEth += msg.value - amountTransfered;\n        \n        return true;\n    }\n    \n    //Use Case: Renter wants to rent a property\n    function rentProperty(uint24 propertyID) public validpropertyID(propertyID) payable returns(bool) {\n        Property property = map[propertyID];\n        \n        //How many units they paid to rent\n        uint256 timeToRent = msg.value / property.rentPrice;\n        \n        if (property.rentPrice != 0 && property.renter != 0 && property.rentedUntil < now) {\n            map[propertyID].renter = 0;\n        }\n      \n        require(property.owner != 0); //Must have been owned\n        require(property.rentPrice != 0);//property must be for sale\n        require(timeToRent >= 1);//The renting must be for at least one unit\n        require(property.renter == 0);//property cannot be being rented already\n      \n        //User gets the majority of the listed price's sale\n        uint256 amountTransfered = msg.value * USER_RENT_CUT_PERCENT / 100;\n        \n        property.owner.transfer(amountTransfered);\n        \n        map[propertyID].renter = msg.sender;\n      \n        if (map[propertyID].rentAvailableUntil < now + timeToRent) {\n            map[propertyID].rentedUntil = map[propertyID].rentAvailableUntil;\n        } else {\n            map[propertyID].rentedUntil = now + timeToRent;\n        }\n        \n        ownerEth += msg.value - amountTransfered;\n        \n        return true;\n    }\n    \n    //Use Case: Renter wants to stop renting the property\n    function stopRenting(uint24 propertyID) public validpropertyID(propertyID) returns(bool) {\n        Property property = map[propertyID];\n        \n        require(msg.sender == property.renter);\n        \n        property.renter = 0;\n        \n        return true;\n    }\n    \n    //Use Case: Owner of a property lists for sale at a given price\n    function listForSale(uint24 propertyID, uint128 price ) public validpropertyID(propertyID) returns(bool) {\n        Property property = map[propertyID];\n      \n        require(price != 0);\n      \n        if (property.rentPrice != 0 && property.renter != 0 && property.rentedUntil < now) {\n            map[propertyID].renter = 0;\n        }\n      \n        require(msg.sender == property.owner); //Must be the owner\n        require(property.renter == 0); //Must not currently be already rented out\n        //You can listForSale an already listed item to update the listing\n        map[propertyID].salePrice = price;\n        \n        return true;\n    }\n    //Use Case: Owner of a property lists for rent at a given price\n    function listForRent(uint24 propertyID, uint128 rentPrice, uint128 rentDuration) public validpropertyID(propertyID) returns(bool)  {\n        Property property = map[propertyID];\n      \n        if (property.rentPrice != 0 && property.renter != 0 && property.rentedUntil < now) {\n            map[propertyID].renter = 0;\n        }\n      \n        require(rentPrice != 0);\n        require(msg.sender == property.owner); //Must be the owner\n        require(property.renter == 0); //Must not currently be already rented out\n        require(rentDuration > 0); //Must be renting for a proper duration\n        //You can listForRent an already listed item to update the listing\n      \n        map[propertyID].rentPrice = rentPrice;\n        map[propertyID].rentAvailableUntil = now + rentDuration;\n        \n        return true;\n    }\n    //Use Case: Owner of a property delists from both renting offer and sale offer\n    function delist(uint24 propertyID, bool delistFromSale, bool delistFromRent) public validpropertyID(propertyID) returns(bool) {\n        Property property = map[propertyID];\n      \n        if (property.rentPrice != 0 && property.renter != 0 && property.rentedUntil < now) {\n            map[propertyID].renter = 0;\n        }\n        \n        require(msg.sender == property.owner); //Must be the owner\n        require(property.renter == 0); //Must have no current renter\n        \n        if (delistFromRent) {\n            map[propertyID].rentPrice = 0;\n            map[propertyID].renter = 0;\n        }\n        if (delistFromSale) {\n            map[propertyID].salePrice = 0;\n        }\n        return true;\n    }\n    \n    //////////////////////////////////////////////////////\n    ////Owner Sections: Meta-Functions For Owner only/////\n    //////////////////////////////////////////////////////\n    function withdraw(uint256 amount) public ownerOnly() {\n        if (amount <= ownerEth) {\n            owner.transfer(amount);\n        }\n    }\n    \n    function withdrawAll() public ownerOnly() {\n        owner.transfer(ownerEth);\n    }\n    \n    function changeOwners(address newOwner) public ownerOnly() {\n        owner = newOwner;\n    }\n}",
  "sourcePath": "/Users/arthur/Sites/personal/PixelRealEstate/contracts/VirtualRealEstate.sol",
  "compiler": {
    "name": "solc",
    "version": "0.4.19+commit.c4cbbb05.Emscripten.clang"
  },
  "schemaVersion": "1.0.1",
  "updatedAt": "2018-02-13T21:37:41.583Z"
}