{
  "contractName": "VirtualRealEstate",
  "abi": [
    {
      "constant": true,
      "inputs": [
        {
          "name": "propertyID",
          "type": "uint24"
        }
      ],
      "name": "getPropertyData",
      "outputs": [
        {
          "name": "",
          "type": "address"
        },
        {
          "name": "",
          "type": "uint256"
        },
        {
          "name": "",
          "type": "uint256"
        },
        {
          "name": "",
          "type": "uint256"
        },
        {
          "name": "",
          "type": "bool"
        }
      ],
      "payable": false,
      "stateMutability": "view",
      "type": "function"
    },
    {
      "constant": false,
      "inputs": [
        {
          "name": "_spender",
          "type": "address"
        },
        {
          "name": "_value",
          "type": "uint256"
        }
      ],
      "name": "approve",
      "outputs": [
        {
          "name": "success",
          "type": "bool"
        }
      ],
      "payable": false,
      "stateMutability": "nonpayable",
      "type": "function"
    },
    {
      "constant": false,
      "inputs": [
        {
          "name": "propertyID",
          "type": "uint24"
        },
        {
          "name": "row",
          "type": "uint8"
        },
        {
          "name": "newColorData",
          "type": "uint24"
        }
      ],
      "name": "setRowColors",
      "outputs": [
        {
          "name": "",
          "type": "bool"
        }
      ],
      "payable": false,
      "stateMutability": "nonpayable",
      "type": "function"
    },
    {
      "constant": false,
      "inputs": [
        {
          "name": "propertyID",
          "type": "uint24"
        },
        {
          "name": "price",
          "type": "uint128"
        }
      ],
      "name": "listForSale",
      "outputs": [
        {
          "name": "",
          "type": "bool"
        }
      ],
      "payable": false,
      "stateMutability": "nonpayable",
      "type": "function"
    },
    {
      "constant": true,
      "inputs": [
        {
          "name": "propertyID",
          "type": "uint24"
        }
      ],
      "name": "getPropertyColors",
      "outputs": [
        {
          "name": "",
          "type": "uint256[10]"
        }
      ],
      "payable": false,
      "stateMutability": "view",
      "type": "function"
    },
    {
      "constant": true,
      "inputs": [
        {
          "name": "user",
          "type": "address"
        }
      ],
      "name": "getHoverText",
      "outputs": [
        {
          "name": "",
          "type": "bytes32[2]"
        }
      ],
      "payable": false,
      "stateMutability": "view",
      "type": "function"
    },
    {
      "constant": true,
      "inputs": [],
      "name": "totalSupply",
      "outputs": [
        {
          "name": "",
          "type": "uint256"
        }
      ],
      "payable": false,
      "stateMutability": "view",
      "type": "function"
    },
    {
      "constant": false,
      "inputs": [
        {
          "name": "text",
          "type": "bytes32[2]"
        }
      ],
      "name": "setHoverText",
      "outputs": [],
      "payable": false,
      "stateMutability": "nonpayable",
      "type": "function"
    },
    {
      "constant": false,
      "inputs": [
        {
          "name": "_from",
          "type": "address"
        },
        {
          "name": "_to",
          "type": "address"
        },
        {
          "name": "_value",
          "type": "uint256"
        }
      ],
      "name": "transferFrom",
      "outputs": [
        {
          "name": "success",
          "type": "bool"
        }
      ],
      "payable": false,
      "stateMutability": "nonpayable",
      "type": "function"
    },
    {
      "constant": false,
      "inputs": [
        {
          "name": "link",
          "type": "bytes32[2]"
        }
      ],
      "name": "setLink",
      "outputs": [],
      "payable": false,
      "stateMutability": "nonpayable",
      "type": "function"
    },
    {
      "constant": false,
      "inputs": [
        {
          "name": "amount",
          "type": "uint256"
        }
      ],
      "name": "withdraw",
      "outputs": [],
      "payable": false,
      "stateMutability": "nonpayable",
      "type": "function"
    },
    {
      "constant": false,
      "inputs": [
        {
          "name": "user",
          "type": "address"
        },
        {
          "name": "level",
          "type": "uint32"
        }
      ],
      "name": "setModeratorLevel",
      "outputs": [],
      "payable": false,
      "stateMutability": "nonpayable",
      "type": "function"
    },
    {
      "constant": false,
      "inputs": [
        {
          "name": "propertyID",
          "type": "uint24"
        },
        {
          "name": "ppcValue",
          "type": "uint256"
        }
      ],
      "name": "buyPropertyInPPC",
      "outputs": [
        {
          "name": "",
          "type": "bool"
        }
      ],
      "payable": false,
      "stateMutability": "nonpayable",
      "type": "function"
    },
    {
      "constant": false,
      "inputs": [
        {
          "name": "propertyID",
          "type": "uint24"
        }
      ],
      "name": "delist",
      "outputs": [
        {
          "name": "",
          "type": "bool"
        }
      ],
      "payable": false,
      "stateMutability": "nonpayable",
      "type": "function"
    },
    {
      "constant": true,
      "inputs": [
        {
          "name": "propertyID",
          "type": "uint24"
        }
      ],
      "name": "getProjectedPayout",
      "outputs": [
        {
          "name": "",
          "type": "uint256"
        }
      ],
      "payable": false,
      "stateMutability": "view",
      "type": "function"
    },
    {
      "constant": false,
      "inputs": [
        {
          "name": "propertyID",
          "type": "uint24"
        },
        {
          "name": "ppcValue",
          "type": "uint256"
        }
      ],
      "name": "buyProperty",
      "outputs": [
        {
          "name": "",
          "type": "bool"
        }
      ],
      "payable": true,
      "stateMutability": "payable",
      "type": "function"
    },
    {
      "constant": true,
      "inputs": [
        {
          "name": "_owner",
          "type": "address"
        }
      ],
      "name": "balanceOf",
      "outputs": [
        {
          "name": "balance",
          "type": "uint256"
        }
      ],
      "payable": false,
      "stateMutability": "view",
      "type": "function"
    },
    {
      "constant": false,
      "inputs": [
        {
          "name": "propertyID",
          "type": "uint24"
        }
      ],
      "name": "tryForcePublic",
      "outputs": [],
      "payable": false,
      "stateMutability": "nonpayable",
      "type": "function"
    },
    {
      "constant": false,
      "inputs": [
        {
          "name": "propertyID",
          "type": "uint24"
        },
        {
          "name": "newColors",
          "type": "uint256[10]"
        },
        {
          "name": "pptToSpend",
          "type": "uint256"
        }
      ],
      "name": "setColors",
      "outputs": [
        {
          "name": "",
          "type": "bool"
        }
      ],
      "payable": false,
      "stateMutability": "nonpayable",
      "type": "function"
    },
    {
      "constant": false,
      "inputs": [
        {
          "name": "propertyID",
          "type": "uint24"
        },
        {
          "name": "newOwner",
          "type": "address"
        }
      ],
      "name": "transferProperty",
      "outputs": [
        {
          "name": "",
          "type": "bool"
        }
      ],
      "payable": false,
      "stateMutability": "nonpayable",
      "type": "function"
    },
    {
      "constant": false,
      "inputs": [
        {
          "name": "propertyID",
          "type": "uint24"
        },
        {
          "name": "flag",
          "type": "uint32"
        }
      ],
      "name": "setFlag",
      "outputs": [],
      "payable": false,
      "stateMutability": "nonpayable",
      "type": "function"
    },
    {
      "constant": false,
      "inputs": [],
      "name": "withdrawAll",
      "outputs": [],
      "payable": false,
      "stateMutability": "nonpayable",
      "type": "function"
    },
    {
      "constant": true,
      "inputs": [
        {
          "name": "user",
          "type": "address"
        }
      ],
      "name": "getLink",
      "outputs": [
        {
          "name": "",
          "type": "bytes32[2]"
        }
      ],
      "payable": false,
      "stateMutability": "view",
      "type": "function"
    },
    {
      "constant": false,
      "inputs": [
        {
          "name": "propertyID",
          "type": "uint24"
        },
        {
          "name": "isInPrivateMode",
          "type": "bool"
        },
        {
          "name": "numMinutesPrivate",
          "type": "uint32"
        }
      ],
      "name": "setPropertyMode",
      "outputs": [],
      "payable": false,
      "stateMutability": "nonpayable",
      "type": "function"
    },
    {
      "constant": false,
      "inputs": [
        {
          "name": "_to",
          "type": "address"
        },
        {
          "name": "_value",
          "type": "uint256"
        }
      ],
      "name": "transfer",
      "outputs": [
        {
          "name": "success",
          "type": "bool"
        }
      ],
      "payable": false,
      "stateMutability": "nonpayable",
      "type": "function"
    },
    {
      "constant": true,
      "inputs": [],
      "name": "getSystemSalePrices",
      "outputs": [
        {
          "name": "",
          "type": "uint256"
        },
        {
          "name": "",
          "type": "uint256"
        }
      ],
      "payable": false,
      "stateMutability": "view",
      "type": "function"
    },
    {
      "constant": false,
      "inputs": [
        {
          "name": "user",
          "type": "address"
        },
        {
          "name": "amount",
          "type": "uint256"
        }
      ],
      "name": "addCoin",
      "outputs": [],
      "payable": false,
      "stateMutability": "nonpayable",
      "type": "function"
    },
    {
      "constant": true,
      "inputs": [
        {
          "name": "propertyID",
          "type": "uint24"
        }
      ],
      "name": "getForSalePrices",
      "outputs": [
        {
          "name": "",
          "type": "uint256"
        },
        {
          "name": "",
          "type": "uint256"
        }
      ],
      "payable": false,
      "stateMutability": "view",
      "type": "function"
    },
    {
      "constant": false,
      "inputs": [
        {
          "name": "newOwner",
          "type": "address"
        }
      ],
      "name": "changeOwners",
      "outputs": [],
      "payable": false,
      "stateMutability": "nonpayable",
      "type": "function"
    },
    {
      "constant": true,
      "inputs": [
        {
          "name": "_owner",
          "type": "address"
        },
        {
          "name": "_spender",
          "type": "address"
        }
      ],
      "name": "allowance",
      "outputs": [
        {
          "name": "remaining",
          "type": "uint256"
        }
      ],
      "payable": false,
      "stateMutability": "view",
      "type": "function"
    },
    {
      "constant": false,
      "inputs": [
        {
          "name": "propertyID",
          "type": "uint24"
        }
      ],
      "name": "buyPropertyInETH",
      "outputs": [
        {
          "name": "",
          "type": "bool"
        }
      ],
      "payable": true,
      "stateMutability": "payable",
      "type": "function"
    },
    {
      "inputs": [],
      "payable": false,
      "stateMutability": "nonpayable",
      "type": "constructor"
    },
    {
      "anonymous": false,
      "inputs": [
        {
          "indexed": true,
          "name": "property",
          "type": "uint24"
        },
        {
          "indexed": false,
          "name": "colors",
          "type": "uint256[10]"
        },
        {
          "indexed": false,
          "name": "lastUpdate",
          "type": "uint256"
        },
        {
          "indexed": false,
          "name": "lastUpdaterPayee",
          "type": "address"
        }
      ],
      "name": "PropertyColorUpdate",
      "type": "event"
    },
    {
      "anonymous": false,
      "inputs": [
        {
          "indexed": true,
          "name": "property",
          "type": "uint24"
        },
        {
          "indexed": false,
          "name": "row",
          "type": "uint8"
        },
        {
          "indexed": false,
          "name": "rgb",
          "type": "uint24"
        }
      ],
      "name": "PropertyColorUpdatePixel",
      "type": "event"
    },
    {
      "anonymous": false,
      "inputs": [
        {
          "indexed": true,
          "name": "property",
          "type": "uint24"
        },
        {
          "indexed": false,
          "name": "newOwner",
          "type": "address"
        },
        {
          "indexed": false,
          "name": "ethAmount",
          "type": "uint256"
        },
        {
          "indexed": false,
          "name": "ppcAmount",
          "type": "uint256"
        },
        {
          "indexed": false,
          "name": "timestamp",
          "type": "uint256"
        }
      ],
      "name": "PropertyBought",
      "type": "event"
    },
    {
      "anonymous": false,
      "inputs": [
        {
          "indexed": true,
          "name": "user",
          "type": "address"
        },
        {
          "indexed": false,
          "name": "newHoverText",
          "type": "bytes32[2]"
        }
      ],
      "name": "SetUserHoverText",
      "type": "event"
    },
    {
      "anonymous": false,
      "inputs": [
        {
          "indexed": true,
          "name": "user",
          "type": "address"
        },
        {
          "indexed": false,
          "name": "newLink",
          "type": "bytes32[2]"
        }
      ],
      "name": "SetUserSetLink",
      "type": "event"
    },
    {
      "anonymous": false,
      "inputs": [
        {
          "indexed": true,
          "name": "property",
          "type": "uint24"
        },
        {
          "indexed": false,
          "name": "forSalePrice",
          "type": "uint256"
        }
      ],
      "name": "PropertySetForSale",
      "type": "event"
    },
    {
      "anonymous": false,
      "inputs": [
        {
          "indexed": true,
          "name": "property",
          "type": "uint24"
        }
      ],
      "name": "DelistProperty",
      "type": "event"
    },
    {
      "anonymous": false,
      "inputs": [
        {
          "indexed": true,
          "name": "property",
          "type": "uint24"
        }
      ],
      "name": "SetPropertyPublic",
      "type": "event"
    },
    {
      "anonymous": false,
      "inputs": [
        {
          "indexed": true,
          "name": "property",
          "type": "uint24"
        },
        {
          "indexed": false,
          "name": "numMinutesPrivate",
          "type": "uint32"
        }
      ],
      "name": "SetPropertyPrivate",
      "type": "event"
    },
    {
      "anonymous": false,
      "inputs": [
        {
          "indexed": true,
          "name": "_from",
          "type": "address"
        },
        {
          "indexed": true,
          "name": "_to",
          "type": "address"
        },
        {
          "indexed": false,
          "name": "_value",
          "type": "uint256"
        }
      ],
      "name": "Transfer",
      "type": "event"
    },
    {
      "anonymous": false,
      "inputs": [
        {
          "indexed": true,
          "name": "_owner",
          "type": "address"
        },
        {
          "indexed": true,
          "name": "_spender",
          "type": "address"
        },
        {
          "indexed": false,
          "name": "_value",
          "type": "uint256"
        }
      ],
      "name": "Approval",
      "type": "event"
    }
  ],
  "bytecode": "0x606060405260006004556103e8600a556014600b55600a600d556014600e556062600f556001601055341561003357600080fd5b33600360006101000a81548173ffffffffffffffffffffffffffffffffffffffff021916908373ffffffffffffffffffffffffffffffffffffffff16021790555060008081905550426011819055506064600c819055506127106009819055506003600860003373ffffffffffffffffffffffffffffffffffffffff1673ffffffffffffffffffffffffffffffffffffffff16815260200190815260200160002060006101000a81548163ffffffff021916908363ffffffff16021790555061349b806101016000396000f30060606040526004361061018b576000357c0100000000000000000000000000000000000000000000000000000000900463ffffffff168063075773fd14610190578063095ea7b3146102185780630a88e7701461027257806316035c7c146102cc578063164e0aba146103275780631775459d1461038b57806318160ddd146104005780631d04458d1461042957806323b872dd1461046f578063284b8a64146104e85780632e1a7d4d1461052e5780633ac8e29614610551578063410b6d7a146105995780635a033830146105e25780635b61ce14146106225780636145a4f01461065e57806370a082311461069c578063735834c1146106e957806374e593aa1461071157806382e573961461078757806383075db7146107e6578063853828b61461081d5780639d6abe4f14610832578063a690478b146108a7578063a9059cbb146108e9578063ab4c448714610943578063b401487914610973578063c3c9c241146109b5578063d7963f94146109f8578063dd62ed3e14610a31578063ef952a9914610a9d575b600080fd5b341561019b57600080fd5b6101b6600480803562ffffff16906020019091905050610ad2565b604051808673ffffffffffffffffffffffffffffffffffffffff1673ffffffffffffffffffffffffffffffffffffffff168152602001858152602001848152602001838152602001821515151581526020019550505050505060405180910390f35b341561022357600080fd5b610258600480803573ffffffffffffffffffffffffffffffffffffffff16906020019091908035906020019091905050610bfb565b604051808215151515815260200191505060405180910390f35b341561027d57600080fd5b6102b2600480803562ffffff1690602001909190803560ff1690602001909190803562ffffff16906020019091905050610ced565b604051808215151515815260200191505060405180910390f35b34156102d757600080fd5b61030d600480803562ffffff169060200190919080356fffffffffffffffffffffffffffffffff16906020019091905050610f71565b604051808215151515815260200191505060405180910390f35b341561033257600080fd5b61034d600480803562ffffff1690602001909190505061108c565b6040518082600a60200280838360005b8381101561037857808201518184015260208101905061035d565b5050505090500191505060405180910390f35b341561039657600080fd5b6103c2600480803573ffffffffffffffffffffffffffffffffffffffff16906020019091905050611109565b6040518082600260200280838360005b838110156103ed5780820151818401526020810190506103d2565b5050505090500191505060405180910390f35b341561040b57600080fd5b610413611197565b6040518082815260200191505060405180910390f35b341561043457600080fd5b61046d6004808060400190600280602002604051908101604052809291908260026020028082843782019150505050509190505061119d565b005b341561047a57600080fd5b6104ce600480803573ffffffffffffffffffffffffffffffffffffffff1690602001909190803573ffffffffffffffffffffffffffffffffffffffff16906020019091908035906020019091905050611265565b604051808215151515815260200191505060405180910390f35b34156104f357600080fd5b61052c600480806040019060028060200260405190810160405280929190826002602002808284378201915050505050919050506114e1565b005b341561053957600080fd5b61054f60048080359060200190919050506115a9565b005b341561055c57600080fd5b610597600480803573ffffffffffffffffffffffffffffffffffffffff1690602001909190803563ffffffff16906020019091905050611676565b005b34156105a457600080fd5b6105c8600480803562ffffff16906020019091908035906020019091905050611777565b604051808215151515815260200191505060405180910390f35b34156105ed57600080fd5b610608600480803562ffffff16906020019091905050611b8d565b604051808215151515815260200191505060405180910390f35b341561062d57600080fd5b610648600480803562ffffff16906020019091905050611c65565b6040518082815260200191505060405180910390f35b610682600480803562ffffff16906020019091908035906020019091905050611cdf565b604051808215151515815260200191505060405180910390f35b34156106a757600080fd5b6106d3600480803573ffffffffffffffffffffffffffffffffffffffff169060200190919050506120ad565b6040518082815260200191505060405180910390f35b34156106f457600080fd5b61070f600480803562ffffff169060200190919050506120f6565b005b341561071c57600080fd5b61076d600480803562ffffff1690602001909190806101400190600a806020026040519081016040528092919082600a60200280828437820191505050505091908035906020019091905050612171565b604051808215151515815260200191505060405180910390f35b341561079257600080fd5b6107cc600480803562ffffff1690602001909190803573ffffffffffffffffffffffffffffffffffffffff1690602001909190505061262b565b604051808215151515815260200191505060405180910390f35b34156107f157600080fd5b61081b600480803562ffffff1690602001909190803563ffffffff169060200190919050506127b3565b005b341561082857600080fd5b61083061294c565b005b341561083d57600080fd5b610869600480803573ffffffffffffffffffffffffffffffffffffffff16906020019091905050612a0e565b6040518082600260200280838360005b83811015610894578082015181840152602081019050610879565b5050505090500191505060405180910390f35b34156108b257600080fd5b6108e7600480803562ffffff16906020019091908035151590602001909190803563ffffffff16906020019091905050612a9c565b005b34156108f457600080fd5b610929600480803573ffffffffffffffffffffffffffffffffffffffff16906020019091908035906020019091905050612cd1565b604051808215151515815260200191505060405180910390f35b341561094e57600080fd5b610956612e3a565b604051808381526020018281526020019250505060405180910390f35b341561097e57600080fd5b6109b3600480803573ffffffffffffffffffffffffffffffffffffffff16906020019091908035906020019091905050612e4b565b005b34156109c057600080fd5b6109db600480803562ffffff16906020019091905050612f54565b604051808381526020018281526020019250505060405180910390f35b3415610a0357600080fd5b610a2f600480803573ffffffffffffffffffffffffffffffffffffffff16906020019091905050612ff1565b005b3415610a3c57600080fd5b610a87600480803573ffffffffffffffffffffffffffffffffffffffff1690602001909190803573ffffffffffffffffffffffffffffffffffffffff16906020019091905050613091565b6040518082815260200191505060405180910390f35b610ab8600480803562ffffff16906020019091905050613118565b604051808215151515815260200191505060405180910390f35b600080600080600080866127108162ffffff161015610bf057600560008962ffffff1662ffffff168152602001908152602001600020915060008260000160009054906101000a900473ffffffffffffffffffffffffffffffffffffffff1673ffffffffffffffffffffffffffffffffffffffff161415610b9e578160000160009054906101000a900473ffffffffffffffffffffffffffffffffffffffff16600954600c5484600d015485600c0160149054906101000a900460ff1696509650965096509650610bef565b8160000160009054906101000a900473ffffffffffffffffffffffffffffffffffffffff16600083600b015484600d015485600c0160149054906101000a900460ff16839350965096509650965096505b5b505091939590929450565b600081600260003373ffffffffffffffffffffffffffffffffffffffff1673ffffffffffffffffffffffffffffffffffffffff16815260200190815260200160002060008573ffffffffffffffffffffffffffffffffffffffff1673ffffffffffffffffffffffffffffffffffffffff168152602001908152602001600020819055508273ffffffffffffffffffffffffffffffffffffffff163373ffffffffffffffffffffffffffffffffffffffff167f8c5be1e5ebec7d5bd14f71427d1e84f3dd0314c0f7b2291e5b200ac8c7c3b925846040518082815260200191505060405180910390a36001905092915050565b6000806000856127108162ffffff161015610f6757600560008862ffffff1662ffffff168152602001908152602001600020925060008660ff1610158015610d39575060098660ff1611155b1515610d4457600080fd5b60008360000160009054906101000a900473ffffffffffffffffffffffffffffffffffffffff1673ffffffffffffffffffffffffffffffffffffffff161415610d8e576002610d91565b60015b60ff16915082600c0160149054906101000a900460ff1615610e10578260000160009054906101000a900473ffffffffffffffffffffffffffffffffffffffff1673ffffffffffffffffffffffffffffffffffffffff163373ffffffffffffffffffffffffffffffffffffffff16141515610e0b57600080fd5b600091505b81600160003373ffffffffffffffffffffffffffffffffffffffff1673ffffffffffffffffffffffffffffffffffffffff1681526020019081526020016000205410151515610e5e57600080fd5b81600160003373ffffffffffffffffffffffffffffffffffffffff1673ffffffffffffffffffffffffffffffffffffffff168152602001908152602001600020600082825403925050819055508462ffffff16836001018760ff16600a81101515610ec557fe5b01819055503383600c0160006101000a81548173ffffffffffffffffffffffffffffffffffffffff021916908373ffffffffffffffffffffffffffffffffffffffff1602179055508662ffffff167f1552c53109a4b1a1c4938ae91d342a910cb3f903cd2262bcaea67365553a8e478787604051808360ff1660ff1681526020018262ffffff1662ffffff1681526020019250505060405180910390a2600193505b5050509392505050565b600080836127108162ffffff16101561108457600560008662ffffff1662ffffff16815260200190815260200160002091506000846fffffffffffffffffffffffffffffffff1614151515610fc557600080fd5b8160000160009054906101000a900473ffffffffffffffffffffffffffffffffffffffff1673ffffffffffffffffffffffffffffffffffffffff163373ffffffffffffffffffffffffffffffffffffffff1614151561102357600080fd5b836fffffffffffffffffffffffffffffffff1682600b01819055508462ffffff167f06ebe22c29c68b4166927bf53da5a19075c3eb97bba0f0113c22c97576b6ba2683600b01546040518082815260200191505060405180910390a2600192505b505092915050565b611094613307565b816127108162ffffff16101561110357600560008462ffffff1662ffffff168152602001908152602001600020600101600a806020026040519081016040528092919082600a80156110fb576020028201915b8154815260200190600101908083116110e7575b505050505091505b50919050565b611111613330565b600760008373ffffffffffffffffffffffffffffffffffffffff1673ffffffffffffffffffffffffffffffffffffffff16815260200190815260200160002060028060200260405190810160405280929190826002801561118b576020028201915b81546000191681526020019060010190808311611173575b50505050509050919050565b60005481565b80600760003373ffffffffffffffffffffffffffffffffffffffff1673ffffffffffffffffffffffffffffffffffffffff1681526020019081526020016000209060026111eb92919061335a565b503373ffffffffffffffffffffffffffffffffffffffff167ff6fae1282aa1dee75d2bf0c4aa362eb3949ebf974dfddcd6351e3dd61e389f29826040518082600260200280838360005b83811015611250578082015181840152602081019050611235565b5050505090500191505060405180910390a250565b600081600160008673ffffffffffffffffffffffffffffffffffffffff1673ffffffffffffffffffffffffffffffffffffffff1681526020019081526020016000205410158015611332575081600260008673ffffffffffffffffffffffffffffffffffffffff1673ffffffffffffffffffffffffffffffffffffffff16815260200190815260200160002060003373ffffffffffffffffffffffffffffffffffffffff1673ffffffffffffffffffffffffffffffffffffffff1681526020019081526020016000205410155b801561133e5750600082115b156114d55781600160008573ffffffffffffffffffffffffffffffffffffffff1673ffffffffffffffffffffffffffffffffffffffff1681526020019081526020016000206000828254019250508190555081600160008673ffffffffffffffffffffffffffffffffffffffff1673ffffffffffffffffffffffffffffffffffffffff1681526020019081526020016000206000828254039250508190555081600260008673ffffffffffffffffffffffffffffffffffffffff1673ffffffffffffffffffffffffffffffffffffffff16815260200190815260200160002060003373ffffffffffffffffffffffffffffffffffffffff1673ffffffffffffffffffffffffffffffffffffffff168152602001908152602001600020600082825403925050819055508273ffffffffffffffffffffffffffffffffffffffff168473ffffffffffffffffffffffffffffffffffffffff167fddf252ad1be2c89b69c2b068fc378daa952ba7f163c4a11628f55a4df523b3ef846040518082815260200191505060405180910390a3600190506114da565b600090505b9392505050565b80600660003373ffffffffffffffffffffffffffffffffffffffff1673ffffffffffffffffffffffffffffffffffffffff16815260200190815260200160002090600261152f92919061335a565b503373ffffffffffffffffffffffffffffffffffffffff167f010724f92c296bc87af12d2281baa10d1317850008bd8ee16a0c27313e9cd7b2826040518082600260200280838360005b83811015611594578082015181840152602081019050611579565b5050505090500191505060405180910390a250565b3373ffffffffffffffffffffffffffffffffffffffff16600360009054906101000a900473ffffffffffffffffffffffffffffffffffffffff1673ffffffffffffffffffffffffffffffffffffffff1614151561160557600080fd5b6004548111151561167357600360009054906101000a900473ffffffffffffffffffffffffffffffffffffffff1673ffffffffffffffffffffffffffffffffffffffff166108fc829081150290604051600060405180830381858888f19350505050151561167257600080fd5b5b50565b6003600860003373ffffffffffffffffffffffffffffffffffffffff1673ffffffffffffffffffffffffffffffffffffffff16815260200190815260200160002060009054906101000a900463ffffffff1663ffffffff161415156116da57600080fd5b60048163ffffffff161015156116ef57600080fd5b60008273ffffffffffffffffffffffffffffffffffffffff161415151561171557600080fd5b80600860008473ffffffffffffffffffffffffffffffffffffffff1673ffffffffffffffffffffffffffffffffffffffff16815260200190815260200160002060006101000a81548163ffffffff021916908363ffffffff1602179055505050565b600080600080856127108162ffffff161015611b8357600560008862ffffff1662ffffff168152602001908152602001600020935060008460000160009054906101000a900473ffffffffffffffffffffffffffffffffffffffff1673ffffffffffffffffffffffffffffffffffffffff16141561189757600c5484600b0181905550600360009054906101000a900473ffffffffffffffffffffffffffffffffffffffff168460000160006101000a81548173ffffffffffffffffffffffffffffffffffffffff021916908373ffffffffffffffffffffffffffffffffffffffff1602179055506064600e54600c540281151561187157fe5b049250600d54831061188557600d54611887565b825b600c600082825401925050819055505b8584600b0154111515156118aa57600080fd5b83600b0154600160003373ffffffffffffffffffffffffffffffffffffffff1673ffffffffffffffffffffffffffffffffffffffff16815260200190815260200160002054101515156118fc57600080fd5b600091506064600f5485600b01540281151561191457fe5b04915081600160003373ffffffffffffffffffffffffffffffffffffffff1673ffffffffffffffffffffffffffffffffffffffff1681526020019081526020016000206000828254039250508190555081600160008660000160009054906101000a900473ffffffffffffffffffffffffffffffffffffffff1673ffffffffffffffffffffffffffffffffffffffff1673ffffffffffffffffffffffffffffffffffffffff1681526020019081526020016000206000828254019250508190555081860360016000600360009054906101000a900473ffffffffffffffffffffffffffffffffffffffff1673ffffffffffffffffffffffffffffffffffffffff1673ffffffffffffffffffffffffffffffffffffffff168152602001908152602001600020600082825401925050819055508662ffffff167f0abb7627f5a43ce55d691cf577de9c09e8fee6f2dd1f45678a55ce86fadfd6f28560000160009054906101000a900473ffffffffffffffffffffffffffffffffffffffff16600087600b015442604051808573ffffffffffffffffffffffffffffffffffffffff1673ffffffffffffffffffffffffffffffffffffffff16815260200184815260200183815260200182815260200194505050505060405180910390a2600084600b0181905550338460000160006101000a81548173ffffffffffffffffffffffffffffffffffffffff021916908373ffffffffffffffffffffffffffffffffffffffff160217905550600084600c0160146101000a81548160ff02191690831515021790555060008460100160006101000a81548163ffffffff021916908363ffffffff160217905550600194505b5050505092915050565b600080826127108162ffffff161015611c5e57600560008562ffffff1662ffffff16815260200190815260200160002091508160000160009054906101000a900473ffffffffffffffffffffffffffffffffffffffff1673ffffffffffffffffffffffffffffffffffffffff163373ffffffffffffffffffffffffffffffffffffffff16141515611c1d57600080fd5b600082600b01819055508362ffffff167fca2e47a4a4a73b5954da66cff11902dbc0e8a6d4ee892921cc381af6aabc415260405160405180910390a2600192505b5050919050565b6000806000600560008562ffffff1662ffffff168152602001908152602001600020915081600c0160149054906101000a900460ff16158015611cad5750600082600d015414155b15611cd357603c82600d01544203811515611cc457fe5b04905060105481029250611cd8565b600092505b5050919050565b6000806000806000866127108162ffffff1610156120a257600560008962ffffff1662ffffff168152602001908152602001600020945060008560000160009054906101000a900473ffffffffffffffffffffffffffffffffffffffff1673ffffffffffffffffffffffffffffffffffffffff16141515611d5f57600080fd5b600c548711151515611d7057600080fd5b86600160003373ffffffffffffffffffffffffffffffffffffffff1673ffffffffffffffffffffffffffffffffffffffff1681526020019081526020016000205410151515611dbe57600080fd5b60008714151515611dce57600080fd5b86600c5403935083600c54600954811515611de557fe5b04029250823410151515611df857600080fd5b8660016000600360009054906101000a900473ffffffffffffffffffffffffffffffffffffffff1673ffffffffffffffffffffffffffffffffffffffff1673ffffffffffffffffffffffffffffffffffffffff1681526020019081526020016000206000828254019250508190555086600160003373ffffffffffffffffffffffffffffffffffffffff1673ffffffffffffffffffffffffffffffffffffffff168152602001908152602001600020600082825403925050819055506064600e54600c5402811515611ec657fe5b049150600c5487600d548410611ede57600d54611ee0565b835b02811515611eea57fe5b04600c60008282540192505081905550346004600082825401925050819055506064600b5460095402811515611f1c57fe5b0491508684600a548410611f3257600a54611f34565b835b02811515611f3e57fe5b04600960008282540192505081905550338560000160006101000a81548173ffffffffffffffffffffffffffffffffffffffff021916908373ffffffffffffffffffffffffffffffffffffffff1602179055508762ffffff167f0abb7627f5a43ce55d691cf577de9c09e8fee6f2dd1f45678a55ce86fadfd6f28660000160009054906101000a900473ffffffffffffffffffffffffffffffffffffffff16348a42604051808573ffffffffffffffffffffffffffffffffffffffff1673ffffffffffffffffffffffffffffffffffffffff16815260200184815260200183815260200182815260200194505050505060405180910390a2338560000160006101000a81548173ffffffffffffffffffffffffffffffffffffffff021916908373ffffffffffffffffffffffffffffffffffffffff16021790555060008560100160006101000a81548163ffffffff021916908363ffffffff160217905550600195505b505050505092915050565b6000600160008373ffffffffffffffffffffffffffffffffffffffff1673ffffffffffffffffffffffffffffffffffffffff168152602001908152602001600020549050919050565b6000816127108162ffffff16101561216c57600560008462ffffff1662ffffff168152602001908152602001600020915081600c0160149054906101000a900460ff16801561214857504282600e0154105b1561216b57600082600c0160146101000a81548160ff0219169083151502179055505b5b505050565b6000806000806000806000896127108162ffffff16101561261d57600560008c62ffffff1662ffffff16815260200190815260200160002096506121b48b6120f6565b88955060115442111580156121c95750600286105b156121d357600295505b6000945086600c0160149054906101000a900460ff161561227f578660000160009054906101000a900473ffffffffffffffffffffffffffffffffffffffff1673ffffffffffffffffffffffffffffffffffffffff163373ffffffffffffffffffffffffffffffffffffffff1614151561224c57600080fd5b60028760100160009054906101000a900463ffffffff1663ffffffff161415151561227657600080fd5b600194506124ec565b4287600e015410156124eb5788600160003373ffffffffffffffffffffffffffffffffffffffff1673ffffffffffffffffffffffffffffffffffffffff16815260200190815260200160002054101515156122d957600080fd5b603c600187016001880102029350603c6002878115156122f557fe5b0402925088600160003373ffffffffffffffffffffffffffffffffffffffff1673ffffffffffffffffffffffffffffffffffffffff1681526020019081526020016000206000828254039250508190555088600080828254039250508190555061235e8b611c65565b915060008211156124d057600087600c0160009054906101000a900473ffffffffffffffffffffffffffffffffffffffff1673ffffffffffffffffffffffffffffffffffffffff1614151561240a5781600160003373ffffffffffffffffffffffffffffffffffffffff1673ffffffffffffffffffffffffffffffffffffffff168152602001908152602001600020600082825401925050819055508160008082825401925050819055505b60008760000160009054906101000a900473ffffffffffffffffffffffffffffffffffffffff1673ffffffffffffffffffffffffffffffffffffffff161415156124cf5781600160008960000160009054906101000a900473ffffffffffffffffffffffffffffffffffffffff1673ffffffffffffffffffffffffffffffffffffffff1673ffffffffffffffffffffffffffffffffffffffff168152602001908152602001600020600082825401925050819055508160008082825401925050819055505b5b6001945082420187600e018190555083420187600f01819055505b5b8415612618578a62ffffff167fce9b20e38ccb718fd7b9a5fb1eacd0060f320d3e74a7e2ce393a26eb9a0f26368b428a600c0160009054906101000a900473ffffffffffffffffffffffffffffffffffffffff166040518084600a60200280838360005b8381101561256b578082015181840152602081019050612550565b505050509050018381526020018273ffffffffffffffffffffffffffffffffffffffff1673ffffffffffffffffffffffffffffffffffffffff168152602001935050505060405180910390a2898760010190600a6125ca9291906133a0565b503387600c0160006101000a81548173ffffffffffffffffffffffffffffffffffffffff021916908373ffffffffffffffffffffffffffffffffffffffff1602179055504287600d01819055505b600197505b505050505050509392505050565b600080836127108162ffffff1610156127ab57600560008662ffffff1662ffffff16815260200190815260200160002091503373ffffffffffffffffffffffffffffffffffffffff168260000160009054906101000a900473ffffffffffffffffffffffffffffffffffffffff1673ffffffffffffffffffffffffffffffffffffffff161415156126bb57600080fd5b60008473ffffffffffffffffffffffffffffffffffffffff16141515156126e157600080fd5b838260000160006101000a81548173ffffffffffffffffffffffffffffffffffffffff021916908373ffffffffffffffffffffffffffffffffffffffff1602179055508462ffffff167f0abb7627f5a43ce55d691cf577de9c09e8fee6f2dd1f45678a55ce86fadfd6f28560008042604051808573ffffffffffffffffffffffffffffffffffffffff1673ffffffffffffffffffffffffffffffffffffffff16815260200184815260200183815260200182815260200194505050505060405180910390a2600192505b505092915050565b600080836127108162ffffff16101561294557600560008662ffffff1662ffffff168152602001908152602001600020925060038463ffffffff161015156127fa57600080fd5b600860003373ffffffffffffffffffffffffffffffffffffffff1673ffffffffffffffffffffffffffffffffffffffff16815260200190815260200160002060009054906101000a900463ffffffff1663ffffffff1691506001821015151561286257600080fd5b60028463ffffffff161415612921576002821015151561288157600080fd5b82600c0160149054906101000a900460ff16151561289e57600080fd5b61014060405190810160405280600060ff168152602001600060ff168152602001600060ff168152602001600060ff168152602001600060ff168152602001600060ff168152602001600060ff168152602001600060ff168152602001600060ff168152602001600060ff168152508360010190600a61291f9291906133e0565b505b838360100160006101000a81548163ffffffff021916908363ffffffff1602179055505b5050505050565b3373ffffffffffffffffffffffffffffffffffffffff16600360009054906101000a900473ffffffffffffffffffffffffffffffffffffffff1673ffffffffffffffffffffffffffffffffffffffff161415156129a857600080fd5b600360009054906101000a900473ffffffffffffffffffffffffffffffffffffffff1673ffffffffffffffffffffffffffffffffffffffff166108fc6004549081150290604051600060405180830381858888f193505050501515612a0c57600080fd5b565b612a16613330565b600660008373ffffffffffffffffffffffffffffffffffffffff1673ffffffffffffffffffffffffffffffffffffffff168152602001908152602001600020600280602002604051908101604052809291908260028015612a90576020028201915b81546000191681526020019060010190808311612a78575b50505050509050919050565b6000836127108162ffffff161015612cca57600560008662ffffff1662ffffff16815260200190815260200160002091508160000160009054906101000a900473ffffffffffffffffffffffffffffffffffffffff1673ffffffffffffffffffffffffffffffffffffffff163373ffffffffffffffffffffffffffffffffffffffff16141515612b2b57600080fd5b8315612c1b5760008363ffffffff16111515612b4657600080fd5b8263ffffffff16600160003373ffffffffffffffffffffffffffffffffffffffff1673ffffffffffffffffffffffffffffffffffffffff1681526020019081526020016000205410151515612b9a57600080fd5b8263ffffffff16600160003373ffffffffffffffffffffffffffffffffffffffff1673ffffffffffffffffffffffffffffffffffffffff168152602001908152602001600020600082825403925050819055508263ffffffff16600080828254039250508190555082603c0263ffffffff16420182600e0181905550612c26565b600082600e01819055505b8382600c0160146101000a81548160ff0219169083151502179055508315612c96578462ffffff167f52e8f4b5a1626f05acec334b28b3a6e1229af95f0fdf6929ead61c976399121384604051808263ffffffff1663ffffffff16815260200191505060405180910390a2612cc9565b8462ffffff167f7b2ca9b1b8f3e9de64d205763935a164d5090f5e6346199c24b0612e0930a12a60405160405180910390a25b5b5050505050565b600081600160003373ffffffffffffffffffffffffffffffffffffffff1673ffffffffffffffffffffffffffffffffffffffff1681526020019081526020016000205410158015612d225750600082115b15612e2f5781600160003373ffffffffffffffffffffffffffffffffffffffff1673ffffffffffffffffffffffffffffffffffffffff1681526020019081526020016000206000828254039250508190555081600160008573ffffffffffffffffffffffffffffffffffffffff1673ffffffffffffffffffffffffffffffffffffffff168152602001908152602001600020600082825401925050819055508273ffffffffffffffffffffffffffffffffffffffff163373ffffffffffffffffffffffffffffffffffffffff167fddf252ad1be2c89b69c2b068fc378daa952ba7f163c4a11628f55a4df523b3ef846040518082815260200191505060405180910390a360019050612e34565b600090505b92915050565b600080600954600c54915091509091565b3373ffffffffffffffffffffffffffffffffffffffff16600360009054906101000a900473ffffffffffffffffffffffffffffffffffffffff1673ffffffffffffffffffffffffffffffffffffffff16141515612ea757600080fd5b600360009054906101000a900473ffffffffffffffffffffffffffffffffffffffff1673ffffffffffffffffffffffffffffffffffffffff163373ffffffffffffffffffffffffffffffffffffffff16141515612f0357600080fd5b80600160008473ffffffffffffffffffffffffffffffffffffffff1673ffffffffffffffffffffffffffffffffffffffff168152602001908152602001600020600082825401925050819055505050565b6000806000836127108162ffffff161015612fea57600560008662ffffff1662ffffff168152602001908152602001600020915060008260000160009054906101000a900473ffffffffffffffffffffffffffffffffffffffff1673ffffffffffffffffffffffffffffffffffffffff161415612fda57600954600c5493509350612fe9565b600082600b0154819150935093505b5b5050915091565b3373ffffffffffffffffffffffffffffffffffffffff16600360009054906101000a900473ffffffffffffffffffffffffffffffffffffffff1673ffffffffffffffffffffffffffffffffffffffff1614151561304d57600080fd5b80600360006101000a81548173ffffffffffffffffffffffffffffffffffffffff021916908373ffffffffffffffffffffffffffffffffffffffff16021790555050565b6000600260008473ffffffffffffffffffffffffffffffffffffffff1673ffffffffffffffffffffffffffffffffffffffff16815260200190815260200160002060008373ffffffffffffffffffffffffffffffffffffffff1673ffffffffffffffffffffffffffffffffffffffff16815260200190815260200160002054905092915050565b6000806000836127108162ffffff1610156132ff57600560008662ffffff1662ffffff168152602001908152602001600020925060008360000160009054906101000a900473ffffffffffffffffffffffffffffffffffffffff1673ffffffffffffffffffffffffffffffffffffffff1614151561319557600080fd5b60095434101515156131a657600080fd5b346004600082825401925050819055506064600b54600954028115156131c857fe5b049150600a5482106131dc57600a546131de565b815b600960008282540192505081905550338360000160006101000a81548173ffffffffffffffffffffffffffffffffffffffff021916908373ffffffffffffffffffffffffffffffffffffffff1602179055508462ffffff167f0abb7627f5a43ce55d691cf577de9c09e8fee6f2dd1f45678a55ce86fadfd6f28460000160009054906101000a900473ffffffffffffffffffffffffffffffffffffffff1634600042604051808573ffffffffffffffffffffffffffffffffffffffff1673ffffffffffffffffffffffffffffffffffffffff16815260200184815260200183815260200182815260200194505050505060405180910390a260008360100160006101000a81548163ffffffff021916908363ffffffff160217905550600193505b505050919050565b61014060405190810160405280600a905b60008152602001906001900390816133185790505090565b60408051908101604052806002905b600080191681526020019060019003908161333f5790505090565b826002810192821561338f579160200282015b8281111561338e57825182906000191690559160200191906001019061336d565b5b50905061339c9190613425565b5090565b82600a81019282156133cf579160200282015b828111156133ce5782518255916020019190600101906133b3565b5b5090506133dc919061344a565b5090565b82600a8101928215613414579160200282015b82811115613413578251829060ff169055916020019190600101906133f3565b5b509050613421919061344a565b5090565b61344791905b8082111561344357600081600090555060010161342b565b5090565b90565b61346c91905b80821115613468576000816000905550600101613450565b5090565b905600a165627a7a7230582080c40d276074c0a438f2c8ed70edbd15efd0b25cdc3c11767ee25ebd6a7ddaf80029",
  "source": "pragma solidity ^0.4.2;\n\n/*\nToDo:\n- ##Users pay however much they want, no requirement on cost\n- ##Users can earn earnings on a property for up to (N+1)^2 minutes\n- ##Users get private use of a property for N/2 minutes\n- ##Owners in private mode costs 1 coins a minute\n- ##Timer is now 2 coins a second not 2 coins a hour\n- ##No free mode during the first 3 days, but \"increased earnings\" paying zero or 1 coin is treated like 2 coins\n    - ##So for the first 3 days, setting it for free gets it set to private for 1 minute and earns you 1->9 coins [Validate with Jaegar first]\n- ##Property prices start at 0.005 ETH and 100 PPT\n- Make sure total circulating supply actually is calculated right. Unit test that plz\n- Make getHoverText and getLink use a different data type\n*/\n\ncontract Token {\n    uint256 public totalSupply;\n    function balanceOf(address _owner) public constant returns (uint256 balance);\n    function transfer(address _to, uint256 _value) public returns (bool success);\n    function transferFrom(address _from, address _to, uint256 _value) public returns (bool success);\n    function approve(address _spender, uint256 _value) public returns (bool success);\n    function allowance(address _owner, address _spender) public constant returns (uint256 remaining);\n    event Transfer(address indexed _from, address indexed _to, uint256 _value);\n    event Approval(address indexed _owner, address indexed _spender, uint256 _value);\n}\n/*  ERC 20 token */\ncontract StandardToken is Token {\n\n    function transfer(address _to, uint256 _value) public returns (bool success) {\n      if (balances[msg.sender] >= _value && _value > 0) {\n        balances[msg.sender] -= _value;\n        balances[_to] += _value;\n        Transfer(msg.sender, _to, _value);\n        return true;\n      } else {\n        return false;\n      }\n    }\n\n    function transferFrom(address _from, address _to, uint256 _value) public returns (bool success) {\n      if (balances[_from] >= _value && allowed[_from][msg.sender] >= _value && _value > 0) {\n        balances[_to] += _value;\n        balances[_from] -= _value;\n        allowed[_from][msg.sender] -= _value;\n        Transfer(_from, _to, _value);\n        return true;\n      } else {\n        return false;\n      }\n    }\n\n    function balanceOf(address _owner) public constant returns (uint256 balance) {\n        return balances[_owner];\n    }\n\n    function approve(address _spender, uint256 _value) public returns (bool success) {\n        allowed[msg.sender][_spender] = _value;\n        Approval(msg.sender, _spender, _value);\n        return true;\n    }\n\n    function allowance(address _owner, address _spender) public constant returns (uint256 remaining) {\n      return allowed[_owner][_spender];\n    }\n\n    mapping (address => uint256) balances;\n    mapping (address => mapping (address => uint256)) allowed;\n}\n\ncontract VirtualRealEstate is StandardToken {\n    address owner;\n    uint256 ownerEth = 0;\n    \n    //Mapping of propertyID to property\n    mapping (uint24 => Property) map;\n    //propertyOwner to link\n    mapping (address => bytes32[2]) ownerLink;\n    //propertyRenter to link\n    mapping (address => bytes32[2]) ownerHoverText;\n    mapping (address => uint32) moderators; // 0 = Not, 1 = nsfw-power, 2 = ban-power, 3 = set-moderator-level-power\n    \n    uint256 priceETH;\n    uint256 PRICE_ETH_MIN_INCREASE = 1000;//10000000000000000000000; //0.0001 ETH\n    uint256 PRICE_ETH_MIN_PERCENT = 20; //0.0001 ETH\n    uint256 pricePPC;\n    uint256 PRICE_PPC_MIN_INCREASE = 10;\n    uint256 PRICE_PPC_MIN_PERCENT = 20;\n    \n    uint256 USER_BUY_CUT_PERCENT = 98; //%\n    \n    uint256 PROPERTY_GENERATES_PER_MINUTE = 1;\n    uint256 FREE_COLOR_SETTING_UNTIL;\n    \n    event PropertyColorUpdate(uint24 indexed property, uint256[10] colors, uint256 lastUpdate, address lastUpdaterPayee);\n    event PropertyColorUpdatePixel(uint24 indexed property, uint8 row, uint24 rgb);\n    event PropertyBought(uint24 indexed property,  address newOwner, uint256 ethAmount, uint256 ppcAmount, uint256 timestamp); //Added ethAmount, ppcAmount and timestamp\n    event SetUserHoverText(address indexed user, bytes32[2] newHoverText);\n    event SetUserSetLink(address indexed user, bytes32[2] newLink);\n    event PropertySetForSale(uint24 indexed property, uint256 forSalePrice);\n    event DelistProperty(uint24 indexed property);\n    event SetPropertyPublic(uint24 indexed property);\n    event SetPropertyPrivate(uint24 indexed property, uint32 numMinutesPrivate);\n    \n    struct TradeOffer {\n        uint256 ethPer;\n        uint256 ppcAmount;\n        bool buyingPPC;\n    }\n    \n    struct Property {\n        address owner;\n        uint256[10] colors; //10x10 rgb pixel colors per property\n        uint256 salePrice;\n        address lastUpdater;\n        bool isInPrivateMode;\n        uint256 lastUpdate; //Last Update\n        uint256 becomePublic;\n        uint256 earnUntil;\n        uint32 flag; //0 == none, 1 == nsfw, 2 == ban\n    }\n    \n    modifier ownerOnly() {\n        require(owner == msg.sender);\n        _;\n    }\n    \n    modifier validPropertyID(uint24 propertyID) {\n        if (propertyID < 10000) {\n            _;\n        }\n    }\n    \n    function VirtualRealEstate() public {\n        owner = msg.sender;\n        totalSupply = 0;\n        FREE_COLOR_SETTING_UNTIL = now;// + 1 days;\n        pricePPC = 100;\n        priceETH = 10000;//1000000000000000000; //0.001 ETH\n        moderators[msg.sender] = 3;\n    }\n    function setFlag(uint24 propertyID, uint32 flag) public validPropertyID(propertyID)  {\n        Property storage property = map[propertyID];\n\n        require(flag < 3);\n\n        uint256 moderationLevel = moderators[msg.sender];\n        require(moderationLevel >= 1); //Must be moderator or higher\n    \n        if (flag == 2) { //If ban, must be higher than nsfw\n            require(moderationLevel >= 2);\n            require(property.isInPrivateMode); //Can't ban an owner's property if a public user did it\n            property.colors = [0, 0, 0, 0, 0, 0, 0, 0, 0, 0];\n        }\n\n        property.flag = flag;\n    }\n    function setHoverText(bytes32[2] text) public {\n        ownerHoverText[msg.sender] = text;\n        SetUserHoverText(msg.sender, text);\n    }\n    function setLink(bytes32[2] link) public {\n        ownerLink[msg.sender] = link;\n        SetUserSetLink(msg.sender, link);\n    }\n    function getSystemSalePrices() public view returns(uint256, uint256) {\n        return (priceETH, pricePPC);\n    }\n    function getForSalePrices(uint24 propertyID) public validPropertyID(propertyID) view returns(uint256, uint256) {\n        Property storage property = map[propertyID];\n        if (property.owner == 0) {\n            return (priceETH, pricePPC);\n        } else {\n            return (0, property.salePrice);\n        }\n    }\n    function getHoverText(address user) public view returns(bytes32[2]) {\n        return ownerHoverText[user];\n    }\n    function getLink(address user) public view returns(bytes32[2]) {\n        return ownerLink[user];\n    }\n    \n    function getPropertyColors(uint24 propertyID) public validPropertyID(propertyID) view returns(uint256[10]) {\n        return map[propertyID].colors;\n    }\n    \n    function getPropertyData(uint24 propertyID) public validPropertyID(propertyID) view returns(address, uint256, uint256, uint256, bool) {\n        Property storage property = map[propertyID];\n        if (property.owner == 0) {\n            return (property.owner, priceETH, pricePPC, property.lastUpdate, property.isInPrivateMode);\n        } else {\n            return (property.owner, 0, property.salePrice, property.lastUpdate, property.isInPrivateMode);\n        }\n    }\n    function tryForcePublic(uint24 propertyID) public validPropertyID(propertyID) {\n        Property storage property = map[propertyID];\n        //If its private when it shouldnt be\n        if (property.isInPrivateMode && property.becomePublic < now) {\n            property.isInPrivateMode = false;\n        }\n    }\n    function getProjectedPayout(uint24 propertyID) public view returns(uint256) {\n        Property storage property = map[propertyID];\n        if (!property.isInPrivateMode && property.lastUpdate != 0) {\n            uint256 minutesSinceLastColourChange = (now - property.lastUpdate) / (1 minutes); //ERRORs on property.lastUpdate = 0\n            return minutesSinceLastColourChange * PROPERTY_GENERATES_PER_MINUTE;\n        }\n        return 0;\n    }\n    //Change a 10x10 == 70 | 30 | 0 cost\n    function setColors(uint24 propertyID, uint256[10] newColors, uint256 pptToSpend) public validPropertyID(propertyID) returns(bool) {\n        Property storage property = map[propertyID];\n\n        tryForcePublic(propertyID);\n        \n        uint256 pptSpent = pptToSpend;\n\n        //If first 3 days and we spent <2 coins, treat it as if we spent 2\n        if (now <= FREE_COLOR_SETTING_UNTIL && pptSpent < 2) { \n            pptSpent = 2;\n        }\n        //If we are in the first 3 days, set pptToSpend to = 2, but don't charge them. Maybe give them the amount they don't have to subtract later?\n\n        bool updateOccured = false;\n\n        if (property.isInPrivateMode) {\n            require(msg.sender == property.owner);\n            require(property.flag != 2);\n            //TODO: What if a owner tries to set a property which is locked by a Free-Use user?\n            updateOccured = true;\n        } else if (property.becomePublic < now) {\n            require(balances[msg.sender] >= pptToSpend);\n            uint256 minutesOfEarning = (pptSpent + 1) * (pptSpent + 1) * (1 minutes); //(N+1)^2 coins earned max/minutes we can earn from\n            uint256 minutesOfLock = (pptSpent / 2) * (1 minutes); //N/2 minutes of user-private mode\n            balances[msg.sender] -= pptToSpend;\n            totalSupply -= pptToSpend;\n            uint256 payoutEach = getProjectedPayout(propertyID);\n            if (payoutEach > 0) {\n                if (property.lastUpdater != 0) {\n                    balances[msg.sender] += payoutEach;\n                    totalSupply += payoutEach;\n                }\n                if (property.owner != 0) {\n                    balances[property.owner] += payoutEach;\n                    totalSupply += payoutEach;\n                }\n            }\n            updateOccured = true;\n            property.becomePublic = now + minutesOfLock;\n            property.earnUntil = now + minutesOfEarning;\n        }\n        \n        if (updateOccured) {\n            PropertyColorUpdate(propertyID, newColors, now, property.lastUpdater);\n            property.colors = newColors;\n            property.lastUpdater = msg.sender;\n            property.lastUpdate = now;\n        }\n        return true;\n    }\n    function setPropertyMode(uint24 propertyID, bool isInPrivateMode, uint32 numMinutesPrivate) public validPropertyID(propertyID) {\n        Property storage property = map[propertyID];\n        require(msg.sender == property.owner);\n        if (isInPrivateMode) {\n            require(numMinutesPrivate > 0);\n            require(balances[msg.sender] >= numMinutesPrivate);\n            balances[msg.sender] -= numMinutesPrivate;\n            totalSupply -= numMinutesPrivate;\n            property.becomePublic = now + (1 minutes) * numMinutesPrivate;\n        } else {\n            property.becomePublic = 0;\n        }\n        property.isInPrivateMode = isInPrivateMode;\n        \n        if (isInPrivateMode) {\n            SetPropertyPrivate(propertyID, numMinutesPrivate);\n        } else {\n            SetPropertyPublic(propertyID);\n        }\n    }\n    //Change pixel or 10x1 costs 7 | 3 | 0\n    function setRowColors(uint24 propertyID, uint8 row, uint24 newColorData) public validPropertyID(propertyID) returns(bool) {\n        Property storage property = map[propertyID];\n        \n        require(row >= 0 && row <= 9);\n        \n        uint256 cost = property.owner != 0 ? 1 : 2;\n        \n        if (property.isInPrivateMode) {\n                require(msg.sender == property.owner);\n                cost = 0;\n        } \n        \n        require(balances[msg.sender] >= cost);\n        \n        balances[msg.sender] -= cost; //Burn the coin to set the color\n        \n        property.colors[row] = newColorData;\n        property.lastUpdater = msg.sender;\n\n        PropertyColorUpdatePixel(propertyID, row, newColorData);\n        \n        return true;\n    }\n    \n    function transferProperty(uint24 propertyID, address newOwner) public validPropertyID(propertyID) returns(bool) {\n        Property storage property = map[propertyID];\n        \n        require(property.owner == msg.sender);\n        require(newOwner != 0);\n        \n        property.owner = newOwner;\n\n        PropertyBought(propertyID, newOwner, 0, 0, now);\n        \n        return true;\n    }\n    function buyProperty(uint24 propertyID, uint256 ppcValue) public validPropertyID(propertyID) payable returns(bool) {\n        Property storage property = map[propertyID];\n        \n        //Must be the first purchase, otherwise do it with ppc\n        require(property.owner == 0);\n        //Required to avoid underflowing (pricePPC - ppcValue)\n        require(ppcValue <= pricePPC);\n        require(balances[msg.sender] >= ppcValue);\n        require(ppcValue != 0);\n        \n        uint256 ppcLeft = pricePPC - ppcValue;\n        uint256 ethLeft = priceETH / pricePPC * ppcLeft;\n        \n        require(msg.value >= ethLeft);\n    \n        balances[owner] += ppcValue;\n        balances[msg.sender] -= ppcValue;\n\n        uint256 minPercent = pricePPC * PRICE_PPC_MIN_PERCENT / 100;\n        pricePPC += ((minPercent < PRICE_PPC_MIN_INCREASE) ? minPercent : PRICE_PPC_MIN_INCREASE) * ppcValue / pricePPC;\n\n        ownerEth += msg.value;\n        minPercent = priceETH * PRICE_ETH_MIN_PERCENT / 100;\n        priceETH += ((minPercent < PRICE_ETH_MIN_INCREASE) ? minPercent : PRICE_ETH_MIN_INCREASE) * ppcLeft / ppcValue;\n        \n        property.owner = msg.sender;\n        \n        PropertyBought(propertyID, property.owner, msg.value, ppcValue, now);\n\n        property.owner = msg.sender;\n        property.flag = 0;\n        \n        return true;\n    }\n    function buyPropertyInPPC(uint24 propertyID, uint256 ppcValue) public validPropertyID(propertyID) returns(bool) {\n        Property storage property = map[propertyID];\n        \n        //If they have no owner, do the PPC price and update it\n        if (property.owner == 0) {\n            property.salePrice = pricePPC;\n            property.owner = owner;\n            uint256 minPercent = pricePPC * PRICE_PPC_MIN_PERCENT / 100;\n            pricePPC += (minPercent < PRICE_PPC_MIN_INCREASE) ? minPercent : PRICE_PPC_MIN_INCREASE;\n        }\n        \n        require(property.salePrice <= ppcValue);\n        require(balances[msg.sender] >= property.salePrice);\n        \n        uint256 amountTransfered = 0;\n        amountTransfered = property.salePrice * USER_BUY_CUT_PERCENT / 100;\n        \n        balances[msg.sender] -= amountTransfered;\n        balances[property.owner] += amountTransfered;\n        balances[owner] += ppcValue - amountTransfered;\n        \n        PropertyBought(propertyID, property.owner, 0, property.salePrice, now);\n\n        property.salePrice = 0;\n        property.owner = msg.sender;\n        property.isInPrivateMode = false;\n        property.flag = 0;\n        \n        return true;\n    }\n    //Use Case: Buyer wants to buy a property.\n    function buyPropertyInETH(uint24 propertyID) public validPropertyID(propertyID) payable returns(bool) {\n        Property storage property = map[propertyID];\n        \n        require(property.owner == 0);\n        require(msg.value >= priceETH);\n        \n        ownerEth += msg.value;\n    \n        uint256 minPercent = priceETH * PRICE_ETH_MIN_PERCENT / 100;\n        priceETH += (minPercent < PRICE_ETH_MIN_INCREASE) ? minPercent : PRICE_ETH_MIN_INCREASE;\n        \n        property.owner = msg.sender;\n        \n        PropertyBought(propertyID, property.owner, msg.value, 0, now);\n        property.flag = 0;\n        \n        return true;\n    }\n    \n    //Use Case: Owner of a property lists for sale at a given price\n    function listForSale(uint24 propertyID, uint128 price ) public validPropertyID(propertyID) returns(bool) {\n        Property storage property = map[propertyID];\n      \n        require(price != 0);\n      \n        require(msg.sender == property.owner); //Must be the owner\n        //You can listForSale an already listed item to update the listing\n        property.salePrice = price;\n        \n        PropertySetForSale(propertyID, property.salePrice);\n        \n        return true;\n    }\n    \n    //Use Case: Owner of a property delists from sale offer\n    function delist(uint24 propertyID) public validPropertyID(propertyID) returns(bool) {\n        Property storage property = map[propertyID];\n        \n        require(msg.sender == property.owner); //Must be the owner\n\n        property.salePrice = 0;\n        \n        DelistProperty(propertyID);\n        \n        return true;\n    }\n    function setModeratorLevel(address user, uint32 level) public {\n        require(moderators[msg.sender] == 3);\n        require(level < 4);\n        require(user != 0);\n        moderators[user] = level;\n    }\n    \n    //////////////////////////////////////////////////////\n    ////Owner Sections: Meta-Functions For Owner only/////\n    //////////////////////////////////////////////////////\n    function withdraw(uint256 amount) public ownerOnly() {\n        if (amount <= ownerEth) {\n            owner.transfer(amount);\n        }\n    }\n    \n    function withdrawAll() public ownerOnly() {\n        owner.transfer(ownerEth);\n    }\n    \n    function changeOwners(address newOwner) public ownerOnly() {\n        owner = newOwner;\n    }\n    \n    ////////////////////////////////////////////////\n    ///TODO: TESTING ONLY: REMOVE BEFORE RELEASE:///\n    ////////////////////////////////////////////////\n    function addCoin(address user, uint256 amount) public ownerOnly() {\n        require(msg.sender == owner);\n        balances[user] += amount;\n    }\n}",
  "sourcePath": "/Users/carsonroscoe/Documents/Github/PixelRealEstate/contracts/VirtualRealEstate.sol",
  "compiler": {
    "name": "solc",
    "version": "0.4.18+commit.9cf6e910.Emscripten.clang"
  },
  "schemaVersion": "1.0.1",
  "updatedAt": "2018-02-22T06:23:38.303Z"
}