{
  "contractName": "VirtualRealEstate",
  "abi": [
    {
      "constant": false,
      "inputs": [
        {
          "name": "ownerOfTradeOffer",
          "type": "address"
        }
      ],
      "name": "acceptOfferBuyingPPC",
      "outputs": [],
      "payable": false,
      "stateMutability": "nonpayable",
      "type": "function"
    },
    {
      "constant": true,
      "inputs": [
        {
          "name": "propertyID",
          "type": "uint24"
        }
      ],
      "name": "getPropertyData",
      "outputs": [
        {
          "name": "",
          "type": "address"
        },
        {
          "name": "",
          "type": "uint256"
        },
        {
          "name": "",
          "type": "uint256"
        },
        {
          "name": "",
          "type": "bool"
        }
      ],
      "payable": false,
      "stateMutability": "view",
      "type": "function"
    },
    {
      "constant": false,
      "inputs": [
        {
          "name": "_spender",
          "type": "address"
        },
        {
          "name": "_value",
          "type": "uint256"
        }
      ],
      "name": "approve",
      "outputs": [
        {
          "name": "success",
          "type": "bool"
        }
      ],
      "payable": false,
      "stateMutability": "nonpayable",
      "type": "function"
    },
    {
      "constant": false,
      "inputs": [
        {
          "name": "propertyID",
          "type": "uint24"
        },
        {
          "name": "row",
          "type": "uint8"
        },
        {
          "name": "newColorData",
          "type": "uint24"
        }
      ],
      "name": "setRowColors",
      "outputs": [
        {
          "name": "",
          "type": "bool"
        }
      ],
      "payable": false,
      "stateMutability": "nonpayable",
      "type": "function"
    },
    {
      "constant": false,
      "inputs": [
        {
          "name": "propertyID",
          "type": "uint24"
        },
        {
          "name": "price",
          "type": "uint128"
        }
      ],
      "name": "listForSale",
      "outputs": [
        {
          "name": "",
          "type": "bool"
        }
      ],
      "payable": false,
      "stateMutability": "nonpayable",
      "type": "function"
    },
    {
      "constant": true,
      "inputs": [
        {
          "name": "propertyID",
          "type": "uint24"
        }
      ],
      "name": "getPropertyColors",
      "outputs": [
        {
          "name": "",
          "type": "uint256[10]"
        }
      ],
      "payable": false,
      "stateMutability": "view",
      "type": "function"
    },
    {
      "constant": true,
      "inputs": [],
      "name": "totalSupply",
      "outputs": [
        {
          "name": "",
          "type": "uint256"
        }
      ],
      "payable": false,
      "stateMutability": "view",
      "type": "function"
    },
    {
      "constant": false,
      "inputs": [
        {
          "name": "text",
          "type": "bytes32[2]"
        }
      ],
      "name": "setHoverText",
      "outputs": [],
      "payable": false,
      "stateMutability": "nonpayable",
      "type": "function"
    },
    {
      "constant": false,
      "inputs": [
        {
          "name": "_from",
          "type": "address"
        },
        {
          "name": "_to",
          "type": "address"
        },
        {
          "name": "_value",
          "type": "uint256"
        }
      ],
      "name": "transferFrom",
      "outputs": [
        {
          "name": "success",
          "type": "bool"
        }
      ],
      "payable": false,
      "stateMutability": "nonpayable",
      "type": "function"
    },
    {
      "constant": false,
      "inputs": [
        {
          "name": "link",
          "type": "bytes32[2]"
        }
      ],
      "name": "setLink",
      "outputs": [],
      "payable": false,
      "stateMutability": "nonpayable",
      "type": "function"
    },
    {
      "constant": false,
      "inputs": [
        {
          "name": "ppcToBuy",
          "type": "uint256"
        },
        {
          "name": "offeredEth",
          "type": "uint256"
        }
      ],
      "name": "setBuyPPCOffer",
      "outputs": [],
      "payable": true,
      "stateMutability": "payable",
      "type": "function"
    },
    {
      "constant": false,
      "inputs": [
        {
          "name": "amount",
          "type": "uint256"
        }
      ],
      "name": "withdraw",
      "outputs": [],
      "payable": false,
      "stateMutability": "nonpayable",
      "type": "function"
    },
    {
      "constant": false,
      "inputs": [
        {
          "name": "ownerOfTradeOffer",
          "type": "address"
        }
      ],
      "name": "acceptOfferBuyingETH",
      "outputs": [],
      "payable": true,
      "stateMutability": "payable",
      "type": "function"
    },
    {
      "constant": false,
      "inputs": [
        {
          "name": "propertyID",
          "type": "uint24"
        },
        {
          "name": "ppcValue",
          "type": "uint256"
        }
      ],
      "name": "buyPropertyInPPC",
      "outputs": [
        {
          "name": "",
          "type": "bool"
        }
      ],
      "payable": false,
      "stateMutability": "nonpayable",
      "type": "function"
    },
    {
      "constant": true,
      "inputs": [
        {
          "name": "propertyID",
          "type": "uint24"
        }
      ],
      "name": "getLink",
      "outputs": [
        {
          "name": "",
          "type": "bytes32[2]"
        }
      ],
      "payable": false,
      "stateMutability": "view",
      "type": "function"
    },
    {
      "constant": false,
      "inputs": [
        {
          "name": "propertyID",
          "type": "uint24"
        }
      ],
      "name": "delist",
      "outputs": [
        {
          "name": "",
          "type": "bool"
        }
      ],
      "payable": false,
      "stateMutability": "nonpayable",
      "type": "function"
    },
    {
      "constant": true,
      "inputs": [
        {
          "name": "_owner",
          "type": "address"
        }
      ],
      "name": "balanceOf",
      "outputs": [
        {
          "name": "balance",
          "type": "uint256"
        }
      ],
      "payable": false,
      "stateMutability": "view",
      "type": "function"
    },
    {
      "constant": true,
      "inputs": [
        {
          "name": "propertyID",
          "type": "uint24"
        }
      ],
      "name": "getHoverText",
      "outputs": [
        {
          "name": "",
          "type": "bytes32[2]"
        }
      ],
      "payable": false,
      "stateMutability": "view",
      "type": "function"
    },
    {
      "constant": false,
      "inputs": [
        {
          "name": "propertyID",
          "type": "uint24"
        },
        {
          "name": "newOwner",
          "type": "address"
        }
      ],
      "name": "transferProperty",
      "outputs": [
        {
          "name": "",
          "type": "bool"
        }
      ],
      "payable": false,
      "stateMutability": "nonpayable",
      "type": "function"
    },
    {
      "constant": false,
      "inputs": [],
      "name": "cancelTradeOffer",
      "outputs": [],
      "payable": false,
      "stateMutability": "nonpayable",
      "type": "function"
    },
    {
      "constant": false,
      "inputs": [],
      "name": "withdrawAll",
      "outputs": [],
      "payable": false,
      "stateMutability": "nonpayable",
      "type": "function"
    },
    {
      "constant": false,
      "inputs": [
        {
          "name": "propertyID",
          "type": "uint24"
        },
        {
          "name": "isInPrivateMode",
          "type": "bool"
        },
        {
          "name": "numHoursPrivate",
          "type": "uint32"
        }
      ],
      "name": "setPropertyMode",
      "outputs": [],
      "payable": false,
      "stateMutability": "nonpayable",
      "type": "function"
    },
    {
      "constant": false,
      "inputs": [
        {
          "name": "_to",
          "type": "address"
        },
        {
          "name": "_value",
          "type": "uint256"
        }
      ],
      "name": "transfer",
      "outputs": [
        {
          "name": "success",
          "type": "bool"
        }
      ],
      "payable": false,
      "stateMutability": "nonpayable",
      "type": "function"
    },
    {
      "constant": false,
      "inputs": [
        {
          "name": "user",
          "type": "address"
        },
        {
          "name": "amount",
          "type": "uint256"
        }
      ],
      "name": "addCoin",
      "outputs": [],
      "payable": false,
      "stateMutability": "nonpayable",
      "type": "function"
    },
    {
      "constant": true,
      "inputs": [
        {
          "name": "propertyID",
          "type": "uint24"
        }
      ],
      "name": "getForSalePrices",
      "outputs": [
        {
          "name": "",
          "type": "uint256"
        },
        {
          "name": "",
          "type": "uint256"
        }
      ],
      "payable": false,
      "stateMutability": "view",
      "type": "function"
    },
    {
      "constant": true,
      "inputs": [
        {
          "name": "offerOwner",
          "type": "address"
        }
      ],
      "name": "getTradeOffer",
      "outputs": [
        {
          "name": "",
          "type": "uint256"
        },
        {
          "name": "",
          "type": "uint256"
        },
        {
          "name": "",
          "type": "bool"
        }
      ],
      "payable": false,
      "stateMutability": "view",
      "type": "function"
    },
    {
      "constant": false,
      "inputs": [
        {
          "name": "newOwner",
          "type": "address"
        }
      ],
      "name": "changeOwners",
      "outputs": [],
      "payable": false,
      "stateMutability": "nonpayable",
      "type": "function"
    },
    {
      "constant": false,
      "inputs": [
        {
          "name": "propertyID",
          "type": "uint24"
        },
        {
          "name": "newColors",
          "type": "uint256[10]"
        }
      ],
      "name": "setColors",
      "outputs": [
        {
          "name": "",
          "type": "bool"
        }
      ],
      "payable": false,
      "stateMutability": "nonpayable",
      "type": "function"
    },
    {
      "constant": true,
      "inputs": [
        {
          "name": "_owner",
          "type": "address"
        },
        {
          "name": "_spender",
          "type": "address"
        }
      ],
      "name": "allowance",
      "outputs": [
        {
          "name": "remaining",
          "type": "uint256"
        }
      ],
      "payable": false,
      "stateMutability": "view",
      "type": "function"
    },
    {
      "constant": false,
      "inputs": [
        {
          "name": "ethToBuy",
          "type": "uint256"
        },
        {
          "name": "offeredPPC",
          "type": "uint256"
        }
      ],
      "name": "setBuyETHOffer",
      "outputs": [],
      "payable": false,
      "stateMutability": "nonpayable",
      "type": "function"
    },
    {
      "constant": false,
      "inputs": [
        {
          "name": "propertyID",
          "type": "uint24"
        }
      ],
      "name": "buyPropertyInETH",
      "outputs": [
        {
          "name": "",
          "type": "bool"
        }
      ],
      "payable": true,
      "stateMutability": "payable",
      "type": "function"
    },
    {
      "inputs": [],
      "payable": false,
      "stateMutability": "nonpayable",
      "type": "constructor"
    },
    {
      "anonymous": false,
      "inputs": [
        {
          "indexed": true,
          "name": "property",
          "type": "uint24"
        },
        {
          "indexed": false,
          "name": "colors",
          "type": "uint256[10]"
        },
        {
          "indexed": false,
          "name": "lastUpdate",
          "type": "uint256"
        },
        {
          "indexed": false,
          "name": "lastUpdaterPayee",
          "type": "address"
        }
      ],
      "name": "PropertyColorUpdate",
      "type": "event"
    },
    {
      "anonymous": false,
      "inputs": [
        {
          "indexed": true,
          "name": "property",
          "type": "uint24"
        },
        {
          "indexed": false,
          "name": "row",
          "type": "uint8"
        },
        {
          "indexed": false,
          "name": "rgb",
          "type": "uint24"
        }
      ],
      "name": "PropertyColorUpdatePixel",
      "type": "event"
    },
    {
      "anonymous": false,
      "inputs": [
        {
          "indexed": true,
          "name": "property",
          "type": "uint24"
        },
        {
          "indexed": false,
          "name": "newOwner",
          "type": "address"
        }
      ],
      "name": "PropertyBought",
      "type": "event"
    },
    {
      "anonymous": false,
      "inputs": [
        {
          "indexed": true,
          "name": "user",
          "type": "address"
        },
        {
          "indexed": false,
          "name": "newHoverText",
          "type": "bytes32[2]"
        }
      ],
      "name": "SetUserHoverText",
      "type": "event"
    },
    {
      "anonymous": false,
      "inputs": [
        {
          "indexed": true,
          "name": "user",
          "type": "address"
        },
        {
          "indexed": false,
          "name": "newLink",
          "type": "bytes32[2]"
        }
      ],
      "name": "SetUserSetLink",
      "type": "event"
    },
    {
      "anonymous": false,
      "inputs": [
        {
          "indexed": true,
          "name": "property",
          "type": "uint24"
        }
      ],
      "name": "PropertySetForSale",
      "type": "event"
    },
    {
      "anonymous": false,
      "inputs": [
        {
          "indexed": true,
          "name": "property",
          "type": "uint24"
        }
      ],
      "name": "DelistProperty",
      "type": "event"
    },
    {
      "anonymous": false,
      "inputs": [
        {
          "indexed": true,
          "name": "offerOwner",
          "type": "address"
        },
        {
          "indexed": false,
          "name": "eth",
          "type": "uint256"
        },
        {
          "indexed": false,
          "name": "ppc",
          "type": "uint256"
        },
        {
          "indexed": false,
          "name": "isBuyingPPC",
          "type": "bool"
        }
      ],
      "name": "ListTradeOffer",
      "type": "event"
    },
    {
      "anonymous": false,
      "inputs": [
        {
          "indexed": true,
          "name": "accepter",
          "type": "address"
        },
        {
          "indexed": true,
          "name": "offerOwner",
          "type": "address"
        }
      ],
      "name": "AcceptTradeOffer",
      "type": "event"
    },
    {
      "anonymous": false,
      "inputs": [
        {
          "indexed": true,
          "name": "offerOwner",
          "type": "address"
        }
      ],
      "name": "CancelTradeOffer",
      "type": "event"
    },
    {
      "anonymous": false,
      "inputs": [
        {
          "indexed": true,
          "name": "property",
          "type": "uint24"
        }
      ],
      "name": "SetPropertyPublic",
      "type": "event"
    },
    {
      "anonymous": false,
      "inputs": [
        {
          "indexed": true,
          "name": "property",
          "type": "uint24"
        },
        {
          "indexed": false,
          "name": "numHoursPrivate",
          "type": "uint32"
        }
      ],
      "name": "SetPropertyPrivate",
      "type": "event"
    },
    {
      "anonymous": false,
      "inputs": [
        {
          "indexed": true,
          "name": "_from",
          "type": "address"
        },
        {
          "indexed": true,
          "name": "_to",
          "type": "address"
        },
        {
          "indexed": false,
          "name": "_value",
          "type": "uint256"
        }
      ],
      "name": "Transfer",
      "type": "event"
    },
    {
      "anonymous": false,
      "inputs": [
        {
          "indexed": true,
          "name": "_owner",
          "type": "address"
        },
        {
          "indexed": true,
          "name": "_spender",
          "type": "address"
        },
        {
          "indexed": false,
          "name": "_value",
          "type": "uint256"
        }
      ],
      "name": "Approval",
      "type": "event"
    }
  ],
  "bytecode": "0x606060405260006004556103e8600b556014600c55600a600e556014600f5560626010556002601155341561003357600080fd5b33600360006101000a81548173ffffffffffffffffffffffffffffffffffffffff021916908373ffffffffffffffffffffffffffffffffffffffff16021790555060008081905550620151804201601281905550600a600d81905550612710600a81905550613637806100a76000396000f30060606040526004361061018a576000357c0100000000000000000000000000000000000000000000000000000000900463ffffffff168062dac2ce1461018f578063075773fd146101c8578063095ea7b3146102495780630a88e770146102a357806316035c7c146102fd578063164e0aba1461035857806318160ddd146103bc5780631d04458d146103e557806323b872dd1461042b578063284b8a64146104a45780632b9b6adf146104ea5780632e1a7d4d1461050b5780633830f7091461052e578063410b6d7a1461055c5780635211aa1a146105a55780635a0338301461060957806370a08231146106495780637a5f97ca1461069657806382e57396146106fa5780638373ae7114610759578063853828b61461076e578063a690478b14610783578063a9059cbb146107c5578063b40148791461081f578063c3c9c24114610861578063c718f68f146108a4578063d7963f9414610903578063dc4cb7f51461093c578063dd62ed3e146109a9578063e655d13814610a15578063ef952a9914610a41575b600080fd5b341561019a57600080fd5b6101c6600480803573ffffffffffffffffffffffffffffffffffffffff16906020019091905050610a76565b005b34156101d357600080fd5b6101ee600480803562ffffff16906020019091905050610c89565b604051808573ffffffffffffffffffffffffffffffffffffffff1673ffffffffffffffffffffffffffffffffffffffff1681526020018481526020018381526020018215151515815260200194505050505060405180910390f35b341561025457600080fd5b610289600480803573ffffffffffffffffffffffffffffffffffffffff16906020019091908035906020019091905050610d13565b604051808215151515815260200191505060405180910390f35b34156102ae57600080fd5b6102e3600480803562ffffff1690602001909190803560ff1690602001909190803562ffffff16906020019091905050610e05565b604051808215151515815260200191505060405180910390f35b341561030857600080fd5b61033e600480803562ffffff169060200190919080356fffffffffffffffffffffffffffffffff16906020019091905050611089565b604051808215151515815260200191505060405180910390f35b341561036357600080fd5b61037e600480803562ffffff16906020019091905050611195565b6040518082600a60200280838360005b838110156103a957808201518184015260208101905061038e565b5050505090500191505060405180910390f35b34156103c757600080fd5b6103cf611212565b6040518082815260200191505060405180910390f35b34156103f057600080fd5b61042960048080604001906002806020026040519081016040528092919082600260200280828437820191505050505091905050611218565b005b341561043657600080fd5b61048a600480803573ffffffffffffffffffffffffffffffffffffffff1690602001909190803573ffffffffffffffffffffffffffffffffffffffff169060200190919080359060200190919050506112e0565b604051808215151515815260200191505060405180910390f35b34156104af57600080fd5b6104e86004808060400190600280602002604051908101604052809291908260026020028082843782019150505050509190505061155c565b005b6105096004808035906020019091908035906020019091905050611624565b005b341561051657600080fd5b61052c6004808035906020019091905050611730565b005b61055a600480803573ffffffffffffffffffffffffffffffffffffffff169060200190919050506117fd565b005b341561056757600080fd5b61058b600480803562ffffff1690602001909190803590602001909190505061197c565b604051808215151515815260200191505060405180910390f35b34156105b057600080fd5b6105cb600480803562ffffff16906020019091905050611d04565b6040518082600260200280838360005b838110156105f65780820151818401526020810190506105db565b5050505090500191505060405180910390f35b341561061457600080fd5b61062f600480803562ffffff16906020019091905050611f40565b604051808215151515815260200191505060405180910390f35b341561065457600080fd5b610680600480803573ffffffffffffffffffffffffffffffffffffffff16906020019091905050612018565b6040518082815260200191505060405180910390f35b34156106a157600080fd5b6106bc600480803562ffffff16906020019091905050612061565b6040518082600260200280838360005b838110156106e75780820151818401526020810190506106cc565b5050505090500191505060405180910390f35b341561070557600080fd5b61073f600480803562ffffff1690602001909190803573ffffffffffffffffffffffffffffffffffffffff1690602001909190505061229d565b604051808215151515815260200191505060405180910390f35b341561076457600080fd5b61076c6123a3565b005b341561077957600080fd5b61078161250f565b005b341561078e57600080fd5b6107c3600480803562ffffff16906020019091908035151590602001909190803563ffffffff169060200190919050506125d1565b005b34156107d057600080fd5b610805600480803573ffffffffffffffffffffffffffffffffffffffff169060200190919080359060200190919050506127f1565b604051808215151515815260200191505060405180910390f35b341561082a57600080fd5b61085f600480803573ffffffffffffffffffffffffffffffffffffffff1690602001909190803590602001909190505061295a565b005b341561086c57600080fd5b610887600480803562ffffff16906020019091905050612a07565b604051808381526020018281526020019250505060405180910390f35b34156108af57600080fd5b6108db600480803573ffffffffffffffffffffffffffffffffffffffff16906020019091905050612aa4565b6040518084815260200183815260200182151515158152602001935050505060405180910390f35b341561090e57600080fd5b61093a600480803573ffffffffffffffffffffffffffffffffffffffff16906020019091905050612b15565b005b341561094757600080fd5b61098f600480803562ffffff1690602001909190806101400190600a806020026040519081016040528092919082600a60200280828437820191505050505091905050612bb5565b604051808215151515815260200191505060405180910390f35b34156109b457600080fd5b6109ff600480803573ffffffffffffffffffffffffffffffffffffffff1690602001909190803573ffffffffffffffffffffffffffffffffffffffff169060200190919050506130a1565b6040518082815260200191505060405180910390f35b3415610a2057600080fd5b610a3f6004808035906020019091908035906020019091905050613128565b005b610a5c600480803562ffffff16906020019091905050613336565b604051808215151515815260200191505060405180910390f35b6000600960008373ffffffffffffffffffffffffffffffffffffffff1673ffffffffffffffffffffffffffffffffffffffff1681526020019081526020016000209050600160003373ffffffffffffffffffffffffffffffffffffffff1673ffffffffffffffffffffffffffffffffffffffff16815260200190815260200160002054816001015411151515610b0b57600080fd5b60008273ffffffffffffffffffffffffffffffffffffffff1614151515610b3157600080fd5b8060010154600160008473ffffffffffffffffffffffffffffffffffffffff1673ffffffffffffffffffffffffffffffffffffffff168152602001908152602001600020600082825401925050819055508060010154600160003373ffffffffffffffffffffffffffffffffffffffff1673ffffffffffffffffffffffffffffffffffffffff168152602001908152602001600020600082825403925050819055503373ffffffffffffffffffffffffffffffffffffffff166108fc82600001549081150290604051600060405180830381858888f193505050501515610c1757600080fd5b60008160000181905550600081600101819055508173ffffffffffffffffffffffffffffffffffffffff163373ffffffffffffffffffffffffffffffffffffffff167f1c76e02469c367b845929eb200e89d99d2a669524a90c660d06cdcbdc6230a1a60405160405180910390a35050565b6000806000806000856127108162ffffff161015610d0a57600660008862ffffff1662ffffff16815260200190815260200160002091508160000160009054906101000a900473ffffffffffffffffffffffffffffffffffffffff1682600b015483600d015484600c0160149054906101000a900460ff1695509550955095505b50509193509193565b600081600260003373ffffffffffffffffffffffffffffffffffffffff1673ffffffffffffffffffffffffffffffffffffffff16815260200190815260200160002060008573ffffffffffffffffffffffffffffffffffffffff1673ffffffffffffffffffffffffffffffffffffffff168152602001908152602001600020819055508273ffffffffffffffffffffffffffffffffffffffff163373ffffffffffffffffffffffffffffffffffffffff167f8c5be1e5ebec7d5bd14f71427d1e84f3dd0314c0f7b2291e5b200ac8c7c3b925846040518082815260200191505060405180910390a36001905092915050565b6000806000856127108162ffffff16101561107f57600660008862ffffff1662ffffff168152602001908152602001600020925060008660ff1610158015610e51575060098660ff1611155b1515610e5c57600080fd5b60008360000160009054906101000a900473ffffffffffffffffffffffffffffffffffffffff1673ffffffffffffffffffffffffffffffffffffffff161415610ea6576002610ea9565b60015b60ff16915082600c0160149054906101000a900460ff1615610f28578260000160009054906101000a900473ffffffffffffffffffffffffffffffffffffffff1673ffffffffffffffffffffffffffffffffffffffff163373ffffffffffffffffffffffffffffffffffffffff16141515610f2357600080fd5b600091505b81600160003373ffffffffffffffffffffffffffffffffffffffff1673ffffffffffffffffffffffffffffffffffffffff1681526020019081526020016000205410151515610f7657600080fd5b81600160003373ffffffffffffffffffffffffffffffffffffffff1673ffffffffffffffffffffffffffffffffffffffff168152602001908152602001600020600082825403925050819055508462ffffff16836001018760ff16600a81101515610fdd57fe5b01819055503383600c0160006101000a81548173ffffffffffffffffffffffffffffffffffffffff021916908373ffffffffffffffffffffffffffffffffffffffff1602179055508662ffffff167f1552c53109a4b1a1c4938ae91d342a910cb3f903cd2262bcaea67365553a8e478787604051808360ff1660ff1681526020018262ffffff1662ffffff1681526020019250505060405180910390a2600193505b5050509392505050565b600080836127108162ffffff16101561118d57600660008662ffffff1662ffffff16815260200190815260200160002091506000846fffffffffffffffffffffffffffffffff16141515156110dd57600080fd5b8160000160009054906101000a900473ffffffffffffffffffffffffffffffffffffffff1673ffffffffffffffffffffffffffffffffffffffff163373ffffffffffffffffffffffffffffffffffffffff1614151561113b57600080fd5b836fffffffffffffffffffffffffffffffff1682600b01819055508462ffffff167f3b0c87c30bb9ce8a4c730c1fca8aa41b65e6ee57295de12c2915df33b063786760405160405180910390a2600192505b505092915050565b61119d6134e8565b816127108162ffffff16101561120c57600660008462ffffff1662ffffff168152602001908152602001600020600101600a806020026040519081016040528092919082600a8015611204576020028201915b8154815260200190600101908083116111f0575b505050505091505b50919050565b60005481565b80600860003373ffffffffffffffffffffffffffffffffffffffff1673ffffffffffffffffffffffffffffffffffffffff168152602001908152602001600020906002611266929190613511565b503373ffffffffffffffffffffffffffffffffffffffff167ff6fae1282aa1dee75d2bf0c4aa362eb3949ebf974dfddcd6351e3dd61e389f29826040518082600260200280838360005b838110156112cb5780820151818401526020810190506112b0565b5050505090500191505060405180910390a250565b600081600160008673ffffffffffffffffffffffffffffffffffffffff1673ffffffffffffffffffffffffffffffffffffffff16815260200190815260200160002054101580156113ad575081600260008673ffffffffffffffffffffffffffffffffffffffff1673ffffffffffffffffffffffffffffffffffffffff16815260200190815260200160002060003373ffffffffffffffffffffffffffffffffffffffff1673ffffffffffffffffffffffffffffffffffffffff1681526020019081526020016000205410155b80156113b95750600082115b156115505781600160008573ffffffffffffffffffffffffffffffffffffffff1673ffffffffffffffffffffffffffffffffffffffff1681526020019081526020016000206000828254019250508190555081600160008673ffffffffffffffffffffffffffffffffffffffff1673ffffffffffffffffffffffffffffffffffffffff1681526020019081526020016000206000828254039250508190555081600260008673ffffffffffffffffffffffffffffffffffffffff1673ffffffffffffffffffffffffffffffffffffffff16815260200190815260200160002060003373ffffffffffffffffffffffffffffffffffffffff1673ffffffffffffffffffffffffffffffffffffffff168152602001908152602001600020600082825403925050819055508273ffffffffffffffffffffffffffffffffffffffff168473ffffffffffffffffffffffffffffffffffffffff167fddf252ad1be2c89b69c2b068fc378daa952ba7f163c4a11628f55a4df523b3ef846040518082815260200191505060405180910390a360019050611555565b600090505b9392505050565b80600760003373ffffffffffffffffffffffffffffffffffffffff1673ffffffffffffffffffffffffffffffffffffffff1681526020019081526020016000209060026115aa929190613511565b503373ffffffffffffffffffffffffffffffffffffffff167f010724f92c296bc87af12d2281baa10d1317850008bd8ee16a0c27313e9cd7b2826040518082600260200280838360005b8381101561160f5780820151818401526020810190506115f4565b5050505090500191505060405180910390a250565b600081341015151561163557600080fd5b6000831180156116455750600082115b151561165057600080fd5b6116586123a3565b600960003373ffffffffffffffffffffffffffffffffffffffff1673ffffffffffffffffffffffffffffffffffffffff168152602001908152602001600020905082816001018190555081816000018190555060018160020160006101000a81548160ff0219169083151502179055503373ffffffffffffffffffffffffffffffffffffffff167f1e9933321189dbcae2cc65270b17c79e62f3a034019f7b818aa1cafb6c6ab588838560016040518084815260200183815260200182151515158152602001935050505060405180910390a2505050565b3373ffffffffffffffffffffffffffffffffffffffff16600360009054906101000a900473ffffffffffffffffffffffffffffffffffffffff1673ffffffffffffffffffffffffffffffffffffffff1614151561178c57600080fd5b600454811115156117fa57600360009054906101000a900473ffffffffffffffffffffffffffffffffffffffff1673ffffffffffffffffffffffffffffffffffffffff166108fc829081150290604051600060405180830381858888f1935050505015156117f957600080fd5b5b50565b6000600960008373ffffffffffffffffffffffffffffffffffffffff1673ffffffffffffffffffffffffffffffffffffffff16815260200190815260200160002090503481600001541115151561185357600080fd5b60008273ffffffffffffffffffffffffffffffffffffffff161415151561187957600080fd5b8173ffffffffffffffffffffffffffffffffffffffff166108fc349081150290604051600060405180830381858888f1935050505015156118b957600080fd5b8060010154600160003373ffffffffffffffffffffffffffffffffffffffff1673ffffffffffffffffffffffffffffffffffffffff1681526020019081526020016000206000828254019250508190555060008160000181905550600081600101819055508173ffffffffffffffffffffffffffffffffffffffff163373ffffffffffffffffffffffffffffffffffffffff167f1c76e02469c367b845929eb200e89d99d2a669524a90c660d06cdcbdc6230a1a60405160405180910390a35050565b600080600080856127108162ffffff161015611cfa57600660008862ffffff1662ffffff168152602001908152602001600020935060008460000160009054906101000a900473ffffffffffffffffffffffffffffffffffffffff1673ffffffffffffffffffffffffffffffffffffffff161415611a9c57600d5484600b0181905550600360009054906101000a900473ffffffffffffffffffffffffffffffffffffffff168460000160006101000a81548173ffffffffffffffffffffffffffffffffffffffff021916908373ffffffffffffffffffffffffffffffffffffffff1602179055506064600f54600d5402811515611a7657fe5b049250600e548310611a8a57600e54611a8c565b825b600d600082825401925050819055505b8584600b015411151515611aaf57600080fd5b83600b0154600160003373ffffffffffffffffffffffffffffffffffffffff1673ffffffffffffffffffffffffffffffffffffffff1681526020019081526020016000205410151515611b0157600080fd5b60009150606460105485600b015402811515611b1957fe5b04915081600160008660000160009054906101000a900473ffffffffffffffffffffffffffffffffffffffff1673ffffffffffffffffffffffffffffffffffffffff1673ffffffffffffffffffffffffffffffffffffffff1681526020019081526020016000206000828254019250508190555081860360016000600360009054906101000a900473ffffffffffffffffffffffffffffffffffffffff1673ffffffffffffffffffffffffffffffffffffffff1673ffffffffffffffffffffffffffffffffffffffff16815260200190815260200160002060008282540192505081905550600084600b0181905550338460000160006101000a81548173ffffffffffffffffffffffffffffffffffffffff021916908373ffffffffffffffffffffffffffffffffffffffff160217905550600084600c0160146101000a81548160ff0219169083151502179055508662ffffff167f305c27fe3ad09404aa5312767c4b7820bc3be71e957c64575b3e6fa81bc904428560000160009054906101000a900473ffffffffffffffffffffffffffffffffffffffff16604051808273ffffffffffffffffffffffffffffffffffffffff1673ffffffffffffffffffffffffffffffffffffffff16815260200191505060405180910390a2600194505b5050505092915050565b611d0c613557565b6000826127108162ffffff161015611f3957600660008562ffffff1662ffffff168152602001908152602001600020915081600c0160149054906101000a900460ff1615611e485760008260000160009054906101000a900473ffffffffffffffffffffffffffffffffffffffff1673ffffffffffffffffffffffffffffffffffffffff1614151515611d9e57600080fd5b600760008360000160009054906101000a900473ffffffffffffffffffffffffffffffffffffffff1673ffffffffffffffffffffffffffffffffffffffff1673ffffffffffffffffffffffffffffffffffffffff168152602001908152602001600020600280602002604051908101604052809291908260028015611e3c576020028201915b81546000191681526020019060010190808311611e24575b50505050509250611f38565b600082600c0160009054906101000a900473ffffffffffffffffffffffffffffffffffffffff1673ffffffffffffffffffffffffffffffffffffffff1614151515611e9257600080fd5b6007600083600c0160009054906101000a900473ffffffffffffffffffffffffffffffffffffffff1673ffffffffffffffffffffffffffffffffffffffff1673ffffffffffffffffffffffffffffffffffffffff168152602001908152602001600020600280602002604051908101604052809291908260028015611f30576020028201915b81546000191681526020019060010190808311611f18575b505050505092505b5b5050919050565b600080826127108162ffffff16101561201157600660008562ffffff1662ffffff16815260200190815260200160002091508160000160009054906101000a900473ffffffffffffffffffffffffffffffffffffffff1673ffffffffffffffffffffffffffffffffffffffff163373ffffffffffffffffffffffffffffffffffffffff16141515611fd057600080fd5b600082600b01819055508362ffffff167fca2e47a4a4a73b5954da66cff11902dbc0e8a6d4ee892921cc381af6aabc415260405160405180910390a2600192505b5050919050565b6000600160008373ffffffffffffffffffffffffffffffffffffffff1673ffffffffffffffffffffffffffffffffffffffff168152602001908152602001600020549050919050565b612069613557565b6000826127108162ffffff16101561229657600660008562ffffff1662ffffff168152602001908152602001600020915081600c0160149054906101000a900460ff16156121a55760008260000160009054906101000a900473ffffffffffffffffffffffffffffffffffffffff1673ffffffffffffffffffffffffffffffffffffffff16141515156120fb57600080fd5b600860008360000160009054906101000a900473ffffffffffffffffffffffffffffffffffffffff1673ffffffffffffffffffffffffffffffffffffffff1673ffffffffffffffffffffffffffffffffffffffff168152602001908152602001600020600280602002604051908101604052809291908260028015612199576020028201915b81546000191681526020019060010190808311612181575b50505050509250612295565b600082600c0160009054906101000a900473ffffffffffffffffffffffffffffffffffffffff1673ffffffffffffffffffffffffffffffffffffffff16141515156121ef57600080fd5b6008600083600c0160009054906101000a900473ffffffffffffffffffffffffffffffffffffffff1673ffffffffffffffffffffffffffffffffffffffff1673ffffffffffffffffffffffffffffffffffffffff16815260200190815260200160002060028060200260405190810160405280929190826002801561228d576020028201915b81546000191681526020019060010190808311612275575b505050505092505b5b5050919050565b600080836127108162ffffff16101561239b57600660008662ffffff1662ffffff16815260200190815260200160002091503373ffffffffffffffffffffffffffffffffffffffff168260000160009054906101000a900473ffffffffffffffffffffffffffffffffffffffff1673ffffffffffffffffffffffffffffffffffffffff1614151561232d57600080fd5b60008473ffffffffffffffffffffffffffffffffffffffff161415151561235357600080fd5b838260000160006101000a81548173ffffffffffffffffffffffffffffffffffffffff021916908373ffffffffffffffffffffffffffffffffffffffff160217905550600192505b505092915050565b6000600960003373ffffffffffffffffffffffffffffffffffffffff1673ffffffffffffffffffffffffffffffffffffffff16815260200190815260200160002090506000816000015411806123fd575060008160010154115b1561250c578060020160009054906101000a900460ff1615612462573373ffffffffffffffffffffffffffffffffffffffff166108fc82600001549081150290604051600060405180830381858888f19350505050151561245d57600080fd5b6124b4565b8060010154600160003373ffffffffffffffffffffffffffffffffffffffff1673ffffffffffffffffffffffffffffffffffffffff168152602001908152602001600020600082825401925050819055505b3373ffffffffffffffffffffffffffffffffffffffff167f3c2fe1509f8beb8f8954bfc71234daf01227d3113608a741251277ed61eb6e5a60405160405180910390a260008160000181905550600081600101819055505b50565b3373ffffffffffffffffffffffffffffffffffffffff16600360009054906101000a900473ffffffffffffffffffffffffffffffffffffffff1673ffffffffffffffffffffffffffffffffffffffff1614151561256b57600080fd5b600360009054906101000a900473ffffffffffffffffffffffffffffffffffffffff1673ffffffffffffffffffffffffffffffffffffffff166108fc6004549081150290604051600060405180830381858888f1935050505015156125cf57600080fd5b565b6000836127108162ffffff1610156127ea57600660008662ffffff1662ffffff16815260200190815260200160002091508160000160009054906101000a900473ffffffffffffffffffffffffffffffffffffffff1673ffffffffffffffffffffffffffffffffffffffff163373ffffffffffffffffffffffffffffffffffffffff1614151561266057600080fd5b831561273b5760008363ffffffff1611151561267b57600080fd5b8263ffffffff16600160003373ffffffffffffffffffffffffffffffffffffffff1673ffffffffffffffffffffffffffffffffffffffff16815260200190815260200160002054101515156126cf57600080fd5b8263ffffffff16600160003373ffffffffffffffffffffffffffffffffffffffff1673ffffffffffffffffffffffffffffffffffffffff168152602001908152602001600020600082825403925050819055508260010263ffffffff16420182600e0181905550612746565b600082600e01819055505b8382600c0160146101000a81548160ff02191690831515021790555083156127b6578462ffffff167f52e8f4b5a1626f05acec334b28b3a6e1229af95f0fdf6929ead61c976399121384604051808263ffffffff1663ffffffff16815260200191505060405180910390a26127e9565b8462ffffff167f7b2ca9b1b8f3e9de64d205763935a164d5090f5e6346199c24b0612e0930a12a60405160405180910390a25b5b5050505050565b600081600160003373ffffffffffffffffffffffffffffffffffffffff1673ffffffffffffffffffffffffffffffffffffffff16815260200190815260200160002054101580156128425750600082115b1561294f5781600160003373ffffffffffffffffffffffffffffffffffffffff1673ffffffffffffffffffffffffffffffffffffffff1681526020019081526020016000206000828254039250508190555081600160008573ffffffffffffffffffffffffffffffffffffffff1673ffffffffffffffffffffffffffffffffffffffff168152602001908152602001600020600082825401925050819055508273ffffffffffffffffffffffffffffffffffffffff163373ffffffffffffffffffffffffffffffffffffffff167fddf252ad1be2c89b69c2b068fc378daa952ba7f163c4a11628f55a4df523b3ef846040518082815260200191505060405180910390a360019050612954565b600090505b92915050565b3373ffffffffffffffffffffffffffffffffffffffff16600360009054906101000a900473ffffffffffffffffffffffffffffffffffffffff1673ffffffffffffffffffffffffffffffffffffffff161415156129b657600080fd5b80600160008473ffffffffffffffffffffffffffffffffffffffff1673ffffffffffffffffffffffffffffffffffffffff168152602001908152602001600020600082825401925050819055505050565b6000806000836127108162ffffff161015612a9d57600660008662ffffff1662ffffff168152602001908152602001600020915060008260000160009054906101000a900473ffffffffffffffffffffffffffffffffffffffff1673ffffffffffffffffffffffffffffffffffffffff161415612a8d57600a54600d5493509350612a9c565b600082600b0154819150935093505b5b5050915091565b600080600080600960008673ffffffffffffffffffffffffffffffffffffffff1673ffffffffffffffffffffffffffffffffffffffff1681526020019081526020016000209050806000015481600101548260020160009054906101000a900460ff16935093509350509193909250565b3373ffffffffffffffffffffffffffffffffffffffff16600360009054906101000a900473ffffffffffffffffffffffffffffffffffffffff1673ffffffffffffffffffffffffffffffffffffffff16141515612b7157600080fd5b80600360006101000a81548173ffffffffffffffffffffffffffffffffffffffff021916908373ffffffffffffffffffffffffffffffffffffffff16021790555050565b600080600080600080600080896127108162ffffff16101561309357600660008c62ffffff1662ffffff168152602001908152602001600020975060008860000160009054906101000a900473ffffffffffffffffffffffffffffffffffffffff1673ffffffffffffffffffffffffffffffffffffffff161415612c3a576002612c3d565b60015b60ff16965087600c0160149054906101000a900460ff1615612cf9574288600e01541115612ccc578760000160009054906101000a900473ffffffffffffffffffffffffffffffffffffffff1673ffffffffffffffffffffffffffffffffffffffff163373ffffffffffffffffffffffffffffffffffffffff16141515612cc357600080fd5b60009650612cf4565b600088600c0160146101000a81548160ff021916908315150217905550600088600e01819055505b612d0a565b60125442111515612d0957600096505b5b86600160003373ffffffffffffffffffffffffffffffffffffffff1673ffffffffffffffffffffffffffffffffffffffff1681526020019081526020016000205410151515612d5857600080fd5b87600c0160149054906101000a900460ff16158015612d7c5750600088600d015414155b15612f3d57600588600d01544203811515612d9357fe5b049550601154860294506000851115612f3c578760000160009054906101000a900473ffffffffffffffffffffffffffffffffffffffff16935087600c0160009054906101000a900473ffffffffffffffffffffffffffffffffffffffff16925060008473ffffffffffffffffffffffffffffffffffffffff161415612e385760008373ffffffffffffffffffffffffffffffffffffffff16141515612e37578293505b5b60008473ffffffffffffffffffffffffffffffffffffffff16141515612eb257600285811515612e6457fe5b04600160008673ffffffffffffffffffffffffffffffffffffffff1673ffffffffffffffffffffffffffffffffffffffff168152602001908152602001600020600082825401925050819055505b60008373ffffffffffffffffffffffffffffffffffffffff16141515612f2c57600285811515612ede57fe5b04600160008573ffffffffffffffffffffffffffffffffffffffff1673ffffffffffffffffffffffffffffffffffffffff168152602001908152602001600020600082825401925050819055505b8460008082825401925050819055505b5b86600160003373ffffffffffffffffffffffffffffffffffffffff1673ffffffffffffffffffffffffffffffffffffffff16815260200190815260200160002060008282540392505081905550898860010190600a612f9d929190613581565b503388600c0160006101000a81548173ffffffffffffffffffffffffffffffffffffffff021916908373ffffffffffffffffffffffffffffffffffffffff1602179055504288600d01819055504291508a62ffffff167fce9b20e38ccb718fd7b9a5fb1eacd0060f320d3e74a7e2ce393a26eb9a0f26368b84866040518084600a60200280838360005b83811015613042578082015181840152602081019050613027565b505050509050018381526020018273ffffffffffffffffffffffffffffffffffffffff1673ffffffffffffffffffffffffffffffffffffffff168152602001935050505060405180910390a2600198505b505050505050505092915050565b6000600260008473ffffffffffffffffffffffffffffffffffffffff1673ffffffffffffffffffffffffffffffffffffffff16815260200190815260200160002060008373ffffffffffffffffffffffffffffffffffffffff1673ffffffffffffffffffffffffffffffffffffffff16815260200190815260200160002054905092915050565b80600160003373ffffffffffffffffffffffffffffffffffffffff1673ffffffffffffffffffffffffffffffffffffffff168152602001908152602001600020541015151561317657600080fd5b6000821180156131865750600081115b151561319157600080fd5b6131996123a3565b81600960003373ffffffffffffffffffffffffffffffffffffffff1673ffffffffffffffffffffffffffffffffffffffff1681526020019081526020016000206000018190555080600960003373ffffffffffffffffffffffffffffffffffffffff1673ffffffffffffffffffffffffffffffffffffffff168152602001908152602001600020600101819055506000600960003373ffffffffffffffffffffffffffffffffffffffff1673ffffffffffffffffffffffffffffffffffffffff16815260200190815260200160002060020160006101000a81548160ff02191690831515021790555080600160003373ffffffffffffffffffffffffffffffffffffffff1673ffffffffffffffffffffffffffffffffffffffff168152602001908152602001600020600082825403925050819055503373ffffffffffffffffffffffffffffffffffffffff167f1e9933321189dbcae2cc65270b17c79e62f3a034019f7b818aa1cafb6c6ab588838360006040518084815260200183815260200182151515158152602001935050505060405180910390a25050565b6000806000836127108162ffffff1610156134e057600660008662ffffff1662ffffff168152602001908152602001600020925060008360000160009054906101000a900473ffffffffffffffffffffffffffffffffffffffff1673ffffffffffffffffffffffffffffffffffffffff161415156133b357600080fd5b600a5434101515156133c457600080fd5b346004600082825401925050819055506064600c54600a54028115156133e657fe5b049150600b5482106133fa57600b546133fc565b815b600a60008282540192505081905550338360000160006101000a81548173ffffffffffffffffffffffffffffffffffffffff021916908373ffffffffffffffffffffffffffffffffffffffff1602179055508462ffffff167f305c27fe3ad09404aa5312767c4b7820bc3be71e957c64575b3e6fa81bc904428460000160009054906101000a900473ffffffffffffffffffffffffffffffffffffffff16604051808273ffffffffffffffffffffffffffffffffffffffff1673ffffffffffffffffffffffffffffffffffffffff16815260200191505060405180910390a2600193505b505050919050565b61014060405190810160405280600a905b60008152602001906001900390816134f95790505090565b8260028101928215613546579160200282015b82811115613545578251829060001916905591602001919060010190613524565b5b50905061355391906135c1565b5090565b60408051908101604052806002905b60008019168152602001906001900390816135665790505090565b82600a81019282156135b0579160200282015b828111156135af578251825591602001919060010190613594565b5b5090506135bd91906135e6565b5090565b6135e391905b808211156135df5760008160009055506001016135c7565b5090565b90565b61360891905b808211156136045760008160009055506001016135ec565b5090565b905600a165627a7a723058202ae65dbdb906090e3382bec10b47f39a112522702227e4ec534d38825c2696ca0029",
  "source": "pragma solidity ^0.4.2;\n\n\n/*\n- ethPrice, PPCPrice. \n\n!!!!!!!!!!!!!!!!!!!!!!!!!!!!!CHANGE TO PPC WHEN I GET PACK\n*/\n\ncontract Token {\n    uint256 public totalSupply;\n    function balanceOf(address _owner) public constant returns (uint256 balance);\n    function transfer(address _to, uint256 _value) public returns (bool success);\n    function transferFrom(address _from, address _to, uint256 _value) public returns (bool success);\n    function approve(address _spender, uint256 _value) public returns (bool success);\n    function allowance(address _owner, address _spender) public constant returns (uint256 remaining);\n    event Transfer(address indexed _from, address indexed _to, uint256 _value);\n    event Approval(address indexed _owner, address indexed _spender, uint256 _value);\n}\n/*  ERC 20 token */\ncontract StandardToken is Token {\n\n    function transfer(address _to, uint256 _value) public returns (bool success) {\n      if (balances[msg.sender] >= _value && _value > 0) {\n        balances[msg.sender] -= _value;\n        balances[_to] += _value;\n        Transfer(msg.sender, _to, _value);\n        return true;\n      } else {\n        return false;\n      }\n    }\n\n    function transferFrom(address _from, address _to, uint256 _value) public returns (bool success) {\n      if (balances[_from] >= _value && allowed[_from][msg.sender] >= _value && _value > 0) {\n        balances[_to] += _value;\n        balances[_from] -= _value;\n        allowed[_from][msg.sender] -= _value;\n        Transfer(_from, _to, _value);\n        return true;\n      } else {\n        return false;\n      }\n    }\n\n    function balanceOf(address _owner) public constant returns (uint256 balance) {\n        return balances[_owner];\n    }\n\n    function approve(address _spender, uint256 _value) public returns (bool success) {\n        allowed[msg.sender][_spender] = _value;\n        Approval(msg.sender, _spender, _value);\n        return true;\n    }\n\n    function allowance(address _owner, address _spender) public constant returns (uint256 remaining) {\n      return allowed[_owner][_spender];\n    }\n\n    mapping (address => uint256) balances;\n    mapping (address => mapping (address => uint256)) allowed;\n}\n\ncontract VirtualRealEstate is StandardToken {\n    address owner;\n    uint256 ownerEth = 0;\n    \n    uint256 pixelPot;\n    \n    //Mapping of propertyID to property\n    mapping (uint24 => Property) map;\n    //propertyOwner to link\n    mapping (address => bytes32[2]) ownerLink;\n    //propertyRenter to link\n    mapping (address => bytes32[2]) ownerHoverText;\n    //trade offers\n    mapping (address => TradeOffer) ppcTradeStatus;\n    \n    uint256 priceETH;\n    uint256 PRICE_ETH_MIN_INCREASE = 1000;//10000000000000000000000; //0.0001 ETH\n    uint256 PRICE_ETH_MIN_PERCENT = 20; //0.0001 ETH\n    uint256 pricePPC;\n    uint256 PRICE_PPC_MIN_INCREASE = 10;\n    uint256 PRICE_PPC_MIN_PERCENT = 20;\n    \n    uint256 USER_BUY_CUT_PERCENT = 98; //%\n    \n    uint256 PROPERTY_GENERATES_PER_HOUR = 2;\n    uint256 FREE_COLOR_SETTING_UNTIL;\n    \n    event PropertyColorUpdate(uint24 indexed property, uint256[10] colors, uint256 lastUpdate, address lastUpdaterPayee);\n    event PropertyColorUpdatePixel(uint24 indexed property, uint8 row, uint24 rgb);\n    event PropertyBought(uint24 indexed property,  address newOwner);\n    event SetUserHoverText(address indexed user, bytes32[2] newHoverText);\n    event SetUserSetLink(address indexed user, bytes32[2] newLink);\n    event PropertySetForSale(uint24 indexed property);\n    event DelistProperty(uint24 indexed property);\n    event ListTradeOffer(address indexed offerOwner, uint256 eth, uint256 ppc, bool isBuyingPPC);\n    event AcceptTradeOffer(address indexed accepter, address indexed offerOwner);\n    event CancelTradeOffer(address indexed offerOwner);\n    event SetPropertyPublic(uint24 indexed property);\n    event SetPropertyPrivate(uint24 indexed property, uint32 numHoursPrivate);\n    \n    struct TradeOffer {\n        uint256 eth;\n        uint256 ppc;\n        bool buyingPPC;\n    }\n    \n    struct Property {\n        address owner;\n        uint256[10] colors; //10x10 rgb pixel colors per property\n        uint256 salePrice;\n        address lastUpdater;\n        bool isInPrivateMode;\n        uint256 lastUpdate;\n        uint256 becomePublic;\n    }\n    \n    modifier ownerOnly() {\n        require(owner == msg.sender);\n        _;\n    }\n    \n    modifier validPropertyID(uint24 propertyID) {\n        if (propertyID < 10000) {\n            _;\n        }\n    }\n    \n    function VirtualRealEstate() public {\n        owner = msg.sender;\n        totalSupply = 0;\n        FREE_COLOR_SETTING_UNTIL = now + 1 days;\n        pricePPC = 10;\n        priceETH = 10000;//1000000000000000000; //0.001 ETH\n    }\n    function setHoverText(bytes32[2] text) public {\n        ownerHoverText[msg.sender] = text;\n        SetUserHoverText(msg.sender, text);\n    }\n    function setLink(bytes32[2] link) public {\n        ownerLink[msg.sender] = link;\n        SetUserSetLink(msg.sender, link);\n    }\n    function getForSalePrices(uint24 propertyID) public validPropertyID(propertyID) view returns(uint256, uint256) {\n        Property storage property = map[propertyID];\n        if (property.owner == 0) {\n            return (priceETH, pricePPC);\n        } else {\n            return (0, property.salePrice);\n        }\n    }\n    \n    function getHoverText(uint24 propertyID) public validPropertyID(propertyID) view returns(bytes32[2]) {\n        Property storage property = map[propertyID];\n        \n        //Must have a owner or renter, and that owner/renter must have a short or long hover text\n        if (property.isInPrivateMode) {\n            require(property.owner != 0);\n            return ownerHoverText[property.owner];\n        } else {\n            require(property.lastUpdater != 0);\n            return ownerHoverText[property.lastUpdater];\n        }\n    }\n    \n    function getLink(uint24 propertyID) public validPropertyID(propertyID) view returns(bytes32[2]) {\n        Property storage property = map[propertyID];\n        \n        //Must have a owner or renter, and that owner/renter must have a short or long hover text\n        if (property.isInPrivateMode) {\n            require(property.owner != 0);\n            return ownerLink[property.owner];\n        } else {\n            require(property.lastUpdater != 0);\n            return ownerLink[property.lastUpdater];\n        }\n    }\n    \n    function getPropertyColors(uint24 propertyID) public validPropertyID(propertyID) view returns(uint256[10]) {\n        return map[propertyID].colors;\n    }\n    \n    function getPropertyData(uint24 propertyID) public validPropertyID(propertyID) view returns(address, uint256, uint256, bool) {\n        Property storage property = map[propertyID];\n        return (property.owner, property.salePrice, property.lastUpdate, property.isInPrivateMode);\n    }\n    //Change a 10x10 == 70 | 30 | 0 cost\n    function setColors(uint24 propertyID, uint256[10] newColors) public validPropertyID(propertyID) returns(bool) {\n        Property storage property = map[propertyID];\n        \n        //Cost 2 if no owner, 1 if owned\n        uint256 cost = property.owner != 0 ? 1 : 2;\n        \n        //If it's in private mode, we must be the owner, but it's free\n        if (property.isInPrivateMode) {\n            //If it's still privately owned\n            if (property.becomePublic > now) {\n                require(msg.sender == property.owner);\n                cost = 0;\n            }\n            //No long erin private mode, ran out\n            else {\n                property.isInPrivateMode = false;\n                property.becomePublic = 0;\n            }\n        } \n        //If we're in the first few days, setting the color is free\n        else if (now <= FREE_COLOR_SETTING_UNTIL) {\n            cost = 0;\n        }\n        \n        require(balances[msg.sender] >= cost);\n        \n        //If we're in Public Mode, payouts occur\n        \n        if (!property.isInPrivateMode && property.lastUpdate != 0) {\n            uint256 hoursSinceLastColorChange = (now - property.lastUpdate) / (5 seconds); //ERRORs on property.lastUpdate = 0\n            uint256 payout = hoursSinceLastColorChange * PROPERTY_GENERATES_PER_HOUR;\n    \n            if (payout > 0) {\n                address propertyOwnerPayee = property.owner;\n                address lastUpdaterPayee = property.lastUpdater;\n                if (propertyOwnerPayee == 0) {\n                    if (lastUpdaterPayee != 0) {\n                        propertyOwnerPayee = lastUpdaterPayee;\n                    }\n                }\n                //Payout half to ownerPayee and half to updaterPayee\n                if (propertyOwnerPayee != 0) {\n                    balances[propertyOwnerPayee] += payout / 2;\n                }\n                if (lastUpdaterPayee != 0) {\n                    balances[lastUpdaterPayee] += payout / 2;\n                }\n                totalSupply += payout;\n            }\n        }\n        \n        //Burn the coins from the sender\n        balances[msg.sender] -= cost; //Burn the coin to set the color\n        \n        property.colors = newColors;\n        property.lastUpdater = msg.sender;\n        property.lastUpdate = now;\n        uint256 timeUpdate = now;\n        \n        PropertyColorUpdate(propertyID, newColors, timeUpdate, lastUpdaterPayee);\n        \n        return true;\n    }\n    function setPropertyMode(uint24 propertyID, bool isInPrivateMode, uint32 numHoursPrivate) public validPropertyID(propertyID) {\n        Property storage property = map[propertyID];\n        require(msg.sender == property.owner);\n        if (isInPrivateMode) {\n            require(numHoursPrivate > 0);\n            require(balances[msg.sender] >= numHoursPrivate);\n            balances[msg.sender] -= numHoursPrivate;\n            property.becomePublic = now + (1 seconds) * numHoursPrivate; //TODO: seconds to hours\n        } else {\n            property.becomePublic = 0;\n        }\n        property.isInPrivateMode = isInPrivateMode;\n        \n        if (isInPrivateMode) {\n            SetPropertyPrivate(propertyID, numHoursPrivate);\n        } else {\n            SetPropertyPublic(propertyID);\n        }\n    }\n    function setBuyETHOffer(uint256 ethToBuy, uint256 offeredPPC) public {\n        //Require we have the ppc to offer\n        require(balances[msg.sender] >= offeredPPC);\n        require(ethToBuy > 0 && offeredPPC > 0);\n        \n        //Cancel old TradeOffer if present\n        cancelTradeOffer();\n        \n        //Set Offer\n        ppcTradeStatus[msg.sender].eth = ethToBuy;\n        ppcTradeStatus[msg.sender].ppc = offeredPPC;\n        ppcTradeStatus[msg.sender].buyingPPC = false;\n        \n        //Lose offered ppc\n        balances[msg.sender] -= offeredPPC;\n        \n        ListTradeOffer(msg.sender, ethToBuy, offeredPPC, false);\n    }\n    \n    function getTradeOffer(address offerOwner) public view returns(uint256, uint256, bool) {\n        TradeOffer storage tradeOffer = ppcTradeStatus[offerOwner];\n        return (tradeOffer.eth, tradeOffer.ppc, tradeOffer.buyingPPC);\n    }\n    function setBuyPPCOffer(uint256 ppcToBuy, uint256 offeredEth) public payable {\n        //Require we have the eth to offer\n        require(msg.value >= offeredEth);\n        require(ppcToBuy > 0 && offeredEth > 0);\n        \n        //Cancel old TradeOffer if present\n        cancelTradeOffer();\n        \n        //Set Offer\n        TradeOffer storage tradeOffer = ppcTradeStatus[msg.sender];\n        tradeOffer.ppc = ppcToBuy;\n        tradeOffer.eth = offeredEth;\n        tradeOffer.buyingPPC = true;\n        \n        ListTradeOffer(msg.sender, offeredEth, ppcToBuy, true);\n    }\n    function cancelTradeOffer() public {\n        TradeOffer storage tradeOffer = ppcTradeStatus[msg.sender];\n        //If we have a trade offer\n        if (tradeOffer.eth > 0 || tradeOffer.ppc > 0) {\n            //We already deposited ETH. Return it back\n            if (tradeOffer.buyingPPC) {\n                msg.sender.transfer(tradeOffer.eth);\n            }\n            //We already deposited PPC. Return it back\n            else {\n                balances[msg.sender] += tradeOffer.ppc;\n            }\n            CancelTradeOffer(msg.sender);\n            tradeOffer.eth = 0;\n            tradeOffer.ppc = 0;\n        }\n    }\n    function acceptOfferBuyingETH(address ownerOfTradeOffer) public payable {\n        TradeOffer storage tradeOffer = ppcTradeStatus[ownerOfTradeOffer];\n        //Make sure the accepter has enough to justify accepting\n        require(tradeOffer.eth <= msg.value);\n        require(ownerOfTradeOffer != 0);\n        \n        //Give them our money. We are deposited it by this being \"payable\"\n        ownerOfTradeOffer.transfer(msg.value);\n        \n        //Take their money. They already deposited their coins\n        balances[msg.sender] += tradeOffer.ppc;\n        \n        //Clear trade offer\n        tradeOffer.eth = 0;\n        tradeOffer.ppc = 0;\n        \n        AcceptTradeOffer(msg.sender, ownerOfTradeOffer);\n    }\n    function acceptOfferBuyingPPC(address ownerOfTradeOffer) public {\n        TradeOffer storage tradeOffer = ppcTradeStatus[ownerOfTradeOffer];\n        //Make sure the accepter has enough to justify accepting\n        require(tradeOffer.ppc <= balances[msg.sender]);\n        require(ownerOfTradeOffer != 0);\n        \n        //Give them our money\n        balances[ownerOfTradeOffer] += tradeOffer.ppc;\n        balances[msg.sender] -= tradeOffer.ppc;\n        \n        //Take their money. They already deposited ETH\n        msg.sender.transfer(tradeOffer.eth);\n        \n        //Clear trade offer\n        tradeOffer.eth = 0;\n        tradeOffer.ppc = 0;\n        \n        AcceptTradeOffer(msg.sender, ownerOfTradeOffer);\n    }\n    \n    //Change pixel or 10x1 costs 7 | 3 | 0\n    function setRowColors(uint24 propertyID, uint8 row, uint24 newColorData) public validPropertyID(propertyID) returns(bool) {\n        Property storage property = map[propertyID];\n        \n        require(row >= 0 && row <= 9);\n        \n        uint256 cost = property.owner != 0 ? 1 : 2;\n        \n        if (property.isInPrivateMode) {\n                require(msg.sender == property.owner);\n                cost = 0;\n        } \n        \n        require(balances[msg.sender] >= cost);\n        \n        balances[msg.sender] -= cost; //Burn the coin to set the color\n        \n        property.colors[row] = newColorData;\n        property.lastUpdater = msg.sender;\n        PropertyColorUpdatePixel(propertyID, row, newColorData);\n        \n        return true;\n    }\n    \n    function transferProperty(uint24 propertyID, address newOwner) public validPropertyID(propertyID) returns(bool) {\n        Property storage property = map[propertyID];\n        \n        require(property.owner == msg.sender);\n        require(newOwner != 0);\n        \n        property.owner = newOwner;\n        \n        return true;\n    }\n    function buyPropertyInPPC(uint24 propertyID, uint256 ppcValue) public validPropertyID(propertyID) returns(bool) {\n        Property storage property = map[propertyID];\n        \n        //If they have no owner, do the PPC price and update it\n        if (property.owner == 0) {\n            property.salePrice = pricePPC;\n            property.owner = owner;\n            uint256 minPercent = pricePPC * PRICE_PPC_MIN_PERCENT / 100;\n            pricePPC += (minPercent < PRICE_PPC_MIN_INCREASE) ? minPercent : PRICE_PPC_MIN_INCREASE;\n        }\n        \n        require(property.salePrice <= ppcValue);\n        require(balances[msg.sender] >= property.salePrice);\n        \n        uint256 amountTransfered = 0;\n        amountTransfered = property.salePrice * USER_BUY_CUT_PERCENT / 100;\n        \n        balances[property.owner] += amountTransfered;\n        balances[owner] += ppcValue - amountTransfered;\n        \n        property.salePrice = 0;\n        property.owner = msg.sender;\n        property.isInPrivateMode = false;\n        \n        PropertyBought(propertyID, property.owner);\n        \n        return true;\n    }\n    //Use Case: Buyer wants to buy a property.\n    function buyPropertyInETH(uint24 propertyID) public validPropertyID(propertyID) payable returns(bool) {\n        Property storage property = map[propertyID];\n        \n        require(property.owner == 0);\n        require(msg.value >= priceETH);\n        \n        ownerEth += msg.value;\n    \n        uint256 minPercent = priceETH * PRICE_ETH_MIN_PERCENT / 100;\n        priceETH += (minPercent < PRICE_ETH_MIN_INCREASE) ? minPercent : PRICE_ETH_MIN_INCREASE;\n        \n        property.owner = msg.sender;\n        \n        PropertyBought(propertyID, property.owner);\n        \n        return true;\n    }\n    \n    //Use Case: Owner of a property lists for sale at a given price\n    function listForSale(uint24 propertyID, uint128 price ) public validPropertyID(propertyID) returns(bool) {\n        Property storage property = map[propertyID];\n      \n        require(price != 0);\n      \n        require(msg.sender == property.owner); //Must be the owner\n        //You can listForSale an already listed item to update the listing\n        property.salePrice = price;\n        \n        PropertySetForSale(propertyID);\n        \n        return true;\n    }\n    \n    //Use Case: Owner of a property delists from both renting offer and sale offer\n    function delist(uint24 propertyID) public validPropertyID(propertyID) returns(bool) {\n        Property storage property = map[propertyID];\n        \n        require(msg.sender == property.owner); //Must be the owner\n        \n        property.salePrice = 0;\n        \n        DelistProperty(propertyID);\n        \n        return true;\n    }\n    \n    //////////////////////////////////////////////////////\n    ////Owner Sections: Meta-Functions For Owner only/////\n    //////////////////////////////////////////////////////\n    function withdraw(uint256 amount) public ownerOnly() {\n        if (amount <= ownerEth) {\n            owner.transfer(amount);\n        }\n    }\n    \n    function withdrawAll() public ownerOnly() {\n        owner.transfer(ownerEth);\n    }\n    \n    function changeOwners(address newOwner) public ownerOnly() {\n        owner = newOwner;\n    }\n    \n    ////////////////////////////////////////////////\n    ///TODO: TESTING ONLY: REMOVE BEFORE RELEASE:///\n    ////////////////////////////////////////////////\n    function addCoin(address user, uint256 amount) public ownerOnly() {\n        balances[user] += amount;\n    }\n    //setPropertyMode ->seconds to hours\n    //setColors -> 5 seconds to 1 hour\n    //FREE_COLOR_SETTING_UNTIL in constructor needs to be changed to have the +1 days\n}",
  "sourcePath": "/Volumes/Lexar/DATA/PixelRealEstate/PixelRealEstate/contracts/VirtualRealEstate.sol",
  "compiler": {
    "name": "solc",
    "version": "0.4.18+commit.9cf6e910.Emscripten.clang"
  },
  "schemaVersion": "1.0.1",
  "updatedAt": "2018-01-30T23:18:15.292Z"
}